:100000000C94B5010C94E6010C94E6010C94E60105
:100010000C94E6010C94E6010C94E6010C94E601C4
:100020000C94E6010C94E6010C94E6010C94E601B4
:100030000C94E6010C94E6010C94E6010C94E601A4
:100040000C94E6010C94E6010C94E6010C94E60194
:100050000C94E6010C94E6010C94E6010C94C6069F
:100060000C94E6010C943A070C9410070C94E601EA
:100070000C94E6010C94E6010C94E6010C94E60164
:100080000C94E6010C94E6010C94E6010C94E60154
:100090000C94E6010C94E6010C94E6010C94E60144
:1000A0000C94E6010C94E6010C94E6010C94E60134
:1000B0000C94E6010C94E6010C94E6010C94E60124
:1000C0000C94E6010C94E6010C94E6010C94E60114
:1000D0000C94E6010C94E6010C94E6010C94E60104
:1000E0000C94E6010C9406050C9463020C944705ED
:1000F0000C9444050C945E030C944E050C9475020C
:100100000C94B2030C945D020C9445050C948D0282
:100110000C944F030C9472030C9489020C94700796
:100120000C9422030C944E020C9456020C94370249
:100130000C947B020C9471020C945A020C943704B8
:100140000C9483020C943C020C9449050C944D05CC
:100150000C946D020C9452020C9467020C94EA0306
:100160000C944B050C947F0200407A10F35A00A0C7
:10017000724E18090010A5D4E80000E87648170070
:1001800000E40B54020000CA9A3B000000E1F505B0
:10019000000080969800000040420F000000A086FA
:1001A00001000000102700000000E803000000002C
:1001B0006400000000000A000000000001000000D0
:1001C00000002C76D888DC674F0823DFC1DFAE59EA
:1001D000E1B1B796E5E3E453C63AE651997696E87D
:1001E000E6C28426EB898C9B62ED407C6FFCEFBC01
:1001F0009C9F40F2BAA56FA5F490055A2AF75C932C
:100200006B6CF9676DC11BFCE0E40D47FEF520E661
:10021000B500D0ED902E0300943577050080841E44
:10022000080000204E0A000000C80C333333330F9F
:10023000986E12831141EF8D2114893BE65516CF3C
:10024000FEE6DB18D1844B381BF77C1D901DA4BB48
:10025000E424203284725E228100C9F124ECA1E5FD
:100260003D2700000A0B02090C0D0E0807030401CC
:10027000000000000000000000000000000000007E
:10028000000000000000000000000000000012114B
:10029000100000000000000000000000000000004E
:1002A00000000000000000000000220025002800DF
:1002B0002B002E003100340002010000050108016E
:1002C0000B0100002100240027002A002D0030002F
:1002D000330001010000040107010A0105050505BD
:1002E000070508080808020202020A0A08080404AE
:1002F00004040101010101010101030303030303DC
:100300000303040707070C0C0C0C0C0C0C0C02026A
:10031000020206060606060606060B0B0B0B0B0B67
:100320000B0B0102102020080810204010204080F4
:1003300002010201080402010102040810204080A9
:100340008040201008040201800402018040201037
:100350000804020108040201010204081020408080
:100360000102040810204080700711241FBECFEF47
:10037000D1E2DEBFCDBF00E00CBF23E0A6E4B2E0D7
:1003800001C01D92A431B207E1F712E0A0E0B2E093
:10039000E4EFF4E200E00BBF02C007900D92A63438
:1003A000B107D9F711E0C5EBD1E000E006C0219715
:1003B0000109802FFE010E94400FC43BD10780E05D
:1003C0000807A9F70E94F9070C9478120C94000012
:1003D00090E0FC01EE5DFC4F249184529D4FFC01A6
:1003E0008491882399F090E0880F991FFC01EE53C7
:1003F000FD4FA591B491FC01E855FD4F8591949175
:100400008FB7F894EC91E22BEC938FBF0895282FCF
:1004100030E0F901EE59FD4F9491F901EE5DFC4F8A
:10042000449124523D4FF9012491222309F435C00F
:10043000992311F191509231F8F4E92FF0E08827D7
:10044000EB5DFD4F8F4F0C94400F56025A0237025E
:100450004E0252023C025D02630267026D027102AB
:1004600075027B027F023C02830289028D02809129
:1004700080008F7780938000E22FF0E0EE0FFF1F67
:10048000E855FD4FA591B4918FB7F894EC916111A7
:1004900048C040954E234C938FBF089580918000B3
:1004A0008F7DE8CF80918000877FE4CF84B58F7700
:1004B00084BDE2CF84B58F7DFBCF8091B0008F7774
:1004C0008093B000D9CF8091B0008F7DF9CF80911B
:1004D00090008F7780939000CFCF809190008F7D98
:1004E000F9CF80919000877FF5CF8091A0008F7722
:1004F0008093A000C1CF8091A0008F7DF9CF809123
:10050000A000877FF5CF809120018F778093200115
:10051000B3CF809120018F7DF9CF80912001877F1B
:10052000F5CF4E2BB8CFCF93DF9360E08CE00E94E5
:10053000070260E088E00E940702C7E0D0E060E0C8
:1005400084E00E9407028091020390E00C2E02C01A
:10055000959587950A94E2F761E080FF60E088E076
:100560000E94070261E084E00E940702219738F7A9
:1005700061E08CE0DF91CF910C9407023FB7F894D3
:100580008091610290916202A0916302B091640235
:1005900026B5A89B05C02F3F19F00196A11DB11DDE
:1005A0003FBFBA2FA92F982F8827BC01CD01620F1A
:1005B000711D811D911D42E0660F771F881F991FD5
:1005C0004A95D1F708958F929F92AF92BF92CF92A2
:1005D000DF92EF92FF926B017C010E94BE024B0101
:1005E0005C01C114D104E104F104B9F00E94BE021F
:1005F000681979098A099B09683E7340810591054C
:1006000080F321E0C21AD108E108F10888EE880ED3
:1006100083E0981EA11CB11CE4CFFF90EF90DF9007
:10062000CF90BF90AF909F908F9008952FB7F89480
:1006300060915D0270915E0280915F029091600214
:100640002FBF0895AF92BF92CF92DF92EF92FF92A9
:100650000F931F93CF93DF936C017B018B01040FEA
:10066000151FEB015E01AE18BF08C017D10759F086
:100670006991D601ED91FC910190F081E02DC601C8
:100680001995892B79F7C501DF91CF911F910F91B2
:10069000FF90EF90DF90CF90BF90AF900895FC0156
:1006A000538D448D252F30E0842F90E0821B930BD7
:1006B000541710F0CF96089501970895FC01918D7D
:1006C000828D981761F0A28DAE0FBF2FB11D5D9680
:1006D0008C91928D9F5F9F73928F90E008958FEF22
:1006E0009FEF0895FC01918D828D981731F0828DD6
:1006F000E80FF11D858D90E008958FEF9FEF08952D
:100700000F931F930E94160360936D0270936E0205
:1007100080936F029093700285E692E00E947203CC
:1007200097FF1DC00E94160300916D0210916E028A
:1007300020916F0230917002601B710B820B930B42
:100740000091690210916A0220916B0230916C0253
:100750006017710782079307F8F28FEF9FEF1F91E1
:100760000F910895FC01918D228D892F90E0805C7E
:100770009F4F821B91098F739927089585E692E018
:100780000E94B20321E0892B09F420E0822F089512
:10079000FC01A48DA80FB92FB11DA35ABF4F2C91F6
:1007A000848D90E001968F739927848FA689B789ED
:1007B0002C93A089B1898C91837080648C93938DE4
:1007C000848D981306C00288F389E02D80818F7D87
:1007D00080830895EF92FF920F931F93CF93DF933F
:1007E000EC0181E0888F9B8D8C8D98131AC0E8896D
:1007F000F989808185FF15C09FB7F894EE89FF893C
:100800006083E889F98980818370806480839FBFD9
:1008100081E090E0DF91CF911F910F91FF90EF90D9
:100820000895F62E0B8D10E00F5F1F4F0F731127E9
:10083000E02E8C8D8E110CC00FB607FCFACFE88924
:10084000F989808185FFF5CFCE010E94C803F1CFE1
:10085000EB8DEC0FFD2FF11DE35AFF4FF0829FB798
:10086000F8940B8FEA89FB8980818062CFCFCF9388
:10087000DF93EC01888D8823B9F0AA89BB89E889C8
:10088000F9898C9185FD03C0808186FD0DC00FB66E
:1008900007FCF7CF8C9185FFF2CF808185FFEDCFEC
:1008A000CE010E94C803E9CFDF91CF91089580E087
:1008B00090E0892B29F00E94BE0381110E94000064
:1008C00080E090E0892B49F080E090E0892B29F0CE
:1008D0000E94000081110E94000080E090E0892BBE
:1008E00049F080E090E0892B29F00E9400008111FE
:1008F0000E94000080E090E0892B49F080E090E0C9
:10090000892B29F00E94000081110C9400000895A9
:100910008F929F92AF92BF92CF92DF92EF92FF920F
:100920000F931F93CF93DF938C0160910703709116
:1009300008038091090390910A0328EE33E040E018
:1009400050E00E941E0F69017A014B015C01CFEF5C
:10095000D0E00150110908F4A3C090910603913032
:1009600009F442C0923009F056C050E440E831E04A
:1009700020E280910F0383FF3CC0885F80930F03C8
:1009800080910F038F7380930F039130A1F5D09363
:100990008900C0938800D0939D00C0939C00722F63
:1009A000732B642F652B862F872B809590910203E4
:1009B000982390930203E0910F03F0E083E0F59514
:1009C000E7958A95E1F7E830F10518F58827E451B5
:1009D000FB4F8F4F0C94400F4E050605450544050F
:1009E000470549054B054D0550E148E032E024E05C
:1009F000C0CF805FC3CF923091F6D093A900C0934F
:100A0000A800D0939900C0939800C9CF972B9093DA
:100A100002030E949302C701B6010E94E302809183
:100A20000B0390910C03A0910D03B0910E03880D60
:100A3000991DAA1DBB1D80930B0390930C03A093DB
:100A40000D03B0930E03883E9340A105B10508F451
:100A500080CF61E070E080E090E00E94E30280914E
:100A60000B0390910C03A0910D03B0910E03885ECF
:100A70009340A109B10980930B0390930C03A093B9
:100A80000D03B0930E0365CF342B932BC0CF942B63
:100A9000BECF962BBCCF952BBACF252B922BB7CFA1
:100AA000DF91CF911F910F91FF90EF90DF90CF904A
:100AB000BF90AF909F908F90089542E050E060E229
:100AC00072E085E692E00C942203CF93DF93FC0161
:100AD000448155816081718185E692E00E94220304
:100AE000EC010E945D058C0F9D1FDF91CF91089551
:100AF000CF93DF93EC0188819981009711F00E94D8
:100B0000F910198218821D821C821B821A82DF91C1
:100B1000CF910895FC0180819181009711F00C9490
:100B2000F91008950F931F93CF93DF93EC01888101
:100B30009981009759F02A813B812617370730F0B9
:100B400081E0DF91CF911F910F9108958B016F5F2D
:100B50007F4F0E948211009759F0998388831B83ED
:100B60000A832C813D81232B59F7FC011082E8CFA9
:100B700080E0E7CFEF92FF920F931F93CF93DF9325
:100B80006115710541F480E0DF91CF911F910F91C4
:100B9000FF90EF90089541155105B1F07B01EC01F4
:100BA0000C811D81040F151FB8010E949205882336
:100BB00051F3288139818C819D81B701820F931F68
:100BC0000E9471121D830C8381E0DECFCF93DF93EF
:100BD000EC01FB0101900020E9F73197AF01461BC2
:100BE000570B0E94BA05811103C0CE010E947805FF
:100BF000CE01DF91CF910895CF93DF93EC01FB01FC
:100C000044815581608171810E94BA05811103C0C0
:100C1000CE010E947805CE01DF91CF910895EF9229
:100C2000FF920F931F93CF93DF93EC017B018A0117
:100C3000BA010E94920581110BC0CE010E94780575
:100C4000CE01DF91CF911F910F91FF90EF9008950A
:100C50001D830C83B701888199810E947112F0CFA6
:100C6000FB0101900020E9F73197AF01461B570BBC
:100C70000C940F060F931F93CF93DF93CDB7DEB77E
:100C800062970FB6F894DEBF0FBECDBF8C01CB01CB
:100C9000F8011182108213821282158214824AE0B6
:100CA000BE016F5F7F4F0E94830BBE016F5F7F4F5E
:100CB000C8010E94300662960FB6F894DEBF0FBEE0
:100CC000CDBFDF91CF911F910F9108950F931F9387
:100CD000CF93DF9300D000D000D0CDB7DEB78C012A
:100CE000862FF801118210821382128215821482DB
:100CF0004AE0BE016F5F7F4F90E00E948E0BBE0105
:100D00006F5F7F4FC8010E94300629960FB6F89496
:100D1000DEBF0FBECDBFDF91CF911F910F91089520
:100D2000EF92FF920F931F93CF93DF93CDB7DEB770
:100D3000A1970FB6F894DEBF0FBECDBF7C01CB01EB
:100D4000BA01F70111821082138212821582148275
:100D50008E010F5F1F4F22E044E00E94650B009759
:100D600089F0BC01C7010E943006A1960FB6F89425
:100D7000DEBF0FBECDBFDF91CF911F910F91FF90CE
:100D8000EF900895C7010E947805EFCF1F920F9250
:100D90000FB60F9211242F933F938F939F93AF938E
:100DA000BF9380915D0290915E02A0915F02B0912D
:100DB000600230915C0223E0230F2D3758F5019635
:100DC000A11DB11D20935C0280935D0290935E0291
:100DD000A0935F02B09360028091610290916202E1
:100DE000A0916302B09164020196A11DB11D809390
:100DF000610290936202A0936302B0936402BF9178
:100E0000AF919F918F913F912F910F900FBE0F90B7
:100E10001F90189526E8230F0296A11DB11DD2CF71
:100E20001F920F920FB60F9211240BB60F922F93B1
:100E30003F934F935F936F937F938F939F93AF9362
:100E4000BF93EF93FF9385E692E00E94C803FF9162
:100E5000EF91BF91AF919F918F917F916F915F9132
:100E60004F913F912F910F900BBE0F900FBE0F909F
:100E70001F9018951F920F920FB60F9211240BB668
:100E80000F922F938F939F93EF93FF93E0917502AF
:100E9000F09176028081E0917B02F0917C0282FDEC
:100EA0001DC0908180917E028F5F8F7320917F02A1
:100EB000821741F0E0917E02F0E0EB59FD4F958FF3
:100EC00080937E02FF91EF919F918F912F910F90D0
:100ED0000BBE0F900FBE0F901F9018958081F2CF20
:100EE0000F931F93CF93DF93E5E6F2E01382128214
:100EF00088EE93E0A0E0B0E084839583A683B78377
:100F000082E192E09183808385EC90E095878487ED
:100F100084EC90E09787868780EC90E0918B808BC3
:100F200081EC90E0938B828B82EC90E0958B848BAC
:100F300086EC90E0978B868B118E128E138E148E1A
:100F4000109203038CE00E94E80187E00E94E80110
:100F500088E00E94E80184E00E94E8011092020308
:100F60000E94930260E087E00E940702E4E0F3E061
:100F700088EC90E09183808382E0828313860E94D4
:100F8000930285E00E94E80186E00E94E80161E0AA
:100F900085E00E94070261E086E00E940702E0EA25
:100FA000F0E0808181688083C9E0C093A10008EAF5
:100FB00010E0F8011182108286E00E94E801E0E969
:100FC000F0E0808181688083C0939100C8E9D0E01F
:100FD0001982188285E00E94E8018FEF90E0F80105
:100FE0009183808399838883DF91CF911F910F91A3
:100FF0000895CF93DF93CDB7DEB7E5970FB6F8949A
:10100000DEBF0FBECDBF789484B5826084BD84B549
:10101000816084BD85B5826085BD85B5816085BDF3
:1010200080916E00816080936E00109281008091AB
:101030008100826080938100809181008160809333
:101040008100809180008160809380008091B10058
:1010500084608093B1008091B00081608093B00083
:1010600080919100826080939100809191008160D5
:101070008093910080919000816080939000809196
:10108000A10082608093A1008091A1008160809383
:10109000A1008091A00081608093A0008091210137
:1010A00082608093210180912101816080932101E0
:1010B0008091200181608093200180917A0084607A
:1010C00080937A0080917A00826080937A00809188
:1010D0007A00816080937A0080917A0080688093A2
:1010E0007A001092C100E0917502F091760282E0E0
:1010F0008083E0917102F09172021082E09173029C
:10110000F091740280E1808310927D02E091790277
:10111000F0917A0286E08083E0917702F091780284
:10112000808180618083E0917702F09178028081F4
:1011300088608083E0917702F091780280818068F6
:101140008083E0917702F091780280818F7D8083A7
:101150000E94160360934A0270934B0280934C02E4
:1011600090934D020E9416036093500270935102B7
:1011700080935202909353020E9416036093580288
:101180007093590280935A0290935B020E94160357
:1011900060934602709347028093480290934902FD
:1011A00000E4412C87E8582E83E9682E83E0782EEE
:1011B0009CE3992E28EEA22E23E0B22E8091070206
:1011C000882379F10E941603C0905802D0905902EA
:1011D000E0905A02F0905B026C197D098E099F091C
:1011E0006436710581059105E0F02091540230913B
:1011F00055028091040290910502AC01249FC00128
:10120000259F900D349F900D11240E9488040E9408
:101210001603609358027093590280935A02909378
:101220005B020E941603C0905002D0905102E090E1
:101230005202F09053026C197D098E099F096436A1
:1012400071058105910510F180917B008860809384
:101250007B0000937C0080917A00806480937A0008
:1012600080917A0086FDFCCF809178009091790082
:1012700090934F0280934E020E9416036093500297
:101280007093510280935202909353020E9416036E
:10129000C0904A02D0904B02E0904C02F0904D0278
:1012A0006C197D098E099F09693873418105910583
:1012B00008F4F5C00E9416030E94090E20E030E6F3
:1012C0004AE657E40E94B50F6B017C016091000271
:1012D0007091010280910202909103020E94090E16
:1012E00020E030E64AE657E40E94B50F9B01AC01CE
:1012F000C701B6010E94480FAB01BC01CE01429666
:101300000E9490060E9416030E94090E20E030E61B
:101310004AE657E40E94B50F6B017C0160914602DA
:101320007091470280914802909149020E94090EF3
:1013300020E030E64AE657E40E94B50F9B01AC017D
:10134000C701B6010E94480FAB01BC01CE0148960F
:101350000E94900680910402909105021F8E1E8EBD
:1013600019A218A21BA21AA24AE0BE016F5F7F4F0A
:101370000E948E0BBE016F5F7F4FCE014E960E9482
:10138000300660914E0270914F0290E080E00E9422
:10139000090E20E030E040EA5BE30E94460E20E0C8
:1013A00030E44CE956E40E94460E0E942710CE011C
:1013B00001960E943A0660910702CE0184960E942F
:1013C000660660910602CE01C0960E9466061BA6C4
:1013D0001AA61DA61CA61FA61EA668A979A9611596
:1013E000710531F04CA95DA9CE018A960E940F06C5
:1013F00063E272E0CE018A960E94E605BE016C5D52
:101400007F4F0E94FC0563E272E00E94E605BE0188
:101410006F5F7F4F0E94FC0563E272E00E94E60569
:10142000BE01625E7F4F0E94FC0563E272E00E9493
:10143000E605BE01685E7F4F0E94FC0563E272E034
:101440000E94E605BE016E5E7F4F0E94FC050E9471
:101450006505CE018A960E948A05CE01C0960E943B
:101460008A05CE0184960E948A05CE0101960E94CB
:101470008A05CE014E960E948A05CE0148960E94AA
:101480008A05CE0142960E948A050E941603609347
:101490004A0270934B0280934C0290934D0285E672
:1014A00092E00E94B203181619060CF076C085E689
:1014B00092E00E945E03182F0E948003FC0197FDBA
:1014C00077C08D32910521F0C0970A9708F068C067
:1014D000C12CD12C7601812CE130F105D9F0ED320F
:1014E000F10509F462C0CF01C0970A9798F4AAE009
:1014F000B0E0A70196010E94040F6F01FF0FEE08F4
:10150000FF08C60ED71EE81EF91E80E3C81AD108D0
:10151000E108F10885E692E00E945E030E948003E4
:10152000FC01C0970A97C0F2E130F105A9F28820CA
:1015300041F0F094E094D094C094C11CD11CE11C03
:10154000F11C1337C9F1143709F462C01D3609F0D4
:1015500078C0D0920502C0920402A0910403B09119
:101560000503A7019601442755270E94040F9B01FC
:10157000AC01C301B2010E941E0F209307033093F8
:1015800008034093090350930A0310920B0310922F
:101590000C0310920D0310920E030E9457040ECEFE
:1015A00085E692E00E945E0387CF88248394B2CFC1
:1015B000C12CD12C7601C5CFC0920702CC20A9F056
:1015C0000E9416036093000270930102809302024E
:1015D000909303022091040330910503A09104022B
:1015E000B09105020E940F0FC2CF80910603813097
:1015F00049F480910203817E809302030E9493024A
:101600000E9463128230E1F7809102038E71F4CF61
:101610009C9C90019D9C300D11242A9DC0012B9D06
:10162000900D3A9D900D1124092E000CAA0BBB0BB6
:101630008093540290935502A0935602B0935702A0
:10164000ACCF8EEF80930602B601CE0101960E94C8
:101650003A061B8A1A8A1D8A1C8A1F8A1E8A188FBC
:10166000198EBE01685E7F4FCE0142960E94300601
:10167000198E188E1B8E1A8E1D8E1C8E48E150E01E
:1016800065E272E0CE0148960E940F06BE016E5ED2
:101690007F4FCE0148960E94FC056EE372E00E94E7
:1016A000E605BE016F5F7F4F0E94FC050E94650545
:1016B000CE0148960E948A05CE0142960E948A0574
:1016C000CE0101960E948A0568CFEF920F931F9377
:1016D000CF93DF93E80134E047FD34E1042E000CA2
:1016E000550B57FF03C0519541955109E32E022F29
:1016F000242FAE010E94A80BCE01DF91CF911F9144
:101700000F91EF900895BB274A3031F4992322F4CA
:10171000BDE2909581959F4F0C948F0BBB27FB01E9
:101720005527AA27880F991FAA1FA41710F0A41BDA
:1017300083955051B9F7A05DAA3308F0A95DA19334
:10174000009779F7B111B1931192CB010C94F90D77
:101750008F929F92AF92BF92CF92DF92EF92FF92C1
:101760000F931F93CF93DF9300D000D000D0CDB75D
:10177000DEB76A01F22EB02E102FFBE3AF2EA016BB
:1017800008F41BE31F5F012F27E0AE014F5F5F4F9F
:101790000E94210DBC018981982F9970913009F424
:1017A0004EC09BE2E1FC04C09E2D9170E0FC49C05C
:1017B0005E2D5071E82FE87083FF55C084E09111D1
:1017C00001C083E0EF2DE81B8F1508F0E0E0D601A3
:1017D0008E2F20E25523C9F1992329F0D6019C933D
:1017E000C60101966C0196012D5F3F4FE2FE33C0AA
:1017F0008EE4D6018C9391E411969C9311971296E6
:101800008C93D9018E2F90E281112AC0E20FF32F21
:10181000F11D10828EEF9FEF29960FB6F894DEBF70
:101820000FBECDBFDF91CF911F910F91FF90EF9031
:10183000DF90CF90BF90AF909F908F9008959DE2E2
:10184000B7CF90E2B5CF2D9381508111FCCFCE0E52
:10185000D11CE0E0C1CF8EE6D6018C9391E6CCCFCF
:101860009D938150D1CF482F447082FF3DC084E0CA
:10187000911101C083E08F1510F4EF2DE81BD60104
:101880008E2F20E2552309F1992329F0D6019C934C
:10189000C60101966C0196012D5F3F4FE2FE1BC011
:1018A00089E4D6018C938EE411968C93119786E48B
:1018B00012968C93D9018E2F90E2882309F4A6CF3B
:1018C0009D938150FACF2D9381508111FCCFCE0E84
:1018D000D11CE0E0D9CF89E6D6018C938EE6119633
:1018E0008C93119786E6E4CF9B0177FF02C030E02E
:1018F00020E0A1E0B0E0911102C0B0E0A0E0F90169
:101900003196AE0FBF1F8B2C912CBB2009F461C008
:101910005401EFEFAE1ABE0AAA0DBB1DFA161B0644
:1019200019F014F04F2D4A1B511188C0E3FC59C027
:101930007601A42FB0E2A1114FC0C40ED11C99238F
:1019400009F45BC040E0D6011196F60190836D0169
:10195000552309F448C0012F060F9A81582F507162
:1019600084FF03C0913309F4015010160CF047C0F6
:10197000093008F008E0EEE2FE2E5B01A01AB10883
:1019800085019194819491082F3F320729F4D60163
:10199000FC92F60131966F016217730794F10217FA
:1019A00013077CF5DB01A21BB30BAA24A394B12C73
:1019B000AC0EBD1EAA0DBB1D11968C912150310994
:1019C000D601119628153905F4F0F60180836D01D2
:1019D000DBCFB12CA12CA0CFF701B1937F01A15097
:1019E000AACF9111B0CFD601942F50E302C05D93DE
:1019F00091509111FCCFC40ED11C40E0ACCF01E05E
:101A0000BACF80E3DBCF6217730731F4963388F4E3
:101A1000953311F4552369F0F6018083FD01842F7D
:101A200090E2811108C0A40FB11D1C9290E080E0EB
:101A3000F3CE81E3F1CF91938150F3CF911183CF16
:101A40008ACF283008F027E03327DA01990F311DBB
:101A500087FD916000966105710539F432602E5F53
:101A60003D9330E32A95E1F708959F3F30F08038A9
:101A70007105610509F03C5F3C5F3D93913008F0D2
:101A80008068911DDF93CF931F930F93FF92EF9286
:101A9000192F987F9695E92F96959695E90FFF2730
:101AA000EE53FE4F99273327EE24FF24A701E701C9
:101AB00005900894079428F4360FE71EF81E491F76
:101AC000511D660F771F881F991F0694A1F7059077
:101AD000079428F4E70EF81E491F561FC11D770F03
:101AE000881F991F661F0694A1F70590079428F494
:101AF000F80E491F561FC71FD11D880F991F661F5B
:101B0000771F0694A1F70590079420F4490F561FFC
:101B1000C71FD81F990F661F771F881F0694A9F744
:101B200084911095177041F0D695C79557954795B4
:101B3000F794E7941A95C1F7E8E6F1E068941590F8
:101B4000159135916591959105907FE27395E11816
:101B5000F10A430B560BC90BD009C0F7E10CF11E7B
:101B6000431F561FC91FD01D7EF4703311F48A9590
:101B7000E6CFE894015030F0080F0AF4002702176E
:101B800008F4202F2395022F7A3328F079E37D93F0
:101B90002A95E9F710C07D932A9589F606949795C2
:101BA0006795379517951794E118F10A430B560B73
:101BB000C90BD00998F023957E9173957A3308F07C
:101BC00070E37C932013B8F77E9170617D9330F0C1
:101BD000839571E37D9370E32A95E1F71124EF90EB
:101BE000FF900F911F91CF91DF91992787FD9095DD
:101BF0000895DC01FC01672F71917723E1F732979B
:101C000004C07C916D9370836291AE17BF07C8F3D7
:101C10000895E89409C097FB3EF4909580957095DF
:101C200061957F4F8F4F9F4F9923A9F0F92F96E928
:101C3000BB279395F695879577956795B795F1119D
:101C4000F8CFFAF4BB0F11F460FF1BC06F5F7F4F3A
:101C50008F4F9F4F16C0882311F096E911C077234C
:101C600021F09EE8872F762F05C0662371F096E855
:101C7000862F70E060E02AF09A95660F771F881F24
:101C8000DAF7880F9695879597F908950E94590E6F
:101C90000C94CA0E0E94BC0E38F00E94C30E20F0B5
:101CA000952311F00C94B30E0C94B90E11240C94DE
:101CB000FE0E0E94DB0E70F3959FC1F3950F50E06E
:101CC000551F629FF001729FBB27F00DB11D639FEE
:101CD000AA27F00DB11DAA1F649F6627B00DA11D94
:101CE000661F829F2227B00DA11D621F739FB00D3A
:101CF000A11D621F839FA00D611D221F749F3327AA
:101D0000A00D611D231F849F600D211D822F762F42
:101D10006A2F11249F5750409AF0F1F088234AF01F
:101D2000EE0FFF1FBB1F661F771F881F915050408B
:101D3000A9F79E3F510580F00C94B30E0C94FE0E53
:101D40005F3FE4F3983ED4F3869577956795B79512
:101D5000F795E7959F5FC1F7FE2B880F911D96952C
:101D6000879597F9089597F99F6780E870E060E09C
:101D700008959FEF80EC089500240A941616170624
:101D800018060906089500240A941216130614066C
:101D900005060895092E0394000C11F4882352F0CF
:101DA000BB0F40F4BF2B11F460FF04C06F5F7F4F87
:101DB0008F4F9F4F089557FD9058440F551F59F06E
:101DC0005F3F71F04795880F97FB991F61F09F3F28
:101DD00079F087950895121613061406551FF2CF51
:101DE0004695F1DF08C0161617061806991FF1CFA1
:101DF00086957105610508940895E894BB276627C8
:101E00007727CB0197F908950E940F0FA59F900D9A
:101E1000B49F900DA49F800D911D11240895A29F41
:101E2000B001B39FC001A39F700D811D1124911DAE
:101E3000B29F700D811D1124911D0895A1E21A2EEB
:101E4000AA1BBB1BFD010DC0AA1FBB1FEE1FFF1F5E
:101E5000A217B307E407F50720F0A21BB30BE40BAE
:101E6000F50B661F771F881F991F1A9469F76095F5
:101E70007095809590959B01AC01BD01CF010895AF
:101E8000EE0FFF1F881F8BBF0790F691E02D19946E
:101E90005058BB27AA270E94600F0C94CA0E0E94BC
:101EA000BC0E38F00E94C30E20F039F49F3F19F4A5
:101EB00026F40C94B90E0EF4E095E7FB0C94B30EE7
:101EC000E92F0E94DB0E58F3BA17620773078407E5
:101ED000950720F079F4A6F50C94FD0E0EF4E0952C
:101EE0000B2EBA2FA02D0B01B90190010C01CA01D4
:101EF000A0011124FF27591B99F0593F50F4503E7F
:101F000068F11A16F040A22F232F342F4427585F70
:101F1000F3CF469537952795A795F0405395C9F788
:101F20007EF41F16BA0B620B730B840BBAF0915040
:101F3000A1F0FF0FBB1F661F771F881FC2F70EC0DF
:101F4000BA0F621F731F841F48F4879577956795B2
:101F5000B795F7959E3F08F0B0CF9395880F08F09E
:101F60009927EE0F9795879508950E94C90F0C94B5
:101F7000CA0E0E94C30E58F00E94BC0E40F029F415
:101F80005F3F29F00C94B30E51110C94FE0E0C948B
:101F9000B90E0E94DB0E68F39923B1F3552391F338
:101FA000951B550BBB27AA2762177307840738F0C8
:101FB0009F5F5F4F220F331F441FAA1FA9F335D025
:101FC0000E2E3AF0E0E832D091505040E695001CD9
:101FD000CAF72BD0FE2F29D0660F771F881FBB1F93
:101FE000261737074807AB07B0E809F0BB0B802D71
:101FF000BF01FF2793585F4F3AF09E3F510578F09D
:102000000C94B30E0C94FE0E5F3FE4F3983ED4F3B1
:10201000869577956795B795F7959F5FC9F7880F70
:10202000911D9695879597F90895E1E0660F771FC2
:10203000881FBB1F621773078407BA0720F0621B53
:10204000730B840BBA0BEE1F88F7E09508950E947E
:102050002E106894B1110C94FE0E08950E94E30EA8
:1020600088F09F5798F0B92F9927B751B0F0E1F059
:10207000660F771F881F991F1AF0BA95C9F714C009
:10208000B13091F00E94FD0EB1E008950C94FD0E68
:10209000672F782F8827B85F39F0B93FCCF3869542
:1020A00077956795B395D9F73EF49095809570959F
:1020B00061957F4F8F4F9F4F08950F931F93CF933D
:1020C000DF938230910510F482E090E0E0911203FA
:1020D000F091130330E020E0B0E0A0E0309799F4F5
:1020E0002115310509F44AC0281B390B243031056C
:1020F000D8F58A819B816115710589F1FB01938374
:102100008283FE0111C040815181028113814817F1
:102110005907E0F04817590799F4109761F01296A3
:102120000C93129713961C933296CF01DF91CF91A7
:102130001F910F9108950093120310931303F4CF8E
:102140002115310551F04217530738F0A901DB0181
:102150009A01BD01DF01F801C1CFEF01F9CF9093E2
:10216000130380931203CDCFFE01E20FF31F81937F
:1021700091932250310939832883D7CF20911003BE
:1021800030911103232B41F420910A0230910B026C
:10219000309311032093100320910802309109021B
:1021A0002115310541F42DB73EB740910C025091F5
:1021B0000D02241B350BE0911003F0911103E2177F
:1021C000F307A0F42E1B3F0B2817390778F0AC015A
:1021D0004E5F5F4F2417350748F04E0F5F1F509337
:1021E000110340931003819391939FCFF0E0E0E0BF
:1021F0009CCFCF93DF930097E9F0FC0132971382D5
:102200001282A0911203B0911303ED0130E020E09F
:102210001097A1F420813181820F931F2091100328
:10222000309111032817390709F061C0F0931103A9
:10223000E0931003DF91CF910895EA01CE17DF07F5
:10224000E8F54A815B819E0141155105B1F7E9012D
:10225000FB83EA8349915991C40FD51FEC17FD0701
:1022600061F4808191810296840F951FE901998321
:102270008883828193819B838A83F0E0E0E01296D9
:102280008D919C9113970097B9F52D913C911197E1
:10229000CD010296820F931F2091100330911103FC
:1022A0002817390739F6309751F510921303109219
:1022B0001203B0931103A0931003BCCFD383C28346
:1022C00040815181840F951FC817D90761F44E5F73
:1022D0005F4F88819981480F591F518340838A81BC
:1022E0009B81938382832115310509F0B0CFF09350
:1022F0001303E09312039ECFFD01DC01C0CF1382D4
:102300001282D7CF4F925F926F927F928F929F925D
:10231000AF92BF92CF92DF92EF92FF920F931F93F3
:10232000CF93DF938C01009799F4CB01DF91CF918C
:102330001F910F91FF90EF90DF90CF90BF90AF90E3
:102340009F908F907F906F905F904F900C945D1056
:10235000FC01E60FF71F9C0122503109E217F30739
:1023600008F4AEC0D901CD91DC911197C617D707FB
:1023700020F1C530D10578F0CE0104978617970774
:1023800050F0C61BD70B2297C193D1936D937C93CA
:10239000CF010E94F910C801DF91CF911F910F91D9
:1023A000FF90EF90DF90CF90BF90AF909F908F9075
:1023B0007F906F905F904F9008955B01AC1ABD0ABB
:1023C0004C018C0E9D1EA0911203B0911303512C51
:1023D000412CF12CE12C109731F580911003909154
:1023E00011038815990509F05CC04616570608F0D8
:1023F00058C08091080290910902009741F48DB76E
:102400009EB740910C0250910D02841B950BE8176A
:10241000F90708F055C0F0931103E0931003F90198
:1024200071836083B8CF8D919C91119712966C90B7
:10243000129713967C901397A815B90559F56C015E
:1024400042E0C40ED11CCA14DB0420F1AC014A19CD
:102450005B09DA011296159780F0628273825183CC
:102460004083D9016D937C93E114F10471F0D7019D
:102470001396FC93EE9312978ECF22968C0F9D1F8E
:10248000F90191838083F301EFCFF0931303E0937D
:10249000120381CF4816590608F42C017D01D3019F
:1024A0009ACFCB010E945D107C01009749F0AE01EC
:1024B000B8010E946812C8010E94F91087016BCF11
:1024C00010E000E068CF81E090E0F8940C9478127E
:1024D000FB01DC0102C001900D9241505040D8F741
:1024E0000895FB01DC0101900D920020E1F70895B1
:0424F000F894FFCF8E
:1024F400640000000A0001000000140380000000D2
:102504000000EA0322034F033704B2035E0372039D
:102514000D0A002C002D322C2057726F6E67206D2F
:1025240065737361676521206B65793A20002C20FF
:0625340076616C3A200004
:00000001FF
