:100000000C94DA000C9402010C9402010C9402018D
:100010000C9402010C9402010C9402010C94020154
:100020000C9402010C9402010C9402010C94020144
:100030000C9402010C9402010C9402010C94020134
:100040000C94E2040C9402010C9452050C942C05BF
:100050000C9402010C9402010C9402010C94020114
:100060000C9402010C94020100407A10F35A00A093
:10007000724E18090010A5D4E80000E87648170071
:1000800000E40B54020000CA9A3B000000E1F505B1
:10009000000080969800000040420F000000A086FB
:1000A00001000000102700000000E803000000002D
:1000B0006400000000000A000000000001000000D1
:1000C00000002C76D888DC674F0823DFC1DFAE59EB
:1000D000E1B1B796E5E3E453C63AE651997696E87E
:1000E000E6C28426EB898C9B62ED407C6FFCEFBC02
:1000F0009C9F40F2BAA56FA5F490055A2AF75C932D
:100100006B6CF9676DC11BFCE0E40D47FEF520E662
:10011000B500D0ED902E0300943577050080841E45
:10012000080000204E0A000000C80C333333330FA0
:10013000986E12831141EF8D2114893BE65516CF3D
:10014000FEE6DB18D1844B381BF77C1D901DA4BB49
:10015000E424203284725E228100C9F124ECA1E5FE
:100160003D27000000080002010000030407000012
:1001700000000000000000000000250028002B0007
:1001800000000000240027002A00040404040404E2
:100190000404020202020202030303030303010236
:1001A0000408102040800102040810200102040805
:1001B0001020840511241FBECFEFD8E0DEBFCDBFD5
:1001C00022E0ACE7B1E001C01D92A634B207E1F72E
:1001D00011E0A0E0B1E0E4EBF2E202C005900D9284
:1001E000AC37B107D9F710E0CAEDD0E004C02197D1
:1001F000FE010E944B0EC93DD107C9F70E94F105CF
:100200000C9458110C94000090E0FC01E256FE4F53
:10021000249186579E4FFC018491882399F090E0A9
:10022000880F991FFC01E058FE4FA591B491FC0185
:10023000EA58FE4F859194918FB7F894EC91E22B98
:10024000EC938FBF089590E0FC01EE59FE4F24918E
:10025000FC01E256FE4F3491FC01E657FE4FE4915B
:10026000EE23C9F0222339F0233001F1A8F4213024
:1002700019F1223029F1F0E0EE0FFF1FEA58FE4F8E
:10028000A591B4918FB7F894EC91611126C0309587
:100290003E233C938FBF08952730A9F02830C9F042
:1002A000243049F7809180008F7D03C080918000C9
:1002B0008F7780938000DFCF84B58F7784BDDBCFCD
:1002C00084B58F7DFBCF8091B0008F778093B00095
:1002D000D2CF8091B0008F7DF9CF3E2BDACFCF9374
:1002E000DF9360E08CE00E94230160E088E00E94E0
:1002F0002301C7E0D0E060E084E00E942301809108
:10030000340290E00C2E02C0959587950A94E2F78E
:1003100061E080FF60E088E00E94230161E084E00A
:100320000E942301219738F761E08CE0DF91CF91A3
:100330000C9423013FB7F89480919301909194011C
:10034000A0919501B091960126B5A89B05C02F3FBD
:1003500019F00196A11DB11D3FBFBA2FA92F982FEB
:100360008827BC01CD01620F711D811D911D42E0E6
:10037000660F771F881F991F4A95D1F708958F92AE
:100380009F92AF92BF92CF92DF92EF92FF926B015A
:100390007C010E949A014B015C01C114D104E1046B
:1003A000F104B9F00E949A01681979098A099B0938
:1003B000683E73408105910580F321E0C21AD1089F
:1003C000E108F10888EE880E83E0981EA11CB11C9C
:1003D000E4CFFF90EF90DF90CF90BF90AF909F90D1
:1003E0008F9008952FB7F89460918F0170919001CC
:1003F00080919101909192012FBF0895AF92BF9289
:10040000CF92DF92EF92FF920F931F93CF93DF93E0
:100410006C017B018B01040F151FEB015E01AE180F
:10042000BF08C017D10759F06991D601ED91FC9131
:100430000190F081E02DC6010995892B79F7C5015E
:10044000DF91CF911F910F91FF90EF90DF90CF90B0
:10045000BF90AF900895CF93DF93FC014481558105
:100460006081718187E991E00E94FE01EC0142E028
:1004700050E064E271E087E991E00E94FE018C0F98
:100480009D1FDF91CF910895FC01538D448D252F41
:1004900030E0842F90E0821B930B541710F0CF961E
:1004A000089501970895FC01918D828D981761F050
:1004B000A28DAE0FBF2FB11D5D968C91928D9F5F67
:1004C0009F73928F90E008958FEF9FEF0895FC0146
:1004D000918D828D981731F0828DE80FF11D858DF9
:1004E00090E008958FEF9FEF08950F931F930E9460
:1004F000F20160939F017093A0018093A1019093FA
:10050000A20187E991E00E94670297FF1DC00E9447
:10051000F20100919F011091A0012091A101309161
:10052000A201601B710B820B930B00919B01109138
:100530009C0120919D0130919E01601771078207F7
:100540009307F8F28FEF9FEF1F910F910895FC0131
:10055000918D228D892F90E0805C9F4F821B9109A5
:100560008F739927089587E991E00E94A70221E0FF
:10057000892B09F420E0822F089580E090E0892BF8
:1005800029F00E94B30281110C9400000895FC012F
:10059000A48DA80FB92FB11DA35ABF4F2C91848DE4
:1005A00090E001968F739927848FA689B7892C9341
:1005B000A089B1898C91837080648C93938D848D94
:1005C000981306C00288F389E02D80818F7D808397
:1005D0000895EF92FF920F931F93CF93DF93EC0157
:1005E00081E0888F9B8D8C8D98131AC0E889F989DA
:1005F000808185FF15C09FB7F894EE89FF896083DD
:10060000E889F98980818370806480839FBF81E05D
:1006100090E0DF91CF911F910F91FF90EF9008959F
:10062000F62E0B8D10E00F5F1F4F0F731127E02E7A
:100630008C8D8E110CC00FB607FCFACFE889F989B2
:10064000808185FFF5CFCE010E94C702F1CFEB8DEF
:10065000EC0FFD2FF11DE35AFF4FF0829FB7F89486
:100660000B8FEA89FB8980818062CFCFCF93DF93A4
:10067000EC01888D8823B9F0AA89BB89E889F989BA
:100680008C9185FD03C0808186FD0DC00FB607FCEF
:10069000F7CF8C9185FFF2CF808185FFEDCFCE0122
:1006A0000E94C702E9CFDF91CF9108950F931F9366
:1006B000CF93DF93EC0188819981009759F02A81CB
:1006C0003B812617370730F081E0DF91CF911F91F2
:1006D0000F9108958B016F5F7F4F0E948B100097E1
:1006E00059F0998388831B830A832C813D81232BB6
:1006F00059F7FC011082E8CF80E0E7CFEF92FF923C
:100700000F931F93CF93DF936115710541F480E040
:10071000DF91CF911F910F91FF90EF9008954115B8
:100720005105B1F07B01EC010C811D81040F151FF7
:10073000B8010E945603882351F3288139818C81A6
:100740009D81B701820F931F0E9451111D830C835D
:1007500081E0DECFCF93DF93EC0188819981009710
:1007600011F00E940210198218821D821C821B82C5
:100770001A82DF91CF910895EF92FF920F931F930A
:10078000CF93DF93EC01198218821B821A821D829B
:100790001C826115710521F18B01FB010190002084
:1007A000E9F731977F01E61AF70AB7010E9456036D
:1007B000811109C0CE01DF91CF911F910F91FF9060
:1007C000EF900C94AA03FD82EC82B8018881998194
:1007D000DF91CF911F910F91FF90EF900C945111E9
:1007E000DF91CF911F910F91FF90EF900895EF92BD
:1007F000FF920F931F93CF93DF938C017B01EB014B
:1008000009900020E9F72197C61BD70BBE010E9473
:100810005603811109C0C801DF91CF911F910F913B
:10082000FF90EF900C94AA03F801D583C483B7011D
:1008300080819181DF91CF911F910F91FF90EF9077
:100840000C9451110F931F93CF93DF93CDB7DEB765
:1008500062970FB6F894DEBF0FBECDBF8C01CB01FF
:10086000F8011182108213821282158214824AE0EA
:10087000BE016F5F7F4F0E944F0ABE016F5F7F4FC7
:10088000C8010E94F70362960FB6F894DEBF0FBE50
:10089000CDBFDF91CF911F910F9108950F931F93BB
:1008A000CF93DF93CDB7DEB729970FB6F894DEBFAD
:1008B0000FBECDBF8C01862FF801118210821382EA
:1008C0001282158214824AE0BE016F5F7F4F90E072
:1008D0000E947C0ABE016F5F7F4FC8010E94F70330
:1008E00029960FB6F894DEBF0FBECDBFDF91CF9132
:1008F0001F910F910895EF92FF920F931F93CF9343
:10090000DF93CDB7DEB7A1970FB6F894DEBF0FBE69
:10091000CDBF7C01CB01BA01F70111821082138295
:100920001282158214828E010F5F1F4F22E044E075
:100930000E94310A009789F0BC01C7010E94F703A9
:10094000A1960FB6F894DEBF0FBECDBFDF91CF9159
:100950001F910F91FF90EF900895C7010E94AA0385
:10096000EFCFCF93DF93EC01FB0101900020E9F77B
:100970003197AF01461B570B0E947E03811103C0C4
:10098000CE010E94AA03CE01DF91CF910895CF93AB
:10099000DF93EC01FB0144815581608171810E94EC
:1009A0007E03811103C0CE010E94AA03CE01DF9114
:1009B000CF910895FC0180819181009711F00C94F2
:1009C000021008951F920F920FB60F9211242F93C9
:1009D0003F938F939F93AF93BF9380918F0190919B
:1009E0009001A0919101B091920130918E0123E08C
:1009F000230F2D3758F50196A11DB11D20938E01AF
:100A000080938F0190939001A0939101B0939201F4
:100A10008091930190919401A0919501B0919601DC
:100A20000196A11DB11D8093930190939401A09311
:100A30009501B0939601BF91AF919F918F913F9196
:100A40002F910F900FBE0F901F90189526E8230F3F
:100A50000296A11DB11DD2CF1F920F920FB60F9219
:100A600011242F933F934F935F936F937F938F93B3
:100A70009F93AF93BF93EF93FF9387E991E00E9419
:100A8000C702FF91EF91BF91AF919F918F917F919D
:100A90006F915F914F913F912F910F900FBE0F90EB
:100AA0001F9018951F920F920FB60F9211242F933B
:100AB0008F939F93EF93FF93E091A701F091A8018B
:100AC0008081E091AD01F091AE0182FD1BC090816B
:100AD0008091B0018F5F8F732091B101821741F037
:100AE000E091B001F0E0E956FE4F958F8093B001A0
:100AF000FF91EF919F918F912F910F900FBE0F90CB
:100B00001F9018958081F4CFE7E9F1E013821282FB
:100B100088EE93E0A0E0B0E084839583A683B7835A
:100B200086E191E09183808385EC90E095878487CE
:100B300084EC90E09787868780EC90E0918B808BA7
:100B400081EC90E0938B828B82EC90E0958B848B90
:100B500086EC90E0978B868B118E128E138E148EFE
:100B6000109235028CE00E94040187E00E9404018B
:100B700088E00E94040184E00E9404011092340283
:100B80000E946F0160E087E00E942301E6E3F2E04B
:100B900088EC90E09183808382E0828313860E94B8
:100BA0006F0185E00E94040186E00E94040161E07B
:100BB00085E00E94230161E086E00E94230184B564
:100BC000836884BD17BC86E00E94040184B58362FB
:100BD00084BD18BC85E00E9404018FEF87BD88BDED
:100BE0000895CF93DF93CDB7DEB7C354D1090FB6C5
:100BF000F894DEBF0FBECDBF789484B5826084BD0B
:100C000084B5816084BD85B5826085BD85B5816010
:100C100085BD80916E00816080936E00109281008E
:100C20008091810082608093810080918100816049
:100C3000809381008091800081608093800080910A
:100C4000B10084608093B1008091B0008160809396
:100C5000B00080917A00846080937A0080917A005D
:100C6000826080937A0080917A00816080937A001C
:100C700080917A00806880937A001092C100E091A0
:100C8000A701F091A80182E08083E091A301F09197
:100C9000A4011082E091A501F091A60180E180837A
:100CA0001092AF01E091AB01F091AC0186E080833E
:100CB000E091A901F091AA01808180618083E09197
:100CC000A901F091AA01808188608083E091A90147
:100CD000F091AA01808180688083E091A901F09160
:100CE000AA0180818F7D8083209136023091370266
:100CF000A0910401B09105010E941A0E9B01AC0164
:100D000060E077E883E993E00E94290E209339029E
:100D100030933A0240933B0250933C0210923D02C2
:100D200010923E0210923F02109240020E94F20185
:100D3000609380017093810180938201909383017D
:100D40000E94F2016093860170938701809388016D
:100D5000909389010E94F20160938A0170938B0144
:100D600080938C0190938D010E94F20160937C012D
:100D700070937D0180937E0190937F01F0E64F2E6A
:100D8000FAEE5F2E612C712CFF24FA948E010F5F16
:100D90001F4FE8EE2E2EE3E03E2E80910B018823BC
:100DA00009F4E5C00E94F20180908A0190908B01C5
:100DB000A0908C01B0908D01681979098A099B096E
:100DC000653671058105910508F4D1C020910601B1
:100DD000309107018091040190910501289F6001E5
:100DE000299FD00C389FD00C11246091390270914A
:100DF0003A0280913B0290913C0228EE33E040E0C1
:100E000050E00E94290E49015A0124966CAF7DAF33
:100E10008EAF9FAF249721E0C21AD10808F49DC07D
:100E200050913802513009F43CC0523009F04AC0A8
:100E300040E430E821E090E28091410283FF36C037
:100E4000885F80934102809141028F7380934102B9
:100E5000513071F5F092B300F092B400692F622B1B
:100E6000532F542B862F852B809570913402872326
:100E700080933402E0914102F0E073E0F595E7954C
:100E80007A95E1F7E830F105D8F4E75BF84F0C9478
:100E90004B0EAB075D07A207A107A407A607A8078B
:100EA000AA0740E138E022E094E0C6CF805FC9CFD6
:100EB0005230A1F6F7BCF8BCD1CF862B8093340218
:100EC0000E946F01C501B4010E94BF0180913D02E3
:100ED00090913E02A0913F02B091400224962CAD29
:100EE0003DAD4EAD5FAD2497820F931FA41FB51F7C
:100EF00080933D0290933E02A0933F02B093400244
:100F0000883E9340A105B10508F485CF61E070E00B
:100F100080E090E00E94BF0180913D0290913E02EE
:100F2000A0913F02B0914002885E9340A109B109AF
:100F300080933D0290933E02A0933F02B093400203
:100F40006ACF232B822BBACF832BB8CF852BB6CF7A
:100F5000842BB4CF942B892BB1CF0E94F2016093E4
:100F60008A0170938B0180938C0190938D010E9474
:100F7000F2018090860190908701A0908801B09046
:100F80008901681979098A099B0965367105810506
:100F90009105F0F080E480937C0080917A00806479
:100FA00080937A0080917A0086FDFCCF8091780052
:100FB0009091790090938501809384010E94F201C1
:100FC00060938601709387018093880190938901D3
:100FD0000E94F2018090800190908101A090820196
:100FE000B0908301681979098A099B09693E7340A9
:100FF0008105910508F4CCC00E94F201A301920181
:101000000E94290ECA01B9010E94DD0C20E030E0E7
:1010100040E752E40E94BE0E4B015C01609100016A
:101020007091010180910201909103010E94DD0CF9
:1010300020E030E040E752E40E94BE0E9B01AC018C
:10104000C501B4010E94510EAB01BC01CE018296D4
:101050000E947B0460910001709101018091020166
:10106000909103010E94DD0C20E030E040E752E463
:101070000E94BE0EAB01BC01CE0188960E947B048B
:10108000A0900401B09005016091840170918501E8
:1010900090E080E00E94DD0C20E030E040EA5BE37D
:1010A0000E941A0D20E030E44CE956E40E941A0D2B
:1010B0000E94300FCE018E960E94220460910B0197
:1010C000CE01C4960E944E0468E271E0CE01CA9639
:1010D0000E94BC03BE016C5C7F4FCE01CA960E9489
:1010E000C70467E271E00E94B104BE01625D7F4FF8
:1010F0000E94C70467E271E00E94B1046C014AE0FB
:10110000B801C5010E947C0AF80101900020E9F7AE
:101110003197AF01401B510BB801C6010E947E03FD
:10112000811103C0C6010E94AA0367E271E0C601F3
:101130000E94B104BE01685D7F4F0E94C70467E250
:1011400071E00E94B104BE016E5D7F4F0E94C70432
:101150000E942B02CE01CA960E94DA04CE01C496E8
:101160000E94DA04CE018E960E94DA04CE0188969F
:101170000E94DA04CE0182960E94DA040E94F201F3
:101180006093800170938101809382019093830129
:101190000E94F20180907C0190907D01A0907E01E0
:1011A000B0907F01681979098A099B096536710534
:1011B0008105910508F4D5C087E991E00E94A70256
:1011C00002970CF4CEC087E991E00E945302D82E1A
:1011D0000E947502FC0197FD81C08D32910521F0BE
:1011E000C0970A9708F072C0812C912C5401C12C31
:1011F000E130F105D9F0ED32F10509F46CC0CF0111
:10120000C0970A9798F4AAE0B0E0A50194010E9463
:10121000D80D4F01FF0FAA08BB08860E971EA81E07
:10122000B91E50E3851A9108A108B10887E991E039
:101230000E9453020E947502FC01C0970A97C0F2F7
:10124000E130F105A9F2CC2041F0B094A094909443
:101250008094811C911CA11CB11CB40183E7D81699
:1012600009F440C024E7D21609F48BC03DE6D3123E
:10127000C4C090920501809204011BA21AA21DA273
:101280001CA21FA21EA24AE0B801C4010E947C0A4F
:10129000B801CE0182960E94F70369E271E0C801AD
:1012A0000E94BC03BE016E5D7F4FC8010E94C7044F
:1012B00069E371E00E94B1040E942B02C8010E9400
:1012C000DA04CE0182960E94DA044BC087E991E0ED
:1012D0000E9453027DCFCC24C394A8CF812C912CA3
:1012E0005401BBCF6130710509F048C081E08093A3
:1012F0000B01C8010E94220460910B01CE0182966D
:101300000E944E046EE371E0CE0188960E94BC03F9
:10131000BE016E5D7F4FCE0188960E94C70465E7CF
:1013200071E00E94B104B8010E94C7040E942B0220
:10133000CE0188960E94DA04CE0182960E94DA04D9
:10134000C8010E94DA0480910B01882351F00E94A9
:10135000F201609300017093010180930201909368
:10136000030180E090E0892B09F417CD0E94B302BD
:10137000882309F409CD0E94000006CD10920B01CC
:10138000B8CF2CE3289DC001299D900D1124829D8A
:10139000B001839D700D929D700D1124072E000CDD
:1013A000880B990B609306017093070180930801E5
:1013B000909309011BA21AA21DA21CA21FA21EA289
:1013C000A30192010E94290ECA01B9012AE0A801D5
:1013D0000E945A0AB801CE0182960E94F70369E47E
:1013E00071E0C8010E94BC03BE016E5D7F4FC80161
:1013F0000E94C70466E571E05DCF10920A01C80142
:101400000E9422041BA21AA21DA21CA21FA21EA29D
:10141000D8A619A6BE01685D7F4FCE0182960E94B4
:10142000F7036BE571E0CE0188960E94BC03BE0114
:101430006E5D7F4FCE0188960E94C70464E771E01D
:101440000E94B104B8010E94C7040E942B02CE0181
:1014500088960E94DA04CE0182960E94DA04C801BE
:1014600032CFEF920F931F93CF93DF93E80134E0D5
:1014700047FD34E1042E000C550B57FF03C0519576
:1014800041955109E32E022F242FAE010E94960AA6
:10149000CE01DF91CF911F910F91EF900895BB275F
:1014A0004A3031F4992322F4BDE2909581959F4F03
:1014B0000C947D0ABB27FA01A62F621771058105DE
:1014C0009105330B30FB66F0AA27660F771F881F44
:1014D000991FAA1FA21710F0A21B63953850A9F7F5
:1014E000A05DAA3308F0A95DA19336F7B111B193BD
:1014F0001082CA010C94CD0CBB27FB015527AA27EB
:10150000880F991FAA1FA41710F0A41B8395505190
:10151000B9F7A05DAA3308F0A95DA193009779F708
:10152000B111B1931192CB010C94CD0CA9E0B0E0B4
:10153000ECE9FAE00C94E90D6A01F22EB02E102FBE
:10154000FBE3AF2EA01608F41BE31F5F012F27E07B
:10155000AE014F5F5F4F0E94F50BBC018981982F50
:101560009970913009F43FC09BE2E1FC04C09E2DCC
:101570009170E0FC3AC05E2D5071E82FE87083FF57
:1015800046C084E0911101C083E0EF2DE81B8F1568
:1015900008F0E0E0D6018E2F20E2552351F1992387
:1015A00029F0D6019C93C60101966C0196012D5F2E
:1015B0003F4FE2FE24C08EE4D6018C9391E4119655
:1015C0009C93119712968C93D9018E2F90E28111E2
:1015D0001BC0E20FF32FF11D10828EEF9FEF2996B3
:1015E000ECE00C94050E9DE2C6CF90E2C4CF2D93A3
:1015F00081508111FCCFCE0ED11CE0E0D0CF8EE621
:10160000D6018C9391E6DBCF9D938150E0CF482F9C
:10161000447082FF3DC084E0911101C083E08F15CA
:1016200010F4EF2DE81BD6018E2F20E2552309F18F
:10163000992329F0D6019C93C60101966C0196016D
:101640002D5F3F4FE2FE1BC089E4D6018C938EE4F0
:1016500011968C93119786E412968C93D9018E2F54
:1016600090E2882309F4B5CF9D938150FACF2D9352
:1016700081508111FCCFCE0ED11CE0E0D9CF89E69C
:10168000D6018C938EE611968C93119786E6E4CF63
:101690009B0177FF02C030E020E0A1E0B0E09111B3
:1016A00002C0B0E0A0E0F9013196AE0FBF1F8B2C55
:1016B000912CBB2009F461C05401EFEFAE1ABE0AB1
:1016C000AA0DBB1DFA161B0619F014F04F2D4A1B6C
:1016D000511188C0E3FC59C07601A42FB0E2A111DA
:1016E0004FC0C40ED11C992309F45BC040E0D60161
:1016F0001196F60190836D01552309F448C0012F1E
:10170000060F9A81582F507184FF03C0913309F45A
:10171000015010160CF047C0093008F008E0EEE266
:10172000FE2E5B01A01AB108850191948194910865
:101730002F3F320729F4D601FC92F60131966F0152
:101740006217730794F1021713077CF5DB01A21BE4
:10175000B30BAA24A394B12CAC0EBD1EAA0DBB1DC5
:1017600011968C9121503109D60111962815390511
:10177000F4F0F60180836D01DBCFB12CA12CA0CF5A
:10178000F701B1937F01A150AACF9111B0CFD6013B
:10179000942F50E302C05D9391509111FCCFC40E81
:1017A000D11C40E0ACCF01E0BACF80E3DBCF6217C1
:1017B000730731F4963388F4953311F4552369F0A7
:1017C000F6018083FD01842F90E2811108C0A40FEF
:1017D000B11D1C9290E080E002CF81E3F1CF9193A4
:1017E0008150F3CF911183CF8ACF283008F027E0C2
:1017F0003327DA01990F311D87FD9160009661054D
:10180000710539F432602E5F3D9330E32A95E1F79C
:1018100008959F3F30F080387105610509F03C5F05
:101820003C5F3D93913008F08068911DDF93CF932A
:101830001F930F93FF92EF92192F987F9695E92FA0
:1018400096959695E90FFF27EE53FF4F992733277B
:10185000EE24FF24A701E70105900894079428F4DB
:10186000360FE71EF81E491F511D660F771F881F90
:10187000991F0694A1F70590079428F4E70EF81E27
:10188000491F561FC11D770F881F991F661F069499
:10189000A1F70590079428F4F80E491F561FC71F9B
:1018A000D11D880F991F661F771F0694A1F7059019
:1018B000079420F4490F561FC71FD81F990F661FA2
:1018C000771F881F0694A9F784911095177041F02F
:1018D000D695C79557954795F794E7941A95C1F70C
:1018E000E8E6F0E068941590159135916591959131
:1018F00005907FE27395E118F10A430B560BC90B73
:10190000D009C0F7E10CF11E431F561FC91FD01D9F
:101910007EF4703311F48A95E6CFE894015030F0EC
:10192000080F0AF40027021708F4202F2395022F2E
:101930007A3328F079E37D932A95E9F710C07D93F7
:101940002A9589F606949795679537951795179474
:10195000E118F10A430B560BC90BD00998F02395F7
:101960007E9173957A3308F070E37C932013B8F777
:101970007E9170617D9330F0839571E37D9370E388
:101980002A95E1F71124EF90FF900F911F91CF91CD
:10199000DF91992787FD90950895DC01FC01672F61
:1019A00071917723E1F7329704C07C916D93708336
:1019B0006291AE17BF07C8F30895E89409C097FB7A
:1019C0003EF490958095709561957F4F8F4F9F4F16
:1019D0009923A9F0F92F96E9BB279395F69587955A
:1019E00077956795B795F111F8CFFAF4BB0F11F41D
:1019F00060FF1BC06F5F7F4F8F4F9F4F16C08823C4
:101A000011F096E911C0772321F09EE8872F762FF9
:101A100005C0662371F096E8862F70E060E02AF03A
:101A20009A95660F771F881FDAF7880F9695879526
:101A300097F908950E942D0D0C949E0D0E94900D13
:101A400038F00E94970D20F0952311F00C94870D2B
:101A50000C948D0D11240C94D20D0E94AF0D70F3D7
:101A6000959FC1F3950F50E0551F629FF001729F43
:101A7000BB27F00DB11D639FAA27F00DB11DAA1F52
:101A8000649F6627B00DA11D661F829F2227B00D9F
:101A9000A11D621F739FB00DA11D621F839FA00D2A
:101AA000611D221F749F3327A00D611D231F849F7A
:101AB000600D211D822F762F6A2F11249F575040D1
:101AC0009AF0F1F088234AF0EE0FFF1FBB1F661F4C
:101AD000771F881F91505040A9F79E3F510580F015
:101AE0000C94870D0C94D20D5F3FE4F3983ED4F331
:101AF000869577956795B795F795E7959F5FC1F7B9
:101B0000FE2B880F911D9695879597F9089597F963
:101B10009F6780E870E060E008959FEF80EC089593
:101B200000240A94161617061806090608950024BC
:101B30000A9412161306140605060895092E039436
:101B4000000C11F4882352F0BB0F40F4BF2B11F4AA
:101B500060FF04C06F5F7F4F8F4F9F4F089557FD09
:101B60009058440F551F59F05F3F71F04795880F0B
:101B700097FB991F61F09F3F79F0879508951216A2
:101B800013061406551FF2CF4695F1DF08C016164E
:101B900017061806991FF1CF8695710561050894FF
:101BA0000895E894BB2766277727CB0197F9089516
:101BB0000E941A0EA59F900DB49F900DA49F800DBA
:101BC000911D112408952F923F924F925F926F9230
:101BD0007F928F929F92AF92BF92CF92DF92EF92BD
:101BE000FF920F931F93CF93DF93CDB7DEB7CA1B3E
:101BF000DB0B0FB6F894DEBF0FBECDBF09942A8869
:101C0000398848885F846E847D848C849B84AA8410
:101C1000B984C884DF80EE80FD800C811B81AA819D
:101C2000B981CE0FD11D0FB6F894DEBF0FBECDBF68
:101C3000ED010895A29FB001B39FC001A39F700D55
:101C4000811D1124911DB29F700D811D1124911DC4
:101C50000895A1E21A2EAA1BBB1BFD010DC0AA1FED
:101C6000BB1FEE1FFF1FA217B307E407F50720F005
:101C7000A21BB30BE40BF50B661F771F881F991F80
:101C80001A9469F760957095809590959B01AC01C9
:101C9000BD01CF010895EE0FFF1F0590F491E02DD7
:101CA00009945058BB27AA270E94690E0C949E0DD8
:101CB0000E94900D38F00E94970D20F039F49F3F5C
:101CC00019F426F40C948D0D0EF4E095E7FB0C94BA
:101CD000870DE92F0E94AF0D58F3BA1762077307FB
:101CE0008407950720F079F4A6F50C94D10D0EF435
:101CF000E0950B2EBA2FA02D0B01B90190010C011C
:101D0000CA01A0011124FF27591B99F0593F50F433
:101D1000503E68F11A16F040A22F232F342F44278B
:101D2000585FF3CF469537952795A795F040539583
:101D3000C9F77EF41F16BA0B620B730B840BBAF053
:101D40009150A1F0FF0FBB1F661F771F881FC2F7BE
:101D50000EC0BA0F621F731F841F48F487957795D2
:101D60006795B795F7959E3F08F0B0CF9395880F8C
:101D700008F09927EE0F9795879508950E94D20E47
:101D80000C949E0D0E94970D58F00E94900D40F00B
:101D900029F45F3F29F00C94870D51110C94D20D5A
:101DA0000C948D0D0E94AF0D68F39923B1F3552368
:101DB00091F3951B550BBB27AA276217730784075E
:101DC00038F09F5F5F4F220F331F441FAA1FA9F3F4
:101DD00035D00E2E3AF0E0E832D091505040E695E2
:101DE000001CCAF72BD0FE2F29D0660F771F881F43
:101DF000BB1F261737074807AB07B0E809F0BB0B36
:101E0000802DBF01FF2793585F4F3AF09E3F510549
:101E100078F00C94870D0C94D20D5F3FE4F3983E5C
:101E2000D4F3869577956795B795F7959F5FC9F732
:101E3000880F911D9695879597F90895E1E0660FB3
:101E4000771F881FBB1F621773078407BA0720F02C
:101E5000621B730B840BBA0BEE1F88F7E095089595
:101E60000E94370F6894B1110C94D20D08950E940E
:101E7000B70D88F09F5798F0B92F9927B751B0F058
:101E8000E1F0660F771F881F991F1AF0BA95C9F7FE
:101E900014C0B13091F00E94D10DB1E008950C94BE
:101EA000D10D672F782F8827B85F39F0B93FCCF371
:101EB000869577956795B395D9F73EF4909580957B
:101EC000709561957F4F8F4F9F4F08950F931F938C
:101ED000CF93DF938230910510F482E090E0E0919F
:101EE0004402F091450230E020E0B0E0A0E03097FD
:101EF00099F42115310509F44AC0281B390B243007
:101F00003105D8F58A819B816115710589F1FB0145
:101F100093838283FE0111C040815181028113812C
:101F200048175907E0F04817590799F4109761F0DE
:101F300012960C93129713961C933296CF01DF9151
:101F4000CF911F910F910895009344021093450281
:101F5000F4CF2115310551F04217530738F0A9018C
:101F6000DB019A01BD01DF01F801C1CFEF01F9CF1B
:101F70009093450280934402CDCFFE01E20FF31F00
:101F8000819391932250310939832883D7CF2091AF
:101F9000420230914302232B41F420910E013091F3
:101FA0000F01309343022093420220910C013091A3
:101FB0000D012115310541F42DB73EB740911001B7
:101FC00050911101241B350BE0914202F091430224
:101FD000E217F307A0F42E1B3F0B2817390778F000
:101FE000AC014E5F5F4F2417350748F04E0F5F1F5F
:101FF0005093430240934202819391939FCFF0E02C
:10200000E0E09CCFCF93DF930097E9F0FC0132979B
:1020100013821282A0914402B0914502ED0130E09A
:1020200020E01097A1F420813181820F931F20912D
:102030004202309143022817390709F061C0F0933A
:102040004302E0934202DF91CF910895EA01CE1757
:10205000DF07E8F54A815B819E0141155105B1F723
:10206000E901FB83EA8349915991C40FD51FEC170D
:10207000FD0761F4808191810296840F951FE9012B
:1020800099838883828193819B838A83F0E0E0E057
:1020900012968D919C9113970097B9F52D913C91D3
:1020A0001197CD010296820F931F20914202309129
:1020B00043022817390739F6309751F51092450237
:1020C00010924402B0934302A0934202BCCFD38348
:1020D000C28340815181840F951FC817D90761F4CD
:1020E0004E5F5F4F88819981480F591F518340830C
:1020F0008A819B81938382832115310509F0B0CFBA
:10210000F0934502E09344029ECFFD01DC01C0CF75
:1021100013821282D7CFB0E0A0E0E1E9F0E10C94A5
:10212000E50D8C01009751F4CB010E94660F8C01E4
:10213000C801CDB7DEB7E0E10C94010EFC01E60F5B
:10214000F71F9C0122503109E217F30708F49DC0E4
:10215000D901CD91DC911197C617D70798F0C530FA
:10216000D10530F3CE0104978617970708F3C61BF5
:10217000D70B2297C193D1936D937C93CF010E948B
:102180000210D6CF5B01AC1ABD0A4C018C0E9D1E0D
:10219000A0914402B0914502512C412CF12CE12C2C
:1021A000109731F58091420290914302881599056C
:1021B00009F05CC04616570608F058C080910C0123
:1021C00090910D01009741F48DB79EB74091100199
:1021D00050911101841B950BE817F90708F055C0C1
:1021E000F0934302E0934202F90171836083A0CF30
:1021F0008D919C91119712966C90129713967C90EA
:102200001397A815B90559F56C0142E0C40ED11C0D
:10221000CA14DB0420F1AC014A195B09DA011296F9
:10222000159780F06282738251834083D9016D9348
:102230007C93E114F10471F0D7011396FC93EE93B3
:10224000129776CF22968C0F9D1FF9019183808380
:10225000F301EFCFF0934502E093440269CF4816B3
:10226000590608F42C017D01D3019ACFCB010E94BD
:10227000660F7C01009749F0AE01B8010E94481139
:10228000C8010E940210870153CF10E000E050CF38
:10229000FB01DC0102C001900D9241505040D8F783
:1022A0000895FB01DC0101900D920020E1F70895F3
:0422B000F894FFCFD0
:1022B400640000000A0088130000010000004602C8
:1022C400800000000000E902FE0144023603A70278
:1022D400530267020D0A002C00312C206D6F746FBD
:1022E4007253706565643A20002072706D00312C61
:1022F4002073746172743A2000312C2072756E540C
:10230400696D653A2000206D696E002D322C2057CE
:10231400726F6E67206D65737361676521206B65ED
:0C232400793A20002C2076616C3A2000F1
:00000001FF
