:100000000C945D000C9485000C9485000C94850084
:100010000C9485000C9485000C9485000C9485004C
:100020000C9485000C9485000C9485000C9485003C
:100030000C9485000C9485000C9485000C9485002C
:100040000C94E2030C9485000C9452040C942C0440
:100050000C9485000C9485000C9485000C9485000C
:100060000C9485000C94850000000008000201003B
:100070000003040700000000000000000000000072
:10008000250028002B0000000000240027002A0083
:10009000040404040404040402020202020203032E
:1000A0000303030301020408102040800102040836
:1000B0001020010204081020840411241FBECFEF79
:1000C000D8E0DEBFCDBF22E0ACE5B1E001C01D92BB
:1000D000A632B207E1F711E0A0E0B1E0E4E0F8E118
:1000E00002C005900D92AC35B107D9F710E0CDE50F
:1000F000D0E004C02197FE010E94D209CC35D1077F
:10010000C9F70E94F1040C94000C0C94000090E0DC
:10011000FC01EC55FF4F249180579F4FFC018491C7
:10012000882399F090E0880F991FFC01EA57FF4F50
:10013000A591B491FC01E458FF4F859194918FB73C
:10014000F894EC91E22BEC938FBF089590E0FC01C2
:10015000E859FF4F2491FC01EC55FF4F3491FC010D
:10016000E057FF4FE491EE23C9F0222339F023300A
:1001700001F1A8F4213019F1223029F1F0E0EE0F5D
:10018000FF1FE458FF4FA591B4918FB7F894EC91FD
:10019000611126C030953E233C938FBF08952730D0
:1001A000A9F02830C9F0243049F7809180008F7D74
:1001B00003C0809180008F7780938000DFCF84B56B
:1001C0008F7784BDDBCF84B58F7DFBCF8091B0006E
:1001D0008F778093B000D2CF8091B0008F7DF9CF20
:1001E0003E2BDACFCF93DF9360E08CE00E94A60035
:1001F00060E088E00E94A600C7E0D0E060E084E014
:100200000E94A6008091140290E00C2E02C09595E9
:1002100087950A94E2F761E080FF60E088E00E9441
:10022000A60061E084E00E94A600219738F761E013
:100230008CE0DF91CF910C94A6003FB7F8948091A9
:10024000730190917401A0917501B091760126B56A
:10025000A89B05C02F3F19F00196A11DB11D3FBFFE
:10026000BA2FA92F982F8827BC01CD01620F711DCD
:10027000811D911D42E0660F771F881F991F4A95C7
:10028000D1F708958F929F92AF92BF92CF92DF9253
:10029000EF92FF926B017C010E941D014B015C01FA
:1002A000C114D104E104F104B9F00E941D016819E0
:1002B00079098A099B09683E73408105910580F39D
:1002C00021E0C21AD108E108F10888EE880E83E027
:1002D000981EA11CB11CE4CFFF90EF90DF90CF904F
:1002E000BF90AF909F908F9008952FB7F894609132
:1002F0006F017091700180917101909172012FBF17
:100300000895AF92BF92CF92DF92EF92FF920F9338
:100310001F93CF93DF936C017B018B01040F151F9B
:10032000EB015E01AE18BF08C017D10759F0699103
:10033000D601ED91FC910190F081E02DC601099567
:10034000892B79F7C501DF91CF911F910F91FF9014
:10035000EF90DF90CF90BF90AF900895CF93DF9351
:10036000FC01448155816081718187E791E00E94A1
:100370008101EC0142E050E060E271E087E791E04A
:100380000E9481018C0F9D1FDF91CF910895FC0188
:10039000538D448D252F30E0842F90E0821B930BEA
:1003A000541710F0CF96089501970895FC01918D90
:1003B000828D981761F0A28DAE0FBF2FB11D5D9693
:1003C0008C91928D9F5F9F73928F90E008958FEF35
:1003D0009FEF0895FC01918D828D981731F0828DE9
:1003E000E80FF11D858D90E008958FEF9FEF089540
:1003F0000F931F930E94750160937F01709380019A
:10040000809381019093820187E791E00E94EA0145
:1004100097FF1DC00E94750100917F01109180011E
:100420002091810130918201601B710B820B930B33
:1004300000917B0110917C0120917D0130917E0122
:100440006017710782079307F8F28FEF9FEF1F91F4
:100450000F910895FC01918D228D892F90E0805C91
:100460009F4F821B91098F739927089587E791E029
:100470000E942A0221E0892B09F420E0822F0895AE
:1004800080E090E0892B29F00E94360281110C94C3
:1004900000000895FC01A48DA80FB92FB11DA35A27
:1004A000BF4F2C91848D90E001968F739927848F94
:1004B000A689B7892C93A089B1898C9183708064B7
:1004C0008C93938D848D981306C00288F389E02D58
:1004D00080818F7D80830895EF92FF920F931F9309
:1004E000CF93DF93EC0181E0888F9B8D8C8D9813E7
:1004F0001AC0E889F989808185FF15C09FB7F894F3
:10050000EE89FF896083E889F9898081837080643E
:1005100080839FBF81E090E0DF91CF911F910F9189
:10052000FF90EF900895F62E0B8D10E00F5F1F4F98
:100530000F731127E02E8C8D8E110CC00FB607FCA7
:10054000FACFE889F989808185FFF5CFCE010E9435
:100550004A02F1CFEB8DEC0FFD2FF11DE35AFF4F57
:10056000F0829FB7F8940B8FEA89FB8980818062C3
:10057000CFCFCF93DF93EC01888D8823B9F0AA8980
:10058000BB89E889F9898C9185FD03C0808186FD4E
:100590000DC00FB607FCF7CF8C9185FFF2CF80819D
:1005A00085FFEDCFCE010E944A02E9CFDF91CF91C6
:1005B00008950F931F93CF93DF93EC018881998166
:1005C000009759F02A813B812617370730F081E0E8
:1005D000DF91CF911F910F9108958B016F5F7F4F36
:1005E0000E94330B009759F0998388831B830A83F9
:1005F0002C813D81232B59F7FC011082E8CF80E04C
:10060000E7CFEF92FF920F931F93CF93DF93611584
:10061000710541F480E0DF91CF911F910F91FF9020
:10062000EF90089541155105B1F07B01EC010C816B
:100630001D81040F151FB8010E94D902882351F3B0
:10064000288139818C819D81B701820F931F0E947F
:10065000F90B1D830C8381E0DECFCF93DF93EC0198
:1006600088819981009711F00E94AA0A1982188244
:100670001D821C821B821A82DF91CF910895EF9216
:10068000FF920F931F93CF93DF93EC017B011982AD
:1006900018821B821A821D821C82FB01019000209D
:1006A000E9F731978F01061B170BB8010E94D90299
:1006B000811109C0CE01DF91CF911F910F91FF9061
:1006C000EF900C942D031D830C83B70188819981D1
:1006D000DF91CF911F910F91FF90EF900C94F90B48
:1006E000EF92FF920F931F93CF93DF938C017B01C7
:1006F000EB0109900020E9F72197C61BD70BBE013B
:100700000E94D902811109C0C801DF91CF911F91C8
:100710000F91FF90EF900C942D03F801D583C483C3
:10072000B70180819181DF91CF911F910F91FF904F
:10073000EF900C94F90B0F931F93CF93DF93CDB7EA
:10074000DEB762970FB6F894DEBF0FBECDBF8C0147
:10075000CB01F80111821082138212821582148259
:100760004AE0BE016F5F7F4F0E942F08BE016F5F9E
:100770007F4FC8010E94700362960FB6F894DEBFE7
:100780000FBECDBFDF91CF911F910F910895CF93F1
:10079000DF93EC01FB0144815581608171810E94EE
:1007A0000103811103C0CE010E942D03CE01DF9110
:1007B000CF910895FC0180819181009711F00C94F4
:1007C000AA0A08951F920F920FB60F9211242F9329
:1007D0003F938F939F93AF93BF9380916F019091BD
:1007E0007001A0917101B091720130916E0123E00E
:1007F000230F2D3758F50196A11DB11D20936E01D1
:1008000080936F0190937001A0937101B093720176
:100810008091730190917401A0917501B09176015E
:100820000196A11DB11D8093730190937401A09353
:100830007501B0937601BF91AF919F918F913F91D8
:100840002F910F900FBE0F901F90189526E8230F41
:100850000296A11DB11DD2CF1F920F920FB60F921B
:1008600011242F933F934F935F936F937F938F93B5
:100870009F93AF93BF93EF93FF9387E791E00E941D
:100880004A02FF91EF91BF91AF919F918F917F911C
:100890006F915F914F913F912F910F900FBE0F90ED
:1008A0001F9018951F920F920FB60F9211242F933D
:1008B0008F939F93EF93FF93E0918701F0918801CD
:1008C0008081E0918D01F0918E0182FD1BC09081AD
:1008D000809190018F5F8F7320919101821741F079
:1008E000E0919001F0E0E958FE4F958F80939001E0
:1008F000FF91EF919F918F912F910F900FBE0F90CD
:100900001F9018958081F4CFE7E7F1E013821282FF
:1009100088EE93E0A0E0B0E084839583A683B7835C
:1009200082E191E09183808385EC90E095878487D4
:1009300084EC90E09787868780EC90E0918B808BA9
:1009400081EC90E0938B828B82EC90E0958B848B92
:1009500086EC90E0978B868B118E128E138E148E00
:10096000109215028CE00E94870087E00E948700A9
:1009700088E00E94870084E00E94870010921402A1
:100980000E94F20060E087E00E94A600E6E1F2E04B
:1009900088EC90E09183808382E0828313860E94BA
:1009A000F20085E00E94870086E00E94870061E0F7
:1009B00085E00E94A60061E086E00E94A60084B562
:1009C000836884BD17BC86E00E94870084B583627B
:1009D00084BD18BC85E00E9487008FEF87BD88BD6D
:1009E0000895CF93DF93CDB7DEB76D970FB6F89428
:1009F000DEBF0FBECDBF789484B5826084BD84B560
:100A0000816084BD85B5826085BD85B5816085BD09
:100A100080916E00816080936E00109281008091C1
:100A20008100826080938100809181008160809349
:100A30008100809180008160809380008091B1006E
:100A400084608093B1008091B00081608093B00099
:100A500080917A00846080937A0080917A0082602D
:100A600080937A0080917A00816080937A008091EF
:100A70007A00806880937A001092C100E09187012B
:100A8000F091880182E08083E0918301F0918401FC
:100A90001082E0918501F091860180E180831092BF
:100AA0008F01E0918B01F0918C0186E08083E091D1
:100AB0008901F0918A01808180618083E0918901C0
:100AC000F0918A01808188608083E0918901F091B2
:100AD0008A01808180688083E0918901F0918A0198
:100AE00080818F7D80832091160230911702A09122
:100AF0000001B09101010E94A1099B01AC0160E0DD
:100B000077E883E993E00E94B009209319023093BB
:100B10001A0240931B0250931C0210921D02109265
:100B20001E0210921F02109220020E947501609313
:100B300060017093610180936201909363010E9450
:100B400075016093660170936701809368019093CB
:100B500069010E94750160936A0170936B01809333
:100B60006C0190936D010E94750160935C0170931C
:100B70005D0180935E0190935F011FEFE0E0CE2E58
:100B8000E0E0DE2E80910701882309F4DBC00E949B
:100B9000750180906A0190906B01A0906C01B090FB
:100BA0006D01681979098A099B0965367105810506
:100BB000910508F4C7C02091020130910301809192
:100BC000000190910101289F7001299FF00C389F2E
:100BD000F00C11246091190270911A0280911B028D
:100BE00090911C0228EE33E040E050E00E94B009F2
:100BF00049015A012B013C0121E0E21AF10808F4F5
:100C000097C050911802513009F43CC0523009F09D
:100C10004AC040E430E821E090E28091210283FF65
:100C200036C0885F80932102809121028F73809368
:100C30002102513071F51093B3001093B400692F65
:100C4000622B532F542B852F862B80957091140285
:100C5000872380931402E0912102F0E073E0F59580
:100C6000E7957A95E1F7E830F105D8F4E65CF94FBD
:100C70000C94D20996064E068D068C068F069106B8
:100C80009306950640E138E022E094E0C6CF805F0D
:100C9000C9CF5230A1F617BD18BDD1CF862B809396
:100CA00014020E94F200C501B4010E944201809129
:100CB0001D0290911E02A0911F02B0912002840D8E
:100CC000951DA61DB71D80931D0290931E02A09333
:100CD0001F02B0932002883E9340A105B10508F49D
:100CE0008BCF61E070E080E090E00E944201809153
:100CF0001D0290911E02A0911F02B0912002885EF9
:100D00009340A109B10980931D0290931E02A09304
:100D10001F02B093200270CF232B822BC0CF832BD6
:100D2000BECF852BBCCF842BBACF942B892BB7CFCA
:100D30000E94750160936A0170936B0180936C014E
:100D400090936D010E9475018090660190906701FB
:100D5000A0906801B0906901681979098A099B0916
:100D60006536710581059105F0F080E480937C0083
:100D700080917A00806480937A0080917A0086FD69
:100D8000FCCF8091780090917900909365018093D9
:100D900064010E94750160936601709367018093FE
:100DA0006801909369010E947501809060019090A4
:100DB0006101A0906201B0906301681979098A0904
:100DC0009B09693E73408105910508F468C06091F4
:100DD00064017091650190E080E00E94640820E069
:100DE00030E040EA5BE30E94A10820E030E44CE9F7
:100DF00056E40E94A1080E94D809CE0142960E94A2
:100E00009B038091640190916501198E188E1B8E51
:100E10001A8E1D8E1C8E4AE0BE016F5F7F4F0E94AE
:100E20003A08BE016F5F7F4FCE0148960E94700363
:100E300063E271E0CE0101960E943F03BE01685E4D
:100E40007F4FCE0101960E94C7037C014AE050E02B
:100E50006FE271E00E940103811103C0C7010E948B
:100E60002D03BE016E5E7F4FC7010E94C7030E9423
:100E7000AE01CE0101960E94DA03CE0148960E948F
:100E8000DA03CE0142960E94DA030E947501609354
:100E900060017093610180936201909363010E94ED
:100EA000750180905C0190905D01A0905E01B09012
:100EB0005F01681979098A099B0965367105810501
:100EC000910508F45CC087E791E00E942A0202972E
:100ED0000CF455C087E791E00E94D601082F0E94CC
:100EE000F801FC0197FD5FC08D32910521F0C0979C
:100EF0000A9708F050C0812C912C5401F12CE1305C
:100F0000F105D9F0ED32F10509F44AC0CF01C097DF
:100F10000A9798F4AAE0B0E0A50194010E945F0945
:100F20004F01FF0FAA08BB08860E971EA81EB91E08
:100F300080E3881A9108A108B10887E791E00E9430
:100F4000D6010E94F801FC01C0970A97C0F2E13077
:100F5000F105A9F2FF2041F0B094A0949094809400
:100F6000811C911CA11CB11CC401033701F1043781
:100F700029F10D3681F59092010180920001C11492
:100F8000D10409F4FFCD0E943602882309F4F6CD7E
:100F90000E940000F3CD87E791E00E94D6019FCF29
:100FA000FF24F394CACF812C912C5401DDCF809281
:100FB0000701882021F30E947501E1CF092E000C62
:100FC000AA0BBB0B8093020190930301A093040131
:100FD000B0930501D4CF10920601B401CE01019661
:100FE0000E949B031B8A1A8A1D8A1C8A1F8A1E8ADA
:100FF000088F198EBE01685E7F4FCE0142960E9417
:1010000070036AE371E0CE0148960E943F03BE017F
:101010006E5E7F4FCE0148960E94C7037C0147E079
:1010200050E063E571E00E940103811103C0C70134
:101030000E942D03BE016F5F7F4FC7010E94C7034F
:101040000E94AE01CE0148960E94DA03CE0142967C
:101050000E94DA03CE0101960E94DA0390CFBB27EB
:101060004A3031F4992322F4BDE2909581959F4F47
:101070000C943B08BB27FB015527AA27880F991F13
:10108000AA1FA41710F0A41B83955051B9F7A05DB7
:10109000AA3308F0A95DA193009779F7B111B19334
:1010A0001192CB010C945408DC01FC01672F719163
:1010B0007723E1F7329704C07C916D93708362913E
:1010C000AE17BF07C8F30895E89409C097FB3EF434
:1010D00090958095709561957F4F8F4F9F4F992385
:1010E000A9F0F92F96E9BB279395F6958795779503
:1010F0006795B795F111F8CFFAF4BB0F11F460FFC3
:101100001BC06F5F7F4F8F4F9F4F16C0882311F01A
:1011100096E911C0772321F09EE8872F762F05C02E
:10112000662371F096E8862F70E060E02AF09A95C9
:10113000660F771F881FDAF7880F9695879597F9BE
:1011400008950E94B4080C9425090E94170938F0EC
:101150000E941E0920F0952311F00C940E090C94A6
:10116000140911240C9459090E94360970F3959FB3
:10117000C1F3950F50E0551F629FF001729FBB278E
:10118000F00DB11D639FAA27F00DB11DAA1F649F2A
:101190006627B00DA11D661F829F2227B00DA11DDD
:1011A000621F739FB00DA11D621F839FA00D611D63
:1011B000221F749F3327A00D611D231F849F600D84
:1011C000211D822F762F6A2F11249F5750409AF0AD
:1011D000F1F088234AF0EE0FFF1FBB1F661F771F39
:1011E000881F91505040A9F79E3F510580F00C9404
:1011F0000E090C9459095F3FE4F3983ED4F38695A9
:1012000077956795B795F795E7959F5FC1F7FE2BA3
:10121000880F911D9695879597F9089597F99F677F
:1012200080E870E060E008959FEF80EC089500246E
:101230000A941616170618060906089500240A943B
:1012400012161306140605060895092E0394000CC1
:1012500011F4882352F0BB0F40F4BF2B11F460FF50
:1012600004C06F5F7F4F8F4F9F4F089557FD905879
:10127000440F551F59F05F3F71F04795880F97FB5A
:10128000991F61F09F3F79F0879508951216130614
:101290001406551FF2CF4695F1DF08C01616170643
:1012A0001806991FF1CF8695710561050894089578
:1012B000E894BB2766277727CB0197F908950E940A
:1012C000A109A59F900DB49F900DA49F800D911D25
:1012D000112408952F923F924F925F926F927F92C6
:1012E0008F929F92AF92BF92CF92DF92EF92FF9236
:1012F0000F931F93CF93DF93CDB7DEB7CA1BDB0BE2
:101300000FB6F894DEBF0FBECDBF09942A88398886
:1013100048885F846E847D848C849B84AA84B9848D
:10132000C884DF80EE80FD800C811B81AA81B98199
:10133000CE0FD11D0FB6F894DEBF0FBECDBFED01AD
:101340000895A29FB001B39FC001A39F700D811D9E
:101350001124911DB29F700D811D1124911D0895BE
:10136000A1E21A2EAA1BBB1BFD010DC0AA1FBB1FA9
:10137000EE1FFF1FA217B307E407F50720F0A21B1B
:10138000B30BE40BF50B661F771F881F991F1A9488
:1013900069F760957095809590959B01AC01BD01B2
:1013A000CF010895EE0FFF1F0590F491E02D0994F1
:1013B0000E94DF096894B1110C94590908950E94A4
:1013C0003E0988F09F5798F0B92F9927B751B0F090
:1013D000E1F0660F771F881F991F1AF0BA95C9F7B9
:1013E00014C0B13091F00E945809B1E008950C94F6
:1013F0005809672F782F8827B85F39F0B93FCCF3A9
:10140000869577956795B395D9F73EF49095809535
:10141000709561957F4F8F4F9F4F08950F931F9346
:10142000CF93DF938230910510F482E090E0E09159
:101430002402F091250230E020E0B0E0A0E03097F7
:1014400099F42115310509F44AC0281B390B2430C1
:101450003105D8F58A819B816115710589F1FB0100
:1014600093838283FE0111C04081518102811381E7
:1014700048175907E0F04817590799F4109761F099
:1014800012960C93129713961C933296CF01DF910C
:10149000CF911F910F91089500932402109325027C
:1014A000F4CF2115310551F04217530738F0A90147
:1014B000DB019A01BD01DF01F801C1CFEF01F9CFD6
:1014C0009093250280932402CDCFFE01E20FF31FFB
:1014D000819391932250310939832883D7CF20916A
:1014E000220230912302232B41F420910A013091F2
:1014F0000B013093230220932202209108013091A6
:1015000009012115310541F42DB73EB740910C0179
:1015100050910D01241B350BE0912202F091230222
:10152000E217F307A0F42E1B3F0B2817390778F0BA
:10153000AC014E5F5F4F2417350748F04E0F5F1F19
:101540005093230240932202819391939FCFF0E026
:10155000E0E09CCFCF93DF930097E9F0FC01329756
:1015600013821282A0912402B0912502ED0130E095
:1015700020E01097A1F420813181820F931F2091E8
:101580002202309123022817390709F061C0F09335
:101590002302E0932202DF91CF910895EA01CE1752
:1015A000DF07E8F54A815B819E0141155105B1F7DE
:1015B000E901FB83EA8349915991C40FD51FEC17C8
:1015C000FD0761F4808191810296840F951FE901E6
:1015D00099838883828193819B838A83F0E0E0E012
:1015E00012968D919C9113970097B9F52D913C918E
:1015F0001197CD010296820F931F20912202309104
:1016000023022817390739F6309751F51092250231
:1016100010922402B0932302A0932202BCCFD38362
:10162000C28340815181840F951FC817D90761F487
:101630004E5F5F4F88819981480F591F51834083C6
:101640008A819B81938382832115310509F0B0CF74
:10165000F0932502E09324029ECFFD01DC01C0CF70
:1016600013821282D7CFB0E0A0E0E9E3FBE00C9454
:101670006C098C01009751F4CB010E940E0A8C0179
:10168000C801CDB7DEB7E0E10C948809FC01E60F94
:10169000F71F9C0122503109E217F30708F49DC09F
:1016A000D901CD91DC911197C617D70798F0C530B5
:1016B000D10530F3CE0104978617970708F3C61BB0
:1016C000D70B2297C193D1936D937C93CF010E9446
:1016D000AA0AD6CF5B01AC1ABD0A4C018C0E9D1E26
:1016E000A0912402B0912502512C412CF12CE12C27
:1016F000109731F580912202909123028815990567
:1017000009F05CC04616570608F058C080910801E1
:1017100090910901009741F48DB79EB740910C015B
:1017200050910D01841B950BE817F90708F055C07F
:10173000F0932302E0932202F90171836083A0CF2A
:101740008D919C91119712966C90129713967C90A4
:101750001397A815B90559F56C0142E0C40ED11CC8
:10176000CA14DB0420F1AC014A195B09DA011296B4
:10177000159780F06282738251834083D9016D9303
:101780007C93E114F10471F0D7011396FC93EE936E
:10179000129776CF22968C0F9D1FF901918380833B
:1017A000F301EFCFF0932502E093240269CF4816AE
:1017B000590608F42C017D01D3019ACFCB010E9478
:1017C0000E0A7C01009749F0AE01B8010E94F00BAF
:1017D000C8010E94AA0A870153CF10E000E050CF51
:1017E000FB01DC0102C001900D9241505040D8F73E
:1017F0000895FB01DC0101900D920020E1F70895AE
:04180000F894FFCF8A
:101804000A00881300000100000026028000000086
:1018140000006C028101C701B9022A02D601EA0163
:101824000D0A004144432076616C75653A2000201E
:10183400566F6C746167653A20002D322C20577204
:101844006F6E67206D65737361676521206B6579C1
:0C1854003A20002C2076616C3A20000045
:00000001FF
