:100000000C94DA000C9402010C9402010C9402018D
:100010000C9402010C9402010C9402010C94020154
:100020000C9402010C9402010C9402010C94020144
:100030000C9402010C9402010C9402010C94020134
:100040000C9464040C9402010C94D4040C94AE043B
:100050000C9402010C9402010C9402010C94020114
:100060000C9402010C94020100407A10F35A00A093
:10007000724E18090010A5D4E80000E87648170071
:1000800000E40B54020000CA9A3B000000E1F505B1
:10009000000080969800000040420F000000A086FB
:1000A00001000000102700000000E803000000002D
:1000B0006400000000000A000000000001000000D1
:1000C00000002C76D888DC674F0823DFC1DFAE59EB
:1000D000E1B1B796E5E3E453C63AE651997696E87E
:1000E000E6C28426EB898C9B62ED407C6FFCEFBC02
:1000F0009C9F40F2BAA56FA5F490055A2AF75C932D
:100100006B6CF9676DC11BFCE0E40D47FEF520E662
:10011000B500D0ED902E0300943577050080841E45
:10012000080000204E0A000000C80C333333330FA0
:10013000986E12831141EF8D2114893BE65516CF3D
:10014000FEE6DB18D1844B381BF77C1D901DA4BB49
:10015000E424203284725E228100C9F124ECA1E5FE
:100160003D27000000080002010000030407000012
:1001700000000000000000000000250028002B0007
:1001800000000000240027002A00040404040404E2
:100190000404020202020202030303030303010236
:1001A0000408102040800102040810200102040805
:1001B0001020060511241FBECFEFD8E0DEBFCDBF53
:1001C00021E0A6E2B1E001C01D92A43FB207E1F731
:1001D00011E0A0E0B1E0EAEBF0E202C005900D9280
:1001E000A632B107D9F710E0CAEDD0E004C02197DC
:1001F000FE010E944E0DC93DD107C9F70E9473054B
:100200000C945B100C94000090E0FC01E256FE4F51
:10021000249186579E4FFC018491882399F090E0A9
:10022000880F991FFC01E058FE4FA591B491FC0185
:10023000EA58FE4F859194918FB7F894EC91E22B98
:10024000EC938FBF089590E0FC01EE59FE4F24918E
:10025000FC01E256FE4F3491FC01E657FE4FE4915B
:10026000EE23C9F0222339F0233001F1A8F4213024
:1002700019F1223029F1F0E0EE0FFF1FEA58FE4F8E
:10028000A591B4918FB7F894EC91611126C0309587
:100290003E233C938FBF08952730A9F02830C9F042
:1002A000243049F7809180008F7D03C080918000C9
:1002B0008F7780938000DFCF84B58F7784BDDBCFCD
:1002C00084B58F7DFBCF8091B0008F778093B00095
:1002D000D2CF8091B0008F7DF9CF3E2BDACFCF9374
:1002E000DF9360E08CE00E94230160E088E00E94E0
:1002F0002301C7E0D0E060E084E00E942301809108
:10030000E20190E00C2E02C0959587950A94E2F7E1
:1003100061E080FF60E088E00E94230161E084E00A
:100320000E942301219738F761E08CE0DF91CF91A3
:100330000C9423013FB7F8948091410190914201C0
:10034000A0914301B091440126B5A89B05C02F3F61
:1003500019F00196A11DB11D3FBFBA2FA92F982FEB
:100360008827BC01CD01620F711D811D911D42E0E6
:10037000660F771F881F991F4A95D1F708958F92AE
:100380009F92AF92BF92CF92DF92EF92FF926B015A
:100390007C010E949A014B015C01C114D104E1046B
:1003A000F104B9F00E949A01681979098A099B0938
:1003B000683E73408105910580F321E0C21AD1089F
:1003C000E108F10888EE880E83E0981EA11CB11C9C
:1003D000E4CFFF90EF90DF90CF90BF90AF909F90D1
:1003E0008F9008952FB7F89460913D0170913E0170
:1003F00080913F01909140012FBF0895AF92BF922D
:10040000CF92DF92EF92FF920F931F93CF93DF93E0
:100410006C017B018B01040F151FEB015E01AE180F
:10042000BF08C017D10759F06991D601ED91FC9131
:100430000190F081E02DC6010995892B79F7C5015E
:10044000DF91CF911F910F91FF90EF90DF90CF90B0
:10045000BF90AF900895FC01538D448D252F30E05F
:10046000842F90E0821B930B541710F0CF960895C1
:1004700001970895FC01918D828D981761F0A28DEE
:10048000AE0FBF2FB11D5D968C91928D9F5F9F73B4
:10049000928F90E008958FEF9FEF0895FC01918D6A
:1004A000828D981731F0828DE80FF11D858D90E0D7
:1004B00008958FEF9FEF08950F931F930E94F2010D
:1004C00060934D0170934E0180934F0190935001C2
:1004D00085E491E00E944E0297FF1DC00E94F20148
:1004E00000914D0110914E0120914F01309150012A
:1004F000601B710B820B930B0091490110914A0113
:1005000020914B0130914C016017710782079307CE
:10051000F8F28FEF9FEF1F910F910895FC01918DDD
:10052000228D892F90E0805C9F4F821B91098F73F1
:100530009927089585E491E00E948E0221E0892B9D
:1005400009F420E0822F089580E090E0892B29F0C3
:100550000E949A0281110C9400000895FC01A48D60
:10056000A80FB92FB11DA35ABF4F2C91848D90E0D5
:1005700001968F739927848FA689B7892C93A089B8
:10058000B1898C91837080648C93938D848D981342
:1005900006C00288F389E02D80818F7D80830895D5
:1005A000EF92FF920F931F93CF93DF93EC0181E0C3
:1005B000888F9B8D8C8D98131AC0E889F98980816A
:1005C00085FF15C09FB7F894EE89FF896083E8899D
:1005D000F98980818370806480839FBF81E090E08F
:1005E000DF91CF911F910F91FF90EF900895F62E1C
:1005F0000B8D10E00F5F1F4F0F731127E02E8C8DB6
:100600008E110CC00FB607FCFACFE889F9898081FA
:1006100085FFF5CFCE010E94AE02F1CFEB8DEC0F3E
:10062000FD2FF11DE35AFF4FF0829FB7F8940B8F17
:10063000EA89FB8980818062CFCFCF93DF93EC0181
:10064000888D8823B9F0AA89BB89E889F9898C91BA
:1006500085FD03C0808186FD0DC00FB607FCF7CF76
:100660008C9185FFF2CF808185FFEDCFCE010E9476
:10067000AE02E9CFDF91CF910895CF93DF93EC01E4
:1006800088819981009711F00E94050F19821882C4
:100690001D821C821B821A82DF91CF910895FC017A
:1006A00080819181009711F00C94050F08950F93AC
:1006B0001F93CF93DF93EC0188819981009759F0C4
:1006C0002A813B812617370730F081E0DF91CF91F7
:1006D0001F910F9108958B016F5F7F4F0E948E0FC6
:1006E000009759F0998388831B830A832C813D816D
:1006F000232B59F7FC011082E8CF80E0E7CF0F935E
:100700001F93CF93DF93EC010C811D810F5F1F4F6F
:10071000B8010E945703882391F0288139818C8188
:100720009D8161E271E0820F931F0E9454101D832E
:100730000C83CE01DF91CF911F910F910895CE01CF
:100740000E943D03F6CFEF92FF920F931F93CF933A
:10075000DF938C017B01EB0109900020E9F72197E1
:10076000C61BD70BBE010E945703811109C0C801E7
:10077000DF91CF911F910F91FF90EF900C943D036B
:10078000F801D583C483B70180819181DF91CF9136
:100790001F910F91FF90EF900C9454100F931F93A3
:1007A000CF93DF93CDB7DEB729970FB6F894DEBFAE
:1007B0000FBECDBF8C01862FF801118210821382EB
:1007C0001282158214824AE0BE016F5F7F4F90E073
:1007D0000E947F09BE016F5F7F4FC8010E94A30383
:1007E00029960FB6F894DEBF0FBECDBFDF91CF9133
:1007F0001F910F910895EF92FF920F931F93CF9344
:10080000DF93CDB7DEB7A1970FB6F894DEBF0FBE6A
:10081000CDBF7C01CB01BA01F70111821082138296
:100820001282158214828E010F5F1F4F22E044E076
:100830000E945609009789F0BC01C7010E94A303DA
:10084000A1960FB6F894DEBF0FBECDBFDF91CF915A
:100850001F910F91FF90EF900895C7010E943D03F3
:10086000EFCFEF92FF920F931F93CF93DF93EC01A3
:10087000FB01E080F180E114F10411F104811581A4
:1008800001151105A9F08C819D81080F191FB80170
:10089000CE010E945703882399F0288139818C81E9
:1008A0009D81B701820F931F0E9454101D830C83FA
:1008B000CE01DF91CF911F910F91FF90EF9008959E
:1008C000CE010E943D03F4CF1F920F920FB60F92FC
:1008D00011242F933F938F939F93AF93BF93809156
:1008E0003D0190913E01A0913F01B09140013091B6
:1008F0003C0123E0230F2D3758F50196A11DB11DB2
:1009000020933C0180933D0190933E01A0933F01D1
:10091000B09340018091410190914201A091430127
:10092000B09144010196A11DB11D809341019093A6
:100930004201A0934301B0934401BF91AF919F91B5
:100940008F913F912F910F900FBE0F901F90189590
:1009500026E8230F0296A11DB11DD2CF1F920F9240
:100960000FB60F9211242F933F934F935F936F9382
:100970007F938F939F93AF93BF93EF93FF9385E400
:1009800091E00E94AE02FF91EF91BF91AF919F91D4
:100990008F917F916F915F914F913F912F910F9028
:1009A0000FBE0F901F9018951F920F920FB60F92C7
:1009B00011242F938F939F93EF93FF93E091550111
:1009C000F09156018081E0915B01F0915C0182FD24
:1009D0001BC0908180915E018F5F8F7320915F01BA
:1009E000821741F0E0915E01F0E0EB5BFE4F958FE6
:1009F00080935E01FF91EF919F918F912F910F90C6
:100A00000FBE0F901F9018958081F4CFE5E4F1E0C0
:100A10001382128288EE93E0A0E0B0E08483958395
:100A2000A683B78383E191E09183808385EC90E096
:100A30009587848784EC90E09787868780EC90E0A8
:100A4000918B808B81EC90E0938B828B82EC90E099
:100A5000958B848B86EC90E0978B868B118E128E13
:100A6000138E148E1092E3018CE00E94040187E043
:100A70000E94040188E00E94040184E00E940401B5
:100A80001092E2010E946F0160E087E00E94230162
:100A9000E4EEF1E088EC90E09183808382E0828351
:100AA00013860E946F0185E00E94040186E00E9487
:100AB000040161E085E00E94230161E086E00E947C
:100AC000230184B5836884BD17BC86E00E940401BD
:100AD00084B5836284BD18BC85E00E9404018FEF59
:100AE00087BD88BD0895CF93DF93CDB7DEB7E69776
:100AF0000FB6F894DEBF0FBECDBF789484B5826088
:100B000084BD84B5816084BD85B5826085BD85B5B1
:100B1000816085BD80916E00816080936E0010922F
:100B200081008091810082608093810080918100AA
:100B3000816080938100809180008160809380003B
:100B40008091B10084608093B1008091B000816099
:100B50008093B00080917A00846080937A008091C5
:100B60007A00826080937A0080917A00816080931D
:100B70007A0080917A00806880937A001092C10098
:100B8000E0915501F091560182E08083E09151019E
:100B9000F09152011082E0915301F091540180E1F3
:100BA000808310925D01E0915901F0915A0186E035
:100BB0008083E0915701F0915801808180618083AA
:100BC000E0915701F0915801808188608083E09125
:100BD0005701F0915801808180688083E09157012E
:100BE000F091580180818F7D80832091E4013091C4
:100BF000E501A0910101B09102010E941D0D9B0130
:100C0000AC0160E077E883E993E00E942C0D20932B
:100C1000E7013093E8014093E9015093EA01109213
:100C2000EB011092EC011092ED011092EE010E9486
:100C3000F20160932E0170932F0180933001909305
:100C400031010E94F2016093340170933501809369
:100C50003601909337010E94F2016093380170933E
:100C6000390180933A0190933B010E94F201609315
:100C70002601709327018093280190932901412C2C
:100C8000E7E85E2EE3E96E2EE3E07E2E33243A940D
:100C900080910801882309F4DAC00E94F2010091D2
:100CA00038011091390120913A0130913B01601BCC
:100CB000710B820B930B643671058105910508F465
:100CC000C6C02091030130910401809101019091EF
:100CD0000201289F8001299F100D389F100D1124BB
:100CE0006091E7017091E8018091E9019091EA013A
:100CF00028EE33E040E050E00E942C0D69017A01BB
:100D00004B015C010150110908F497C05091E601B4
:100D1000513009F43CC0523009F04AC040E430E898
:100D200021E090E28091EF0183FF36C0885F8093DD
:100D3000EF018091EF018F738093EF01513071F5D6
:100D40003092B3003092B400692F622B532F542B92
:100D5000862F852B80957091E20187238093E20195
:100D6000E091EF01F0E073E0F595E7957A95E1F712
:100D7000E830F105D8F4E154F94F0C944E0D1B07FF
:100D8000D306120711071407160718071A0740E1C0
:100D900038E022E094E0C6CF805FC9CF5230A1F6A0
:100DA00037BC38BCD1CF862B8093E2010E946F0103
:100DB000C701B6010E94BF018091EB019091EC0147
:100DC000A091ED01B091EE01880D991DAA1DBB1DEA
:100DD0008093EB019093EC01A093ED01B093EE01B1
:100DE000883E9340A105B10508F48CCF61E070E026
:100DF00080E090E00E94BF018091EB019091EC01B6
:100E0000A091ED01B091EE01885E9340A109B10976
:100E10008093EB019093EC01A093ED01B093EE0170
:100E200071CF232B822BC0CF832BBECF852BBCCF82
:100E3000842BBACF942B892BB7CF0E94F2016093F9
:100E400038017093390180933A0190933B010E94DD
:100E5000F201009134011091350120913601309159
:100E60003701601B710B820B930B64367105810592
:100E70009105F0F080E480937C0080917A0080649A
:100E800080937A0080917A0086FDFCCF8091780073
:100E90009091790090933301809332010E94F20186
:100EA000609334017093350180933601909337013C
:100EB0000E94F20100912E0110912F01209130012A
:100EC00030913101601B710B820B930B693E7340B3
:100ED0008105910508F4FFC00E94F2010E94E00B19
:100EE00020E030E64AE657E40E94C10D6B017C0128
:100EF00060912A0170912B0180912C0190912D011C
:100F00000E94E00B20E030E64AE657E40E94C10D63
:100F10009B01AC01C701B6010E94540DAB01BC019D
:100F2000CE0143960E94FB0360912A0170912B0130
:100F300080912C0190912D010E94E00B20E030E681
:100F40004AE657E40E94C10DAB01BC01CE014996AF
:100F50000E94FB03809101019091020118A21F8E53
:100F60001AA219A21CA21BA24AE0BE016F5F7F4F0A
:100F70000E947F09BE016F5F7F4FCE014F960E9496
:100F8000A303609132017091330190E080E00E94F0
:100F9000E00B20E030E040EA5BE30E941D0C20E023
:100FA00030E44CE956E40E941D0C0E94330ECB0144
:100FB0001EA21DA218A61FA21AA619A64AE0BE01CB
:100FC0006F5F7F4F0E947409BE016F5F7F4FCE013C
:100FD00085960E94A30360910801CE0101960E94AC
:100FE000CE0360910001CE01C1960E94CE031CA6E3
:100FF0001BA61EA61DA618AA1FA609A91AA9011597
:10100000110569F0EDA8FEA8B701CE018B960E94EC
:10101000570381110AC1CE018B960E943D03CE0178
:101020008B960E947F03BE016F5F7F4F0E94310449
:101030000E947F03BE016B5D7F4F0E9431040E94BE
:101040007F03BE01615E7F4F0E9431040E947F03D7
:10105000BE01675E7F4F0E9431040E947F03BE0184
:101060006D5E7F4F0E943104FC0144815581608197
:10107000718185E491E00E94FE0142E050E063E26C
:1010800071E085E491E00E94FE01CE018B960E9402
:101090004F03CE01C1960E944F03CE0101960E94DC
:1010A0004F03CE0185960E944F03CE014F960E94BA
:1010B0004F03CE0149960E944F03CE0143960E94F2
:1010C0004F030E94F20160932E0170932F018093D1
:1010D0003001909331010E94F2010091260110919C
:1010E00027012091280130912901601B710B820B8F
:1010F000930B653671058105910508F489C085E477
:1011000091E00E948E02181619060CF077C085E453
:1011100091E00E943A02182F0E945C02FC0197FDA8
:1011200093C08D32910521F0C0970A9708F085C0D1
:10113000C12CD12C760100E0E130F105D9F0ED327F
:10114000F10509F47FC0CF01C0970A9798F4AAE08F
:10115000B0E0A70196010E94DB0C6F01FF0FEE08C3
:10116000FF08C60ED71EE81EF91EF0E3CF1AD108FD
:10117000E108F10885E491E00E943A020E945C02D5
:10118000FC01C0970A97C0F2E130F105A9F20023F3
:1011900041F0F094E094D094C094C11CD11CE11CA7
:1011A000F11C133709F454C0143709F460C01D361C
:1011B00009F079C0D0920201C0920101A091E4012E
:1011C000B091E501A7019601442755270E94DB0C49
:1011D0009B01AC01C301B2010E942C0D2093E701D9
:1011E0003093E8014093E9015093EA011092EB013A
:1011F0001092EC011092ED011092EE010E94F201AA
:101200006093260170932701809328019093290110
:1012100080E090E0892B09F43BCD0E949A0288235C
:1012200009F434CD0E94000031CDF8AAEFA6B80130
:101230008BA59CA50E945410F2CE85E491E00E94FB
:101240003A026ACF01E096CFC12CD12C7601A9CF0A
:10125000C0920801CC2091F20E94F20160932A0111
:1012600070932B0180932C0190932D01C7CF8CE3B9
:101270008C9DA0018D9D500D112428EE33E0429FDE
:10128000C001439F900D529F900D1124092E000C18
:10129000AA0BBB0B8093030190930401A09305015B
:1012A000B0930601ABCF10920001A8CFEF920F933D
:1012B0001F93CF93DF93E80134E047FD34E1042E20
:1012C000000C550B57FF03C0519541955109E32E72
:1012D000022F242FAE010E949909CE01DF91CF91F8
:1012E0001F910F91EF900895BB274A3031F4992355
:1012F00022F4BDE2909581959F4F0C948009BB2705
:10130000FB015527AA27880F991FAA1FA41710F0C1
:10131000A41B83955051B9F7A05DAA3308F0A95DCD
:10132000A193009779F7B111B1931192CB010C946D
:10133000D00BA9E0B0E0EFE9F9E00C94EC0C6A0105
:10134000F22EB02E102FFBE3AF2EA01608F41BE3F5
:101350001F5F012F27E0AE014F5F5F4F0E94F80A29
:10136000BC018981982F9970913009F43FC09BE2AC
:10137000E1FC04C09E2D9170E0FC3AC05E2D5071DE
:10138000E82FE87083FF46C084E0911101C083E03C
:10139000EF2DE81B8F1508F0E0E0D6018E2F20E23C
:1013A000552351F1992329F0D6019C93C60101964A
:1013B0006C0196012D5F3F4FE2FE24C08EE4D60102
:1013C0008C9391E411969C93119712968C93D9016A
:1013D0008E2F90E281111BC0E20FF32FF11D1082BE
:1013E0008EEF9FEF2996ECE00C94080D9DE2C6CF9E
:1013F00090E2C4CF2D9381508111FCCFCE0ED11C31
:10140000E0E0D0CF8EE6D6018C9391E6DBCF9D93C2
:101410008150E0CF482F447082FF3DC084E091119D
:1014200001C083E08F1510F4EF2DE81BD6018E2F3D
:1014300020E2552309F1992329F0D6019C93C60196
:1014400001966C0196012D5F3F4FE2FE1BC089E4BF
:10145000D6018C938EE411968C93119786E41296A4
:101460008C93D9018E2F90E2882309F4B5CF9D93F8
:101470008150FACF2D9381508111FCCFCE0ED11C1B
:10148000E0E0D9CF89E6D6018C938EE611968C9355
:10149000119786E6E4CF9B0177FF02C030E020E0A1
:1014A000A1E0B0E0911102C0B0E0A0E0F9013196F6
:1014B000AE0FBF1F8B2C912CBB2009F461C05401CF
:1014C000EFEFAE1ABE0AAA0DBB1DFA161B0619F0E5
:1014D00014F04F2D4A1B511188C0E3FC59C076010E
:1014E000A42FB0E2A1114FC0C40ED11C992309F45E
:1014F0005BC040E0D6011196F60190836D01552343
:1015000009F448C0012F060F9A81582F507184FFAB
:1015100003C0913309F4015010160CF047C0093094
:1015200008F008E0EEE2FE2E5B01A01AB10885018A
:101530009194819491082F3F320729F4D601FC92AF
:10154000F60131966F016217730794F102171307C2
:101550007CF5DB01A21BB30BAA24A394B12CAC0E27
:10156000BD1EAA0DBB1D11968C9121503109D601CB
:10157000119628153905F4F0F60180836D01DBCF53
:10158000B12CA12CA0CFF701B1937F01A150AACF1C
:101590009111B0CFD601942F50E302C05D939150CA
:1015A0009111FCCFC40ED11C40E0ACCF01E0BACF0A
:1015B00080E3DBCF6217730731F4963388F49533F9
:1015C00011F4552369F0F6018083FD01842F90E228
:1015D000811108C0A40FB11D1C9290E080E002CFE1
:1015E00081E3F1CF91938150F3CF911183CF8ACFD3
:1015F000283008F027E03327DA01990F311D87FDE5
:10160000916000966105710539F432602E5F3D935B
:1016100030E32A95E1F708959F3F30F08038710557
:10162000610509F03C5F3C5F3D93913008F08068B4
:10163000911DDF93CF931F930F93FF92EF92192F7A
:10164000987F9695E92F96959695E90FFF27EE538B
:10165000FF4F99273327EE24FF24A701E7010590C8
:101660000894079428F4360FE71EF81E491F511DF1
:10167000660F771F881F991F0694A1F7059007949E
:1016800028F4E70EF81E491F561FC11D770F881F4B
:10169000991F661F0694A1F70590079428F4F80E89
:1016A000491F561FC71FD11D880F991F661F771F1F
:1016B0000694A1F70590079420F4490F561FC71F01
:1016C000D81F990F661F771F881F0694A9F784916A
:1016D0001095177041F0D695C79557954795F79493
:1016E000E7941A95C1F7E8E6F0E068941590159133
:1016F00035916591959105907FE27395E118F10A16
:10170000430B560BC90BD009C0F7E10CF11E431F68
:10171000561FC91FD01D7EF4703311F48A95E6CF91
:10172000E894015030F0080F0AF40027021708F47B
:10173000202F2395022F7A3328F079E37D932A9581
:10174000E9F710C07D932A9589F6069497956795D9
:10175000379517951794E118F10A430B560BC90BEF
:10176000D00998F023957E9173957A3308F070E351
:101770007C932013B8F77E9170617D9330F0839550
:1017800071E37D9370E32A95E1F71124EF90FF90C8
:101790000F911F91CF91DF91992787FD9095089523
:1017A000DC01FC01672F71917723E1F7329704C0C8
:1017B0007C916D9370836291AE17BF07C8F3089553
:1017C000E89409C097FB3EF49095809570956195DB
:1017D0007F4F8F4F9F4F9923A9F0F92F96E9BB2791
:1017E0009395F695879577956795B795F111F8CF0D
:1017F000FAF4BB0F11F460FF1BC06F5F7F4F8F4F78
:101800009F4F16C0882311F096E911C0772321F06D
:101810009EE8872F762F05C0662371F096E8862F05
:1018200070E060E02AF09A95660F771F881FDAF75C
:10183000880F9695879597F908950E94300C0C941F
:10184000A10C0E94930C38F00E949A0C20F0952372
:1018500011F00C948A0C0C94900C11240C94D50C5F
:101860000E94B20C70F3959FC1F3950F50E0551F85
:10187000629FF001729FBB27F00DB11D639FAA27E5
:10188000F00DB11DAA1F649F6627B00DA11D661F34
:10189000829F2227B00DA11D621F739FB00DA11D55
:1018A000621F839FA00D611D221F749F3327A00D0F
:1018B000611D231F849F600D211D822F762F6A2FAB
:1018C00011249F5750409AF0F1F088234AF0EE0F10
:1018D000FF1FBB1F661F771F881F91505040A9F73D
:1018E0009E3F510580F00C948A0C0C94D50C5F3F00
:1018F000E4F3983ED4F3869577956795B795F79579
:10190000E7959F5FC1F7FE2B880F911D96958795F0
:1019100097F9089597F99F6780E870E060E008956F
:101920009FEF80EC089500240A94161617061806F7
:101930000906089500240A941216130614060506D3
:101940000895092E0394000C11F4882352F0BB0F64
:1019500040F4BF2B11F460FF04C06F5F7F4F8F4FC7
:101960009F4F089557FD9058440F551F59F05F3F02
:1019700071F04795880F97FB991F61F09F3F79F0B1
:1019800087950895121613061406551FF2CF469533
:10199000F1DF08C0161617061806991FF1CF8695B5
:1019A0007105610508940895E894BB276627772799
:1019B000CB0197F908950E941D0DA59F900DB49F2E
:1019C000900DA49F800D911D112408952F923F9298
:1019D0004F925F926F927F928F929F92AF92BF923F
:1019E000CF92DF92EF92FF920F931F93CF93DF93EB
:1019F000CDB7DEB7CA1BDB0B0FB6F894DEBF0FBE48
:101A0000CDBF09942A88398848885F846E847D8494
:101A10008C849B84AA84B984C884DF80EE80FD8096
:101A20000C811B81AA81B981CE0FD11D0FB6F8940C
:101A3000DEBF0FBECDBFED010895A29FB001B39FE1
:101A4000C001A39F700D811D1124911DB29F700DC7
:101A5000811D1124911D0895A1E21A2EAA1BBB1B02
:101A6000FD010DC0AA1FBB1FEE1FFF1FA217B3076A
:101A7000E407F50720F0A21BB30BE40BF50B661F80
:101A8000771F881F991F1A9469F760957095809544
:101A900090959B01AC01BD01CF010895EE0FFF1F92
:101AA0000590F491E02D09945058BB27AA270E9475
:101AB0006C0D0C94A10C0E94930C38F00E949A0CAF
:101AC00020F039F49F3F19F426F40C94900C0EF496
:101AD000E095E7FB0C948A0CE92F0E94B20C58F3B6
:101AE000BA17620773078407950720F079F4A6F503
:101AF0000C94D40C0EF4E0950B2EBA2FA02D0B01F4
:101B0000B90190010C01CA01A0011124FF27591B42
:101B100099F0593F50F4503E68F11A16F040A22F48
:101B2000232F342F4427585FF3CF469537952795B9
:101B3000A795F0405395C9F77EF41F16BA0B620BB8
:101B4000730B840BBAF09150A1F0FF0FBB1F661FFF
:101B5000771F881FC2F70EC0BA0F621F731F841F42
:101B600048F4879577956795B795F7959E3F08F068
:101B7000B0CF9395880F08F09927EE0F979587952A
:101B800008950E94D50D0C94A10C0E949A0C58F057
:101B90000E94930C40F029F45F3F29F00C948A0CCA
:101BA00051110C94D50C0C94900C0E94B20C68F35B
:101BB0009923B1F3552391F3951B550BBB27AA2706
:101BC00062177307840738F09F5F5F4F220F331F40
:101BD000441FAA1FA9F335D00E2E3AF0E0E832D008
:101BE00091505040E695001CCAF72BD0FE2F29D00B
:101BF000660F771F881FBB1F261737074807AB07DD
:101C0000B0E809F0BB0B802DBF01FF2793585F4F51
:101C10003AF09E3F510578F00C948A0C0C94D50C48
:101C20005F3FE4F3983ED4F3869577956795B79533
:101C3000F7959F5FC9F7880F911D9695879597F93E
:101C40000895E1E0660F771F881FBB1F62177307B7
:101C50008407BA0720F0621B730B840BBA0BEE1FCC
:101C600088F7E09508950E943A0E6894B1110C949B
:101C7000D50C08950E94BA0C88F09F5798F0B92FA0
:101C80009927B751B0F0E1F0660F771F881F991FB1
:101C90001AF0BA95C9F714C0B13091F00E94D40C73
:101CA000B1E008950C94D40C672F782F8827B85F83
:101CB00039F0B93FCCF3869577956795B395D9F709
:101CC0003EF490958095709561957F4F8F4F9F4F13
:101CD00008950F931F93CF93DF938230910510F4F3
:101CE00082E090E0E091F201F091F30130E020E039
:101CF000B0E0A0E0309799F42115310509F44AC00D
:101D0000281B390B24303105D8F58A819B81611558
:101D1000710589F1FB0193838283FE0111C040812B
:101D200051810281138148175907E0F0481759077C
:101D300099F4109761F012960C93129713961C93D6
:101D40003296CF01DF91CF911F910F9108950093AB
:101D5000F2011093F301F4CF2115310551F0421730
:101D6000530738F0A901DB019A01BD01DF01F80139
:101D7000C1CFEF01F9CF9093F3018093F201CDCF62
:101D8000FE01E20FF31F81939193225031093983B1
:101D90002883D7CF2091F0013091F101232B41F41A
:101DA00020910B0130910C013093F1012093F0014F
:101DB0002091090130910A012115310541F42DB717
:101DC0003EB740910D0150910E01241B350BE0915F
:101DD000F001F091F101E217F307A0F42E1B3F0B85
:101DE0002817390778F0AC014E5F5F4F241735078D
:101DF00048F04E0F5F1F5093F1014093F001819323
:101E000091939FCFF0E0E0E09CCFCF93DF930097DA
:101E1000E9F0FC01329713821282A091F201B09195
:101E2000F301ED0130E020E01097A1F42081318131
:101E3000820F931F2091F0013091F101281739078B
:101E400009F061C0F093F101E093F001DF91CF91CF
:101E50000895EA01CE17DF07E8F54A815B819E010C
:101E600041155105B1F7E901FB83EA834991599185
:101E7000C40FD51FEC17FD0761F480819181029694
:101E8000840F951FE90199838883828193819B83C5
:101E90008A83F0E0E0E012968D919C911397009771
:101EA000B9F52D913C911197CD010296820F931FA8
:101EB0002091F0013091F1012817390739F6309758
:101EC00051F51092F3011092F201B093F101A09339
:101ED000F001BCCFD383C28340815181840F951F11
:101EE000C817D90761F44E5F5F4F88819981480F09
:101EF000591F518340838A819B819383828321155B
:101F0000310509F0B0CFF093F301E093F2019ECFD9
:101F1000FD01DC01C0CF13821282D7CFB0E0A0E078
:101F2000E4E9FFE00C94E80C8C01009751F4CB013C
:101F30000E94690E8C01C801CDB7DEB7E0E10C94B8
:101F4000040DFC01E60FF71F9C0122503109E21736
:101F5000F30708F49DC0D901CD91DC911197C61704
:101F6000D70798F0C530D10530F3CE010497861716
:101F7000970708F3C61BD70B2297C193D1936D9394
:101F80007C93CF010E94050FD6CF5B01AC1ABD0A2E
:101F90004C018C0E9D1EA091F201B091F301512CC9
:101FA000412CF12CE12C109731F58091F0019091AA
:101FB000F1018815990509F05CC04616570608F02E
:101FC00058C08091090190910A01009741F48DB7A2
:101FD0009EB740910D0150910E01841B950BE8179F
:101FE000F90708F055C0F093F101E093F001F90111
:101FF00071836083A0CF8D919C91119712966C9004
:10200000129713967C901397A815B90559F56C0192
:1020100042E0C40ED11CCA14DB0420F1AC014A1901
:102020005B09DA011296159780F062827382518300
:102030004083D9016D937C93E114F10471F0D701D1
:102040001396FC93EE93129776CF22968C0F9D1FDA
:10205000F90191838083F301EFCFF093F301E093D3
:10206000F20169CF4816590608F42C017D01D3010D
:102070009ACFCB010E94690E7C01009749F0AE0116
:10208000B8010E944B10C8010E94050F870153CF71
:1020900010E000E050CFFB01DC0102C001900D9286
:1020A00041505040D8F70895FB01DC0101900D929A
:0A20B0000020E1F70895F894FFCF37
:1020BA00010A008813000001000000F401800000FA
:1020CA00000000D002FE012B021D038E023A024ECE
:0620DA00022C000D0A00BB
:00000001FF
