:100000000C942E060C945F060C945F060C945F060D
:100010000C945F060C945F060C945F060C945F06CC
:100020000C945F060C945F060C945F060C945F06BC
:100030000C94332B0C945F060C945F060C945F06B3
:100040000C945F060C945F060C945F060C945F069C
:100050000C945F060C945F060C945F060C94A41F2E
:100060000C945F060C9418200C94EE1F0C945F0601
:100070000C945F060C945F060C945F060C945F066C
:100080000C945F060C945F060C945F060C945F065C
:100090000C945F060C945F060C945F060C945F064C
:1000A0000C945F060C945F060C945F060C945F063C
:1000B0000C945F060C945F060C945F060C945F062C
:1000C0000C945F060C945F060C945F060C945F061C
:1000D0000C945F060C945F060C945F060C945F060C
:1000E0000C945F060C941D110C94A2050C940A0A42
:1000F0000C94362B0C94F9170C94E1130C944112C8
:100100000C94B7140C94F40A0C94FD170C9470130F
:100110000C9410120C9437120C9400180C942F129B
:100120000C94FD050C945F050C9425120C94191485
:100130000C946C130C94171C0C942A0C0C943D1208
:100140000C946D130C944B120C947F130C941F128F
:100150000C948B0A0C94FF170C9426130C94F6172E
:100160000C944B0A0C9484070C94A10F0C94260B4E
:100170000C94F7170C941C120C9433120C94451227
:100180000C9417090C94700E0C94FE110C94051825
:100190000C9429120C94FB170C949C050C942809C0
:1001A0000C94A10B0C9414120C9418120C940D17AF
:1001B0000C94970B0C944F120C942B040C94420F3C
:1001C0000C9499090C94F9110C94F6060C941910DE
:1001D0000C94B8170C9493130C948A050C94661421
:1001E00000000A0B02090C0D0E08070304010000B1
:1001F00000000000000000000000000000000000FF
:1002000000000000000000000000000012111000BB
:1002100000000000000000000000000000000000DE
:1002200000000000000000000000003E5B4F5B3E4D
:100230003E6B4F6B3E1C3E7C3E1C183C7E3C181CAB
:10024000577D571C1C5E7F5E1C00183C1800FFE7A2
:10025000C3E7FF0018241800FFE7DBE7FF30483A48
:10026000060E2629792926407F050507407F0525AA
:100270003F5A3CE73C5A7F3E1C1C08081C1C3E7F32
:1002800014227F22145F5F005F5F06097F017F00F9
:100290006689956A606060606094A2FFA294080419
:1002A0007E040810207E201008082A1C08081C2A3A
:1002B00008081E101010100C1E0C1E0C30383E3892
:1002C00030060E3E0E06000000000000005F000039
:1002D0000007000700147F147F14242A7F2A1223AA
:1002E0001308646236495620500008070300001CBA
:1002F0002241000041221C002A1C7F1C2A08083EC3
:1003000008080080703000080808080800006060D5
:100310000020100804023E5149453E00427F400043
:1003200072494949462141494D331814127F10271B
:10033000454545393C4A494931412111090736496A
:10034000494936464949291E00001400000040343E
:100350000000000814224114141414140041221443
:100360000802015909063E415D594E7C1211127C6A
:100370007F494949363E414141227F4141413E7FCB
:10038000494949417F090909013E414151737F08AB
:1003900008087F00417F41002040413F017F081451
:1003A00022417F404040407F021C027F7F040810B2
:1003B0007F3E4141413E7F090909063E4151215E90
:1003C0007F09192946264949493203017F01033F24
:1003D0004040403F1F2040201F3F4038403F6314B3
:1003E00008146303047804036159494D43007F41B5
:1003F00041410204081020004141417F04020102F2
:100400000440404040400003070800205454784016
:100410007F284444383844444428384444287F38AA
:100420005454541800087E090218A4A49C787F082C
:1004300004047800447D40002040403D007F1028A7
:10044000440000417F40007C047804787C08040468
:10045000783844444438FC1824241818242418FC00
:100460007C08040408485454542404043F44243CA5
:100470004040207C1C2040201C3C4030403C442814
:100480001028444C9090907C4464544C44000836AE
:10049000410000007700000041360800020102041C
:1004A000023C2623263C1EA1A161123A4040207A3C
:1004B0003854545559215555794122545478422184
:1004C0005554784020545579400C1E5272123955BB
:1004D00055555939545454593955545458000045B8
:1004E0007C410002457D420001457C407D12111295
:1004F0007DF0282528F07C545545002054547C5428
:100500007C0A097F4932494949323A4444443A32E3
:100510004A4848303A4141217A3A42402078009D89
:10052000A0A07D3D4242423D3D4040403D3C24FF35
:100530002424487E4943662B2FFC2F2BFF0929F6E4
:1005400020C0887E090320545479410000447D4135
:100550003048484A32384040227A007A0A0A727D8E
:100560000D19317D2629292F2826292929263048A9
:100570004D4020380808080808080808382F10C817
:10058000ACBA2F102834FA00007B000008142A149B
:100590002222142A14085500550055AA55AA55AA16
:1005A000FF55FF55FF000000FF00101010FF001462
:1005B0001414FF001010FF00FF1010F010F01414BE
:1005C00014FC001414F700FF0000FF00FF1414F4E3
:1005D00004FC141417101F10101F101F1414141FE4
:1005E00000101010F0000000001F101010101F105D
:1005F000101010F010000000FF101010101010105C
:100600001010FF10000000FF140000FF00FF0000AA
:100610001F10170000FC04F414141710171414F41E
:1006200004F40000FF00F714141414141414F70059
:10063000F7141414171410101F101F141414F414AA
:100640001010F010F000001F101F0000001F140019
:100650000000FC140000F010F01010FF10FF141444
:1006600014FF141010101F00000000F010FFFFFF17
:10067000FFFFF0F0F0F0F0FFFFFF0000000000FFD0
:10068000FF0F0F0F0F0F3844443844FC4A4A4A34D6
:100690007E02020606027E027E02635549416338ED
:1006A00044443C04407E201E2006027E020299A59E
:1006B000E7A5991C2A492A1C4C7201724C304A4DFC
:1006C0004D303048784830BC625A463D3E49494931
:1006D000007E0101017E2A2A2A2A2A44445F4444DA
:1006E00040514A444040444A51400000FF0103E069
:1006F00080FF000008086B6B083612362436060FA0
:10070000090F06000018180000001010003040FF0C
:100710000101001F01011E00191D1712003C3C3C85
:100720003C000000000000002100240027002A00F7
:100730002D003000330001010000040107010A010F
:10074000EF03038002CF0300C130ED046403128184
:10075000E803850078CB05392C003402F70120EA44
:10076000020000C00123C10110C5023E28C7018656
:100770003601483701003A0155B1020018B60308A6
:100780008227F20100260101E00F0F312B0C0E0829
:100790004EF1370710030E0900E10F000E1403118C
:1007A0000731C148080F0C31360F11802980000134
:1007B0000210202008081020401020408002010272
:1007C000010804020101020408102040808040203A
:1007D0001008040201800402018040201008040275
:1007E00001080402010102040810204080010204F3
:1007F000081020408000002200250028002B002E39
:10080000003100340002010000050108010B010560
:10081000050505070508080808020202020A0A0879
:10082000080404040401010101010101010303039F
:100830000303030303040707070C0C0C0C0C0C0C3C
:100840000C0202020206060606060606060B0B0B43
:100850000B0B0B0B0B00CF93DF9300D000D000D01D
:100860001F92CDB7DEB785E0B82ECE0101967C0190
:10087000E091D902F091DA021081D12CC12C112320
:1008800029F00580F681E02DC080D1800E94E7220A
:100890000E94DD224C018091D3029091D4028816EF
:1008A000990608F092C00E9446219092D40280924C
:1008B000D3020E943224D701EB2D1D92EA95E9F76D
:1008C0000091D5021091D6021A86198680E048015F
:1008D000F1E18F0E911C0FB6F8940F92D8015A9641
:1008E000DC905A97DD2009F431C15C964C915C97FD
:1008F0004423F9F050E016968D919C911797840F40
:10090000951F17969C938E93169714962D913C9154
:1009100015978217930738F08D919C911197179630
:100920009C938E931697F80166817781C7010E9488
:100930006532DA94D8015A96DC925A9718968C91BF
:10094000882339F0C80108960E94272281110E944D
:100950006A230F900FBEA980A7FCB2CF0C811D8126
:10096000D8011A968D919C91892B21F0C80102968D
:100970000E9466200E94DD226C018091D30290913A
:10098000D402C816D90610F40E944621D092D4028F
:10099000C092D302EFEFEA0DE93008F091CF0E2EAE
:1009A000000CFF0BD80152969C9152978827E45275
:1009B000FB4F8F4F0C944E305F055F05A2058A05F3
:1009C0009C055F055F05A2058A059092D40280927E
:1009D000D302112351F08C149D0470F00E94322434
:1009E000B401C6010E941C2166CFE091D702F091AC
:1009F000D802808161E0811160E00091D502109100
:100A0000D6020FB6F8940F92D8015D968C915D973F
:100A10008F3F11F45D961C92F801868D8F3F09F48B
:100A2000168E0F900FBED8015A968C915A9781114D
:100A30003CC05296ED91FC91A0915503B0915603A4
:100A40001F96FC93EE931E97A0915503B091560309
:100A50008481958151969C938E93509780915503F4
:100A600090915603A481B5810C9613969C938E9316
:100A7000129780915503909156030C969583848329
:100A8000E0915503F0915603C8014196958B848BF4
:100A9000F80181898F5F818BC601881999096623C6
:100AA00011F08FEF9FEF0E946421C8010E94F8228D
:100AB0000E9432248111FFCE0E946A23FCCE9160F5
:100AC000F801928B8A809B8064857585680D791DFD
:100AD0009401A601C8010E94CE20882309F4F0CE1B
:100AE000D80152968C91529782FF10C01C966D913E
:100AF0007C91680D791DA601C8010E94F820D801DB
:100B00005096ED91FC91C8011995DACE8E7FF801CF
:100B1000828BF5CF916052969C9352976A817B812C
:100B20001D967C936E931C976C0D7D1D9601A601FE
:100B3000C8010E94CE20C4CE91FD04C0C8010E940D
:100B40003E27BECE9E7FF801928BBACE29853A858C
:100B5000232B19F40F900FBE8BCE811109C0809109
:100B6000F8028E838091F6029091F70298878F8326
:100B70000F900FBE0E94E7220FB6F8940F92F80173
:100B8000858D8F3F09F4158ED8015E968C915E9706
:100B90008F3F11F45E961C920F900FBEBE01675FEF
:100BA0007F4FCE0106960E94F42181111BC0C8011F
:100BB0000E94ED22882381F069857A85C4010E9414
:100BC000CC22C8010E94F8220E943224811102C066
:100BD0000E946A2381E07FCEC8010E94F8220E9411
:100BE0003224F8CFC8010E94F8220E943224C801A2
:100BF0000E94ED22882371F33BCE8091BC028111CB
:100C00000BC080912E03823010F00E946A230E9454
:100C1000F31D0E948614F1CF0FB6F8940F92E09165
:100C20000F03F0911003C681D781CE0102960E9476
:100C30006620809157038150809357038091BC02B6
:100C400081508093BC020F900FBE8F89988D0E94B7
:100C50003E27CE010E943E27D0CF362B11241FBE47
:100C6000CFEFD1E2DEBFCDBF00E00CBF12E0A0E0CD
:100C7000B2E0ECEFF4E600E00BBF02C007900D928B
:100C8000A63BB107D9F724E0A6EBB2E001C01D9264
:100C9000AF35B207E1F716E0CEE2D6E000E006C0DD
:100CA00021970109802FFE010E944E30CD32D107DD
:100CB00080E00807A9F70E94D72C0C947C320C9492
:100CC0000000FC01A5A1B6A18C9192A589238C936B
:100CD000A5A1B6A18C9191A5892B8C9308950F9312
:100CE0001F93CF93DF93EC018B018DA981110DC070
:100CF0001EBD0DB407FEFDCF0EBD0DB407FEFDCF2A
:100D0000DF91CF911F910F9108958130E9F480E137
:100D1000E9A1FAA1908117FF14C02DA1922B908315
:100D2000EBA1FCA190812FA1922B9083EBA1FCA1C0
:100D3000908128A592239083000F111F815041F7C5
:100D4000DFCF2EA19223EBCFEF8DF8A11083CE0140
:100D50000E946106EF8DF8A10083CE01DF91CF9153
:100D60001F910F910C946106FC0185A9811105C0AA
:100D70006EBD0DB407FEFDCF08958130E1F488E02B
:100D8000A1A1B2A19C9167FF13C025A1922B9C93B6
:100D9000A3A1B4A19C9127A1922B9C93660FA3A120
:100DA000B4A19C9120A592239C93815049F708956A
:100DB00026A19223ECCFA78DB0A16C93CF010C9408
:100DC0006106CF93DF93EC01ED8DFE8D80819CA9B0
:100DD00089238083CE010E94B406ED8DFE8D808133
:100DE0009BA9892B8083DF91CF910895AF92BF9209
:100DF000CF92DF92EF92FF920F931F93CF93DF93E7
:100E0000EC015B016A01215031097901E60EF71E00
:100E100001501109040F151F8091080290910902D9
:100E20008617970739F480910602909107028E1574
:100E30009F05A1F06AE2CE010E94E106B501CE0154
:100E40000E946F06B701CE010E946F06B0920902A0
:100E5000A0920802F0920702E0920602809104023A
:100E6000909105028C159D0539F4809102029091B4
:100E7000030280179107A1F06BE2CE010E94E10608
:100E8000B601CE010E946F06B801CE010E946F0626
:100E9000D0920502C0920402109303020093020252
:100EA0006CE2CE01DF91CF911F910F91FF90EF90F7
:100EB000DF90CF90BF90AF900C94E106FC0185A924
:100EC000811104C091A182A19CBD8DBD08951F9385
:100ED000CF93DF93EC01162FE881F9810284F3852B
:100EE000E02D1995112371F06DADCE010E94E10640
:100EF000E881F9810688F789E02DCE01DF91CF9155
:100F00001F9119946EADF1CFAF92BF92CF92DF9245
:100F1000EF92FF920F931F93CF93DF93EC0177FD36
:100F200038C088859985681779079CF557FD31C0C9
:100F30008A859B854817590764F569017A015B0129
:100F4000E881F9810284F385E02DCE011995E881CD
:100F5000F98102A4F3A5E02D01E010E021E030E0EA
:100F6000A701B501CE011995B601CE010E946F0609
:100F7000E881F9810688F789E02DCE01DF91CF91D4
:100F80001F910F91FF90EF90DF90CF90BF90AF90A7
:100F90001994DF91CF911F910F91FF90EF90DF9007
:100FA000CF90BF90AF9008958F929F92AF92BF92D3
:100FB000CF92DF92EF92FF920F931F93CF93DF9325
:100FC000EC0149015701E881F98102A4F3A5E02D64
:100FD00019959401D8010E9456306B017C01C1140F
:100FE000D104E104F10409F490C08DA9811115C068
:100FF00081E0C81AD108E108F1088FEFC816D806B9
:10100000E806F80609F481C0BEBC0DB407FEFDCFAA
:10101000AEBC0DB407FEFDCFEBCF813009F045C06B
:1010200081E0C81AD108E108F1088FEFC816D80688
:10103000E806F80609F469C09B2D88E0E9A1FAA149
:10104000208197FF2CC03DA1232B2083EBA1FCA185
:1010500020813FA1232B2083EBA1FCA1208138A577
:1010600023232083990F815049F79A2D88E0E9A125
:10107000FAA1208197FF16C03DA1232B2083EBA16D
:10108000FCA120813FA1232B2083EBA1FCA1208187
:1010900038A523232083990F815049F7C1CF3EA162
:1010A0002323D3CF3EA12323E9CFBA1016C0CC0C03
:1010B000DD1CEE1CFF1CEF8DF8A1B08281E0C81A88
:1010C000D108E108F1088FEFC816D806E806F8063F
:1010D000E1F0CE010E946106F1CF81E0C81AD1088B
:1010E000E108F1088FEFC816D806E806F80669F09F
:1010F000EF8DF8A1B082CE010E946106EF8DF8A1BC
:10110000A082CE010E946106E8CFDF91CF911F91AE
:101110000F91FF90EF90DF90CF90BF90AF909F9096
:101120008F9008958F929F92AF92BF92CF92DF924D
:10113000EF92FF920F931F93CF93DF934C01EB013C
:101140006A01590137FF07C0C9010196C80FD91FAD
:10115000B194A194B108F401A085B185CA17DB0749
:101160000CF058C017FF07C0C8010196C80ED91E61
:10117000119501951109F40182859385C816D90648
:101180000CF048C0FE01EA0DFB1DAF0141505109B2
:1011900057FD40C0B601600F711F9B0121503109FE
:1011A00037FD38C0D7FF03C05F01D0E0C0E0D7FEF5
:1011B00003C08B01D12CC12C4A175B071CF05D01C9
:1011C000AC1ABD0A281739071CF08C010C191D092F
:1011D000D401ED91FC910284F385E02DC4011995B1
:1011E0009501A601BE01C4010E94D407D401ED916E
:1011F000FC910688F789E02DC401DF91CF911F9102
:101200000F91FF90EF90DF90CF90BF90AF909F90A5
:101210008F901994DF91CF911F910F91FF90EF90D4
:10122000DF90CF90BF90AF909F908F900895EF92F6
:10123000FF920F931F932115310529F00115110518
:1012400011F00E9492081F910F91FF90EF90089566
:101250008F929F92AF92BF92CF92DF92EF92FF92C6
:101260000F931F93CF93DF935C014B016A01E90158
:1012700077FD52C0DC0118968D919C916817790713
:101280000CF04AC0209709F447C037FF07C0C901D6
:101290000196C80ED91ED195C195D109F501828557
:1012A0009385C816D906C4F5A6014C0F5D1F9A0197
:1012B0002150310937FD30C0D7FE03C0EA01D12CDF
:1012C000C12C281739071CF0EC01CC19DD09D50118
:1012D000ED91FC910284F385E02DC501199578010B
:1012E0008E0121E030E0A601B401C5010E94D407BF
:1012F000D501ED91FC910688F789E02DC501DF91BC
:10130000CF911F910F91FF90EF90DF90CF90BF9002
:10131000AF909F908F901994DF91CF911F910F9173
:10132000FF90EF90DF90CF90BF90AF909F908F9005
:1013300008958F929F92AF92BF92CF92DF92EF92D9
:10134000FF920F931F93CF93DF935C016B014A01D0
:10135000E90157FD52C0DC011A968D919C91481706
:1013600059070CF04AC0209709F447C037FF07C05F
:10137000C9010196C80ED91ED195C195D109F501B3
:1013800080859185C816D906C4F5A6014C0F5D1F4E
:101390009A012150310937FD30C0D7FE03C0EA0160
:1013A000D12CC12C281739071CF0EC01CC19DD0910
:1013B000D501ED91FC910284F385E02DC5011995CD
:1013C000780101E010E09E01A401B601C5010E9470
:1013D000D407D501ED91FC910688F789E02DC50170
:1013E000DF91CF911F910F91FF90EF90DF90CF9001
:1013F000BF90AF909F908F901994DF91CF911F91E4
:101400000F91FF90EF90DF90CF90BF90AF909F90A3
:101410008F900895EF92FF920F931F93CF93DF93D6
:1014200077FD32C0DC011896ED91FC916E177F07B5
:101430005CF52115310541F137FF07C0F9013196FF
:101440004E0F5F1F319521953109DC011A96ED9100
:10145000FC914E175F07C4F4EA01C20FD31FDE01EF
:101460001197B7FD11C057FF03C09E0150E040E047
:10147000AE17BF071CF09F01241B350B78018901B3
:1014800021E030E00E94D407DF91CF911F910F91AE
:10149000FF90EF900895EF92FF920F931F93CF93D9
:1014A000DF9357FD31C0DC011A96ED91FC914E1788
:1014B0005F0754F52115310539F137FF07C0F901F0
:1014C00031966E0F7F1F319521953109DC011896F9
:1014D000ED91FC916E177F07BCF4EB01C20FD31F97
:1014E000DE011197B7FD10C077FF03C09E0170E0C9
:1014F00060E0AE17BF071CF09F01261B370B780179
:1015000001E010E00E94D407DF91CF911F910F916D
:10151000FF90EF9008958F929F92AF92BF92CF92DB
:10152000DF92EF92FF920F931F93CF93DF934701C8
:101530002115310509F44BC00115110509F447C007
:1015400037FF07C0F90131966E0F7F1F3195219546
:101550003109DC011896AD90BC906A157B05BCF58D
:1015600017FF07C0F80131964E0F5F1F11950195C7
:101570001109DC011A96ED91FC914E175F073CF5BD
:101580006B01C20ED31EE6012197D7FD20C07A0160
:10159000E00EF11ED7011197B7FD19C077FF03C008
:1015A000960170E060E057FF03C0870150E040E023
:1015B000CA15DB051CF09501261B370BAE17BF07BC
:1015C0001CF08F01041B150B74010E94D407DF91DE
:1015D000CF911F910F91FF90EF90DF90CF90BF9030
:1015E000AF909F908F900895EF92FF920F931F936B
:1015F000CF93DF93EC0177FD22C08885998568172A
:101600007907ECF457FD1BC08A859B85481759075D
:10161000B4F47901E881F98102A4F3A5E02D01E099
:1016200010E021E030E0CE011995B701CE01DF9145
:10163000CF911F910F91FF90EF900C946F06DF9167
:10164000CF911F910F91FF90EF900895CF93DF936B
:10165000EC010E945E078FA987FD06C0EB8DFC8D13
:1016600080819AA989238083DF91CF91089508957D
:10167000AF92BF92CF92DF92EF92FF920F931F93A0
:10168000CF93DF93EC01E62E8A01A22E0E945E0723
:101690008FA987FD06C0EB8DFC8D80819AA98923D7
:1016A0008083ED8DFE8D80819CA9892380836E2DA2
:1016B000CE010E94B406ED8DFE8D80819BA9892B01
:1016C0008083D12CC12CB12CCA14DB04E4F48DA985
:1016D0007801823079F488A9882361F0F80161915A
:1016E00071917F01CE010E946F06FFEFCF1ADF0AD2
:1016F0008701EACFFFEFEF1AFF0AF8016491CE01EC
:101700000E94B406F2CF8FA987FD06C0EB8DFC8D39
:10171000808199A9892B8083DF91CF911F910F91AF
:10172000FF90EF90DF90CF90BF90AF900895611140
:1017300006C060E220E050E040E00C94380B61E22B
:10174000F9CF0F931F93CF93DF931F92CDB7DEB7DF
:101750008C016370DC0156966C935697623009F4E5
:1017600068C0633009F46AC0613009F456C088E487
:10177000898380EF90E019969C938E93189780E46C
:1017800091E01B969C938E931A97C8010E945E0766
:10179000D801D7968C91D79787FD09C05B96ED91BC
:1017A000FC915C978081D2969C9189238083D8019B
:1017B0005D96ED91FC915E978081D4969C918923F2
:1017C000808366E3C8010E94B406D8015D96ED915E
:1017D000FC915E978081D3969C91D397892B8083CF
:1017E000D5968C91823061F16981C8010E94B4065E
:1017F000D801D7968C91D79787FD09C05B96ED915C
:10180000FC915C978081D1969C91892B80830F906D
:10181000DF91CF911F910F91089588E2898380E431
:1018200091E0F8019187808780EF90E0938782872D
:10183000ACCF88E8898380EF90E09DCF88EEEECF33
:10184000F80180A9882381F269817A81C8010E9408
:101850006F06CECFFC0187A987FD06C0A38DB48D8E
:101860009C9181A9892B8C9308950895FC01637044
:10187000668B8481958126813781613039F06330B0
:1018800029F09187808733872287089531872087C1
:101890009387828708952F923F924F925F926F9223
:1018A0007F928F929F92AF92BF92CF92DF92EF92F0
:1018B000FF920F931F93CF93DF93CDB7DEB76A9755
:1018C0000FB6F894DEBF0FBECDBF9A8F898F7A8393
:1018D00069834A01D22E18870F833701BC2CDC01A3
:1018E00059962D913C915A972115310509F015C152
:1018F00018968D919C911997681779070CF0D7C1AC
:101900001A968D919C91481759070CF0D0C14C2C18
:10191000512CB6E0CB9E600D711D11247C876B8726
:10192000161617060CF0C3C1EA2DF0E0FA87E98716
:1019300093E0EE0FFF1F9A95E1F7F88BEF87CF0149
:10194000840F951F181619060CF0B1C1A98DBA8D18
:1019500058968C91811104C0BFEABD1508F4D39448
:10196000A98DBA8DED91FC9111970284F385E02D3C
:10197000CD011995B5E0DB9EC0011124E981FA8102
:10198000FC83EB83312C212C9C012A5D3D4F388F49
:101990002F8B4A2D50E05E8B4D8BEF89F88DE20D39
:1019A000F31D44919E828D82D12CC12C69817A8154
:1019B000620D731D7A8B698B842F90E09C8B8B8BCF
:1019C000E98DFA8DA081B18140FF82C0F1E0BF12A4
:1019D0006FC0AF126DC01C96ED91FC912F813885C0
:1019E000A4014C0D5D1D69897A89898D9A8D19959F
:1019F000EB89FC89F595E7954E2F5FEFC51AD50A5F
:101A00006D817E818D899E89680F791F7E836D83AC
:101A100098E0C916D10481F6AFEF2A1A3A0AEB8191
:101A2000FC81E40DF51DFC83EB83F5E02F163104FA
:101A300009F0B3CF2F81388526153705B9F0A98D68
:101A4000BA8DED91FC91B1E0BB1257C0AB1255C0FD
:101A500069817A816B5F7F4F0088F189E02D830176
:101A600028E030E0A401898D9A8D1995A98DBA8D51
:101A7000ED91FC9111970688F789E02DCD016A96CA
:101A80000FB6F894DEBF0FBECDBFDF91CF911F918F
:101A90000F91FF90EF90DF90CF90BF90AF909F900D
:101AA0008F907F906F905F904F903F902F90199400
:101AB0001E96ED91FC91EF80F88409851A859201BC
:101AC0004D815E816B817C81898D9A8D199590CF36
:101AD0002F8138852615370509F48ACF31E0B312F6
:101AE00007C0A31205C01C96ED91FC91930178CF1D
:101AF0001E96ED91FC917301E0CF6B857C85641996
:101B000075090684F785E02D73010F851889920108
:101B1000A401898D9A8D1995A9CFF90134969491D4
:101B2000329745915491D91AB7E0DB9E400D511D73
:101B30001124F901259134913C8B2B8BFA012590CE
:101B40003490FA013296749031963491398B3296F2
:101B500064903196449041E04C1518F04A1508F015
:101B60007FC0662D062C000C770B7C836B83842D45
:101B7000042C000C990B9E838D83A98DBA8DED9159
:101B8000FC9111970284F385E02DCD011995512C1C
:101B9000D12CC12CEA2DF0E0FA87E9872B2D30E01B
:101BA0003C872B87A401440D511D47FC5A95588F43
:101BB0004F8B69817A81660D711D67FC7A957E87EE
:101BC0006D877989C71608F051CF2C2D30E04D81F3
:101BD0005E81420F531FA985BA854A9FC0014B9F62
:101BE000900D5A9F900D1124FC01E80DF91DF88B02
:101BF000EF87852D612C4F89588D420F531F5E8BC7
:101C00004D8B671408F050C044244394480E8770ED
:101C100041F4C1010196EB89FC89E20DF31DD490DA
:101C20001C01D7FE19C0A98DBA8DED91FC91662DCE
:101C300070E0B1E0BB1219C0AB1217C02D853E8514
:101C4000620F731F0484F585E02D2F8138854D893F
:101C50005E89898D9A8D1995DD0C6394842DD1CF81
:101C60001E821D821C821B8288CF4B815C81640F87
:101C7000751FAB85BC856A9FC0016B9F900D7A9FD5
:101C8000900D112469817A81680F791F0684F78588
:101C9000E02DEF80F88409851A859D014F855889CC
:101CA000898D9A8D1995D8CF570CC3948ACF6A968F
:101CB0000FB6F894DEBF0FBECDBFDF91CF911F915D
:101CC0000F91FF90EF90DF90CF90BF90AF909F90DB
:101CD0008F907F906F905F904F903F902F900895DE
:101CE0008F929F92AF92CF92EF92FF920F931F939A
:101CF000CF93DF93EC01262F898D9A8D009709F001
:101D000051C06A30D1F41D861C868D8948E0849FBD
:101D1000900111248E859F85820F931F9F878E8748
:101D200081E090E0DF91CF911F910F91FF90EF90B4
:101D3000CF90AF909F908F9008956D3089F3CC88AD
:101D4000AD888F898823C1F08C859D8536E0C39E40
:101D5000800D911D1124488559854817590764F451
:101D60004E855F851D861C8638E0A39EC001112428
:101D7000840F951F9F878E87EA88FB8808891989B9
:101D80004E855F856C857D85CE010E944B0C2C892C
:101D90008C859D8546E0249F800D911D11249D8793
:101DA0008C87BECF6A3069F41D861C86FC0138968C
:101DB000E4912D898E859F85E29F800D911D1124D0
:101DC000ADCF6D3009F4ACCFFC013496349163177C
:101DD00008F4A6CF3296E491E61708F4A1CFFC01EF
:101DE000329685909490462F431B342F47E0349FC2
:101DF000800C911C1124F401329634913196E491B7
:101E00003323A9F1EE2399F1CC88F4013596E491BE
:101E1000AD884F89442301F10E2E000CFF0BE30F18
:101E2000F11DCE9EA001CF9E500D11246C857D85A5
:101E3000460F571F68857985641775076CF44E85C2
:101E40005F851D861C86FC013896E491AE9E400D90
:101E5000511D11245F874E87EA88FB8808891989FC
:101E60004E855F856C857D85CE010E944B0CF4010B
:101E70003496E4912C898C859D85E29F800D911D7F
:101E800011248DCF6F927F928F929F92AF92BF92CB
:101E9000CF92DF92EF92FF920F931F93CF93DF9336
:101EA000EC016B015A0139014801E881F981028492
:101EB000F385E02D1995E881F9810288F389E02DF9
:101EC00087019301A501B601CE011995A501480D21
:101ED000591D41505109E881F9810288F389E02DAB
:101EE0009301B601CE011995E881F9810088F18945
:101EF000E02D9401A501B601CE011995C60CD71CA1
:101F0000B60161507109E881F9810088F189E02DFD
:101F10009401A501CE011995E881F9810688F78918
:101F2000E02DCE01DF91CF911F910F91FF90EF90A7
:101F3000DF90CF90BF90AF909F908F907F906F90E9
:101F400019946F927F928F929F92AF92BF92CF928D
:101F5000DF92EF92FF920F931F93CF93DF935C0179
:101F6000EB016A01490138018701DC01ED91FC9127
:101F70006217730719F5641675062CF0962D872DD8
:101F80003A01C92ED82E9601261937092F5F3F4FE7
:101F9000048CF58DE02DA301BE01C5011995DF91DB
:101FA000CF911F910F91FF90EF90DF90CF90BF9056
:101FB000AF909F908F907F906F9008954615570532
:101FC00091F42617370724F0892D4B01C22FD82F03
:101FD0009E01281939092F5F3F4F068CF78DE02DA0
:101FE000A601B401DACF0284F385E02D1995D5015D
:101FF000ED91FC910488F589E02D83019401A601FF
:10200000BE01C5011995D501ED91FC910688F789AE
:10201000E02DC501DF91CF911F910F91FF90EF90BF
:10202000DF90CF90BF90AF909F908F907F906F90F8
:102030001994EF92FF920F931F93DC011A960D9162
:102040001C911B9718962D913C911997ED91FC913D
:1020500000A0F1A1E02D7B0150E040E070E060E0E5
:1020600019951F910F91FF90EF9008954F925F92F5
:102070006F927F928F929F92AF92BF92CF92DF9298
:10208000EF92FF920F931F93CF93DF936C012B017D
:102090005A0139014801DC01ED91FC910284F3857C
:1020A000E02D1995E201640C751CD601ED91FC91AF
:1020B000C615D7055CF40088F189E02D87019401ED
:1020C000A501BE01C60119952196EFCF0688F789B3
:1020D000E02DC601DF91CF911F910F91FF90EF90FE
:1020E000DF90CF90BF90AF909F908F907F906F9038
:1020F0005F904F9019948F929F92AF92BF92CF9220
:10210000DF92EF92FF920F931F93CF93DF93EC0137
:102110005B014A016901E881F9810284F385E02DC0
:10212000199595012C0D3D1D21503109E881F9814A
:102130000488F589E02D78018401A401B501CE0160
:102140001995E881F9810688F789E02DCE01DF91A4
:10215000CF911F910F91FF90EF90DF90CF90BF90A4
:10216000AF909F908F9019948F929F92AF92BF9251
:10217000CF92DF92EF92FF920F931F93CF93DF9353
:10218000EC015B014A0169017801E881F98102846F
:10219000F385E02D1995C80CD91C86010150110951
:1021A000E881F9810488F589E02D9501A401B50144
:1021B000CE011995E881F9810688F789E02DCE01D5
:1021C000DF91CF911F910F91FF90EF90DF90CF9013
:1021D000BF90AF909F908F9019940895EF92FF92C7
:1021E0000F931F93DC01ED91FC9100A0F1A1E02D74
:1021F00019951F910F91FF90EF9008950F931F93E2
:10220000DC01ED91FC91068CF78DE02D19951F9165
:102210000F9108950F931F93DC01ED91FC91048CB5
:10222000F58DE02D19951F910F910895DC01ED9129
:10223000FC910084F185E02D19942F923F924F92EA
:102240005F926F927F928F929F92AF92BF92CF9246
:10225000DF92EF92FF920F931F93CF93DF9300D003
:1022600000D0CDB7DEB73C016A013E832D83FC82EE
:10227000EB825801A41AB50AB7FE03C0B194A19429
:10228000B1088D809E80861A970A97FE03C09194AC
:10229000819491088A149B045CF0902F812F0D810A
:1022A0001E819D838E839C2D8D2D6B01692F782F30
:1022B0000C151D055CF09D818E817E836D83692FD9
:1022C000782F902F812F8601C92ED82E1601201A23
:1022D000310A2B012D813E81421A530A57FE03C059
:1022E000519441945108710137FE03C03FEFE31A46
:1022F000F30AF594E7948D819E81861797075CF524
:10230000A1E0B0E0BA83A983C016D1064CF1D30195
:10231000ED91FC910484F585E02D2B813C81A80191
:102320006D817E818A149B041CF04D815E81B80111
:10233000C3011995E418F508F7FE0AC02D813E8106
:1023400089819A81280F391F3E832D83E20CF31C6B
:102350000F5F1F4FD9CF2FEF3FEF3A832983D4CFA1
:1023600026960FB6F894DEBF0FBECDBFDF91CF919A
:102370001F910F91FF90EF90DF90CF90BF90AF90A3
:102380009F908F907F906F905F904F903F902F9095
:102390000895282F30E0F901E052FE4F9491F901A1
:1023A000E155F84F4491215F374FF90124912223E1
:1023B00009F435C0992311F191509231F8F4E92FC5
:1023C000F0E08827E951FE4E8F4F0C944E301812E2
:1023D0001C12F91110121412FE111F1225122912CB
:1023E0002F12331237123D124112FE1145124B12B9
:1023F0004F12809180008F7780938000E22FF0E071
:10240000EE0FFF1FEB50F84FA591B4918FB7F894E2
:10241000EC91611148C040954E234C938FBF0895B5
:10242000809180008F7DE8CF80918000877FE4CF0E
:1024300084B58F7784BDE2CF84B58F7DFBCF80914B
:10244000B0008F778093B000D9CF8091B0008F7D9E
:10245000F9CF809190008F7780939000CFCF8091BB
:1024600090008F7DF9CF80919000877FF5CF80918C
:10247000A0008F778093A000C1CF8091A0008F7DB6
:10248000F9CF8091A000877FF5CF809120018F77D1
:1024900080932001B3CF809120018F7DF9CF80916F
:1024A0002001877FF5CF4E2BB8CFCF93DF9360E02D
:1024B0008CE00E94C91160E088E00E94C911C7E069
:1024C000D0E060E084E00E94C9118091F50390E0C3
:1024D0000C2E02C0959587950A94E2F761E080FF83
:1024E00060E088E00E94C91161E084E00E94C911A7
:1024F000219738F761E08CE0DF91CF910C94C911FE
:10250000CF93DF9390E0FC01E155F84F2491815F78
:10251000974FFC0184918823D1F090E0880F991F98
:10252000FC01EA5DF84FA591B491FC01EB50F84F26
:10253000C591D49161110EC09FB7F8948C91E22F90
:10254000E0958E238C932881E223E8839FBFDF915F
:10255000CF9108958FB7F894EC91E22BEC938FBF55
:10256000F6CF863308F0865320917B00982F987021
:10257000277F922B90937B008770806480937C00F0
:1025800080917A00806480937A0080917A0086FD41
:10259000FCCF809178009091790008953FB7F8942E
:1025A0008091F1029091F202A091F302B091F402B5
:1025B00026B5A89B05C02F3F19F00196A11DB11D9E
:1025C0003FBFBA2FA92F982F8827BC01CD01620FDA
:1025D000711D811D911D42E0660F771F881F991F95
:1025E0004A95D1F708958F929F92AF92BF92CF9262
:1025F000DF92EF92FF926B017C010E94CE124B01A1
:102600005C01C114D104E104F104B9F00E94CE12BE
:10261000681979098A099B09683E7340810591050B
:1026200080F321E0C21AD108E108F10888EE880E93
:1026300083E0981EA11CB11CE4CFFF90EF90DF90C7
:10264000CF90BF90AF909F908F900895AF92BF9220
:10265000CF92DF92EF92FF920F931F93CF93DF936E
:102660006C017B018B01040F151FEB015E01AE189D
:10267000BF08C017D10759F06991D601ED91FC91BF
:102680000190F081E02DC6011995892B79F7C501DC
:10269000DF91CF911F910F91FF90EF90DF90CF903E
:1026A000BF90AF900895CF93DF93FC014481558193
:1026B0006081718188E593E00E942613EC0142E07D
:1026C00050E062E572E088E593E00E9426138C0FEB
:1026D0009D1FDF91CF910895089590E080E00895C7
:1026E000FC01538D448D252F30E0842F90E0821B18
:1026F000930B541710F0CF96089501970895FC019D
:10270000918D828D981761F0A28DAE0FBF2FB11DF4
:102710005D968C91928D9F5F9F73928F90E008954C
:102720008FEF9FEF0895FC01918D828D981731F006
:10273000828DE80FF11D858D90E008958FEF9FEF5A
:1027400008952FB7F8948091F9029091FA02A09120
:10275000FB02B091FC022FBF809360039093610352
:10276000A0936203B093630388E593E00E94931300
:1027700097FF26C02FB7F8948091F9029091FA0242
:10278000A091FB02B091FC022FBF409160035091D9
:1027900061036091620370916303841B950BA60B28
:1027A000B70B40915C0350915D0360915E037091A3
:1027B0005F0384179507A607B707B0F28FEF9FEF67
:1027C0000895FC01918D228D892F90E0805C9F4FB0
:1027D000821B91098F739927089588E593E00E94E1
:1027E000E11321E0892B09F420E0822F0895FC01F8
:1027F000A48DA80FB92FB11DA35ABF4F2C91848D62
:1028000090E001968F739927848FA689B7892C93BE
:10281000A089B1898C91837080648C93938D848D11
:10282000981306C00288F389E02D80818F7D808314
:102830000895EF92FF920F931F93CF93DF93EC01D4
:1028400081E0888F9B8D8C8D98131AC0E889F98957
:10285000808185FF15C09FB7F894EE89FF8960835A
:10286000E889F98980818370806480839FBF81E0DB
:1028700090E0DF91CF911F910F91FF90EF9008951D
:10288000F62E0B8D10E00F5F1F4F0F731127E02EF8
:102890008C8D8E110CC00FB607FCFACFE889F98930
:1028A000808185FFF5CFCE010E94F713F1CFEB8D2C
:1028B000EC0FFD2FF11DE35AFF4FF0829FB7F89404
:1028C0000B8FEA89FB8980818062CFCFCF93DF9322
:1028D000EC01888D8823B9F0AA89BB89E889F98938
:1028E0008C9185FD03C0808186FD0DC00FB607FC6D
:1028F000F7CF8C9185FFF2CF808185FFEDCFCE01A0
:102900000E94F713E9CFDF91CF91089580E090E026
:10291000892B29F00E94ED1381110E94000080E0B4
:1029200090E0892B49F080E090E0892B29F00E940B
:10293000000081110E94000080E090E0892B49F0A6
:1029400080E090E0892B29F00E94000081110E9414
:10295000000080E090E0892B49F080E090E0892B36
:1029600029F00E94000081110C9400000895CF927C
:10297000DF92EF92FF920F931F93CF93DF93EC01BF
:102980006A017B01C114D104E104F10431F4C12CCA
:1029900042E1D42E4AE7E42EF12C8FA987FD07C02F
:1029A00061E00E94801261E08FA90E94C91161E07C
:1029B00088AD0E94801261E088AD0E94C9118DA986
:1029C0008111A3C040E052E16AE770E0C416D50669
:1029D000E606F70640F476956795579547958F5F1D
:1029E0008630A1F787E0982F906A969599A38095F5
:1029F00081708AA31BA21CA21DA21EA21FB7F8945D
:102A00008091F502811127C0E4E4F8E08491E4EEBE
:102A1000F7E09491E82FF0E0EE0FFF1FEA5DF84F2A
:102A2000A591B491EC91E92321F461E085E30E9442
:102A3000C91161E085E30E9480128CB580618CBD74
:102A40008CB580648CBD61E084E30E94801261E0FB
:102A500083E30E9480128091F5028F5F8093F502DC
:102A60001FBF8EA987FD21C061E00E94801261E036
:102A70008EA90E94C91164E670E080E090E00E9497
:102A8000F31260E08EA90E94C91164E670E080E054
:102A900090E00E94F31261E08EA90E94C91168ECD7
:102AA00070E080E090E00E94F3128EA987FF0DC0D5
:102AB00020E050E040E061E0CE010E94380B66E982
:102AC00070E080E090E00E94F31200E417E0C8019B
:102AD0000196F8016491662309F463C00E5F1F4FED
:102AE000FC01F490EF2CE894E7F82E2DA801CE011C
:102AF0000E94380B0E0D111DF7FEE9CF66E970E05C
:102B000080E090E00E94F312E2CF0FE018E0F12C99
:102B10008130B9F461E08AA50E94801260E08AA544
:102B20000E94C91161E08CA50E94801260E08CA512
:102B30000E94C9118BA587FD94CF60E00E9480128E
:102B400090CFF8018491E82FF0E0EE0FFF1FEB50DB
:102B5000F84F859194912F8D38A12817390741F4AA
:102B600061E08F2D0E94801260E08F2D0E94C911BC
:102B7000F3940F5F1F4FF6E4FF12E3CF61E08EA5E1
:102B80000E94801261E08EA50E94C9118FA587FD69
:102B900068CF61E00E94801261E08FA50E94C91198
:102BA00060CF80EF90E09987888780E491E09B87F1
:102BB0008A87DF91CF911F910F91FF90EF90DF9067
:102BC000CF9008950E9460320F931F93CF93DF93AD
:102BD000EC0188819981009759F02A813B81261761
:102BE000370730F081E0DF91CF911F910F91089569
:102BF0008B016F5F7F4F0E947F31009759F099835F
:102C000088831B830A832C813D81232B59F7FC0188
:102C10001082E8CF80E0E7CFEF92FF920F931F93EF
:102C2000CF93DF936115710541F480E0DF91CF917F
:102C30001F910F91FF90EF90089541155105B1F04C
:102C40007B01EC010C811D81040F151FB8010E944E
:102C5000E415882351F3288139818C819D81B70146
:102C6000820F931F0E9475321D830C8381E0DECF9B
:102C7000CF93DF93EC0188819981009711F00E9436
:102C8000FA2D198218821D821C821B821A82DF9102
:102C9000CF910895EF92FF920F931F93CF93DF93FD
:102CA000EC01198218821B821A821D821C82611516
:102CB000710521F18B01FB0101900020E9F73197AB
:102CC0007F01E61AF70AB7010E94E415811109C0D5
:102CD000CE01DF91CF911F910F91FF90EF900C9457
:102CE0003816FD82EC82B80188819981DF91CF91FD
:102CF0001F910F91FF90EF900C947532DF91CF915F
:102D00001F910F91FF90EF900895EF92FF920F9314
:102D10001F93CF93DF938C017B01EB01099000207F
:102D2000E9F72197C61BD70BBE010E94E41581115C
:102D300009C0C801DF91CF911F910F91FF90EF90D3
:102D40000C943816F801D583C483B7018081918132
:102D5000DF91CF911F910F91FF90EF900C947532FE
:102D60000F931F93CF93DF93CDB7DEB762970FB664
:102D7000F894DEBF0FBECDBF8C01CB01F8011182EC
:102D8000108213821282158214824AE0BE016F5FA4
:102D90007F4F0E94832EBE016F5F7F4FC8010E944C
:102DA000851662960FB6F894DEBF0FBECDBFDF91D9
:102DB000CF911F910F910895CF93DF93EC01FB0109
:102DC00001900020E9F73197AF01461B570B0E9495
:102DD0000C16811103C0CE010E943816CE01DF917E
:102DE000CF910895CF93DF93EC01FB01448155818E
:102DF000608171810E940C16811103C0CE010E9476
:102E00003816CE01DF91CF910895FC018081918128
:102E1000009711F00C94FA2D08952091F70330914A
:102E2000F803A091EE02B091EF020E942B309B01BB
:102E3000AC0160E077E883E993E00E9409302093D9
:102E4000FA033093FB034093FC035093FD0310926D
:102E5000FE031092FF03109200041092010498EEFA
:102E6000492E93E0592E612C712CCFEFD0E0809148
:102E7000ED02882309F4C6C02091E9023091EA02EC
:102E80008091EE029091EF02289F8001299F100D02
:102E9000389F100D11246091FA037091FB0380910B
:102EA000FC039091FD03A30192010E940930690186
:102EB0007A014B015C010150110908F4A3C0909103
:102EC000F903913009F442C0923009F056C050E441
:102ED00040E831E020E28091020483FF3CC0885F3B
:102EE00080930204809102048F73809302049130D6
:102EF000A1F5D0938900C0938800D0939D00C09322
:102F00009C00722F732B642F652B962F972B909517
:102F10008091F50398239093F503E0910204F0E08B
:102F200083E0F595E7958A95E1F7E830F10518F526
:102F30008827E256F84E8F4F0C944E300018B81781
:102F4000F717F617F917FB17FD17FF1750E148E0C1
:102F500032E024E0C0CF805FC3CF923091F6D093AF
:102F6000A900C093A800D0939900C0939800C9CF3E
:102F7000972B9093F5030E945512C701B6010E944A
:102F8000F3128091FE039091FF03A0910004B09191
:102F90000104880D991DAA1DBB1D8093FE0390930B
:102FA000FF03A0930004B0930104883E9340A10561
:102FB000B10508F480CF61E070E080E090E00E940D
:102FC000F3128091FE039091FF03A0910004B09151
:102FD0000104885E9340A109B1098093FE03909398
:102FE000FF03A0930004B093010465CF342B932B0F
:102FF000C0CF942BBECF962BBCCF952BBACF252B11
:10300000922BB7CF0E946A2332CF2F923F924F92DA
:103010005F926F927F928F929F92AF92BF92CF9268
:10302000DF92EF92FF920F931F93CF93DF93CDB771
:10303000DEB760970FB6F894DEBF0FBECDBF40E09D
:1030400050E0BA0188E194E00E94B71470E060E0BB
:1030500088E194E00E941910E12C58EFF52E08E267
:1030600010E028E230E050E040E070E060E088E10D
:1030700094E00E94920860EEE62EFF24FA9428E283
:1030800030E050E040E068E270E088E194E00E94C7
:10309000920870EEE72E77E0F72E28E230E050E05D
:1030A00040E060E570E088E194E00E949208EE2440
:1030B000EA94E7E0FE2E28E230E050E040E068E7E6
:1030C00070E088E194E00E949208FFE1EF2EF12C7D
:1030D00028E230E050E040E060EA70E088E194E00F
:1030E0000E949208AFE1EA2EA8EFFA2E28E230E023
:1030F00050E040E068EC70E088E194E00E949208C3
:10310000EE24EA94FE2C28E230E050E040E070E04B
:1031100060E088E194E00E94420F80E098EF909395
:10312000E8028093E70260E0809106040E9480122A
:1031300060E0809107040E94801261E080910904A0
:103140000E94801261E0809108040E9480128091A8
:103150001404E0910C04F0910D049081892B80837C
:1031600080911504E0911004F091110490818095F4
:1031700089238083809106040E94B1129A838983F7
:10318000809106040E94B11229813A81281B390BD3
:103190002C5F3F4F10E02930310538F429813A8106
:1031A000820F931F9595879511E02FEF33E0281B31
:1031B000390B3A83298360E0809109040E948012D0
:1031C00060E0809108040E94801261E08091060412
:1031D0000E94801261E0809107040E948012809119
:1031E0001704E0911204F0911304908180958923D3
:1031F000808380911604E0910E04F0910F04908179
:10320000892B8083809108040E94B1127C018091F7
:1032100008040E94B1129701281B390B2C5F3F4F05
:103220002930310508F06EC18E0D9F1D959587954B
:10323000EE24EA9423E0F22EE81AF90A61E0809184
:1032400009040E94801260E0809106040E948012AE
:1032500080911404E0910C04F0910D04908180950C
:103260008923808380911704E0911204F091130464
:103270009081892B8083809108040E94B1126C0197
:10328000809106040E94B112BC01A0900A04B09083
:103290000B04A114B10409F437C1072E000C880BEC
:1032A000990B0E94BA2E2B013C01B601DD0C880B54
:1032B000990B0E94BA2E9B01AC01C301B2010E947E
:1032C000D23020E030E040E85FE30E9465302B011F
:1032D0003C0129813A81B901330F880B990B0E9477
:1032E000BA2EA30192010E94192F2B013C01B501B6
:1032F00090E080E00E94B82EA30192010E94192F55
:1033000020E030E040E85AE30E94192F0E94443147
:10331000111102C070E060E06A5071096F3D7340A6
:1033200008F022C2A0912004B091210489819A81E1
:103330009C01990F440B550B26593109410951093C
:103340000E94013022E033E040E050E00E94D72F9D
:103350002901190120912204309123043A83298301
:103360009701FF0C440B550B2857310941095109AE
:10337000A981BA810E94013024E333E040E050E0AB
:103380000E94D72F2F83388749875A878F81988546
:103390009C878B8788970CF02EC18091E7029091D3
:1033A000E8029093E6028093E50298E24916510400
:1033B0000CF0B2C080E098EF9093E8028093E702AF
:1033C000EE24EA94FE2C08E210E028E230E050E01F
:1033D00040E070E060E088E194E00E94420F80915C
:1033E000E5029091E6022091E7023091E80282170F
:1033F000930709F482C08115984F79F4E12CE8EF26
:10340000FE2E08E210E028E230E050E040E070E0FC
:1034100060E088E194E00E9492088091E50290913A
:10342000E602809681F470EEE72EFF24FA9408E21B
:1034300010E028E230E050E040E068E270E088E12F
:1034400094E00E9492088091E5029091E602803E0D
:10345000974081F460EEE62E67E0F62E08E210E079
:1034600028E230E050E040E060E570E088E194E080
:103470000E9492088091E5029091E6028F3F97406A
:1034800081F4EE24EA9457E0F52E08E210E028E2F9
:1034900030E050E040E068E770E088E194E00E94AE
:1034A00092088091E5029091E6024F9779F44FE1FE
:1034B000E42EF12C08E210E028E230E050E040E099
:1034C00060EA70E088E194E00E9492088091E50251
:1034D0009091E6028F31984F81F43FE1E32E38EF6F
:1034E000F32E08E210E028E230E050E040E068EC23
:1034F00070E088E194E00E9492088EE390E00E94E0
:10350000292711CE10E094CE6C197D098FEF93E03E
:10351000861B970BBC01FCCE20E54216510494F4A7
:1035200080EE9FEF9093E8028093E702EE24EA9406
:10353000FE2C08E210E028E230E050E040E068E2D3
:1035400070E049CF38E74316510494F480EE97E0D9
:103550009093E8028093E702EE24EA94FE2C08E2BE
:1035600010E028E230E050E040E060E570E033CF6A
:1035700080EA4816510494F48FEF97E09093E802A4
:103580008093E702EE24EA94FE2C08E210E028E2A1
:1035900030E050E040E068E770E01DCF98EC49165D
:1035A000510494F48FE190E09093E8028093E70255
:1035B000EE24EA94FE2C08E210E028E230E050E02D
:1035C00040E060EA70E007CF20EF421651040CF0B3
:1035D00006CF8FE198EF9093E8028093E702EE2404
:1035E000EA94FE2C08E210E028E230E050E040E0EF
:1035F00068EC70E0F0CE8B859C858C970CF47DCFC9
:103600008F819885039629813A81821793070CF060
:1036100074CF8091E7029091E8029C838B8388E1CC
:1036200094E00E94260B0B811C8127E030E04F8143
:10363000588543505109B20188E194E00E940A0A7A
:10364000F12CE12C23E030E03A83298381E090E003
:103650009E838D8393E0892E912C2AEF3FEF3E8746
:103660002D872EEFC22EDD24DA943FEFE31AF30A02
:103670008D819E8102969E838D83C80ED91E8E14E5
:103680009F040CF466C05401AA0CBB1C9FEFA91A3E
:10369000B90A0B811C8195018B859C858819990934
:1036A000988B8F87AC01B701640D751D88E194E09C
:1036B0000E940A0A0B811C8195014F855889B2012D
:1036C0006E197F0988E194E00E940A0A29813A81F3
:1036D0002815390549F181E090E08E199F092F8165
:1036E0003885820F931F988B8F8769817A81620D4D
:1036F000731D0B811C81AD80BE8032E0A31AB1081E
:103700009501AC0188E194E00E940A0AB101898127
:103710009A81681B790B0B811C8195014F85588913
:1037200088E194E00E940A0AE814F904C4F4C40190
:103730003FEFC316D30649F001972D853E852E5FD6
:103740003F4F3E872D87C20ED31E9A8289824C013D
:103750008CCF29813A812815390509F0BCCF88E141
:1037600094E00E942A0CC9CE60960FB6F894DEBF92
:103770000FBECDBFDF91CF911F910F91FF90EF90C2
:10378000DF90CF90BF90AF909F908F907F906F9081
:103790005F904F903F902F9008950F931F93E8E50F
:1037A000F3E0A089B18982E08C93A485B5851C9251
:1037B000A685B78580E18C93108EA489B58986E0B3
:1037C0008C93A289B3898C9180618C93A289B389EF
:1037D0008C9188608C93A289B3898C9180688C933A
:1037E0000288F389E02D80818F7D808310E000E0E6
:1037F00021E048EE53E062E672E085E098E10E9445
:10380000402921E048EE53E06FE672E087E19CE159
:103810000E94402921E048EE53E06EE772E08DE01F
:1038200097E10E9440291F910F910C946E2ACF932B
:10383000DF9300D01F921F92CDB7DEB78FE190E0EB
:103840000E9422298C01009769F0DC0111969C935B
:103850008E9381E05B968C935B975C961C92C8017B
:103860000E943A231093E4020093E30266246A94D0
:10387000762C99E0592E24E0A22EB12C0091E3027F
:103880001091E4027D826C82D12C90E04801B1E17C
:103890008B0E911C0FB6F8940F92F801828D88233D
:1038A00099F18150828F80819181892B71F4E0910F
:1038B0005503F0915603309719F082A18F5F82A3D0
:1038C000D8011596FC93EE931497F8018085882310
:1038D00039F0C80108960E94272281110E946A23AC
:1038E0000F900FBE8EE30E94B1129093E20280937C
:1038F000E1028091E3029091E4020E94FE258EE3B2
:1039000090E00E942927BACF2C813D81232B19F406
:103910000F900FBEF4CF911109C08091F8028983F6
:103920008091F6029091F7029B838A830F900FBEDD
:103930000E94E7220FB6F8940F92D8015D968C9101
:103940005D978F3F11F45D961C92F801868D8F3F35
:1039500009F4168E0F900FBEBE016C5F7F4FCE0133
:1039600001960E94F4218111AFC0C8010E94ED228E
:10397000882309F4A3C0D8018D919C91892B09F06B
:1039800078C00FB6F8940F92F801E480F580E11446
:10399000F10409F491C0D70156968C915697E091A5
:1039A0005503F09156039689891708F07AC01C9642
:1039B0002D913C911D9737FD0CC0E0915503F0917E
:1039C000560396899501291B31091D963C932E9328
:1039D0001C97859DC0011124825D9C4FF7012285B3
:1039E00033852817390709F054C06701F2E0CF0E7C
:1039F000D11CC6010E946620E0915503F091560348
:103A0000E689D7015696EC93809152038E1710F4F5
:103A1000E09352035E9EF0011124E25DFC4F0180B1
:103A2000F281E02DD7011596FC93EE9314978481D3
:103A3000958117969C938E931697A481B5811396C2
:103A4000DC92CE921297D582C482D7015696EC9121
:103A50005697E59DF0011124E25DFC4F1B96FC9307
:103A6000EE931A9780818F5F8083DD24D3940F902B
:103A70000FBE6C817D81C4010E94CC22C8010E94CE
:103A8000F8220E943224811102C00E946A2391E030
:103A900001CFE0915503F09156038689F701868B9B
:103AA000E4CFE0915503F0915603DD24D394919631
:103AB0009C9186899817D8F2D12CD9CFC8010E9441
:103AC000F8220E943224E3CFC8010E94F8220E940B
:103AD0003224C8010E94ED228823C9F2DD2009F4B6
:103AE0000ECF0FB6F8940F92F8018189882309F45C
:103AF00078C00688F789E02D908184E0891BD80181
:103B000014960D911C910115110509F401CFF801CE
:103B100091A1981708F4982FD80156968C91569732
:103B2000891709F4F5CE92962C919297213009F0DD
:103B3000EFCE56969C9356971C962D913C911D97CF
:103B400037FD07C09501291B31091D963C932E9323
:103B50001C97859DC0011124825D9C4FF801228530
:103B600033852817390709F0D3CE7801F2E0EF0E3C
:103B7000F11CC7010E946620D8015696EC918091F5
:103B800052038E1710F4E09352035E9EF00111244D
:103B9000E25DFC4F0180F281E02DD8011596FC9387
:103BA000EE9314978481958117969C938E93169724
:103BB000A481B5811396FC92EE921297F582E4826D
:103BC000D8015696EC915697E59DF0011124E25DDF
:103BD000FC4F1B96FC93EE931A9780818F5F808336
:103BE00097CE80E08CCF8F929F92AF92BF92CF9270
:103BF000DF92EF92FF920F931F93CF93DF93CDB796
:103C0000DEB76B970FB6F894DEBF0FBECDBF0E9434
:103C1000DD226EE370E00E943A304B018091000299
:103C2000882309F480C08091E3029091E4020E940D
:103C3000FE25A090EE02B090EF026091E10270913B
:103C4000E20290E080E00E94B82E20E030E040EAFE
:103C50005BE30E94192F20E030E44CE956E40E9417
:103C6000192F0E944431CE0146960E94B0168091D1
:103C7000ED02198A188A1B8A1A8A1D8A1C8A4AE050
:103C80008E010F5F1F4FB80190E00E948E2EB80189
:103C9000CE0140960E9485166091000270E0635745
:103CA0007D4FCE010A960E944A16BE01605F7F4F8B
:103CB000CE010A960E94F2166DE872E00E94DC16B0
:103CC000BE016A5E7F4F0E94F2166DE872E00E94AC
:103CD000DC166C014AE0B801C5010E948E2EF80185
:103CE00001900020E9F73197AF01401B510BB8015B
:103CF000C6010E940C16811103C0C6010E9438162D
:103D00006FE872E0C6010E94DC160E945313CE01D8
:103D10000A960E940517CE0140960E940517CE0113
:103D200046960E940517B12CA12CC501B4010E9432
:103D3000B82E20E030E040E752E40E94D2306B0120
:103D40007C016091B8027091B9028091BA029091A1
:103D5000BB020E94B82E20E030E040E752E40E940F
:103D6000D2309B01AC01C701B6010E9465306B01E6
:103D70007C016091E9027091EA028091EB029091DE
:103D8000EC020E94B82E9B01AC01C701B6010E9453
:103D90007A3187FD05C08091ED0281111092ED020C
:103DA00088E593E00E94E11302970CF456C088E581
:103DB00093E00E947F13182F0E94A113FC0197FD2E
:103DC0006AC08D32910521F0C0970A9708F05CC057
:103DD000C12CD12C760100E0E130F105D9F0ED32B3
:103DE000F10509F456C0CF01C0970A9798F4AAE0EC
:103DF000B0E0A70196010E94F62F6F01FF0FEE08B9
:103E0000FF08C60ED71EE81EF91E80E3C81AD108A7
:103E1000E108F10888E593E00E947F130E94A11356
:103E2000FC01C0970A97C0F2E130F105A9F2002326
:103E300041F0F094E094D094C094C11CD11CE11CDA
:103E4000F11CC601133759F11437B1F11D3609F0D1
:103E500040C0D092EF02C092EE028EE390E00E944A
:103E600029276B960FB6F894DEBF0FBECDBFDF914A
:103E7000CF911F910F91FF90EF90DF90CF90BF9067
:103E8000AF909F908F90089588E593E00E947F13F4
:103E900093CF01E0BFCFC12CD12C7601D2CFC092FD
:103EA000ED02CC20D1F28092B8029092B902A09299
:103EB000BA02B092BB02D1CF092E000CAA0BBB0BE9
:103EC0008093E9029093EA02A093EB02B093EC0294
:103ED000C4CF10920002B601CE0140960E94B016E7
:103EE0001B861A861D861C861F861E8619831A82CB
:103EF000BE016F5F7F4FCE010A960E94851664E96E
:103F000072E0CE0101960E944A16BE01665F7F4FA5
:103F1000CE0101960E94F2166DEA72E00E94DC1654
:103F2000BE01605F7F4F0E94F2160E945313CE01C4
:103F300001960E940517CE010A960E940517CE0130
:103F400040960E94051789CF1F920F920FB60F92CD
:103F500011242F933F938F939F93AF93BF9380919F
:103F6000F9029091FA02A091FB02B091FC0230910B
:103F7000F00223E0230F2D3758F50196A11DB11D46
:103F80002093F0028093F9029093FA02A093FB022F
:103F9000B093FC028091F1029091F202A091F302A1
:103FA000B091F4020196A11DB11D8093F10290938E
:103FB000F202A093F302B093F402BF91AF919F91EC
:103FC0008F913F912F910F900FBE0F901F901895DA
:103FD00026E8230F0296A11DB11DD2CF1F920F928A
:103FE0000FB60F9211240BB60F922F933F934F935E
:103FF0005F936F937F938F939F93AF93BF93EF9351
:10400000FF9388E593E00E94F713FF91EF91BF9132
:10401000AF919F918F917F916F915F914F913F9160
:104020002F910F900BBE0F900FBE0F901F90189501
:104030001F920F920FB60F9211240BB60F922F936F
:104040008F939F93EF93FF93E0916803F09169033F
:104050008081E0916E03F0916F0382FD1DC090811D
:10406000809171038F5F8F7320917203821741F0EB
:10407000E0917103F0E0E85AFC4F958F8093710353
:10408000FF91EF919F918F912F910F900BBE0F9009
:104090000FBE0F901F9018958081F2CFE091FF0224
:1040A000F09100038081811107C08FEF9FEF909303
:1040B000DC028093DB020895E091FF02F09100039F
:1040C0000580F681E02D80819181F1CFCF93DF9340
:1040D000FC01A085B1858281938124813581EC0129
:1040E0003D832C83C481D5819B838A8311968D91D6
:1040F0009C9112978E179F0721F41296DC93CE9312
:104100001197118610868C9181508C938C91DF9140
:10411000CF9108950F931F93CF93DF938C01FB01F1
:1041200080819181D80113968F3F9807F1F4E801BF
:10413000AF81B88512968D919C911397938382835A
:10414000EC01FD83EC83B583A4831396FC93EE937B
:10415000129711870087F80180818F5F8083DF913C
:10416000CF911F910F910895D90112962D913C91F5
:104170001397E9014881598184179507A8F7DACF89
:10418000FC010396928381832FEF3FEF34832383D7
:10419000968385839087878310820895FC017383BB
:1041A0006283918780874617570790F0421B530B15
:1041B0008485958548175907C8F4BF016E5F7F4F06
:1041C0008091D7029091D8020E948A2080E00895C1
:1041D0004217530718F46217730740F4BF016E5F6C
:1041E0007F4F8091D9029091DA02EECF81E008955D
:1041F000EF92FF920F931F93CF93DF93EC018B010C
:104200007A016C857D85600F711F9801A701CE0131
:104210000E94CE20811107C0DF91CF911F910F9195
:10422000FF90EF9008958C859D85080F191FE889F0
:10423000F989CE011995E5CFEF92FF920F931F9365
:10424000CF93DF938C017B01E091D902F091DA02E8
:104250000580F681E02DC681D781CE0102960E94AD
:1042600066208A8982FF0FC0A701B801CE010E9493
:10427000F820E889F989CE01DF91CF911F910F9144
:10428000FF90EF9019948E7F8A8BF3CFE091D90243
:10429000F091DA02808181110DC08091D702909156
:1042A000D8029093DA028093D902F093D802E09377
:1042B000D70208950580F681E02D6FEF7FEF8081B2
:1042C00091810E941C21E2CFBF92CF92DF92EF92A8
:1042D000FF920F931F93CF93DF93EC01B62EC09004
:1042E000F602D090F7020091FF0210910003E090D7
:1042F000FD02F090FE0280915503909156030296C4
:104300000E946620CF3FDC0709F042C0BB2009F4C1
:104310003FC0E0910203F0910303A0915503B091D7
:1043200056031596FC93EE931497A0915503B09104
:1043300056038481958117969C938E93169780914E
:10434000550390915603A481B581029613969C93D0
:104350008E93129780915503909156030296958300
:104360008483E0915503F091560381E093E09387B5
:104370008287809101038F5F80930103DF91CF914A
:104380001F910F91FF90EF90DF90CF90BF90089515
:10439000CC0DDD1DE0915503F0915603D383C2830C
:1043A00060915503709156036E5F7F4FCC15DD050C
:1043B00060F4C701DF91CF911F910F91FF90EF90B3
:1043C000DF90CF90BF900C948A20C8010E948A2071
:1043D0008091DB029091DC02C817D90778F6D09360
:1043E000DC02C093DB02CACFFC01DB010FB6F894FC
:1043F0000F924091F6025091F7022D913C91119746
:104400002F3F320711F1818192816091F802708112
:10441000761749F04817590730F01D921C9281E039
:104420000F900FBE0895481B590B42175307A8F76A
:10443000241B350B2D933C938091F802808380914F
:10444000F6029091F7029283818380E0E9CFCF93C7
:10445000DF93DC011596ED91FC910680F781E02D4C
:10446000A489B5898685978520893189EC013D83AA
:104470002C83C089D1899B838A83CF010C961196A6
:104480002D913C9112972817390721F41296DC934D
:10449000CE931197158A148A2C9121502C93209138
:1044A000E002211157C0A285B385848195812681C0
:1044B0003781EC013D832C83C681D7819B838A831E
:1044C000CF01029611962D913C911297281739072A
:1044D00021F41296DC93CE931197138612862C91B9
:1044E00021502C93C689209152032C1710F4C093AD
:1044F000520329E02C9FE0011124C25DDC4F0980AA
:10450000DA81C02DD583C4834C815D815783468376
:10451000AC81BD8113969C938E9312979D838C835F
:10452000A689A29FD0011124A25DBC4FB387A287A8
:104530008C918F5F8C93A0915503B091560396890F
:1045400056968C91891730F581E08093DF02DF91D8
:10455000CF910895A0911403B0911503B787A68752
:1045600014962D913C911597318B208B1496CD91FB
:10457000DC9115979B838A8315969C938E93149751
:1045800083E193E0958B848B809113038F5F8093FD
:104590001303D1CF80E0DBCFCF93DF93EB016091AA
:1045A000550370915603645F7F4F0E948A2061E03B
:1045B000CE01DF91CF910C9464210FB6F8940F9245
:1045C0008091F6029091F7020F900FBE08958091AE
:1045D000E0028F5F8093E00208950FB6F8940F9287
:1045E000FC01928D0F900FBE81E0911180E0089543
:1045F000EF92FF920F931F93CF93DF93EC010FB6CF
:10460000F8940F921E8D7C0181E1E80EF11C01E00F
:104610001116D4F08FEF8E8F0F900FBE0FB6F89457
:104620000F921D8D7E0188E0E80EF11C01E011164D
:10463000B4F08FEF8D8F0F900FBEDF91CF911F9150
:104640000F91FF90EF9008958989882319F3C7018E
:104650000E94272281110093DF021150D9CF888553
:10466000882339F3C7010E94272281110093DF02BA
:104670001150DDCFCF93DF93EC010FB6F8940F927A
:10468000888199812B8D4C8DBC01249F600D711DFB
:1046900011247D836C831A8E9B838A832150330B74
:1046A000429FB001439F700D1124860F971F9F8377
:1046B0008E838FEF8D8F8E8FCE0108960E94C02043
:1046C000CE0141960E94C0200F900FBE81E0DF9185
:1046D000CF9108950F920FB6F8940F920BB60F92E8
:1046E0000CB60F921F9211242F923F924F925F921D
:1046F0006F927F928F929F92AF92BF92CF92DF92F2
:10470000EF92FF920F931F932F933F934F935F93DB
:104710006F937F938F939F93AF93BF93CF93DF93C9
:10472000EF93FF93A0915503B09156030DB60D92F0
:104730000EB60D928091E002882321F081E08093F3
:10474000DF0261C01092DF02A0915503B0915603C1
:10475000E0915503F09156032D913C918789908DFE
:1047600082179307A8F0809155039091560380918A
:10477000550390915603279A2F9A2FEF87EA91E6D7
:10478000215080409040E1F700C000001F9AF5CF13
:104790002091520389E001C02150422F50E0849FB4
:1047A000F001859FF00D1124E25DFC4F908199236B
:1047B00099F3A181B28112966D917C91728361838C
:1047C000289FC00111248F5C9C4F6817790721F442
:1047D000858196819283818389E0849FF001859F02
:1047E000F00D1124E25DFC4F0180F281E02D868105
:1047F00097819093560380935503209352038091A1
:10480000550390915603A0915503B0915603CD9155
:10481000CDBFDD91DEBFFF91EF91DF91CF91BF91D1
:10482000AF919F918F917F916F915F914F913F9148
:104830002F911F910F91FF90EF90DF90CF90BF903D
:10484000AF909F908F907F906F905F904F903F9030
:104850002F901F900F900CBE0F900BBE0F900FBEAD
:104860000F9008958F929F92BF92CF92DF92EF9216
:10487000FF920F931F93CF93DF930FB6F8940F928D
:104880008091E00281508093E0028091E0028823D1
:1048900079F080E00F900FBEDF91CF911F910F91C3
:1048A000FF90EF90DF90CF90BF909F908F900895F2
:1048B00080915703882369F3E0901803F09019035F
:1048C000F0E0E0E039E041E08091130381115EC047
:1048D000EF2B11F00E944E20E090DD02F090DE02FE
:1048E000E114F10409F47DC189E0D82ECC24C394ED
:1048F0000FEF1FEF8091E002811161C1C091F602BC
:10490000D091F7024E018FEF881A980A9092F70221
:104910008092F60281149104B9F48091FF02909183
:1049200000032091FD023091FE023093000320939A
:10493000FF029093FE028093FD028091F8028F5F48
:104940008093F8020E944E208091DB029091DC025D
:10495000B12C8816990608F026C1E0915503F09114
:104960005603E689DE9EF0011124E25DFC4F808152
:10497000823010F0BB24B3948091DF02811103C018
:10498000BB2009F425C1C092DF0222C1D7011696CF
:10499000ED91FC91A489B589668577858089918997
:1049A000EB019D838C8380899189EC017B836A83F1
:1049B000BF01645F7F4F11960D911C9112970617EE
:1049C000170721F412969C938E931197158A148AD7
:1049D0008C9181508C93A285B38584819581668169
:1049E0007781EC017D836C8366817781EB019B830A
:1049F0008A83CF01029611960D911C911297081788
:104A0000190721F412967C936E93119713861286E0
:104A10002C9121502C93A689209152032A1710F42F
:104A2000A09352033A9FD0011124A25DBC4F11966E
:104A30000D90BC91A02DB583A48314966D917C91AB
:104A400015977783668314966D917C911597EB018A
:104A50009B838A8315969C938E9314979689939F34
:104A6000D0011124A25DBC4FB387A2878C918F5FC8
:104A70008C93A0915503B091560356968C9189174B
:104A800008F022CF4093DF021FCFE091FF02F091A8
:104A900000030580F681E02D0680F781E02D8281FC
:104AA00093818816990628F49093DC028093DB02A8
:104AB00054CFC285D3858481958126813781DC01DD
:104AC00015963C932E93149726813781D90113961E
:104AD0009C938E931297CF01029649815A81481771
:104AE000590711F43A8329831386128628812150AD
:104AF0002883A489B5891097F9F0268537854089E0
:104B00005189E9015D834C8340895189EA013B83E6
:104B10002A8311966D917C9112979F01245F3F4FDC
:104B20006217730721F412965C934E931197158ABE
:104B3000148A2C9121502C93A689209152032A1774
:104B400010F4A0935203DA9ED0011124A25DBC4F51
:104B500011960D90BC91A02DB583A48314962D9130
:104B60003C9115973783268314962D913C91159788
:104B7000E9019B838A8315969C938E93149796895B
:104B80009D9DD0011124A25DBC4FB387A2878C915B
:104B90008F5F8C93E0915503F091560386898917B6
:104BA00010F4BB24B394E091FF02F09100038081E4
:104BB00081116BCF1093DC020093DB02CECE80918B
:104BC000DD029091DE0201969093DE028093DD0279
:104BD000D1E0ED1AF10809F08DCE1092DE021092AC
:104BE000DD028091DF02882309F453CE80915503C2
:104BF000909156030E946A2381E04CCEAF92BF92FF
:104C0000DF92EF92FF920F931F93CF93DF9300D029
:104C10001F921F92CDB7DEB78C011D821C8280E0EF
:104C2000780198E0E90EF11C0FB6F8940F92D801C4
:104C30005A962C915A975B969C915B97291708F08E
:104C4000B0C05A96DC905A975C964C915C97411193
:104C50008CC08D919C91892B11F080E00AC0F801E5
:104C6000E480F580E114F10431F580E0F80115826B
:104C70001482D394D8015A96DC925A9751969C91FB
:104C8000992321F0C80141960E94272281110E9498
:104C90006A230F900FBE81E00F900F900F900F903E
:104CA0000F90DF91CF911F910F91FF90EF90DF90C8
:104CB000BF90AF900895D70192968C9192978150B2
:104CC00092968C93929756962C91569791969C918A
:104CD000291759F28111C9CF5701B2E0AB0EB11CAF
:104CE000C5010E946620F70181A1868B482F50E004
:104CF00024E030E0241B350B358724879091520344
:104D0000981710F48093520389E0849FD001859F07
:104D1000B00D1124A25DBC4F11960D90BC91A02D39
:104D2000F701B583A48314962D913C911597378391
:104D300026831496ED91FC911597B382A282159665
:104D4000BC92AE921497D7015696EC915697E89F75
:104D5000F0011124E25DFC4F1B96FC93EE931A9731
:104D600080818F5F808381E081CF50E070E060E0E0
:104D700012968D919C910E946532F801848D22815A
:104D80003381820F932F911D9383828324813581F8
:104D90008217930708F461CF808191819383828386
:104DA0005CCF2C813D81232B21F40F900FBE80E03E
:104DB00073CF811109C08091F80289838091F60236
:104DC0009091F7029B838A830F900FBE0E94E72287
:104DD0000FB6F8940F92F801858D8F3F09F4158E68
:104DE000D8015E968C915E978F3F11F45E961C926F
:104DF0000F900FBEBE016C5F7F4FCE0101960E94E7
:104E0000F421811120C00FB6F8940F92F801928D11
:104E1000838D0F900FBE981310C06C817D81C701E8
:104E20000E94CC22C8010E94F8220E9432248111E3
:104E300002C00E946A2381E0F7CEC8010E94F822D6
:104E40000E943224F8CFC8010E94F8220E94322426
:104E5000AECFCF93DF93EC01892B29F40E946A2314
:104E6000DF91CF9108950E94E72260E0CE010E9479
:104E700064210E943224882389F3F2CFCF93DF93F9
:104E8000009751F0EC010E94E722CE010E94FA2D1A
:104E9000DF91CF910C943224DF91CF9108950F923E
:104EA0000FB6F8940F920BB60F920CB60F921F929A
:104EB00011242F923F924F925F926F927F928F9226
:104EC0009F92AF92BF92CF92DF92EF92FF920F9399
:104ED0001F932F933F934F935F936F937F938F9382
:104EE0009F93AF93BF93CF93DF93EF93FF93A091E3
:104EF0005503B09156030DB60D920EB60D9213BE2A
:104F00008091E0028111F9C08091F6029091F70240
:104F100001969093F7028093F602009781F5209115
:104F2000FF02309100034091FD025091FE02509328
:104F300000034093FF023093FE022093FD02209174
:104F4000F8022F5F2093F802E091FF02F091000336
:104F50002081211107C02FEF3FEF3093DC02209317
:104F6000DB020DC0E091FF02F09100030580F681A5
:104F7000E02D208131813093DC022093DB022091EF
:104F8000DB023091DC028217930710F420E0A1C00D
:104F900020E039E0D32EE091FF02F0910003308150
:104FA000311107C08FEF9FEF9093DC028093DB02FB
:104FB00090C0E091FF02F09100030580F681E02DA2
:104FC0000680F781E02D428153818417950728F4EC
:104FD0005093DC024093DB027CC0A285B385448100
:104FE000558166817781EA017D836C836681778153
:104FF000EB015B834A83AF014E5F5F4F11960D91CA
:105000001C9112970417150721F412967C936E9346
:105010001197138612863C9131503C93A489B5892F
:105020001097F9F06685778500891189EB011D835A
:105030000C8300891189E8017B836A831196ED90C6
:10504000FC901297BF01645F7F4FE616F70621F4CC
:1050500012961C930E931197158A148A3C91315025
:105060003C93A689309152033A1710F4A09352034F
:10507000DA9ED0011124A25DBC4F11960D90BC9117
:10508000A02DB583A48314966D917C911597778399
:10509000668314966D917C911597EB015B834A832F
:1050A00015965C934E93149746894D9DD00111241B
:1050B000A25DBC4FB387A2873C913F5F3C93E091D8
:1050C0005503F09156033689341708F064CF21E078
:1050D00062CFE0915503F0915603E689D9E0ED9F48
:1050E000F0011124E25DFC4F8081823008F021E064
:1050F0008091DF0281110EC00AC08091DD02909183
:10510000DE0201969093DE028093DD026CC02223C2
:1051100009F469C08091E002882321F081E0809346
:10512000DF0261C01092DF02A0915503B0915603D7
:10513000E0915503F09156032D913C918789908D14
:1051400082179307A8F080915503909156038091A0
:10515000550390915603279A2F9A2FEF87EA91E6ED
:10516000215080409040E1F700C000001F9AF5CF29
:105170002091520389E001C02150422F50E0849FCA
:10518000F001859FF00D1124E25DFC4F9081992381
:1051900099F3A181B28112966D917C9172836183A2
:1051A000289FC00111248F5C9C4F6817790721F458
:1051B000858196819283818389E0849FF001859F18
:1051C000F00D1124E25DFC4F0180F281E02D86811B
:1051D00097819093560380935503209352038091B7
:1051E000550390915603A0915503B0915603CD916C
:1051F000CDBFDD91DEBFFF91EF91DF91CF91BF91E8
:10520000AF919F918F917F916F915F914F913F915E
:105210002F911F910F91FF90EF90DF90CF90BF9053
:10522000AF909F908F907F906F905F904F903F9046
:105230002F901F900F900CBE0F900BBE0F900FBEC3
:105240000F900895CF93DF93EC010E94E722CE01E7
:105250000E945E2DEC010E943224209769F4279A67
:105260002F9A2FEF80E792E0215080409040E1F7A5
:1052700000C000001F9AF5CFCE01DF91CF910895B5
:105280007F928F929F92AF92BF92CF92DF92EF92D6
:10529000FF920F931F93CF93DF93982EA92E762E14
:1052A000872E7A01B22ECA010E9422296C01892B15
:1052B00009F4F3C088E290E00E942229EC01892BD6
:1052C00009F4E8C088E2DE011D928A95E9F7D88EDC
:1052D000CF8AA70165EA70E0C6010E946E32B1E094
:1052E000EB1AF108EF89F88DEE0DFF1D672D782D73
:1052F000CE0149969B01285F3F4FDB014D91BD01D7
:10530000DC014D93CD01AB0141505109DA014C91C3
:10531000442319F02617370781F718A2BE8AB9A2CD
:105320001B861A861D8A1C8AD987C88784E090E06C
:105330008B1991099D878C87DB8BCA8B9082DF014B
:105340001197AC9211971C9211971C92119780E8BB
:105350008C9311971C9211971C9211971C9257973E
:105360001C9211971C92B697F983E88301151105D9
:1053700019F0F801D183C0830FB6F8940F92809191
:1053800057038F5F80935703809155039091560385
:10539000892B09F091C0D0935603C0935503809197
:1053A0005703813081F58EE293E00E94C02087E3AD
:1053B00093E00E94C02080E493E00E94C02089E432
:1053C00093E00E94C02085E293E00E94C0208CE11F
:1053D00093E00E94C02083E193E00E94C0208AE015
:1053E00093E00E94C02081E093E00E94C02085E20B
:1053F00093E0909300038093FF028CE193E09093FD
:10540000FE028093FD02809153038F5F80935303CC
:10541000AE89809152038A1710F4A093520329E0B9
:105420002A9FD0011124A25DBC4F11960D90BC9112
:10543000A02DBD83AC8314968D919C9115979F836D
:105440008E831496ED91FC911597CE01029693836D
:10545000828315969C938E931497EE89E29FF001B8
:105460001124E25DFC4FFB87EA8780818F5F808398
:105470000F900FBE80915403882351F0E0915503A3
:10548000F091560396898E89981710F40E946A232A
:1054900081E004C0C6010E943E278FEFDF91CF91CB
:1054A0001F910F91FF90EF90DF90CF90BF90AF9042
:1054B0009F908F907F900895809154038111A3CF86
:1054C000E0915503F091560396898E89891708F467
:1054D0009ACFD0935603C093550395CF0F931F9344
:1054E000CF93DF9300D000D01F921F92CDB7DEB7CD
:1054F000A5E5B2E0FE0131962DE532E0BF018D91C8
:105500008193882319F02A173B07C9F70DEB12E0A6
:1055100020E040EC50E08DEF95E00E944029882388
:1055200009F494C0813009F091C00FB6F8940F923D
:105530008091D5029091D602892B51F588EC92E0AA
:105540000E94C0208FEB92E00E94C02088EC92E085
:105550009093DA028093D9028FEB92E09093D80275
:105560008093D70281E590E00E9422298C01009768
:1055700059F04F96F801918380838AE0838F85E00C
:10558000848FC8010E943A231093D6020093D5025B
:105590000F900FBE8091D5029091D602892B09F40D
:1055A00055C001ED12E023E045E550E06AE572E008
:1055B0008BE294E00E944029813009F047C0F894C2
:1055C0002FEF3FEF3093DC022093DB0280935403F4
:1055D0001092F7021092F602A89588E190EC0FB6AF
:1055E000F894A895809360000FBE90936000A091FE
:1055F0005503B0915603CD91CDBFDD91DEBFFF9134
:10560000EF91DF91CF91BF91AF919F918F917F915A
:105610006F915F914F913F912F911F910F91FF904B
:10562000EF90DF90CF90BF90AF909F908F907F9042
:105630006F905F904F903F902F901F900F900CBEF7
:105640000F900BBE0F900FBE0F9008958091010236
:1056500028960FB6F894DEBF0FBECDBFDF91CF9175
:105660001F910F9108950E944F271895EF92FF9276
:105670000F931F93CF931092F603E8E5F3E01382A4
:10568000128288EE93E0A0E0B0E084839583A68345
:10569000B78384E192E09183808385EC90E09587E5
:1056A000848784EC90E09787868780EC90E0918BEC
:1056B000808B81EC90E0938B828B82EC90E0958BD9
:1056C000848B86EC90E0978B868B118E128E138ED6
:1056D000148E61E08CE00E94801261E087E00E94FD
:1056E000801261E088E00E94801261E084E00E9404
:1056F00080121092F5030E94551260E087E00E942C
:10570000C911E7EFF3E080E390E09183808382E0CA
:10571000828313860E94551261E085E00E94801208
:1057200061E086E00E94801261E085E00E94C9117C
:1057300061E086E00E94C911E0EAF0E080818168C2
:105740008083C9E0C093A10088EAE82EF12CF7011C
:105750001182108261E086E00E948012E0E9F0E0B0
:10576000808181688083C093910008E910E0F8018E
:105770001182108261E085E00E9480128FEF90E03C
:10578000F70191838083F80191838083A8E1B4E0DD
:1057900013961C921E92129720EF30E015963C93C0
:1057A0002E93149780E491E017969C938E9316970E
:1057B00019963C932E9318971B969C938E931A9749
:1057C00056961C9256971D961C921E921C971F96D9
:1057D0001C921E921E9781E055968C935597549675
:1057E0008C9354972FEF3FEF53963C932E93529701
:1057F00051963C932E93509757968C935797589663
:105800001C9258975A961C921E925997D5961C92A4
:10581000D5978FEFD6968C93D6978AE0D7968C93B0
:10582000D797D896CC93D897DA961C921E92D99790
:10583000DC961C921E92DB97DD961C92DD97DE961D
:105840001C92DE971092570410925804109259043B
:1058500010925A0483E094E090969C938E935F9705
:1058600088E198E0FC012491E22FF0E0EE0FFF1FA9
:10587000EB50F84F259134915E963C932E935D97B3
:1058800028EB37E0F9014491D3964C93D397E9E1A3
:10589000F8E0E491F0E0EE0FFF1FEB50F84F659158
:1058A00074915C967C936E935B97E9EBF7E0E491DF
:1058B000D196EC93D197E095D296EC93D297409500
:1058C000D4964C93D49746E252E04D935C93A4E077
:1058D000B4E048E312964C93129749E314964C9324
:1058E000149748E013964C9313971596CC931597FD
:1058F0004CE251E017965C934E931697FC0184910D
:10590000E82FF0E0EE0FFF1FEB50F84F85919491D8
:1059100019969C938E931897E7E4F8E0E491F0E0F1
:10592000EE0FFF1FEB50F84F859194911B969C93BF
:105930008E931A97E8E4F8E0E491F0E0EE0FFF1F91
:10594000EB50F84F859194911D969C938E931C97E4
:10595000E7E1F8E0E491F0E0EE0FFF1FEB50F84FC5
:10596000859194911F969C938E931E97F901249193
:1059700050962C935097E7EEF7E0E4915296EC9313
:105980005297E8EEF7E0E4915196EC935197E7EBEC
:10599000F7E0E4915396EC9353978AE090E08D936F
:1059A0009C93CF911F910F91FF90EF900895789461
:1059B00084B5826084BD84B5816084BD85B5826014
:1059C00085BD85B5816085BD80916E0081608093C5
:1059D0006E0010928100809181008260809381002E
:1059E000809181008160809381008091800081603E
:1059F000809380008091B10084608093B100809199
:105A0000B00081608093B0008091910082608093AB
:105A1000910080919100816080939100809190002D
:105A20008160809390008091A10082608093A100AA
:105A30008091A10081608093A1008091A00081608D
:105A40008093A00080912101826080932101809148
:105A500021018160809321018091200181608093E8
:105A6000200180917A00846080937A0080917A008E
:105A7000826080937A0080917A00816080937A00BE
:105A800080917A00806880937A001092C100209102
:105A90000E0230910F028FEF91E2821B930B9093D5
:105AA0000B0280930A020E94CD1B0E946E2A0E9464
:105AB000CD1B0E94F31D0E948614FBCF0F931F93F2
:105AC000CF93DF938230910510F482E090E0E09173
:105AD0005D04F0915E0430E020E0B0E0A0E030979B
