:100000000C944D060C947E060C947E060C947E0691
:100010000C947E060C947E060C947E060C947E0650
:100020000C947E060C947E060C947E060C947E0640
:100030000C94E3240C947E060C947E060C947E06AD
:100040000C947E060C947E060C947E060C947E0620
:100050000C947E060C947E060C947E060C945B1920
:100060000C947E060C94CF190C94A5190C947E0662
:100070000C947E060C947E060C947E060C947E06F0
:100080000C947E060C947E060C947E060C947E06E0
:100090000C947E060C947E060C947E060C947E06D0
:1000A0000C947E060C947E060C947E060C947E06C0
:1000B0000C947E060C947E060C947E060C947E06B0
:1000C0000C947E060C947E060C947E060C947E06A0
:1000D0000C947E060C947E060C947E060C947E0690
:1000E0000C947E060C94E8080C944A040C949B082B
:1000F0000C942C070C9446070C9489130C943A0D1D
:100100000C947D070C94AC0B0C9479070C94BC09EF
:100110000C94960A0C943E070C94DE0C0C945A0B2B
:100120000C949F130C9473070C943D0B0C942707AD
:100130000C9463080C944D070C94140D0C946D25CD
:100140000C94D40C0C94970A0C9476130C946507B9
:100150000C9489160C94010D0C94690D0C940508EF
:100160000C94A9050C945D070C94810D0C94320835
:100170000C9453070C94BB050C9457070C94AB0CD0
:100180000C94E80C0C946B070C941C060C94590905
:100190000C94510D0C9439090C94270D0C94AA0958
:1001A0000C9441080C94C1050C949A0A0C94BB0B56
:1001B0000C9461070C944B0B0C947E050C944A072D
:1001C0000C946F070C9442070C9455080C94940DF2
:1001D0000C948C0904EF03800204CF00C13005EDBC
:1001E0006403128104E885007806CB392C003402C0
:1001F00002F72003EA000002C02302C11003C53E3B
:100200002802C786023648023A5503B1001804B6E0
:1002100008822702F20002260110E00F312B0C0E9B
:10022000084EF1370710030E090010E1000E140309
:10023000110731C148080F0C31360F0022080A0E91
:1002400020600402050607080902030305080204EA
:100250000204070407070707070707070202070743
:1002600007080E0908080807070908020708070B0E
:100270000809070909070808090D07080804040404
:100280000608030707060707050707020306020A11
:100290000707070705060507070B060705050105FC
:1002A00007080000000000000000FEFE18181E1ED7
:1002B000001E1E000000000090F89E90F89E1C009A
:1002C000001C0000183C26FF66CC88040C183C1863
:1002D0000C041C221CC0308E408000001804000C4E
:1002E000100C80CC7E72F2DE0C80000C1C10101002
:1002F0001C0C1C101E1E0000F0FC061C7CC006FC22
:10030000F0C07C1C14140E14140000000000606087
:1003100060FCFC6060600000000C0C00000000004D
:100320005838C0C0C0C0000000000000181800C04D
:10033000380618040000F8FC0E060EFCF8040C1C2D
:10034000181C0C04180CFEFE00001C1C181C86C691
:10035000663E1C181C1C18181818888C062626FEC9
:10036000DC040C1C18180C04C0E0B88CFEFE8004E1
:100370000404041C1C04707E3E3636F6C60C1C18A1
:1003800018180C04F8FC6E6666EECC040C181818ED
:100390001C0C060606E6761E0600001C1C0000006B
:1003A0009CFE666666FE9C0C1C1818181C0C3C7E95
:1003B000666666FCF80C1C18181C0C041818181833
:1003C000181858386060F0F098980C00000000048D
:1003D000040CD8D8D8D8D8D8D80000000000000025
:1003E0000C9898F0F060600C040400000000080C09
:1003F00006C6E6763C180000001818000000E03041
:1004000008C4F63A1A1AF2FA7E0408F00C30604C6E
:100410009C98988C9C9C90484C2000C0F8BE86BE4E
:10042000F8C000181C04040404041C18FEFE6666D0
:100430006666FEDC1C1C181818181C0CF8FC0E064E
:10044000060E9C08040C1C18181C0C04FEFE060664
:10045000060EFCF81C1C1818181C0C04FEFE666620
:100460006666661C1C1818181818FEFE6666666616
:10047000061C1C0000000000F8FC0E0606C6CEDCC0
:10048000C8040C1C181818180C04FEFE606060608C
:10049000FEFE1C1C000000001C1CFEFE1C1C8080BC
:1004A000000000FEFE0C1C1818181C0CFEFE60302C
:1004B00078EC86021C1C000000041C18FEFE0000E4
:1004C0000000001C1C1818181818FEFE0E7CE00016
:1004D000E07C0EFEFE1C1C00000C1C0C00001C1C12
:1004E000FEFE1C78E080FEFE1C1C0000040C1C1CA0
:1004F000F8FC0E0606060EFCF8040C1C1818181C56
:100500000C04FEFE6666667E3C1C1C0000000000BB
:10051000F8FC0E0686060EFCF8040C1C18181C0CC1
:100520001C24FEFE6666E6E6BE1C001C1C000000E5
:100530000C1C18103C7E666666EECC0C1C18181855
:100540001C0C060606FEFE0606060000001C1C002B
:100550000000FEFE00000000FEFE040C1C18181C2B
:100560000C04021EFCE000E0FC1E020000001C1C4B
:100570001C00000006FEF800F0FE0EFEF000F8FE83
:100580000600001C1C1C0000001C1C1C0000060EA9
:10059000F8F0F80E06181C0400041C18060E38F0BB
:1005A000F0380E060000001C1C000000060686E65F
:1005B000761E0E06181C1C1818181818FEFE0606C3
:1005C000FCFCC0C00638C000000004180606FEFE91
:1005D000C0C0FCFC20380E0E3820000000000000D7
:1005E000000000000000000080808080808080800B
:1005F0000206040000001098D858F8F0000C1C18EF
:10060000180C1C10FEFE301838F0E01C1C0C181CD6
:100610000C04E0F018183830040C18181C0CE0F02A
:10062000381830FEFE040C1C180C1C1CE0F0D8D846
:10063000D8F0E0040C181818180818FCFE1A1A0054
:100640001C1C0000E0F0381830F8F864ECDCD8CC62
:10065000FC7CFEFE301818F8F01C1C0000001C1C6E
:10066000FAFA1C1C00FAFAC0FC7CFEFEE0F09808C6
:100670001C1C00041C18FEFE1C1CF8F81018F8F0D6
:100680001818F8F01C1C00001C1C00001C1CF8F8BA
:10069000301818F8F01C1C0000001C1CE0F0381882
:1006A00038F0E0040C1C181C0C04F8F8301838F072
:1006B000E0FCFC0C181C0C04E0F0381830F8F804CE
:1006C0000C1C180CFCFCF8F83018181C1C0000005E
:1006D00070F8D8D8D890081818181C0C18FCFE18F8
:1006E00018000C1C1818F8F8000000F8F80C1C187A
:1006F000180C1C1C38F8C000C0F83800001C1C1C6A
:10070000000018F8E000F038F000E0F81800001CD5
:100710001C0C000C1C1C00001838E0E03818181CD9
:1007200004041C1818F8E000E0F8180084FCF83CF9
:1007300004001898D878381C1C18181880FC7E06FD
:1007400006007CFCC0C0FEFC06067EFC80C0C0FC2F
:100750007C006030307060603000000000000000FD
:10076000FE020202020202FE1C1010101010101CE9
:100770004E6F20666F6E742073656C65637465647C
:100780000000000A0B02090C0D0E0807030401000B
:100790000000000000000000000000000000000059
:1007A0000000000000000000000000000012111016
:1007B0000000000000000000000000000000000039
:1007C0000000000000000000002200250028002B8F
:1007D000002E003100340002010000050108010B69
:1007E0000100002100240027002A002D00300033E2
:1007F0000001010000040107010A010505050507C4
:100800000508080808020202020A0A08080404048B
:1008100004010101010101010103030303030303B7
:1008200003040707070C0C0C0C0C0C0C0C02020246
:100830000206060606060606060B0B0B0B0B0B0B39
:100840000B010210202008081020401020408002D8
:100850000102010804020101020408102040808006
:10086000402010080402018004020180402010088A
:100870000402010804020101020408102040800162
:100880000204081020408048656C6C6F20576F721E
:100890006C640000CF93DF9300D000D000D01F9293
:1008A000CDB7DEB785E0B82ECE0101967C01E09190
:1008B000C702F091C8021081D12CC12C112329F05C
:1008C0000580F681E02DC080D1800E949E1C0E9490
:1008D000941C4C018091C1029091C2028816990625
:1008E00008F092C00E94FD1A9092C2028092C1024A
:1008F0000E94E91DD701EB2D1D92EA95E9F70091C1
:10090000C3021091C4021A86198680E04801F1E101
:100910008F0E911C0FB6F8940F92D8015A96DC9066
:100920005A97DD2009F431C15C964C915C974423C1
:10093000F9F050E016968D919C911797840F951FB2
:1009400017969C938E93169714962D913C9115971C
:100950008217930738F08D919C91119717969C936D
:100960008E931697F80166817781C7010E94512AFC
:10097000DA94D8015A96DC925A9718968C9188236B
:1009800039F0C80108960E94DE1B81110E94211DCA
:100990000F900FBEA980A7FCB2CF0C811D81D8019A
:1009A0001A968D919C91892B21F0C80102960E9484
:1009B0001D1A0E94941C6C018091C1029091C20288
:1009C000C816D90610F40E94FD1AD092C202C09235
:1009D000C102EFEFEA0DE93008F091CF0E2E000CC6
:1009E000FF0BD80152969C9152978827E550FB4FF8
:1009F0008F4F0C9449287E057E05C105A905BB05CE
:100A00007E057E05C105A9059092C2028092C102B1
:100A1000112351F08C149D0470F00E94E91DB40163
:100A2000C6010E94D31A66CFE091C502F091C602BA
:100A3000808161E0811160E00091C3021091C402E5
:100A40000FB6F8940F92D8015D968C915D978F3F09
:100A500011F45D961C92F801868D8F3F09F4168E75
:100A60000F900FBED8015A968C915A9781113CC0B5
:100A70005296ED91FC91A091A803B091A9031F9605
:100A8000FC93EE931E97A091A803B091A9038481D3
:100A9000958151969C938E9350978091A803909145
:100AA000A903A481B5810C9613969C938E931297FB
:100AB0008091A8039091A9030C9695838483E0917B
:100AC000A803F091A903C8014196958B848BF80186
:100AD00081898F5F818BC60188199909662311F07E
:100AE0008FEF9FEF0E941B1BC8010E94AF1C0E944A
:100AF000E91D8111FFCE0E94211DFCCE9160F801FD
:100B0000928B8A809B8064857585680D791D940120
:100B1000A601C8010E94851A882309F4F0CED801E5
:100B200052968C91529782FF10C01C966D917C91C9
:100B3000680D791DA601C8010E94AF1AD801509610
:100B4000ED91FC91C8011995DACE8E7FF801828B68
:100B5000F5CF916052969C9352976A817B811D9646
:100B60007C936E931C976C0D7D1D9601A601C801A8
:100B70000E94851AC4CE91FD04C0C8010E94EE20D7
:100B8000BECE9E7FF801928BBACE29853A85232B63
:100B900019F40F900FBE8BCE811109C08091AD0367
:100BA0008E838091AB039091AC0398878F830F90D5
:100BB0000FBE0E949E1C0FB6F8940F92F801858D0F
:100BC0008F3F09F4158ED8015E968C915E978F3F0A
:100BD00011F45E961C920F900FBEBE01675F7F4FAF
:100BE000CE0106960E94AB1B81111BC0C8010E945A
:100BF000A41C882381F069857A85C4010E94831C26
:100C0000C8010E94AF1C0E94E91D811102C00E9410
:100C1000211D81E07FCEC8010E94AF1C0E94E91D0A
:100C2000F8CFC8010E94AF1C0E94E91DC8010E94B4
:100C3000A41C882371F33BCE8091AA0281110BC0C2
:100C40008091AE03823010F00E94211D0E94761820
:100C50000E940809F1CF0FB6F8940F92E091870334
:100C6000F0918803C681D781CE0102960E941D1A99
:100C70008091AA0381508093AA038091AA02815097
:100C80008093AA020F900FBE8F89988D0E94EE204C
:100C9000CE010E94EE20D0CF6D2511241FBECFEFD4
:100CA000D1E2DEBFCDBF00E00CBF12E0A0E0B2E0B9
:100CB000E4EDF4E500E00BBF02C007900D92A23A0C
:100CC000B107D9F723E0A2EAB2E001C01D92A73D27
:100CD000B207E1F716E0CDE4D6E000E006C02197C8
:100CE0000109802FFE010E944928CC34D10780E001
:100CF0000807A9F70E94E6240C94682A0C940000C7
:100D0000EF92FF921F93CF93DF93DC01FC01E35A34
:100D1000FF4F908150E040E067E878E0ED01C65A6F
:100D2000DF4FA85BBF4FFB018491882309F433C0D8
:100D30002D913C911197F9011491111114C0319624
:100D4000E491E11110C0F9013296E491E99FF001BC
:100D500011248881989FE00DF11D11244E0F5F1F13
:100D60006F5F7F4FE0CFF901349614913196E49193
:100D7000811770F0E12EEE0EFF24FF1C8E151F046C
:100D80003CF4811BE82FF0E03696E20FF31FDDCF35
:100D9000F0E0E0E0DECF88819A01989F20193109C8
:100DA0001124C901DF91CF911F91FF90EF90089519
:100DB00090E0FC01EF5BF74F24918550984FFC01C8
:100DC0008491882399F090E0880F991FFC01EF51DE
:100DD000F84FA591B491FC01E953F84F8591949196
:100DE0008FB7F894EC91E22BEC938FBF0895282FE6
:100DF00030E0F901EF57F84F9491F901EF5BF74FAD
:100E000044912550384FF9012491222309F435C02B
:100E1000992311F191509231F8F4E92FF0E08827ED
:100E2000EB5EF84F8F4F0C94492846074A07270777
:100E30003E0742072C074D07530757075D07610719
:100E400065076B076F072C07730779077D0780918C
:100E500080008F7780938000E22FF0E0EE0FFF1F7D
:100E6000E953F84FA591B4918FB7F894EC916111C3
:100E700048C040954E234C938FBF089580918000C9
:100E80008F7DE8CF80918000877FE4CF84B58F7716
:100E900084BDE2CF84B58F7DFBCF8091B0008F778A
:100EA0008093B000D9CF8091B0008F7DF9CF809131
:100EB00090008F7780939000CFCF809190008F7DAE
:100EC000F9CF80919000877FF5CF8091A0008F7738
:100ED0008093A000C1CF8091A0008F7DF9CF809139
:100EE000A000877FF5CF809120018F77809320012C
:100EF000B3CF809120018F7DF9CF80912001877F32
:100F0000F5CF4E2BB8CF3FB7F894809171039091F5
:100F10007203A0917303B091740326B5A89B05C01A
:100F20002F3F19F00196A11DB11D3FBFBA2FA92F68
:100F3000982F8827BC01CD01620F711D811D911D65
:100F400042E0660F771F881F991F4A95D1F70895D1
:100F50008F929F92AF92BF92CF92DF92EF92FF92C9
:100F60004B015C010E9483076B017C010E94830797
:100F70006C197D098E099F09683E734081059105B2
:100F8000A8F321E0821A9108A108B10888EEC80EE2
:100F900083E0D81EE11CF11C81149104A104B1046A
:100FA00029F7FF90EF90DF90CF90BF90AF909F9088
:100FB0008F900895DC01ED91FC910190F081E02D7E
:100FC0001994EF92FF920F931F93CF93DF938C01AD
:100FD0007B01D0E0C0E0F701EC0FFD1F64916623B8
:100FE00061F0D801ED91FC910190F081E02DC801F4
:100FF0001995892B11F02196EECFCE01DF91CF917B
:101000001F910F91FF90EF900895AF92BF92CF92F2
:10101000DF92EF92FF920F931F93CF93DF936C01B8
:101020007B018B01040F151FEB015E01AE18BF0899
:10103000C017D10759F06991D601ED91FC9101904B
:10104000F081E02DC6011995892B79F7C501DF9153
:10105000CF911F910F91FF90EF90DF90CF90BF90B5
:10106000AF900895FC01538D448D252F30E0842FDF
:1010700090E0821B930B541710F0CF9608950197C0
:101080000895FC01918D828D981761F0A28DAE0FAD
:10109000BF2FB11D5D968C91928D9F5F9F73928F34
:1010A00090E008958FEF9FEF0895FC01918D828D60
:1010B000981731F0828DE80FF11D858D90E008952D
:1010C0008FEF9FEF0895FC01918D228D892F90E085
:1010D000805C9F4F821B91098F73992708958FEC35
:1010E00092E00E94630821E0892B09F420E0822F1E
:1010F0000895FC01A48DA80FB92FB11DA35ABF4FAD
:101100002C91848D90E001968F739927848FA68906
:10111000B7892C93A089B1898C91837080648C935A
:10112000938D848D981306C00288F389E02D808109
:101130008F7D80830895EF92FF920F931F93CF933B
:10114000DF93EC0181E0888F9B8D8C8D98131AC002
:10115000E889F989808185FF15C09FB7F894EE89E9
:10116000FF896083E889F989808183708064808346
:101170009FBF81E090E0DF91CF911F910F91FF9091
:10118000EF900895F62E0B8D10E00F5F1F4F0F7339
:101190001127E02E8C8D8E110CC00FB607FCFACFF4
:1011A000E889F989808185FFF5CFCE010E94790811
:1011B000F1CFEB8DEC0FFD2FF11DE35AFF4FF082C5
:1011C0009FB7F8940B8FEA89FB8980818062CFCF2B
:1011D000CF93DF93EC01888D8823B9F0AA89BB896E
:1011E000E889F9898C9185FD03C0808186FD0DC059
:1011F0000FB607FCF7CF8C9185FFF2CF808185FF7A
:10120000EDCFCE010E947908E9CFDF91CF9108950B
:1012100080E090E0892B29F00E946F0881110E94E4
:10122000000080E090E0892B49F080E090E0892B7D
:1012300029F00E94000081110E94000080E090E0EF
:10124000892B49F080E090E0892B29F00E94000072
:1012500081110E94000080E090E0892B49F080E03D
:1012600090E0892B29F00E94000081110C9400006D
:1012700008950F931F93CF93DF938C01EB01FC0133
:10128000E45AFF4F81E08083FE016491662351F0B0
:10129000D801ED91FC910190F081E02DC8011995E4
:1012A0002196F2CF90E080E0DF91CF911F910F91D6
:1012B0000895EF92FF920F931F93CF93DF938C01CA
:1012C0007B01FC01E45AFF4F81E08083D0E0C0E065
:1012D000D70114968D919C91C817D907A0F4D80115
:1012E000ED91FC910190F081E02DD7018D919C91C1
:1012F00060E0009721F08C0F9D1FDC016C91C8010C
:1013000019952196E5CF90E080E0DF91CF911F9174
:101310000F91FF90EF9008950F931F93CF93DF935A
:101320008C01FC01E45AFF4F81E08083EB0169915D
:10133000662349F0D801ED91FC910190F081E02DF8
:10134000C8011995F4CF90E080E0DF91CF911F9113
:101350000F910895DB01FC01E45AFF4F21E0208347
:10136000ED91FC9111970190F081E02DBC01CD0130
:10137000199590E080E00895FC01E45AFF4F21E0C8
:101380002083DC01ED91FC910190F081E02D199515
:1013900090E080E00895CF93DF93FC01C0ADD1AD24
:1013A0008881DF01A05CBF4F9C9190959823988322
:1013B0008BE28EBD00000DB407FEFDCF00ACF1AD99
:1013C000E02D80819C91892B80837EBD0DB407FE2A
:1013D000FDCF6EBD0DB407FEFDCF41505109640F26
:1013E000751F7EBD0DB407FEFDCF6EBD0DB407FEAB
:1013F000FDCFDF91CF910895CF93DF93FC01C0AD76
:10140000D1AD8881DF01A05CBF4F9C91909598235E
:1014100098838AE28EBD00000DB407FEFDCF00ACBC
:10142000F1ADE02D80819C91892B80837EBD0DB430
:1014300007FEFDCF6EBD0DB407FEFDCF4150510933
:10144000640F751F7EBD0DB407FEFDCF6EBD0DB4DC
:1014500007FEFDCFDF91CF9108950F931F93CF9398
:10146000DF93FC01C0ADD1AD9881DF01A05CBF4F1F
:101470008C918095892388838AE28EBD00000DB40B
:1014800007FEFDCFC0ADD1AD88819C91892B8883AB
:101490007EBD0DB407FEFDCF6EBD0DB407FEFDCFC2
:1014A00021503109620F731F7EBD0DB407FEFDCFC1
:1014B0006EBD0DB407FEFDCFC0ADD1AD98818C914E
:1014C0008095892388838BE28EBD00000DB407FED2
:1014D000FDCFC0ADD1AD88819C91892B88835EBD45
:1014E0000DB407FEFDCF4EBD0DB407FEFDCF01507C
:1014F0001109400F511F5EBD0DB407FEFDCF4EBD5B
:101500000DB407FEFDCF00ACF1ADE02D90818C91C4
:101510008095892380838CE28EBD00000DB407FE88
:10152000FDCFDF91CF911F910F910895089590E025
:1015300080E0089508950F931F93CF93DF93EC01FC
:1015400088819981009759F02A813B8126173707B6
:1015500030F081E0DF91CF911F910F9108958B01C1
:101560006F5F7F4F0E947029009759F0998388839D
:101570001B830A832C813D81232B59F7FC011082A8
:10158000E8CF80E0E7CFCF93DF93EC0188819981AA
:10159000009711F00E943626198218821D821C8243
:1015A0001B821A82DF91CF910895FB0101900020E8
:1015B000E9F73197AF01461B570BDC01ED91FC9128
:1015C0000280F381E02D19948F929F92AF92BF9287
:1015D000EF92FF920F931F93CF93DF93CDB7DEB7B8
:1015E000A1970FB6F894DEBF0FBECDBF7C01FA0104
:1015F000CB0119A2223008F42AE08E010F5D1F4FA3
:10160000822E912CB12CA12CBF01A50194010E9426
:101610002728F901CA016A300CF5605DD8016E9384
:101620008D01232B242B252B79F790E080E0109758
:1016300021F0BD01C7010E94D50AA1960FB6F8940A
:10164000DEBF0FBECDBFDF91CF911F910F91FF90F5
:10165000EF90BF90AF909F908F900895695CDECF20
:101660002115310541F4DC01ED91FC910190F081EF
:10167000E02D642F19940C94E40A9A01FC01E45AB9
:10168000FF4F41E04083AB0170E060E00E94300B0F
:1016900090E080E008959A01FC01E45AFF4F41E098
:1016A0004083462F50E070E060E00E94300B90E0F5
:1016B00080E00895FC01E45AFF4FA1E0A0830E945E
:1016C000300B90E080E00895CF92DF92EF92FF928E
:1016D0000F931F93CF93DF932115310581F4DC0124
:1016E000ED91FC910190F081E02D642FDF91CF917D
:1016F0001F910F91FF90EF90DF90CF9019942A30B7
:10170000310501F52AE077FF1DC06A017B01EC017C
:101710006DE20E94DA078C0144275527BA014C1963
:101720005D096E097F092AE0CE010E94E40A800F5C
:10173000911FDF91CF911F910F91FF90EF90DF905C
:10174000CF900895DF91CF911F910F91FF90EF906F
:10175000DF90CF900C94E40A9A01FC01E45AFF4F09
:1017600041E04083AB01770F660B770B0E94640B5F
:1017700090E080E00895FC01E45AFF4FA1E0A083CF
:101780000E94640B90E080E008952F923F924F9268
:101790005F926F927F928F929F92AF92BF92CF9201
:1017A000DF92EF92FF921F93CF93DF93EC016A01D8
:1017B0007B01722EAB019601CB01B6010E946B2911
:1017C00063E572E0811126C046015701E894B7F83D
:1017D0002FEF3FEF4FE75FE7C501B4010E946B2990
:1017E00081110CC02FEF3FEF4FE75FE7C501B40158
:1017F0000E94F42667E572E0181664F02FEF3FEFC1
:101800004FE75FE4C701B6010E9466291816B4F4D9
:101810006BE572E0CE01DF91CF911F91FF90EF90C9
:10182000DF90CF90BF90AF909F908F907F906F9000
:101830005F904F903F902F900C94D50A2FEF3FEF81
:101840004FE75FECC701B6010E94F42687FDE0CFA9
:1018500020E030E0A901C701B6010E94F426312C36
:10186000212C87FF09C06DE2CE010E94DA071C011E
:10187000F7FAF094F7F8F09410E060E070E080E0A0
:101880009FE3711641F020E030E040E251E40E9415
:10189000BE281F5FF6CFA70196010E9452282B0198
:1018A0003C010E9437294B015C012AE0BC01A401E4
:1018B000CE010E94E40A7C01E20CF31C1123C1F169
:1018C000C501B4010E94F9269B01AC01C301B2011C
:1018D0000E9451284B015C016EE2CE010E94DA07A2
:1018E000E80EF91E115020F120E030E040E251E412
:1018F000C501B4010E945A272B013C010E943729DF
:101900004B01B12CA12C2AE0B501A401CE010E940B
:10191000E40AE80EF91EC501B4010E94F9269B01F4
:10192000AC01C301B2010E9451284B015C01DACF26
:10193000C701DF91CF911F91FF90EF90DF90CF9083
:10194000BF90AF909F908F907F906F905F904F90DF
:101950003F902F900895FC01E45AFF4F31E030830F
:101960000E94C50B90E080E008956FE572E00C9452
:10197000D50A0F931F93CF93DF93EC01FB014481B2
:10198000558160817181E881F9810280F381E02DC8
:1019900019958C01CE010E94B50C800F911FDF912B
:1019A000CF911F910F910895FC01E45AFF4F21E060
:1019B00020830E94B90C90E080E00895FC01E45A75
:1019C000FF4F21E020830E94B50C90E080E0089555
:1019D000CF93DF93EC01CB01FE01E45AFF4F21E0EE
:1019E0002083DB01ED91FC910190F081E02DBE019F
:1019F0001995CE010E94B50C90E080E0DF91CF9167
:101A00000895CF93DF93EC01FC01E45AFF4F81E08E
:101A10008083CE010E94C50BCE010E94B50C90E0E0
:101A200080E0DF91CF910895CF93DF93EC01FC012B
:101A3000E45AFF4F81E08083CE010E94300BCE013B
:101A40000E94B50C90E080E0DF91CF910895CF9394
:101A5000DF93EC01FC01E45AFF4F81E08083CE016B
:101A60000E94640BCE010E94B50C90E080E0DF91F3
:101A7000CF910895CF93DF93EC019A01FC01E45AD2
:101A8000FF4F81E08083AB0170E060E0CE010E94F7
:101A9000300BCE010E94B50C90E080E0DF91CF9139
:101AA0000895CF93DF93EC019A01FC01E45AFF4FB4
:101AB00081E08083AB01770F660B770BCE010E942C
:101AC000640BCE010E94B50C90E080E0DF91CF91D5
:101AD0000895CF93DF93EC019A01FC01E45AFF4F84
:101AE00081E08083462F50E070E060E0CE010E94EC
:101AF000300BCE010E94B50C90E080E0DF91CF91D9
:101B00000895CF93DF93EC01FC01E45AFF4F81E08D
:101B10008083CE010E94DA07CE010E94B50C90E0CE
:101B200080E0DF91CF9108952F923F924F925F9284
:101B30006F927F928F929F92AF92BF92CF92DF92DD
:101B4000EF92FF920F931F93CF93DF93CDB7DEB742
:101B50006C970FB6F894DEBF0FBECDBF4C01FC01F1
:101B6000E85BFF4F80819181009729F560E777E07E
:101B70008FEC92E00E94E1078FEC92E00E94B50C9E
:101B800090E080E06C960FB6F894DEBF0FBECDBF3C
:101B9000DF91CF911F910F91FF90EF90DF90CF9049
:101BA000BF90AF909F908F907F906F905F904F907D
:101BB0003F902F900895603298F56A3059F5FC01F6
:101BC00033963491D401AE5ABF4FA4014C5A5F4FA3
:101BD000FA018081918111969C938E931496495FAE
:101BE0005F4FFA012081230F3327331F3296408144
:101BF000429FC001439F900D11242D913C9111975C
:101C0000820F931F8D939C93319781E0808381E0B5
:101C100090E0B8CF6D30D9F7F401E45AFF4FF5CF1B
:101C2000FC0133960491319624913196E491621728
:101C300008F4A6CF4E2F50E0FA01E20FF11D6E1707
:101C40001F060CF09DCF202E312CF1013796DF01BD
:101C5000F3E0B695A795FA95E1F7B887AF83621BD5
:101C6000FC012491211104C03196E491EE2371F01E
:101C7000FC01369620E0B0E0A0E0261709F4A1C0F0
:101C80003491A30FB11D2F5F3196F7CFFC0132962F
:101C9000E4912E2F30E03A8729874F815885649F41
:101CA000C001659F900D1124829FF001839FF00D6C
:101CB000929FF00D1124BF016A5F7F4F7A8B698B71
:101CC000F401EE5BFF4F80819181009709F0B7C26C
:101CD000302F37703B83311102C048E04B83240121
:101CE0005DE5450E511CD201EC91E23008F484C050
:101CF000EE9F900111243E832D83D401A65ABF4F3D
:101D00005C915983552309F4F8C012968C91811186
:101D1000F4C01A97AD90BC90D40114962D913C91CB
:101D20001597A216B3060CF0D7C0AA5ABF4F4D9113
:101D30005C91D40116968D919C91481759070CF02F
:101D4000CBC079817E9FB00111247A8369836A0DAB
:101D50007B1D261737072CF4D901AA19BB09BA83B2
:101D6000A9830E9F800111249801240F351F82172B
:101D700093071CF48C01041B150BF401EA5BFF4F65
:101D80006080718029813A81D8010E9418286B01F6
:101D90007C01362F2D2DB1E1CB16D104E104F104E5
:101DA00010F030E120E0832F922FF401779630E09D
:101DB00020E02817390728F5619271922F5F3F4F75
:101DC000F8CFEF81F885EA9FB001EB9F700DFA9F85
:101DD000700D11244A5F5F4FDA01A60FB71FBA8B4F
:101DE000A98BE22FF0E03696E80FF91FE4912E2F31
:101DF00030E03A87298764CF41E050E05E834D832D
:101E00007CCFD401DA96ED91FC91DB979081DF963F
:101E10008C9180958923808329813A81B501C40101
:101E20000E942D0AD401D896ED91FC91D99780811A
:101E3000A05CBF4F9C91892B8083B1E1CB16D1046C
:101E4000E104F10408F44CC1B701A601E4E0769581
:101E5000679557954795EA95D1F780E090E0DC01CA
:101E60009401295C3F4FF4011789008D0EBD0DB41C
:101E700007FEFDCF1EBDF40179962E173F0781F0B6
:101E80001081198311811B8732960DB407FEFDCF97
:101E90001B851EBD0DB407FEFDCF19811EBDEDCF04
:101EA0000DB407FEFDCF0196A11DB11D48175907BE
:101EB0006A077B07C1F62FE0C222DD24C114D104DA
:101EC00009F018C1D401DA96ED91FC91DB9780817D
:101ED000DF969C91892B8083F401EE5AFF4FD40149
:101EE000A65ABF4F3C91D2012C9180819181329FA3
:101EF000800D911D112491838083F401E45AFF4FDA
:101F00001082D401DA96ED91FC91DB979081DF96F7
:101F10008C91809589238083F2018081813049F4FE
:101F2000F401EA5AFF4F60817181A101C4010E944E
:101F3000CB09512C412C94012E5A3F4F3C872B87C3
:101F4000A401405C5F4F5C8F4B8F340154E4650EFD
:101F5000711CB4016A5B7F4F7A83698389859A8596
:101F60008415950509F4B8C3AB85BC856D917C914A
:101F700077FD53C1F40184819581681779070CF0CE
:101F80004CC18401035A1F4FD8014C9150E0C40149
:101F90000E94FC09F80180818130D9F4D401D896DF
:101FA000ED91FC919081AB8DBC8D8C9180958923B6
:101FB00080838CE28EBD00000DB407FEFDCFD401FE
:101FC000D896ED91FC918081AB8DBC8D9C91892B35
:101FD0008083A988BA88A40CB51C10E000E0F12C1D
:101FE000E12CB8E0BD87F401E85BFF4FFE8BED8B81
:101FF00088E090E09C0122193309388F2F8BA401CF
:10200000435A5F4F5A8F498F6F8178856E157F05D0
:1020100009F403C1AD89BE89ED91FC91EA0DFB1D68
:10202000E491B9E02B16310478F0C801089628161F
:10203000390650F4F0E08F89988D800F911F02C00F
:10204000F595E7958A95E2F78F81988501978E152A
:102050009F0511F4FB81FD87680194012A5A3F4FC7
:102060003C8B2B8BA98DBA8D8C91482F50E04C9DC9
:10207000B0014D9D700D5C9D700D1124AB89BC8924
:102080002D913C91620F731F2E2F30E0388B2F87DC
:10209000E0FD85C0813009F052C0A981BA818C91E0
:1020A00011969C919EBD0DB407FEFDCF8EBD0DB463
:1020B00007FEFDCFEF85F889F595E795FFEFCF1A7D
:1020C000DF0A8C2D801B2D85821760F23FEFE31A0B
:1020D000F30A085F1F4F49855A85A40EB51E94CF99
:1020E00030E1C316D104E104F10409F0E4CE60E16B
:1020F000C62ED12CF12CE12CD40157968C915797F8
:1021000058969C919EBD0DB407FEFDCF8EBDF40187
:102110007996B1E0CB1AD108E108F10861F080812D
:10212000918132960DB407FEFDCF9EBD0DB407FE22
:10213000FDCF8EBDEECF0DB407FEFDCFC3CEC401E3
:102140000E94CB09D401D896ED91FC919081AB8D82
:10215000BC8D8C91809589238083BCE2BEBD00003C
:102160000DB407FEFDCFD401D896ED91FC9180818E
:10217000AB8DBC8D9C91892B80838D819E81019735
:1021800008F498CFE981FA81208131813EBD0DB4F8
:1021900007FEFDCF2EBD0DB407FEFDCFF0CF813081
:1021A00069F4D3018C9111969C919EBD0DB407FEEC
:1021B000FDCF8EBD0DB407FEFDCF7CCFC4010E94C4
:1021C000CB09D401D896ED91FC919081AB8DBC8D5B
:1021D0008C91809589238083BCE2BEBD00000DB444
:1021E00007FEFDCFD401D896ED91FC918081AB8D97
:1021F000BC8D9C91892B80838D819E81019708F4F1
:1022000059CFF301208131813EBD0DB407FEFDCFD2
:102210002EBD0DB407FEFDCFF1CFF401E35AFF4F01
:102220008081AB85BC852D913C911197820F932FB6
:10223000911D8D939C93BFEF4B1A5B0A8FCE019734
:1022400009F0E5CCF401E65AFF4F2081B401645A4D
:102250007F4F2223A9F0FB018081811111C0D4019D
:10226000AE5ABF4FA401435A5F4FFA0130818D919E
:102270009C911197239F800D911D11248D939C9308
:10228000DB011C92F401EC5BFF4F20813181BD9793
:10229000C401C796219331938E179F07D9F7077012
:1022A00009F408E0D401DA96ED91FC91DB97908176
:1022B000DF968C918095892380831D82B12CA12C7F
:1022C000F12CE12C198288E090E0FC01E219F3097D
:1022D000FC8FEB8F94012A5A3F4F3E872D87A40134
:1022E000405C5F4F5C834B83B401695C7F4F788BAC
:1022F0006F871D81412E512C29853A854216530640
:1023000008F0EAC1F401EE5AFF4F6081718177FD58
:10231000D1C1D40114968D919C91681779070CF066
:10232000C9C13B96FA8FE98F408150E0C4010E94F9
:10233000FC0929893A89420E531ED12CC12C20E078
:1023400018E01B87A401485B5F4F5E8B4D8B6F814C
:10235000788561507109788F6F8B8F8198858C1586
:102360009D0509F40BC1AD89BE89ED91FC91E40D89
:10237000F51D1491B9E02B163104B8F0C601019691
:1023800043E0880F991F4A95E1F72816390668F44B
:10239000E12FF0E008974B8D5C8D840F951F02C0F4
:1023A000F595E7958A95E2F71E2FC114D10439F00F
:1023B0006F89788D6C157D0529F40B8703C0F12C8E
:1023C000E12C1982C60133E0880F991F3A95E1F795
:1023D0009C8B8B8B712C612C912F9170A98DBA8D58
:1023E0008C91B9819B1709F4C2C0282F30E0992342
:1023F000E9F04B895C89460D571D429F7001439F50
:10240000F00C529FF00C11245701998321E016958E
:102410003FEF631A730A4B856416F0F25FEFC51A3B
:10242000D50A69857A85460E571E97CFA9014A0DB0
:102430005B1D4E195F09429FF001439FF00D529FB3
:10244000F00D1124FA83E983AD85BE856D917C91F1
:102450006E0D7F1DC4010E94CB09D401D896ED9169
:10246000FC919081AB81BC818C9180958923808384
:10247000BCE2BEBD00000DB407FEFDCFD401D8966E
:10248000ED91FC918081AB81BC819C91892B8083F3
:10249000E981FA81E131F105F0F1AF0170E060E02E
:1024A00094E076956795579547959A95D1F780E092
:1024B00090E0DC01F4012789308D3EBD0DB407FEAC
:1024C000FDCF2EBDF40179962F8538892E173F0751
:1024D00061F02081318132960DB407FEFDCF3EBD03
:1024E0000DB407FEFDCF2EBDEFCF0DB407FEFDCF1F
:1024F0000196A11DB11D481759076A077B07D1F640
:1025000049815A814F7055275A834983452B61F47D
:10251000198220E07CCF69817A816031710581F771
:1025200080E190E09A838983E981FA81CF01B0E06C
:10253000A0E0F4012789308D3EBD0DB407FEFDCF2C
:102540002EBDF40179960197A109B10961F02081AE
:10255000318132960DB407FEFDCF3EBD0DB407FEAE
:10256000FDCF2EBDF0CF0DB407FEFDCFD1CFF98149
:10257000FF2309F44CCFA80EB11C49CF222309F444
:1025800099C0F401E35AFF4F208130E0A9014A0DC0
:102590005B1D4E195F09DA010E9418282B013C01CE
:1025A000AD85BE856D917C916E0D7F1DC4010E942D
:1025B000CB09D401D896ED91FC919081AB81BC817F
:1025C0008C918095892380838CE28EBD00000DB4B0
:1025D00007FEFDCFD401D896ED91FC918081AB81AF
:1025E000BC819C91892B8083B1E14B16510461041D
:1025F000710408F453C0B301A20184E07695679595
:10260000579547958A95D1F780E090E0DC01F40179
:102610002789308D3EBD0DB407FEFDCF2EBDF401E0
:1026200079962F8538892E173F0761F020813181F7
:1026300032960DB407FEFDCF3EBD0DB407FEFDCFB3
:102640002EBDEFCF0DB407FEFDCF0196A11DB11D2C
:10265000481759076A077B07D1F6C2018F7099277F
:10266000009741F1B0E0A0E0F4012789308D3EBD34
:102670000DB407FEFDCF2EBDF40179960197A10997
:10268000B109A9F02081318132960DB407FEFDCF4A
:102690003EBD0DB407FEFDCF2EBDF0CF30E1431699
:1026A000510461047104C9F680E190E0DBCF0DB400
:1026B00007FEFDCFF401EE5AFF4FD401A35ABF4FDE
:1026C0008C9120813181820F932F911D9183808382
:1026D0001D811F5F1D830DCED401DA96ED91FC9113
:1026E000DB978081DF969C91892B90CACF93DF93F3
:1026F000EC01FC01E45AFF4F81E08083CE010E948F
:10270000E107CE010E94B50C90E080E0DF91CF910F
:102710000895CF93DF93EC01FC01E45AFF4F81E071
:1027200080836115710519F0CE010E94D50ACE0192
:102730000E94B50C90E080E0DF91CF910895CF9397
:10274000DF93CDB7DEB7CE55D1090FB6F894DEBF13
:102750000FBECDBF1C821B828BE092E09A838983DF
:1027600085E38EAF80E38FAF81E3898B84E088AF10
:1027700080EF90E09E838D8380E491E098878F8343
:102780002D961FAE1EAE2D972F961FAE1EAE2F9705
:102790001A86198680E090E0A4EBB3E48B879C87CF
:1027A000AD87BE8786EA9FEF988B8F8725961FAEF1
:1027B0001EAE259729961FAE1EAE29978FEF9FEF6D
:1027C00027969FAF8EAF279782E06C968FAF6C975E
:1027D0006D961FAE6D9781E06F968FAF6F976E9677
:1027E0008FAF6E978FEE90E061969FAF8EAF61973F
:1027F0008FE391E063969FAF8EAF639765961FAEB0
:102800001EAE659767961FAE1EAE679769961FAEA0
:102810001EAE699780E30E94D8068FAD90E0FC0160
:10282000E550F84FE491F0E0EE0FFF1FE953F84F49
:10283000259134913AAF29AFFC01EF5BF74FE4915A
:102840002296EFAF22978EAD0E94D8068EAD90E013
:10285000FC01E550F84FE491F0E0EE0FFF1FE95363
:10286000F84F259134913CAF2BAFFC01EF5BF74F54
:10287000E4912196EFAF2197FFB6F8948091A402DE
:10288000811124C0E0E3F8E08491E6E7F8E0949158
:10289000E82FF0E0EE0FFF1FEF51F84FA591B49134
:1028A000EC91E92321F461E085E30E94F70685E3DA
:1028B0000E94D8068CB580618CBD8CB580648CBDBF
:1028C00084E30E94D80683E30E94D8068091A40284
:1028D0008F5F8093A402FFBE84E088AF8CB58C7FAD
:1028E0008CBD8DB581608DBD8CB58F7D8CBD8CB55B
:1028F000837F8CBD89898F3F01F10E94D80661E0FA
:1029000089890E94F70665E070E080E090E00E940F
:10291000A80760E089890E94F70664E170E080E022
:1029200090E00E94A80761E089890E94F70666E9A5
:1029300070E080E090E00E94A80724ED31E0A9015A
:102940004F5F5F4FF90194916FEF690FA9ADBAAD79
:1029500022968FAD229780959923B1F12E5F3F4F3C
:10296000FA0144919C9189238C93EBADFCAD90814D
:1029700021968FAD21978095892380834EBD0000DD
:102980000DB407FEFDCFF901962F9150A9ADBAAD58
:1029900022965FAD22979F3F19F4260F311DCFCFAE
:1029A00044918C91852B8C93ABADBCAD5C91219601
:1029B0008FAD2197809585238C934EBD00000DB47B
:1029C00007FEFDCF3196E1CF9C9189238C93EBAD2F
:1029D000FCAD908121968FAD2197809589238083CE
:1029E00081E18EBD00000DB407FEFDCFEBADFCAD67
:1029F000808121969FAD2197892B808368E770E0C5
:102A000080E090E00E94A807E9ADFAAD908122969F
:102A10008FAD2297809589238083EBADFCAD9081AB
:102A200021968FAD219780958923808389E28EBD81
:102A300000000DB407FEFDCFEBADFCAD808121960B
:102A40009FAD2197892B808368E770E080E090E05C
:102A50000E94A8071C8A1D8A81E08093A902E9AD23
:102A6000FAAD908122968FAD22978095892380833D
:102A7000EBADFCAD908121968FAD21978095892398
:102A8000808386E38EBD00000DB407FEFDCF83E09A
:102A900090E09A878987E9ADFAAD808122969FAD53
:102AA0002297892B8083EBADFCAD908121968FAD71
:102AB000219780958923808388EE8EBD00000DB418
:102AC00007FEFDCFEBADFCAD808121969FAD219738
:102AD000892B808320E431E03E832D8380EF90E0DA
:102AE00098878F8361963FAF2EAF619763969FAFB4
:102AF0008EAF63977E01F8E1EF0EF11CCE01C89610
:102B00002FE130E0F701219331937F01E817F907B6
:102B1000C9F7EBADFCAD908121968FAD21978095E3
:102B2000892380830F8118852D813E8150E040E00C
:102B300070E060E0CE0101960E942D0AE9ADFAAD89
:102B4000808122969FAD2297892B808390E080E040
:102B5000288D398D3EBD0DB407FEFDCF2EBDFE0183
:102B60007A96EE16FF0661F02081318132960DB41F
:102B700007FEFDCF3EBD0DB407FEFDCF2EBDF1CF4C
:102B80000DB407FEFDCF0196803CF2E19F0701F7EF
:102B9000EBADFCAD808121969FAD2197892B808381
:102BA0008CE392E02B969FAF8EAF2B9785E06C96CF
:102BB0008FAF6C978FEF9FEF27969FAF8EAF2797C2
:102BC0008FE190E029969FAF8EAF29972D968EAD1D
:102BD0009FAD2D9767969FAF8EAF679765969FAF16
:102BE0008EAF65972F968EAD9FAD2F976B969FAF4B
:102BF0008EAF6B9769969FAF8EAF6997CE010196A6
:102C00000E9480062B96EEADFFAD2B973396E49194
:102C10006F962FAD6F97E29FF0011124F695E7951F
:102C200069964EAD5FAD699761962EAD3FAD6197E8
:102C30003695279565966EAD7FAD6597260F371F44
:102C400096958795281B390B65963FAF2EAF6597F4
:102C500063968EAD9FAD639796958795840F951F6C
:102C60008E1B9F0B69969FAF8EAF699767E878E0E0
:102C7000CE0101960E9439090E94B51FFDCF0F9326
:102C80001F93EFECF2E0A089B18982E08C93A485D8
:102C9000B5851C92A685B78580E18C93108EA4899A
:102CA000B58986E08C93A289B3898C9180618C93DD
:102CB000A289B3898C9188608C93A289B3898C9105
:102CC00080688C930288F389E02D80818F7D8083DA
:102CD00010E000E021E048EE53E06FE672E08FE99B
:102CE00093E10E94F02221E048EE53E06CE772E0AD
:102CF00089E896E10E94F02221E048EE53E06BE87B
:102D000072E08AE99AE00E94F0221F910F910C94E0
:102D10001E24CF93DF9300D01F921F92CDB7DEB752
:102D20008FE190E00E94D2228C01009769F0DC01D3
:102D300011969C938E9381E05B968C935B975C9647
:102D40001C92C8010E94F11C1093A8020093A702D4
:102D500066246A94762C99E0592E24E0A22EB12C98
:102D60000091A7021091A8027D826C82D12C90E084
:102D70004801B1E18B0E911C0FB6F8940F92F80147
:102D8000828D882309F441C08150828F8081918196
:102D9000892B71F4E091A803F091A903309719F001
:102DA00082A18F5F82A3D8011596FC93EE931497AE
:102DB000F8018085882339F0C80108960E94DE1B3F
:102DC00081110E94211D0F900FBE80917B008860B1
:102DD00080937B0080E480937C0080917A00806403
:102DE00080937A0080917A0086FDFCCF80917800F4
:102DF000909179009093A6028093A5028091A702FA
:102E00009091A8020E94C31F06C02C813D81232BF4
:102E100029F40F900FBE0E94B51FA2CF911109C0D7
:102E20008091AD0389838091AB039091AC039B8328
:102E30008A830F900FBE0E949E1C0FB6F8940F92CB
:102E4000D8015D968C915D978F3F11F45D961C9231
:102E5000F801868D8F3F09F4168E0F900FBEBE01CC
:102E60006C5F7F4FCE0101960E94AB1B8111AFC0FA
:102E7000C8010E94A41C882309F4A3C0D8018D9125
:102E80009C91892B09F078C00FB6F8940F92F80145
:102E9000E480F580E114F10409F491C0D70156965D
:102EA0008C915697E091A803F091A9039689891710
:102EB00008F07AC01C962D913C911D9737FD0CC0EF
:102EC000E091A803F091A90396899501291B310986
:102ED0001D963C932E931C97859DC001112482550D
:102EE0009C4FF701228533852817390709F054C014
:102EF0006701F2E0CF0ED11CC6010E941D1AE091BD
:102F0000A803F091A903E689D7015696EC93809126
:102F1000D2038E1710F4E093D2035E9EF0011124C9
:102F2000E255FC4F0180F281E02DD7011596FC930C
:102F3000EE9314978481958117969C938E931697A0
:102F4000A481B5811396DC92CE921297D582C48269
:102F5000D7015696EC915697E59DF0011124E25564
:102F6000FC4F1B96FC93EE931A9780818F5F8083B2
:102F7000DD24D3940F900FBE6C817D81C4010E942B
:102F8000831CC8010E94AF1C0E94E91D811102C070
:102F90000E94211D91E0F0CEE091A803F091A903D9
:102FA0008689F701868BE4CFE091A803F091A9030D
:102FB000DD24D39491969C9186899817D8F2D12CD0
:102FC000D9CFC8010E94AF1C0E94E91DE3CFC80100
:102FD0000E94AF1C0E94E91DC8010E94A41C882306
:102FE000C9F2DD2009F417CF0FB6F8940F92F8015B
:102FF0008189882309F478C00688F789E02D9081BB
:1030000084E0891BD80114960D911C9101151105BE
:1030100009F4FFCEF80191A1981708F4982FD80170
:1030200056968C915697891709F4F3CE92962C9167
:103030009297213009F0EDCE56969C9356971C96A8
:103040002D913C911D9737FD07C09501291B310932
:103050001D963C932E931C97859DC001112482558B
:103060009C4FF801228533852817390709F0D1CE06
:103070007801F2E0EF0EF11CC7010E941D1AD80181
:103080005696EC918091D2038E1710F4E093D20300
:103090005E9EF0011124E255FC4F0180F281E02D8B
:1030A000D8011596FC93EE93149784819581179619
:1030B0009C938E931697A481B5811396FC92EE9201
:1030C0001297F582E482D8015696EC915697E59DC9
:1030D000F0011124E255FC4F1B96FC93EE931A97D6
:1030E00080818F5F808395CE80E08CCFEF92FF92BE
:1030F0000F931F93CF93DF93CDB7DEB76E970FB6C5
:10310000F894DEBF0FBECDBF8091A902882309F4D9
:10311000A1C08091A7029091A8020E94C31F609154
:10312000A5027091A60290E080E00E94F92620E0BE
:1031300030E040EA5BE30E945A2720E030E44CE9AB
:1031400056E40E945A270E943029CB011A8E198E0C
:103150001C8E1B8E1E8E1D8E4AE08E010F5F1F4F30
:10316000B8010E94BF26F80101900020E9F73197CD
:103170007F01E01AF10AB701CE0149960E949B0A2D
:10318000811177C0CE0149960E94C30A8091A9029D
:103190001C8A1B8A1E8A1D8A188E1F8A4AE0B80163
:1031A00090E00E94CA26F80101900020E9F73197CB
:1031B0007F01E01AF10AB701CE0143960E949B0AF3
:1031C00081115FC0CE0143960E94C30AE98CFA8C3C
:1031D000E114F10409F45DC00D8D1E8D011511057A
:1031E000B9F08F89988D080F191FB801CE01439649
:1031F0000E949B0A882309F44CC02B893C898F8943
:10320000988DB701820F931F0E94612A188F0F8B30
:103210000F89188D0A5F1F4FB801CE0143960E9497
:103220009B0A81113BC0CE0143960E94C30ABE0196
:103230006D5E7F4F8FEC92E00E94B90C8B899C8968
:10324000009711F00E943626898D9A8D009711F013
:103250000E9436260E94B51F6E960FB6F894DEBF08
:103260000FBECDBFDF91CF911F910F91FF90EF90D7
:103270000895FE8EED8EB801898D9A8D0E94612A87
:1032800085CFF88EEF8AB8018B899C890E94612ACC
:103290009DCFCE0143960E94C30ABACF2B893C89A9
:1032A0008F89988D6AE972E0820F931F0E94612ACC
:1032B000188F0F8BBCCF1F920F920FB60F92112455
:1032C0002F933F938F939F93AF93BF9380916D0301
:1032D00090916E03A0916F03B091700330916C03D5
:1032E00023E0230F2D3758F50196A11DB11D209322
:1032F0006C0380936D0390936E03A0936F03B09360
:1033000070038091710390917203A0917303B09147
:1033100074030196A11DB11D8093710390937203F4
:10332000A0937303B0937403BF91AF919F918F915A
:103330003F912F910F900FBE0F901F90189526E888
:10334000230F0296A11DB11DD2CF1F920F920FB66F
:103350000F9211240BB60F922F933F934F935F93CD
:103360006F937F938F939F93AF93BF93EF93FF934D
:103370008FEC92E00E947908FF91EF91BF91AF919D
:103380009F918F917F916F915F914F913F912F917D
:103390000F900BBE0F900FBE0F901F9018951F92AD
:1033A0000F920FB60F9211240BB60F922F938F939B
:1033B0009F93EF93FF93E091DF02F091E002808111
:1033C000E091E502F091E60282FD1DC090818091BE
:1033D000E8028F5F8F732091E902821741F0E0913C
:1033E000E802F0E0E153FD4F958F8093E802FF91F2
:1033F000EF919F918F912F910F900BBE0F900FBE69
:103400000F901F9018958081F2CFE0917703F09193
:1034100078038081811107C08FEF9FEF9093CA02DC
:103420008093C9020895E0917703F09178030580B5
:10343000F681E02D80819181F1CFCF93DF93FC0164
:10344000A085B1858281938124813581EC013D8302
:103450002C83C481D5819B838A8311968D919C9105
:1034600012978E179F0721F41296DC93CE93119733
:10347000118610868C9181508C938C91DF91CF9125
:1034800008950F931F93CF93DF938C01FB018081ED
:103490009181D80113968F3F9807F1F4E801AF812D
:1034A000B88512968D919C91139793838283EC013A
:1034B000FD83EC83B583A4831396FC93EE9312975C
:1034C00011870087F80180818F5F8083DF91CF9122
:1034D0001F910F910895D90112962D913C91139748
:1034E000E9014881598184179507A8F7DACFFC01D3
:1034F0000396928381832FEF3FEF34832383968358
:1035000085839087878310820895FC01738362838B
:10351000918780874617570790F0421B530B84858D
:10352000958548175907C8F4BF016E5F7F4F80919A
:10353000C5029091C6020E94411A80E00895421788
:10354000530718F46217730740F4BF016E5F7F4F93
:103550008091C7029091C802EECF81E00895EF926A
:10356000FF920F931F93CF93DF93EC018B017A01AE
:103570006C857D85600F711F9801A701CE010E94A7
:10358000851A811107C0DF91CF911F910F91FF9094
:10359000EF9008958C859D85080F191FE889F9899A
:1035A000CE011995E5CFEF92FF920F931F93CF9322
:1035B000DF938C017B01E091C702F091C802058086
:1035C000F681E02DC681D781CE0102960E941D1A98
:1035D0008A8982FF0FC0A701B801CE010E94AF1AED
:1035E000E889F989CE01DF91CF911F910F91FF906A
:1035F000EF9019948E7F8A8BF3CFE091C702F09100
:10360000C802808181110DC08091C5029091C602CF
:103610009093C8028093C702F093C602E093C5025C
:1036200008950580F681E02D6FEF7FEF8081918115
:103630000E94D31AE2CFBF92CF92DF92EF92FF9215
:103640000F931F93CF93DF93EC01B62EC090AB0383
:10365000D090AC030091770310917803E09075034C
:10366000F09076038091A8039091A90302960E949E
:103670001D1ACF3FDC0709F042C0BB2009F43FC050
:10368000E0917A03F0917B03A091A803B091A90384
:103690001596FC93EE931497A091A803B091A903FB
:1036A0008481958117969C938E9316978091A80399
:1036B0009091A903A481B581029613969C938E9351
:1036C00012978091A8039091A90302969583848311
:1036D000E091A803F091A90389E793E0938782879B
:1036E000809179038F5F80937903DF91CF911F9150
:1036F0000F91FF90EF90DF90CF90BF900895CC0D89
:10370000DD1DE091A803F091A903D383C2836091EA
:10371000A8037091A9036E5F7F4FCC15DD0560F49F
:10372000C701DF91CF911F910F91FF90EF90DF9034
:10373000CF90BF900C94411AC8010E94411A809109
:10374000C9029091CA02C817D90778F6D093CA0265
:10375000C093C902CACFFC01DB010FB6F8940F92E7
:103760004091AB035091AC032D913C9111972F3FA9
:10377000320711F1818192816091AD0370817617DA
:1037800049F04817590730F01D921C9281E00F90C4
:103790000FBE0895481B590B42175307A8F7241B67
:1037A000350B2D933C938091AD0380838091AB03C7
:1037B0009091AC039283818380E0E9CFCF93DF9334
:1037C000DC011596ED91FC910680F781E02DA4892E
:1037D000B5898685978520893189EC013D832C83C5
:1037E000C089D1899B838A83CF010C9611962D9134
:1037F0003C9112972817390721F41296DC93CE9347
:103800001197158A148A2C9121502C932091CE0265
:10381000211157C0A285B385848195812681378186
:10382000EC013D832C83C681D7819B838A83CF01A2
:10383000029611962D913C9112972817390721F481
:103840001296DC93CE931197138612862C912150F9
:103850002C93C6892091D2032C1710F4C093D20365
:1038600029E02C9FE0011124C255DC4F0980DA8148
:10387000C02DD583C4834C815D8157834683AC8141
:10388000BD8113969C938E9312979D838C83A689FA
:10389000A29FD0011124A255BC4FB387A2878C915F
:1038A0008F5F8C93A091A803B091A9039689569637
:1038B0008C91891730F581E08093CD02DF91CF9113
:1038C0000895A0918C03B0918D03B787A6871496B5
:1038D0002D913C911597318B208B1496CD91DC91D5
:1038E00015979B838A8315969C938E9314978BE8E8
:1038F00093E0958B848B80918B038F5F80938B03F8
:10390000D1CF80E0DBCFCF93DF93EB016091A803B1
:103910007091A903645F7F4F0E94411A61E0CE015C
:10392000DF91CF910C941B1B0FB6F8940F928091EE
:10393000AB039091AC030F900FBE08958091CE021F
:103940008F5F8093CE0208950FB6F8940F92FC011A
:10395000928D0F900FBE81E0911180E00895EF925B
:10396000FF920F931F93CF93DF93EC010FB6F89460
:103970000F921E8D7C0181E1E80EF11C01E0111611
:10398000D4F08FEF8E8F0F900FBE0FB6F8940F927A
:103990001D8D7E0188E0E80EF11C01E01116B4F0E7
:1039A0008FEF8D8F0F900FBEDF91CF911F910F91F1
:1039B000FF90EF9008958989882319F3C7010E9429
:1039C000DE1B81110093CD021150D9CF8885882349
:1039D00039F3C7010E94DE1B81110093CD02115003
:1039E000DDCFCF93DF93EC010FB6F8940F9288816F
:1039F00099812B8D4C8DBC01249F600D711D11246C
:103A00007D836C831A8E9B838A832150330B429F64
:103A1000B001439F700D1124860F971F9F838E83E3
:103A20008FEF8D8F8E8FCE0108960E94771ACE0170
:103A300041960E94771A0F900FBE81E0DF91CF91DF
:103A400008950F920FB6F8940F920BB60F920CB622
:103A50000F921F9211242F923F924F925F926F927A
:103A60007F928F929F92AF92BF92CF92DF92EF920E
:103A7000FF920F931F932F933F934F935F936F93F7
:103A80007F938F939F93AF93BF93CF93DF93EF93E6
:103A9000FF93A091A803B091A9030DB60D920EB6A5
:103AA0000D928091CE02882321F081E08093CD0297
:103AB00061C01092CD02A091A803B091A903E0913A
:103AC000A803F091A9032D913C918789908D8217CD
:103AD0009307A8F08091A8039091A9038091A8036F
:103AE0009091A903279A2F9A2FEF87EA91E6215008
:103AF00080409040E1F700C000001F9AF5CF209170
:103B0000D20389E001C02150422F50E0849FF00190
:103B1000859FF00D1124E255FC4F9081992399F374
:103B2000A181B28112966D917C9172836183289FED
:103B3000C00111248F549C4F6817790721F48581A7
:103B400096819283818389E0849FF001859FF00DA7
:103B50001124E255FC4F0180F281E02D868197818E
:103B60009093A9038093A8032093D2038091A80384
:103B70009091A903A091A803B091A903CD91CDBFC5
:103B8000DD91DEBFFF91EF91DF91CF91BF91AF91BA
:103B90009F918F917F916F915F914F913F912F9165
:103BA0001F910F91FF90EF90DF90CF90BF90AF905B
:103BB0009F908F907F906F905F904F903F902F904D
:103BC0001F900F900CBE0F900BBE0F900FBE0F906A
:103BD00008958F929F92BF92CF92DF92EF92FF92C1
:103BE0000F931F93CF93DF930FB6F8940F928091AA
:103BF000CE0281508093CE028091CE02882379F04C
:103C000080E00F900FBEDF91CF911F910F91FF9039
:103C1000EF90DF90CF90BF909F908F90089580910C
:103C2000AA03882369F3E0909003F0909103F0E0F9
:103C3000E0E039E041E080918B0381115EC0EF2B21
:103C400011F00E94051AE090CB02F090CC02E11432
:103C5000F10409F47DC189E0D82ECC24C3940FEF80
:103C60001FEF8091CE02811161C1C091AB03D09151
:103C7000AC034E018FEF881A980A9092AC038092A1
:103C8000AB0381149104B9F4809177039091780388
:103C90002091750330917603309378032093770356
:103CA00090937603809375038091AD038F5F80932B
:103CB000AD030E94051A8091C9029091CA02B12CED
:103CC0008816990608F026C1E091A803F091A9038F
:103CD000E689DE9EF0011124E255FC4F808182309E
:103CE00010F0BB24B3948091CD02811103C0BB209E
:103CF00009F425C1C092CD0222C1D7011696ED91DB
:103D0000FC91A489B5896685778580899189EB01C5
:103D10009D838C8380899189EC017B836A83BF01B9
:103D2000645F7F4F11960D911C911297061717072C
:103D300021F412969C938E931197158A148A8C9174
:103D400081508C93A285B38584819581668177812A
:103D5000EC017D836C8366817781EB019B838A8391
:103D6000CF01029611960D911C9112970817190711
:103D700021F412967C936E931197138612862C91E0
:103D800021502C93A6892091D2032A1710F4A093D6
:103D9000D2033A9FD0011124A255BC4F11960D9029
:103DA000BC91A02DB583A48314966D917C91159739
:103DB0007783668314966D917C911597EB019B83B5
:103DC0008A8315969C938E9314979689939FD0011E
:103DD0001124A255BC4FB387A2878C918F5F8C931F
:103DE000A091A803B091A90356968C91891708F069
:103DF00022CF4093CD021FCFE0917703F09178035B
:103E00000580F681E02D0680F781E02D8281938187
:103E10008816990628F49093CA028093C90254CF59
:103E2000C285D3858481958126813781DC011596F1
:103E30003C932E93149726813781D90113969C9336
:103E40008E931297CF01029649815A8148175907DC
:103E500011F43A83298313861286288121502883FE
:103E6000A489B5891097F9F026853785408951894D
:103E7000E9015D834C8340895189EA013B832A83B0
:103E800011966D917C9112979F01245F3F4F6217AD
:103E9000730721F412965C934E931197158A148A36
:103EA0002C9121502C93A6892091D2032A1710F42B
:103EB000A093D203DA9ED0011124A255BC4F1196D3
:103EC0000D90BC91A02DB583A48314962D913C91A7
:103ED00015973783268314962D913C911597E90108
:103EE0009B838A8315969C938E93149796899D9DA8
:103EF000D0011124A255BC4FB387A2878C918F5F4C
:103F00008C93E091A803F091A9038689891710F496
:103F1000BB24B394E0917703F09178038081811101
:103F20006BCF1093CA020093C902CECE8091CB0210
:103F30009091CC0201969093CC028093CB02D1E079
:103F4000ED1AF10809F08DCE1092CC021092CB023E
:103F50008091CD02882309F453CE8091A8039091DB
:103F6000A9030E94211D81E04CCE0E949E1C60E0AE
:103F70008EE390E00E941B1B0E94E91D811102C08C
:103F80000E94211D0895AF92BF92DF92EF92FF929F
:103F90000F931F93CF93DF9300D01F921F92CDB743
:103FA000DEB78C011D821C8280E0780198E0E90E6A
:103FB000F11C0FB6F8940F92D8015A962C915A978B
:103FC0005B969C915B97291708F0B0C05A96DC90DD
:103FD0005A975C964C915C9741118CC08D919C9145
:103FE000892B11F080E00AC0F801E480F580E1142B
:103FF000F10431F580E0F80115821482D394D801E0
:104000005A96DC925A9751969C91992321F0C801B7
:1040100041960E94DE1B81110E94211D0F900FBE50
:1040200081E00F900F900F900F900F90DF91CF9144
:104030001F910F91FF90EF90DF90BF90AF90089588
:10404000D70192968C919297815092968C939297E9
:1040500056962C91569791969C91291759F2811159
:10406000C9CF5701B2E0AB0EB11CC5010E941D1AA9
:10407000F70181A1868B482F50E024E030E0241B1B
:10408000350B358724879091D203981710F48093CD
:10409000D20389E0849FD001859FB00D1124A255E1
:1040A000BC4F11960D90BC91A02DF701B583A48350
:1040B00014962D913C911597378326831496ED9194
:1040C000FC911597B382A2821596BC92AE9214977A
:1040D000D7015696EC915697E89FF0011124E255CE
:1040E000FC4F1B96FC93EE931A9780818F5F808321
:1040F00081E081CF50E070E060E012968D919C915C
:104100000E94512AF801848D22813381820F932FDE
:10411000911D93838283248135818217930708F44C
:1041200061CF80819181938382835CCF2C813D819B
:10413000232B21F40F900FBE80E073CF811109C0B3
:104140008091AD0389838091AB039091AC039B83F5
:104150008A830F900FBE0E949E1C0FB6F8940F9298
:10416000F801858D8F3F09F4158ED8015E968C91EC
:104170005E978F3F11F45E961C920F900FBEBE01AA
:104180006C5F7F4FCE0101960E94AB1B811120C056
:104190000FB6F8940F92F801928D838D0F900FBE99
:1041A000981310C06C817D81C7010E94831CC801D7
:1041B0000E94AF1C0E94E91D811102C00E94211DB6
:1041C00081E0F7CEC8010E94AF1C0E94E91DF8CF24
:1041D000C8010E94AF1C0E94E91DAECFCF93DF93B0
:1041E000009751F0EC010E949E1CCE010E943626E1
:1041F000DF91CF910C94E91DDF91CF9108950F923B
:104200000FB6F8940F920BB60F920CB60F921F9246
:1042100011242F923F924F925F926F927F928F92D2
:104220009F92AF92BF92CF92DF92EF92FF920F9345
:104230001F932F933F934F935F936F937F938F932E
:104240009F93AF93BF93CF93DF93EF93FF93A0918F
:10425000A803B091A9030DB60D920EB60D9213BE30
:104260008091CE028111F9C08091AB039091AC0393
:1042700001969093AC038093AB03009781F5209156
:1042800077033091780340917503509176035093F2
:10429000780340937703309376032093750320913E
:1042A000AD032F5F2093AD03E0917703F091780386
:1042B0002081211107C02FEF3FEF3093CA022093D6
:1042C000C9020DC0E0917703F09178030580F68173
:1042D000E02D208131813093CA022093C9022091C0
:1042E000C9023091CA028217930710F420E0A1C0DE
:1042F00020E039E0D32EE0917703F091780330810C
:10430000311107C08FEF9FEF9093CA028093C902CB
:1043100090C0E0917703F09178030580F681E02D5D
:104320000680F781E02D428153818417950728F498
:104330005093CA024093C9027CC0A285B3854481D0
:10434000558166817781EA017D836C8366817781FF
:10435000EB015B834A83AF014E5F5F4F11960D9176
:104360001C9112970417150721F412967C936E93F3
:104370001197138612863C9131503C93A489B589DC
:104380001097F9F06685778500891189EB011D8307
:104390000C8300891189E8017B836A831196ED9073
:1043A000FC901297BF01645F7F4FE616F70621F479
:1043B00012961C930E931197158A148A3C913150D2
:1043C0003C93A6893091D2033A1710F4A093D203FC
:1043D000DA9ED0011124A255BC4F11960D90BC91CC
:1043E000A02DB583A48314966D917C911597778346
:1043F000668314966D917C911597EB015B834A83DC
:1044000015965C934E93149746894D9DD0011124C7
:10441000A255BC4FB387A2873C913F5F3C93E0918C
:10442000A803F091A9033689341708F064CF21E07E
:1044300062CFE091A803F091A903E689D9E0ED9F4E
:10444000F0011124E255FC4F8081823008F021E018
:104450008091CD0281110EC00AC08091CB02909153
:10446000CC0201969093CC028093CB026CC02223A5
:1044700009F469C08091CE02882321F081E0809305
:10448000CD0261C01092CD02A091A803B091A90302
:10449000E091A803F091A9032D913C918789908D1B
:1044A00082179307A8F08091A8039091A9038091A7
:1044B000A8039091A903279A2F9A2FEF87EA91E6F4
:1044C000215080409040E1F700C000001F9AF5CFD6
:1044D0002091D20389E001C02150422F50E0849FF7
:1044E000F001859FF00D1124E255FC4F9081992336
:1044F00099F3A181B28112966D917C91728361834F
:10450000289FC00111248F549C4F6817790721F40C
:10451000858196819283818389E0849FF001859FC4
:10452000F00D1124E255FC4F0180F281E02D8681CF
:1045300097819093A9038093A8032093D20380913D
:10454000A8039091A903A091A803B091A903CD91CC
:10455000CDBFDD91DEBFFF91EF91DF91CF91BF9194
:10456000AF919F918F917F916F915F914F913F910B
:104570002F911F910F91FF90EF90DF90CF90BF9000
:10458000AF909F908F907F906F905F904F903F90F3
:104590002F901F900F900CBE0F900BBE0F900FBE70
:1045A0000F900895CF93DF93EC010E949E1CCE01E3
:1045B0000E949A25EC010E94E91D209769F4279A30
:1045C0002F9A2FEF80E792E0215080409040E1F752
:1045D00000C000001F9AF5CFCE01DF91CF91089562
:1045E0007F928F929F92AF92BF92CF92DF92EF9283
:1045F000FF920F931F93CF93DF93982EA92E762EC1
:10460000872E7A01B22ECA010E94D2226C01892B18
:1046100009F4F3C088E290E00E94D222EC01892BD9
:1046200009F4E8C088E2DE011D928A95E9F7D88E88
:10463000CF8AA70165EA70E0C6010E945A2AB1E05C
:10464000EB1AF108EF89F88DEE0DFF1D672D782D1F
:10465000CE0149969B01285F3F4FDB014D91BD0183
:10466000DC014D93CD01AB0141505109DA014C9170
:10467000442319F02617370781F718A2BE8AB9A27A
:104680001B861A861D8A1C8AD987C88784E090E019
:104690008B1991099D878C87DB8BCA8B9082DF01F8
:1046A0001197AC9211971C9211971C92119780E868
:1046B0008C9311971C9211971C9211971C925797EB
:1046C0001C9211971C92B697F983E8830115110586
:1046D00019F0F801D183C0830FB6F8940F9280913E
:1046E000AA038F5F8093AA038091A8039091A903E6
:1046F000892B09F091C0D093A903C093A80380919E
:10470000AA03813081F58EEA93E00E94771A87EB45
:1047100093E00E94771A80EC93E00E94771A89EC6C
:1047200093E00E94771A8DE993E00E94771A84E95A
:1047300093E00E94771A8BE893E00E94771A82E850
:1047400093E00E94771A89E793E00E94771A8DE937
:1047500093E0909378038093770384E993E09093B8
:104760007603809375038091A6038F5F8093A603E1
:10477000AE898091D2038A1710F4A093D20329E066
:104780002A9FD0011124A255BC4F11960D90BC91C7
:10479000A02DBD83AC8314968D919C9115979F831A
:1047A0008E831496ED91FC911597CE01029693831A
:1047B000828315969C938E931497EE89E29FF00165
:1047C0001124E255FC4FFB87EA8780818F5F80834D
:1047D0000F900FBE8091A703882351F0E091A803AA
:1047E000F091A90396898E89981710F40E94211DD3
:1047F00081E004C0C6010E94EE208FEFDF91CF91CF
:104800001F910F91FF90EF90DF90CF90BF90AF90EE
:104810009F908F907F9008958091A7038111A3CFDF
:10482000E091A803F091A90396898E89891708F46D
:104830009ACFD093A903C093A80395CF0F931F934A
:10484000CF93DF9300D000D01F921F92CDB7DEB779
:10485000A2E6B2E0FE0131962AE632E0BF018D9178
:104860008193882319F02A173B07C9F70BEA12E056
:1048700020E040EC50E08CE196E00E94F02288239A
:1048800009F494C0813009F091C00FB6F8940F92EA
:104890008091C3029091C402892B51F586EB92E07E
:1048A0000E94771A8DEA92E00E94771A86EB92E0D6
:1048B0009093C8028093C7028DEA92E09093C6025B
:1048C0008093C50281E590E00E94D2228C0100977E
:1048D00059F04F96F801918380838AE0838F85E0B9
:1048E000848FC8010E94F11C1093C4020093C3027C
:1048F0000F900FBE8091C3029091C402892B09F4DE
:1049000055C00FEB12E023E045E550E067E672E0AA
:104910008AE494E00E94F022813009F047C0F894C4
:104920002FEF3FEF3093CA022093C9028093A70371
:104930001092AC031092AB03A89588E190EC0FB6EF
:10494000F894A895809360000FBE90936000A091AA
:10495000A803B091A903CD91CDBFDD91DEBFFF913A
:10496000EF91DF91CF91BF91AF919F918F917F9107
:104970006F915F914F913F912F911F910F91FF90F8
:10498000EF90DF90CF90BF90AF909F908F907F90EF
:104990006F905F904F903F902F901F900F900CBEA4
:1049A0000F900BBE0F900FBE0F90089580910002E4
:1049B00028960FB6F894DEBF0FBECDBFDF91CF9122
:1049C0001F910F9108950E94FF201895789484B547
:1049D000826084BD84B5816084BD85B5826085BDFB
:1049E00085B5816085BD80916E00816080936E0089
:1049F000109281008091810082608093810080917B
:104A0000810081608093810080918000816080932B
:104A100080008091B10084608093B1008091B000EB
:104A200081608093B00080919100826080939100BA
:104A300080919100816080939100809190008160CD
:104A4000809390008091A10082608093A10080916A
:104A5000A10081608093A1008091A000816080937B
:104A6000A000809121018260809321018091210129
:104A700081608093210180912001816080932001D9
:104A800080917A00846080937A0080917A008260BD
:104A900080937A0080917A00816080937A0080917F
:104AA0007A00806880937A001092C10020910502FC
:104AB000309106028FEF91E2821B930B90930202DA
:104AC000809301020E943F160E941E240E943F16FE
:104AD0000E9476180E940809FBCFEFECF2E01382E7
:104AE000128288EE93E0A0E0B0E084839583A683F1
:104AF000B78385E492E09183808385EC90E095878D
:104B0000848784EC90E09787868780EC90E0918B97
:104B1000808B81EC90E0938B828B82EC90E0958B84
:104B2000848B86EC90E0978B868B118E128E138E81
:104B3000148E08950F931F93CF93DF9382309105C6
:104B400010F482E090E0E091D503F091D60330E0DC
:104B500020E0B0E0A0E0309799F42115310509F488
:104B60004AC0281B390B24303105D8F58A819B8136
:104B70006115710589F1FB0193838283FE0111C0E8
:104B8000408151810281138148175907E0F048178D
:104B9000590799F4109761F012960C931297139697
:104BA0001C933296CF01DF91CF911F910F91089501
:104BB0000093D5031093D603F4CF2115310551F09E
:104BC0004217530738F0A901DB019A01BD01DF014B
:104BD000F801C1CFEF01F9CF9093D6038093D503AD
:104BE000CDCFFE01E20FF31F819391932250310943
:104BF00039832883D7CF2091D3033091D403232B3B
:104C000041F420910302309104023093D4032093A5
:104C1000D30320910102309102022115310541F4A4
:104C20002DB73EB74091050250910602241B350B6B
:104C3000E091D303F091D403E217F307A0F42E1B05
:104C40003F0B2817390778F0AC014E5F5F4F2417F0
:104C5000350748F04E0F5F1F5093D4034093D303A2
:104C6000819391939FCFF0E0E0E09CCFCF93DF93CF
:104C70000097E9F0FC01329713821282A091D503CC
:104C8000B091D603ED0130E020E01097A1F420812F
:104C90003181820F931F2091D3033091D4032817C1
:104CA000390709F061C0F093D403E093D303DF9197
:104CB000CF910895EA01CE17DF07E8F54A815B81BD
:104CC0009E0141155105B1F7E901FB83EA83499142
:104CD0005991C40FD51FEC17FD0761F480819181B4
:104CE0000296840F951FE9019983888382819381BD
:104CF0009B838A83F0E0E0E012968D919C9113975C
:104D00000097B9F52D913C911197CD010296820F34
:104D1000931F2091D3033091D4032817390739F614
:104D2000309751F51092D6031092D503B093D40367
:104D3000A093D303BCCFD383C28340815181840F1E
:104D4000951FC817D90761F44E5F5F4F888199811D
:104D5000480F591F518340838A819B8193838283AB
:104D60002115310509F0B0CFF093D603E093D503B8
:104D70009ECFFD01DC01C0CF13821282D7CFBB27AB
:104D80004A3031F4992322F4BDE2909581959F4FEA
:104D90000C94CB26BB27FB015527AA27880F991F08
:104DA000AA1FA41710F0A41B83955051B9F7A05D5A
:104DB000AA3308F0A95DA193009779F7B111B193D7
:104DC0001192CB010C94E426DC01FC01672F719158
:104DD0007723E1F7329704C07C916D9370836291E1
:104DE000AE17BF07C8F308950E94362708F481E084
:104DF0000895E89409C097FB3EF4909580957095CE
:104E000061957F4F8F4F9F4F9923A9F0F92F96E916
:104E1000BB279395F695879577956795B795F1118B
:104E2000F8CFFAF4BB0F11F460FF1BC06F5F7F4F28
:104E30008F4F9F4F16C0882311F096E911C077233A
:104E400021F09EE8872F762F05C0662371F096E843
:104E5000862F70E060E02AF09A95660F771F881F12
:104E6000DAF7880F9695879597F90895990F0008B6
:104E7000550FAA0BE0E8FEEF16161706E807F9072C
:104E8000C0F012161306E407F50798F0621B730BC7
:104E9000840B950B39F40A2661F0232B242B252B48
:104EA00021F408950A2609F4A140A6958FEF811DEB
:104EB000811D08950E946D270C94DE270E94D02743
:104EC00038F00E94D72720F0952311F00C94C727C3
:104ED0000C94CD2711240C9412280E94EF2770F314
:104EE000959FC1F3950F50E0551F629FF001729F8F
:104EF000BB27F00DB11D639FAA27F00DB11DAA1F9E
:104F0000649F6627B00DA11D661F829F2227B00DEA
:104F1000A11D621F739FB00DA11D621F839FA00D75
:104F2000611D221F749F3327A00D611D231F849FC5
:104F3000600D211D822F762F6A2F11249F5750401C
:104F40009AF0F1F088234AF0EE0FFF1FBB1F661F97
:104F5000771F881F91505040A9F79E3F510580F060
:104F60000C94C7270C9412285F3FE4F3983ED4F3C7
:104F7000869577956795B795F795E7959F5FC1F704
:104F8000FE2B880F911D9695879597F9089597F9AF
:104F90009F6780E870E060E008959FEF80EC0895DF
:104FA00000240A9416161706180609060895002408
:104FB0000A9412161306140605060895092E039482
:104FC000000C11F4882352F0BB0F40F4BF2B11F4F6
:104FD00060FF04C06F5F7F4F8F4F9F4F089557FD55
:104FE0009058440F551F59F05F3F71F04795880F57
:104FF00097FB991F61F09F3F79F0879508951216EE
:1050000013061406551FF2CF4695F1DF08C0161699
:1050100017061806991FF1CF86957105610508944A
:105020000895E894BB2766277727CB0197F9089561
:10503000A29FB001B39FC001A39F700D811D1124D9
:10504000911DB29F700D811D1124911D0895A1E243
:105050001A2EAA1BBB1BFD010DC0AA1FBB1FEE1FF2
:10506000FF1FA217B307E407F50720F0A21BB30B3D
:10507000E40BF50B661F771F881F991F1A9469F7B9
:1050800060957095809590959B01AC01BD01CF0115
:105090000895EE0FFF1F881F8BBF0790F691E02D3C
:1050A00019945058BB27AA270E9469280C94DE2720
:1050B0000E94D02738F00E94D72720F039F49F3F74
:1050C00019F426F40C94CD270EF4E095E7FB0C942C
:1050D000C727E92F0E94EF2758F3BA176207730713
:1050E0008407950720F079F4A6F50C9411280EF4A6
:1050F000E0950B2EBA2FA02D0B01B90190010C01E8
:10510000CA01A0011124FF27591B99F0593F50F4FF
:10511000503E68F11A16F040A22F232F342F442757
:10512000585FF3CF469537952795A795F04053954F
:10513000C9F77EF41F16BA0B620B730B840BBAF01F
:105140009150A1F0FF0FBB1F661F771F881FC2F78A
:105150000EC0BA0F621F731F841F48F4879577959E
:105160006795B795F7959E3F08F0B0CF9395880F58
:1051700008F09927EE0F9795879508950E94D228F9
:105180000C94DE270E94D72758F00E94D02740F0C9
:1051900029F45F3F29F00C94C72751110C94122871
:1051A0000C94CD270E94EF2768F39923B1F3552380
:1051B00091F3951B550BBB27AA276217730784072A
:1051C00038F09F5F5F4F220F331F441FAA1FA9F3C0
:1051D00035D00E2E3AF0E0E832D091505040E695AE
:1051E000001CCAF72BD0FE2F29D0660F771F881F0F
:1051F000BB1F261737074807AB07B0E809F0BB0B02
:10520000802DBF01FF2793585F4F3AF09E3F510515
:1052100078F00C94C7270C9412285F3FE4F3983E73
:10522000D4F3869577956795B795F7959F5FC9F7FE
:10523000880F911D9695879597F90895E1E0660F7F
:10524000771F881FBB1F621773078407BA0720F0F8
:10525000621B730B840BBA0BEE1F88F7E095089561
:105260000E9437296894B1110C94122808950E9465
:10527000F72788F09F5798F0B92F9927B751B0F0CA
:10528000E1F0660F771F881F991F1AF0BA95C9F7CA
:1052900014C0B13091F00E941128B1E008950C942F
:1052A0001128672F782F8827B85F39F0B93FCCF3E2
:1052B000869577956795B395D9F73EF49095809547
:1052C000709561957F4F8F4F9F4F08950E943627AD
:1052D00008F48FEF08950E943627880B990B0895E4
:1052E0004F925F926F927F928F929F92AF92BF92F6
:1052F000CF92DF92EF92FF920F931F93CF93DF93A2
:105300008C01009799F4CB01DF91CF911F910F9100
:10531000FF90EF90DF90CF90BF90AF909F908F90D5
:105320007F906F905F904F900C949A25FC01E60F50
:10533000F71F9C0122503109E217F30708F4AEC0B1
:10534000D901CD91DC911197C617D70720F1C5304F
:10535000D10578F0CE0104978617970750F0C61B49
:10536000D70B2297C193D1936D937C93CF010E9469
:105370003626C801DF91CF911F910F91FF90EF90DA
:10538000DF90CF90BF90AF909F908F907F906F9065
:105390005F904F9008955B01AC1ABD0A4C018C0ED2
:1053A0009D1EA091D503B091D603512C412CF12C18
:1053B000E12C109731F58091D3039091D403881597
:1053C000990509F05CC04616570608F058C0809150
:1053D000010290910202009741F48DB79EB740916F
:1053E000050250910602841B950BE817F90708F097
:1053F00055C0F093D403E093D303F9017183608324
:10540000B8CF8D919C91119712966C90129713962C
:105410007C901397A815B90559F56C0142E0C40EAC
:10542000D11CCA14DB0420F1AC014A195B09DA0172
:105430001296159780F06282738251834083D9015E
:105440006D937C93E114F10471F0D7011396FC93F2
:10545000EE9312978ECF22968C0F9D1FF9019183A8
:105460008083F301EFCFF093D603E093D50381CF90
:105470004816590608F42C017D01D3019ACFCB01BF
:105480000E949A257C01009749F0AE01B8010E9464
:10549000512AC8010E94362687016BCF10E000E038
:1054A00068CFFB01DC0102C001900D9241505040D9
:1054B000D8F70895DC0101C06D9341505040E0F7EA
:1054C0000895FB01DC0101900D920020E1F70895A1
:0454D000F894FFCF7E
:1054D400030000D703800000000000940D05089726
:1054E4000A960A390959098C09BC094B0BAC0B3DC6
:1054F4000BBB0B5A0BAB0CAA097613D40C89138182
:105504000D690D510D3A0D270D140D010DE80CDE3A
:105514000C000000009B0805083208E808630841F5
:105524000855086E616E00696E66006F7666000D40
:105534000A0049444C4500546D722053766300447C
:105544007973706C617920696E666F004D61737553
:10555400726520766F6C7461676500436F6E6E656B
:105564006374206D6F746F7273002C302C302C3088
:02557400000035
:00000001FF
