:100000000C94DE020C940F030C940F030C940F035A
:100010000C940F030C940F030C940F030C940F0318
:100020000C940F030C940F030C940F030C940F0308
:100030000C9466140C940F030C940F030C940F0390
:100040000C940F030C940F030C940F030C940F03E8
:100050000C940F030C940F030C940F030C942A08B8
:100060000C940F030C949E080C9474080C940F03CA
:100070000C940F030C940F030C940F030C940F03B8
:100080000C940F030C940F030C940F030C940F03A8
:100090000C940F030C940F030C940F030C940F0398
:1000A0000C940F030C940F030C940F030C940F0388
:1000B0000C940F030C940F030C940F030C940F0378
:1000C0000C940F030C940F030C940F030C940F0368
:1000D0000C940F030C940F030C940F030C940F0358
:1000E0000C940F030C9454030C948F030C9477031B
:1000F0000C9469030C946D030C94D6020C9459066D
:100100000C9473030C947C040C9499030C947B035F
:100110000C94D3150C9493030C9460030C94630318
:100120000C94D5030C94E9030C9442030C94BE0286
:100130000C9493020C9481030C94F7030C943701F4
:100140000C942F040C94D0020C94C6030C946701F9
:100150000C945C030C9489030C9485030C943D036C
:100160000C9458030C94430600002100240027003F
:100170002A002D00300033000101000004010701B6
:100180000A0100002200250028002B002E0031006B
:10019000340002010000050108010B0105050505F9
:1001A000070508080808020202020A0A08080404EF
:1001B000040401010101010101010303030303031D
:1001C0000303040707070C0C0C0C0C0C0C0C0202AC
:1001D000020206060606060606060B0B0B0B0B0BA9
:1001E0000B0B010210202008081020401020408036
:1001F00002010201080402010102040810204080EB
:100200008040201008040201800402018040201078
:1002100008040201080402010102040810204080C1
:10022000010204081020408000000A0B02090C0D96
:100230000E08070304010000000000000000000099
:1002400000000000000000000000000000000000AE
:10025000000000001211100000000000000000006B
:10026000000000000000000000000000000080917D
:10027000FC0281110BC080912503823010F00E9496
:100280007B0B0E94ED060E949C04F1CF0FB6F89400
:100290000F92E0910203F0910303C681D781CE0152
:1002A00002960E94DF0880911B03815080931B03FC
:1002B0008091FC0281508093FC020F900FBE8F89C9
:1002C000988D0E940F0ECE010E940F0ED0CFCF93BB
:1002D000DF9300D01F921F92CDB7DEB785E0B82E16
:1002E000CE0101967C01E0916203F09163031081DD
:1002F000D12CC12C112329F00580F681E02DC0807E
:10030000D1800E94750B0E946B0B4C0180915803A9
:10031000909159038816990608F08BC00E94BE0977
:1003200090925903809258030E94430CD701EB2D01
:100330001D92EA95E9F700917803109179030FB6C1
:10034000F8940F92D8015A96DC905A97DD2009F460
:1003500031C15C964C915C974423F9F050E01696BD
:100360008D919C911797840F951F17969C938E9350
:10037000169714962D913C9115978217930738F094
:100380008D919C91119717969C938E931697F801D7
:1003900066817781C7010E94B017DA94D8015A9616
:1003A000DC925A9718968C91882339F0C8010896E8
:1003B0000E94840A81110E947B0B0F900FBEA980BE
:1003C000A7FCB9CF0C811D81D8011A968D919C9103
:1003D000892B21F0C80102960E94DF080E946B0B56
:1003E0006C018091580390915903C816D90610F4F6
:1003F0000E94BE09D0925903C0925803EFEFEA0D54
:10040000E93008F098CF0E2E000CFF0BD801529661
:100410009C9152978827E05FFD4F8F4F0C948E1769
:1004200093029302D602BE02D00293029302D60236
:10043000BE029092590380925803112351F08C14FC
:100440009D0470F00E94430CB401C6010E949409FF
:100450006DCFE0916003F091610361E080818111D3
:1004600060E000917803109179030FB6F8940F9231
:10047000D8015D968C915D978F3F11F45D961C922B
:10048000F801868D8F3F09F4168E0F900FBED801AC
:100490005A968C915A9781113CC05296ED91FC91DD
:1004A000A0915A03B0915B031F96FC93EE931E97A5
:1004B000A0915A03B0915B038481958151969C93DE
:1004C0008E93509780915A0390915B03A481B581DC
:1004D0000C9613969C938E93129780915A03909149
:1004E0005B030C9695838483E0915A03F0915B0340
:1004F000C8014196958B848BF80181898F5F818B30
:10050000C60188199909662311F08FEF9FEF0E94A9
:10051000DC09C8010E94290B0E94430C811106CFFF
:100520000E947B0B03CF9160F801928B8A809B80A5
:1005300064857585680D791D9401A601C8010E9426
:100540004609882309F4F7CED80152968C91529728
:1005500082FF10C01C966D917C91680D791DA601DB
:10056000C8010E947009D8015096ED91FC91C80114
:100570001995E1CE8E7FF801828BF5CF916052966E
:100580009C9352976A817B811D967C936E931C97F6
:100590006C0D7D1D9601A601C8010E944609CBCEB7
:1005A00091FD04C0C8010E940F0EC5CE9E7FF801C8
:1005B000928BC1CE0F900FBE96CED31511241FBEC5
:1005C000CFEFD1E2DEBFCDBF00E00CBF12E0A0E074
:1005D000B2E0E4E8FFE200E00BBF02C007900D923A
:1005E000AA3FB107D9F724E0AAEFB2E001C01D92FB
:1005F000A136B207E1F712E0CEEDD2E000E006C08E
:1006000021970109802FFE010E948E17CD3DD10751
:1006100080E00807A9F70E946B140C94C0170C9493
:100620000000382FE5E3F2E08491EFEEF1E0249151
:10063000E9EAF1E09491992309F435C0882311F196
:1006400081508231F8F4E82FF0E08827E55DFC4F17
:100650008F4F0C948E175C0360033D0354035803C3
:100660004203630369036D03730377037B03810311
:100670008503420389038F039303809180008F7762
:1006800080938000E92FF0E0EE0FFF1FEE57FE4F42
:10069000A591B4918FB7F894EC91311148C0209591
:1006A0002E232C938FBF0895809180008F7DE8CFFB
:1006B00080918000877FE4CF84B58F7784BDE2CFBF
:1006C00084B58F7DFBCF8091B0008F778093B00091
:1006D000D9CF8091B0008F7DF9CF809190008F7736
:1006E00080939000CFCF809190008F7DF9CF809143
:1006F0009000877FF5CF8091A0008F778093A00036
:10070000C1CF8091A0008F7DF9CF8091A000877F1D
:10071000F5CF809120018F7780932001B3CF809116
:1007200020018F7DF9CF80912001877FF5CF2E2B7F
:10073000B8CFAF92BF92CF92DF92EF92FF920F931A
:100740001F93CF93DF936C017B018B01040F151F67
:10075000EB015E01AE18BF08C017D10759F06991CF
:10076000D601ED91FC910190F081E02DC601199523
:10077000892B79F7C501DF91CF911F910F91FF90E0
:10078000EF90DF90CF90BF90AF900895FC01538D14
:10079000448D252F30E0842F90E0821B930B54175B
:1007A00010F0CF96089501970895FC01918D828DE8
:1007B000981761F0A28DAE0FBF2FB11D5D968C9181
:1007C000928D9F5F9F73928F90E008958FEF9FEFC0
:1007D0000895FC01918D828D981731F0828DE80F7C
:1007E000F11D858D90E008958FEF9FEF0895FC0136
:1007F000918D228D892F90E0805C9F4F821B910903
:100800008F739927089588E893E00E94F70321E009
:10081000892B09F420E0822F0895FC01A48DA80FF4
:10082000B92FB11DA35ABF4F2C91848D90E0019632
:100830008F739927848FA689B7892C93A089B18952
:100840008C91837080648C93938D848D981306C0F3
:100850000288F389E02D80818F7D80830895EF9257
:10086000FF920F931F93CF93DF93EC0181E0888F6A
:100870009B8D8C8D98131AC0E889F989808185FF3A
:1008800015C09FB7F894EE89FF896083E889F989DC
:1008900080818370806480839FBF81E090E0DF91DE
:1008A000CF911F910F91FF90EF900895F62E0B8D31
:1008B00010E00F5F1F4F0F731127E02E8C8D8E11EC
:1008C0000CC00FB607FCFACFE889F989808185FF53
:1008D000F5CFCE010E940D04F1CFEB8DEC0FFD2F73
:1008E000F11DE35AFF4FF0829FB7F8940B8FEA890E
:1008F000FB8980818062CFCFCF93DF93EC01888D1D
:100900008823B9F0AA89BB89E889F9898C9185FD8A
:1009100003C0808186FD0DC00FB607FCF7CF8C9118
:1009200085FFF2CF808185FFEDCFCE010E940D04BF
:10093000E9CFDF91CF91089580E090E0892B29F0F5
:100940000E94030481110E94000080E090E0892B46
:1009500049F080E090E0892B29F00E94000081118D
:100960000E94000080E090E0892B49F080E090E058
:10097000892B29F00E94000081110E94000080E074
:1009800090E0892B49F080E090E0892B29F00E94CB
:10099000000081110C9400000895682F88E893E00E
:1009A0000C942F04CF92DF92EF92FF92CF936B01C2
:1009B0007C0149300CF048E0CFEFC40FCF3F31F459
:1009C000CF91FF90EF90DF90CF90089524E0C29FE9
:1009D000C0011124A701960104C05695479537958B
:1009E00027958A95D2F7C9018F7099278A3091058A
:1009F00034F4805D90E00E94CD04C150DFCF895C6B
:100A0000F9CFCF93DF93EC018991811103C0DF917E
:100A1000CF91089590EE980F9F3530F4082E000C7A
:100A2000990B0E94CD04F0CF8D3039F48CE590E025
:100A30000E94CD0482E790E0F4CF8A3039F48CE54F
:100A400090E00E94CD048EE690E0EBCF8CE590E044
:100A50000E94CD0488E790E00E94CD04FE0131970A
:100A60006081062E000C770B880B990B42E00E94E8
:100A7000D204CACF4F925F926F927F928F929F92D1
:100A8000AF92BF92CF92DF92EF92FF922B013C0187
:100A9000C12CD12C7601C394C301B201A7019601E8
:100AA0000E946C172A3031054105510580F58AE016
:100AB000882E912CA12CB12CC301B201A701960163
:100AC0000E946C17CA01B901A50194010E946C171C
:100AD000605D862F90E00E94CD04C701B601A5019C
:100AE00094010E946C1769017A01C114D104E104D8
:100AF000F10411F7FF90EF90DF90CF90BF90AF908F
:100B00009F908F907F906F905F904F900895AAE094
:100B1000B0E0A70196010E9496176B017C01BCCF43
:100B2000CF92DF92EF92FF926B017C01F7FE0CC037
:100B30008DE290E00E94CD04F094E094D094C094B3
:100B4000C11CD11CE11CF11CC701B601FF90EF9044
:100B5000DF90CF900C943A05CF92DF92EF92FF9204
:100B60006A017B01009711F00E9401058AE390E081
:100B70000E94CD04C701B6010E9490058AE390E06F
:100B80000E94CD048091270490912804009711F0D1
:100B90000E9401058AE390E0FF90EF90DF90CF90F4
:100BA0000C94CD044F925F926F927F928F929F929E
:100BB000AF92BF92EF92FF920F931F932B013C01D4
:100BC00049015A01B801A70180913D0490913E046A
:100BD000A0913F04B0914004892B8A2B8B2B61F4A8
:100BE0008091410490914204A0914304B091440447
:100BF000892B8A2B8B2BA9F161E070E085E494E0CE
:100C00000E94471780912504909126040E94AC050C
:100C100086E592E00E9401058AE390E00E94CD04FF
:100C200080E792E00E940105C501B4010E946914A9
:100C30008BE592E00E940105C301B2010E94691494
:100C400081E090E0A0E0B0E080933D0490933E040A
:100C5000A0933F04B093400488E893E00E947C0492
:100C6000CBCF481459046A047B0464F61F910F919A
:100C7000FF90EF90BF90AF909F908F907F906F907C
:100C80005F904F900895EF92FF920F931F9317E19B
:100C9000E12EF12C00E010E020E030E0A90160E05E
:100CA00070E0CB010E94D2051F910F91FF90EF9051
:100CB0000895EF92FF920F931F931EE1E12EF12C06
:100CC00000E010E020E335E740E050E060E070E055
:100CD000CB010E94D2051F910F91FF90EF900895D4
:100CE000CF93DF931F921F92CDB7DEB79A8389838C
:100CF000E5E2F4E073836283052E000C660B770B4C
:100D0000408751876287738784859585A685B785D7
:100D10000196A11DB11D84879587A687B787158287
:100D200014821782168285E494E00E942517892B8D
:100D300019F4E981FA81199585E494E00E94251758
:100D4000E5E2F4E0848D958DA68DB78D892B8A2BF5
:100D50008B2B11F184899589A689B7890196A11DEC
:100D6000B11D848B958BA68BB78BE5E2F4E0108EDA
:100D7000118E128E138E148E158E168E178E8AE09B
:100D800090E00E94CD0488E893E00E947C040F90DC
:100D90000F90DF91CF910895808D918DA28DB38DAD
:100DA000892B8A2B8B2B69F440855185628573854D
:100DB000808191810E94AC058FE392E00E94010541
:100DC000D4CF80899189A289B3890196A11DB11DD3
:100DD000808B918BA28BB38BC8CF81E00E941103D3
:100DE00068EE73E080E090E00E94700F80E00E9467
:100DF000110368EE73E080E090E00C94700FCF93E5
:100E0000DF9360ED77E080E090E00E94700FE0E219
:100E1000F2E02491EAEDF1E084918823C1F090E0C2
:100E2000880F991FFC01E859FE4FC591D491FC0130
:100E3000EE57FE4FA591B4919FB7F8948881E22FA9
:100E4000E0958E2388838C91E823EC939FBF8BE7FA
:100E500092E0909326048093250410922804109227
:100E6000270410922D0410922E0410922F04109239
:100E70003004109231041092320410923304109214
:100E800034041092350410923604109237041092F4
:100E900038041092390410923A0410923B041092D4
:100EA0003C0410923D0410923E0410923F041092B4
:100EB0004004109241041092420410924304109294
:100EC000440410922A041092290410922C041092C7
:100ED0002B04E0919803F091990382E08083E091E4
:100EE0009403F09195031082E0919603F09197039B
:100EF00080E180831092A003E0919C03F0919D0318
:100F000086E08083E0919A03F0919B038081806169
:100F10008083E0919A03F0919B03808188608083B5
:100F2000E0919A03F0919B03808180688083E09137
:100F30009A03F0919B0380818F7D808345E250E08E
:100F400069E972E083E496E00E94700646E250E0B0
:100F50006FEB72E089E596E00E9470068AE090E00F
:100F60000E94CD0487E292E00E9401058AE090E0B1
:100F70000E94CD0460913104709132048091330459
:100F8000909134040E9490058FE192E00E94010547
:100F90006091350470913604809137049091380443
:100FA0000E94900584E192E00E940105609139045D
:100FB00070913A0480913B0490913C040E9490050A
:100FC0008AE092E00E9401058AE090E00E94CD0450
:100FD0008091350490913604A0913704B091380483
:100FE000892B8A2B8B2B99F587E092E00E940105D3
:100FF0008AE090E00E94CD0488E893E00E947C049F
:1010000088E893E00E947C04E0919A03F0919B03AE
:1010100080818F7E8083E0919A03F0919B03808191
:10102000877F8083E0919A03F0919B0380818F7783
:101030008083E0919A03F0919B0380818F7D808370
:101040008091A2038093A103DF91CF91089586E55B
:1010500092E0CCCF1F920F920FB60F9211242F93D4
:101060003F938F939F93AF93BF938091840390910D
:101070008503A0918603B09187033091830323E019
:10108000230F2D3758F50196A11DB11D2093830321
:101090008093840390938503A0938603B093870382
:1010A00080917F0390918003A0918103B09182038E
:1010B0000196A11DB11D80937F0390938003A0939F
:1010C0008103B0938203BF91AF919F918F913F9124
:1010D0002F910F900FBE0F901F90189526E8230FA9
:1010E0000296A11DB11DD2CF1F920F920FB60F9283
:1010F00011240BB60F922F933F934F935F936F93EF
:101100007F938F939F93AF93BF93EF93FF9388E861
:1011100093E00E940D04FF91EF91BF91AF919F91D9
:101120008F917F916F915F914F913F912F910F9090
:101130000BBE0F900FBE0F901F9018951F920F922D
:101140000FB60F9211240BB60F922F938F939F938C
:10115000EF93FF93E0919803F09199038081E091E0
:101160009E03F0919F0382FD1DC090818091A10399
:101170008F5F8F732091A203821741F0E091A1034A
:10118000F0E0E857FC4F958F8093A103FF91EF911A
:101190009F918F912F910F900BBE0F900FBE0F90CC
:1011A0001F9018958081F2CF0FB6F8940F92FC0132
:1011B000928D0F900FBE81E0911180E00895CF9342
:1011C000DF93FC01A085B1858281938124813581E3
:1011D000EC013D832C83C481D5819B838A83119646
:1011E0008D919C9112978E179F0721F41296DC9394
:1011F000CE931197118610868C9181508C93DF913C
:10120000CF9108950F931F93CF93DF938C01FB0130
:1012100080819181D80113968F3F9807F1F4E801FE
:10122000AF81B88512968D919C9113979383828399
:10123000EC01FD83EC83B583A4831396FC93EE93BA
:10124000129711870087F80180818F5F8083DF917B
:10125000CF911F910F910895D90112962D913C9134
:101260001397E9014881598184179507A8F7DACFC8
:10127000FC010396928381832FEF3FEF3483238316
:10128000968385839087878310820895FC017383FA
:101290006283918780874617570790F0421B530B54
:1012A0008485958548175907C8F4BF016E5F7F4F45
:1012B00080916003909161030E94020980E008958B
:1012C0004217530718F46217730740F4BF016E5FAB
:1012D0007F4F8091620390916303EECF81E0089588
:1012E000EF92FF920F931F93CF93DF93EC018B014B
:1012F0007A016C857D85600F711F9801A701CE0171
:101300000E944609811107C0DF91CF911F910F9173
:10131000FF90EF9008958C859D85080F191FE8892F
:10132000F989CE011995E5CFEF92FF920F931F93A4
:10133000CF93DF938C017B01E0916203F091630313
:101340000580F681E02DC681D781CE0102960E94EC
:10135000DF088A8982FF0FC0A701B801CE010E9471
:101360007009E889F989CE01DF91CF911F910F9122
:10137000FF90EF9019948E7F8A8BF3CFE0916203F8
:10138000F0916303808181110DC080916003909181
:1013900061039093630380936203F0936103E0938E
:1013A000600308950580F681E02D6FEF7FEF808167
:1013B00091810E949409E2CFBF92CF92DF92EF9287
:1013C000FF920F931F93CF93DF93EC01B62EC09043
:1013D0007A03D0907B030091560310915703E0905D
:1013E0005403F090550380915A0390915B03029649
:1013F0000E94DF08CF3FDC0709F042C0BB2009F4A0
:101400003FC0E0914C03F0914D03A0915A03B0917D
:101410005B031596FC93EE931497A0915A03B09139
:101420005B038481958117969C938E931697809188
:101430005A0390915B03A481B581029613969C9305
:101440008E93129780915A0390915B030296958335
:101450008483E0915A03F0915B038BE493E09387DC
:10146000828780914B038F5F80934B03DF91CF91F5
:101470001F910F91FF90EF90DF90CF90BF90089554
:10148000CC0DDD1DE0915A03F0915B03D383C28341
:1014900060915A0370915B036E5F7F4FCC15DD0541
:1014A00060F4C701DF91CF911F910F91FF90EF90F2
:1014B000DF90CF90BF900C940209C8010E940209EE
:1014C00080917D0390917E03C817D90778F6D09359
:1014D0007E03C0937D03CACFE0915603F09157037A
:1014E0008081811107C08FEF9FEF90937E038093DF
:1014F0007D030895E0915603F09157030580F6812E
:10150000E02D80819181F1CFCF93DF93DC0115969F
:10151000ED91FC910680F781E02DA489B58986853F
:10152000978520893189EC013D832C83C089D1893D
:101530009B838A83CF010C9611962D913C91129733
:101540002817390721F41296DC93CE931197158A48
:10155000148A2C9121502C9320914A03211157C0B9
:10156000A285B3858481958126813781EC013D83F5
:101570002C83C681D7819B838A83CF0102961196E3
:101580002D913C9112972817390721F41296DC937C
:10159000CE931197138612862C9121502C93C689D5
:1015A000209149032C1710F4C093490329E02C9F84
:1015B000E0011124CB5DDC4F0980DA81C02DD58399
:1015C000C4834C815D8157834683AC81BD81139672
:1015D0009C938E9312979D838C83A689A29FD001A2
:1015E0001124AB5DBC4FB387A2878C918F5F8C9326
:1015F000A0915A03B0915B03968956968C918917F6
:1016000030F581E080935D03DF91CF910895A09143
:101610001D03B0911E03B787A68714962D913C91A8
:101620001597318B208B1496CD91DC9115979B8368
:101630008A8315969C938E9314978CE193E0958BF7
:10164000848B80911C038F5F80931C03D1CF80E03B
:10165000DBCFEF92FF920F931F93CF93DF93EC01B9
:101660000FB6F8940F921E8D7C0181E1E80EF11CFB
:1016700001E01116D4F08FEF8E8F0F900FBE0FB6D2
:10168000F8940F921D8D7E0188E0E80EF11C01E0B8
:101690001116B4F08FEF8D8F0F900FBEDF91CF91A9
:1016A0001F910F91FF90EF9008958989882319F376
:1016B000C7010E94840A811100935D031150D9CFA4
:1016C0008885882339F3C7010E94840A8111009319
:1016D0005D031150DDCF0FB6F8940F9280917A031D
:1016E00090917B030F900FBE089580914A038F5F06
:1016F00080934A0308950F920FB6F8940F920BB699
:101700000F920CB60F921F9211242F923F924F927C
:101710005F926F927F928F929F92AF92BF92CF9281
:10172000DF92EF92FF920F931F932F933F934F936C
:101730005F936F937F938F939F93AF93BF93CF9359
:10174000DF93EF93FF93A0915A03B0915B030DB623
:101750000D920EB60D9280914A03882321F081E00C
:1017600080935D0361C010925D03A0915A03B09114
:101770005B03E0915A03F0915B032D913C918789C3
:10178000908D82179307A8F080915A0390915B0384
:1017900080915A0390915B03279A2F9A2FEF87EA43
:1017A00091E6215080409040E1F700C000001F9A70
:1017B000F5CF2091490389E001C02150422F50E02C
:1017C000849FF001859FF00D1124EB5DFC4F90810B
:1017D000992399F3A181B28112966D917C917283C4
:1017E0006183289FC0011124885D9C4F6817790789
:1017F00021F4858196819283818389E0849FF00121
:10180000859FF00D1124EB5DFC4F0180F281E02DEE
:101810008681978190935B0380935A0320934903B9
:1018200080915A0390915B03A0915A03B0915B039E
:10183000CD91CDBFDD91DEBFFF91EF91DF91CF91D3
:10184000BF91AF919F918F917F916F915F914F91D8
:101850003F912F911F910F91FF90EF90DF90CF90CC
:10186000BF90AF909F908F907F906F905F904F90C0
:101870003F902F901F900F900CBE0F900BBE0F90BB
:101880000FBE0F9008958F929F92BF92CF92DF92DA
:10189000EF92FF920F931F93CF93DF930FB6F894BD
:1018A0000F9280914A03815080934A0380914A03AA
:1018B000882379F080E00F900FBEDF91CF911F91C8
:1018C0000F91FF90EF90DF90CF90BF909F908F90FF
:1018D000089580911B03882369F3E0902103F09021
:1018E0002203F0E0E0E039E041E080911C03811147
:1018F0005EC0EF2B11F00E946C0AE0901903F0908B
:101900001A03E114F10409F47DC189E0D82ECC2436
:10191000C3940FEF1FEF80914A03811161C1C09101
:101920007A03D0917B034E018FEF881A980A909228
:101930007B0380927A0381149104B9F48091560359
:1019400090915703209154033091550330935703DE
:1019500020935603909355038093540380915C0326
:101960008F5F80935C030E946C0A80917D0390914D
:101970007E03B12C8816990608F026C1E0915A031F
:10198000F0915B03E689DE9EF0011124EB5DFC4FD4
:101990008081823010F0BB24B39480915D0381116B
:1019A00003C0BB2009F425C1C0925D0322C1D70149
:1019B0001696ED91FC91A489B58966857785808915
:1019C0009189EB019D838C8380899189EC017B83D4
:1019D0006A83BF01645F7F4F11960D911C9112972E
:1019E0000617170721F412969C938E931197158A68
:1019F000148A8C9181508C93A285B38584819581C2
:101A000066817781EC017D836C8366817781EB0150
:101A10009B838A83CF01029611960D911C91129798
:101A20000817190721F412967C936E931197138669
:101A300012862C9121502C93A689209149032A17B4
:101A400010F4A09349033A9FD0011124AB5DBC4F21
:101A500011960D90BC91A02DB583A48314966D9121
:101A60007C9115977783668314966D917C91159779
:101A7000EB019B838A8315969C938E93149796898A
:101A8000939FD0011124AB5DBC4FB387A2878C918B
:101A90008F5F8C93A0915A03B0915B0356968C9103
:101AA000891708F022CF40935D031FCFE0915603C2
:101AB000F09157030580F681E02D0680F781E02D37
:101AC000828193818816990628F490937E038093EF
:101AD0007D0354CFC285D38584819581268137814A
:101AE000DC0115963C932E93149726813781D901FA
:101AF00013969C938E931297CF01029649815A8137
:101B00004817590711F43A832983138612862881CE
:101B100021502883A489B5891097F9F02685378547
:101B200040895189E9015D834C8340895189EA01EB
:101B30003B832A8311966D917C9112979F01245FBC
:101B40003F4F6217730721F412965C934E931197DF
:101B5000158A148A2C9121502C93A689209149032F
:101B60002A1710F4A0934903DA9ED0011124AB5D2B
:101B7000BC4F11960D90BC91A02DB583A4831496F3
:101B80002D913C9115973783268314962D913C9186
:101B90001597E9019B838A8315969C938E931497DE
:101BA00096899D9DD0011124AB5DBC4FB387A28760
:101BB0008C918F5F8C93E0915A03F0915B0386893F
:101BC000891710F4BB24B394E0915603F0915703A6
:101BD000808181116BCF10937E0300937D03CECE65
:101BE0008091190390911A03019690931A038093A0
:101BF0001903D1E0ED1AF10809F08DCE10921A0305
:101C00001092190380915D03882309F453CE8091CB
:101C10005A0390915B030E947B0B81E04CCECF93E3
:101C2000DF93009751F0EC010E94750BCE010E94EA
:101C30009C16DF91CF910C94430CDF91CF910895C6
:101C4000CF93DF93EC010E94750BCE010E9400162A
:101C5000EC010E94430C209769F4279A2F9A2FEFEA
:101C600080E792E0215080409040E1F700C0000002
:101C70001F9AF5CFCE01DF91CF9108957F928F9279
:101C80009F92AF92BF92CF92DF92EF92FF920F930B
:101C90001F93CF93DF93982EA92E762E872E7A014D
:101CA000B22ECA010E94200E6C01D0E0C0E0892B48
:101CB00009F463C080E390E00E94200EEC01892BC0
:101CC00009F458C080E3DE011D928A95E9F7D88EA9
:101CD000CF8AA70165EA70E0C6010E94B917B1E09A
:101CE000EB1AF108EF89F88DEE0DFF1D672D782DA9
:101CF000CE0149969B01205F3F4FDB014D91BD0115
:101D0000DC014D93CD01AB0141505109DA014C91F9
:101D1000442319F02617370781F718A6BE8AB9A6FB
:101D20001B861A861D8A1C8AD987C88784E090E0A2
:101D30008B1991099D878C87DB8BCA8B9082DF0181
:101D40001197AC9211971C9211971C92119780E8F1
:101D50008C9311971C9211971C9211971C92579774
:101D60001C9211971C92B697F983E883F801D183EE
:101D7000C08303C0C6010E940F0ECE01DF91CF9138
:101D80001F910F91FF90EF90DF90CF90BF90AF9099
:101D90009F908F907F900895CF93DF93EC010FB6C3
:101DA000F8940F9280911B038F5F80931B038091A7
:101DB0005A0390915B03892B09F080C0D0935B0399
:101DC000C0935A0380911B03813081F585E293E033
:101DD0000E9438098EE293E00E94380987E393E07D
:101DE0000E94380980E493E00E9438098FE093E074
:101DF0000E94380986E093E00E9438098CE193E064
:101E00000E9438098DEF92E00E9438098BE493E03C
:101E10000E9438098FE093E0909357038093560314
:101E200086E093E0909355038093540380911803C8
:101E30008F5F80931803AE89809149038A1710F44D
:101E4000A093490329E02A9FD0011124AB5DBC4F28
:101E500011960D90BC91A02DBD83AC8314968D91ED
:101E60009C9115979F838E831496ED91FC91159705
:101E7000CE0102969383828315969C938E9314973A
:101E8000EE89E29FF0011124EB5DFC4FFB87EA87AE
:101E900080818F5F80830F900FBE80917C038823A9
:101EA00051F0E0915A03F0915B0396898E8998175F
:101EB00010F40E947B0BDF91CF91089580917C03F9
:101EC0008111B4CFE0915A03F0915B0396898E891A
:101ED000891708F4ABCFD0935B03C0935A03A6CF06
:101EE0007F928F929F92AF92BF92CF92DF92EF92AA
:101EF000FF920F931F93CF93DF936B017C0180912F
:101F00004A038F5F80934A0300917A0310917B0309
:101F1000A0905603B0905703C0915403D09155033D
:101F2000E0915A03F0915B0382859385448155814A
:101F300026813781DA0115963C932E9314972681DA
:101F40003781D90113965C934E931297AF014E5F80
:101F50005F4FDC0111966D917C91129764177507A4
:101F600021F412963C932E93119713861286FC014E
:101F7000208121502083D701C60124E0B695A79582
:101F8000979587952A95D1F7800F911FE0915A0375
:101F9000F0915B03938382838017910708F0ADC0B3
:101FA00000915A0310915B03C8010296D801129662
:101FB0002D913C91FE0133962F3F320709F094C0DA
:101FC000EF81F88522813381D80115963C932E93B9
:101FD0001497D90115969C938E931497D801179650
:101FE000FC93EE931697938382831B96DC93CE9398
:101FF0001A9788818F5F88830FB6F8940F9280912B
:102000004A03815080934A0380914A03882309F44C
:10201000B0C080E00F900FBE811102C00E947B0B08
:10202000DFE0CD22DD24EE24FF243FB7F894809139
:102030007F0390918003A0918103B091820326B524
:10204000A89B05C02F3F19F00196A11DB11D3FBFF0
:10205000BA2FA92F982F8827820F911DA11DB11D7E
:10206000C2E0880F991FAA1FBB1FCA95D1F7C114E0
:10207000D104E104F10409F448C23FB7F894409157
:102080007F0350918003609181037091820326B594
:10209000A89B06C02F3F21F04F5F5F4F6F4F7F4FD0
:1020A0003FBF762F652F542F4427420F511D611DCE
:1020B000711DE2E0440F551F661F771FEA95D1F7A7
:1020C000481B590B6A0B7B0B483E53406105710559
:1020D00070F2E1E0CE1AD108E108F10888519C4F76
:1020E000AF4FBF4FC4CFFA0142815381DA016D91E6
:1020F0007C9126173707B8F765CFC0915A03D09166
:102100005B038E010E5F1F4F2A813B81F5013396E1
:102110002F3F320729F5D5011796ED91FC912281C9
:1021200033813D832C83D90115961C930E9314970C
:10213000FF83EE8313830283BB86AA86E501288191
:102140002F5F288320917D0330917E0382179307B0
:1021500008F052CF90937E0380937D034DCFFA0118
:1021600042815381DA016D917C9126173707B8F7C8
:10217000D6CF80911B03882309F44BCFA090210375
:10218000B0902203F0E0E0E039E041E080911C03F0
:1021900081116EC0EF2B69F0E0915603F091570367
:1021A00080818111E4C08FEF9FEF90937E03809335
:1021B0007D032091190330911A032115310509F48B
:1021C00097C1D9E0AD2E772473940FEF1FEF809164
:1021D0004A0381117CC180917A0390917B0301961F
:1021E00090937B0380937A03009701F54091560307
:1021F00050915703609154037091550370935703A6
:1022000060935603509355034093540340915C03ED
:102210004F5F40935C03E0915603F0915703408178
:102220004111AFC010937E0300937D0340917D0365
:1022300050917E03B12C8417950708F03CC1E091C2
:102240005A03F0915B03E689AE9EF0011124EB5D29
:10225000FC4F8081823010F0BB24B39480915D03E9
:10226000811103C0BB2009F43BC170925D0338C1EA
:10227000D5011696ED91FC91A489B589668577857F
:1022800080899189EB019D838C8380899189EC0100
:102290007B836A83BF01645F7F4F11960D911C9110
:1022A00012970617170721F412969C938E93119795
:1022B000158A148A8C9181508C93A285B385848170
:1022C000958166817781EC017D836C83668177815E
:1022D000EB019B838A83CF01029611960D911C918D
:1022E00012970817190721F412967C936E93119791
:1022F000138612862C9121502C93A6892091490394
:102300002A1710F4A09349033A9FD0011124AB5D22
:10231000BC4F11960D90BC91A02DB583A48314964B
:102320006D917C9115977783668314966D917C915E
:102330001597EB019B838A8315969C938E93149734
:102340009689939FD0011124AB5DBC4FB387A287C0
:102350008C918F5F8C93A0915A03B0915B0356963A
:102360008C91891708F012CF40935D030FCFE09155
:102370005603F09157030580F681E02D808191810D
:1023800014CFE0915603F09157030580F681E02DBC
:102390004081518150937E0340937D0347CFE0916C
:1023A0005603F09157030580F681E02D0680F781F2
:1023B000E02D428153818417950728F450937E03C2
:1023C00040937D033CCFA285B385448155816681CE
:1023D0007781EA017D836C83C681D7815B834A83E1
:1023E000AF014E5F5F4F11966D917C91129764170C
:1023F000750721F41296DC93CE93119713861286FB
:102400006C9161506C93A489B5891097F1F0668541
:10241000778580889188EB019D828C82C089D189E3
:102420007B836A8311968D909C901297BF01645FA5
:102430007F4F8616970621F41296DC93CE93119760
:10244000158A148A6C9161506C93A6896091490336
:102450006A1710F4A0934903AA9ED0011124AB5D22
:10246000BC4F11960D90BC91A02DB583A4831496FA
:102470006D917C911597778366831496CD91DC914D
:1024800015975B834A8315965C934E9314975689F0
:102490005A9DD0011124AB5DBC4FB387A2874C91EC
:1024A0004F5F4C93E0915A03F0915B0346894517C7
:1024B00010F4BB24B394E0915603F091570340818C
:1024C00041116DCF10937E0300937D03B8CE8091B0
:1024D000190390911A03019690931A03809319039C
:1024E0002150310909F073CE10921A03109219038A
:1024F00080915D03882309F48CCD80915A039091DB
:102500005B030E947B0B81E085CDDF91CF911F9112
:102510000F91FF90EF90DF90CF90BF90AF909F9082
:102520008F907F9008950F920FB6F8940F920BB68C
:102530000F920CB60F921F9211242F923F924F923E
:102540005F926F927F928F929F92AF92BF92CF9243
:10255000DF92EF92FF920F931F932F933F934F932E
:102560005F936F937F938F939F93AF93BF93CF931B
:10257000DF93EF93FF93A0915A03B0915B030DB6E5
:102580000D920EB60D9213BE80914A038111F9C0CF
:1025900080917A0390917B03019690937B038093C3
:1025A0007A03009781F520915603309157034091AB
:1025B000540350915503509357034093560330935F
:1025C00055032093540320915C032F5F20935C03F9
:1025D000E0915603F09157032081211107C02FEF9E
:1025E0003FEF30937E0320937D030DC0E0915603AF
:1025F000F09157030580F681E02D208131813093E1
:102600007E0320937D0320917D0330917E0382170A
:10261000930710F420E0A1C020E039E0D32EE09130
:102620005603F09157033081311107C08FEF9FEFB0
:1026300090937E0380937D0390C0E0915603F091C8
:1026400057030580F681E02D0680F781E02D428159
:1026500053818417950728F450937E0340937D039C
:102660007CC0A285B3854481558166817781EA016A
:102670007D836C8366817781EB015B834A83AF0145
:102680004E5F5F4F11960D911C911297041715071D
:1026900021F412967C936E931197138612863C91C7
:1026A00031503C93A489B5891097F9F066857785F8
:1026B00000891189EB011D830C8300891189E801D0
:1026C0007B836A831196ED90FC901297BF01645F43
:1026D0007F4FE616F70621F412961C930E9311977E
:1026E000158A148A3C9131503C93A6893091490354
:1026F0003A1710F4A0934903DA9ED0011124AB5D80
:10270000BC4F11960D90BC91A02DB583A483149657
:102710006D917C9115977783668314966D917C916A
:102720001597EB015B834A8315965C934E93149740
:1027300046894D9DD0011124AB5DBC4FB387A28764
:102740003C913F5F3C93E0915A03F0915B033689E3
:10275000341708F064CF21E062CFE0915A03F09182
:102760005B03E689D9E0ED9FF0011124EB5DFC4F9E
:102770008081823008F021E080915D0381110EC0DC
:102780000AC08091190390911A03019690931A033D
:10279000809319036CC0222309F469C080914A0315
:1027A000882321F081E080935D0361C010925D0376
:1027B000A0915A03B0915B03E0915A03F0915B033F
:1027C0002D913C918789908D82179307A8F0809175
:1027D0005A0390915B0380915A0390915B03279A6F
:1027E0002F9A2FEF87EA91E6215080409040E1F741
:1027F00000C000001F9AF5CF2091490389E001C075
:102800002150422F50E0849FF001859FF00D11244C
:10281000EB5DFC4F9081992399F3A181B2811296CF
:102820006D917C9172836183289FC0011124885D22
:102830009C4F6817790721F4858196819283818363
:1028400089E0849FF001859FF00D1124EB5DFC4F22
:102850000180F281E02D8681978190935B038093C4
:102860005A032093490380915A0390915B03A091EE
:102870005A03B0915B03CD91CDBFDD91DEBFFF91D7
:10288000EF91DF91CF91BF91AF919F918F917F9108
:102890006F915F914F913F912F911F910F91FF90F9
:1028A000EF90DF90CF90BF90AF909F908F907F90F0
:1028B0006F905F904F903F902F901F900F900CBEA5
:1028C0000F900BBE0F900FBE0F9008950E949312B1
:1028D00018950C949005CF93DF93CDB7DEB7609732
:1028E0000FB6F894DEBF0FBECDBF789484B582607A
:1028F00084BD84B5816084BD85B5826085BD85B5A4
:10290000816085BD80916E00816080936E00109221
:10291000810080918100826080938100809181009C
:10292000816080938100809180008160809380002D
:102930008091B10084608093B1008091B00081608B
:102940008093B0008091910082608093910080918B
:1029500091008160809391008091900081608093CC
:1029600090008091A10082608093A1008091A100DD
:1029700081608093A1008091A00081608093A0007D
:1029800080912101826080932101809121018160E9
:1029900080932101809120018160809320018091AA
:1029A0007A00846080937A0080917A0082608093BC
:1029B0007A0080917A00816080937A0080917A0019
:1029C000806880937A001092C100209105023091B6
:1029D00006028FEF91E2821B930B90930202809389
:1029E00001020E94FF06ACEEB2E0FE0131962CEF30
:1029F00032E0BF018D918193882319F02A173B079C
:102A0000C9F70EE513E020E040EC50E087E391E0E9
:102A10000E943E0E009709F4BDC00E94CC0E0FB676
:102A2000F8940F928091780390917903892B09F0A3
:102A300050C08DE693E00E94380984E693E00E943E
:102A400038098DE693E0909363038093620384E6F4
:102A500093E0909361038093600381E590E00E948E
:102A6000200E8C01009789F14F96F80191838083A5
:102A70008AE0838F85E0848F0FB6F8940F9280816F
:102A80009181238D448DBC01249F600D711D112403
:102A900075836483128E938382832150330B429F0C
:102AA000B001439F700D1124860F971F9783868373
:102AB0008FEF858F868FC80108960E943809C8015C
:102AC00041960E9438090F900FBE1093790300932E
:102AD00078030F900FBE8091780390917903892B32
:102AE00009F458C006E713E023E04CE550E061EF3D
:102AF00072E087E691E00E943E0E009709F44AC01A
:102B00000E94CC0EF8948FEF9FEF90937E038093FA
:102B10007D0381E080937C0310927B0310927A0303
:102B2000A89588E190EC0FB6F894A8958093600082
:102B30000FBE90936000A0915A03B0915B03CD91BA
:102B4000CDBFDD91DEBFFF91EF91DF91CF91BF91BE
:102B5000AF919F918F917F916F915F914F913F9135
:102B60002F911F910F91FF90EF90DF90CF90BF902A
:102B7000AF909F908F907F906F905F904F903F901D
:102B80002F901F900F900CBE0F900BBE0F900FBE9A
:102B90000F900895809100020E94FF060E94ED06AA
:102BA0000E949C04FBCFE8E8F3E01382128288EED7
:102BB00093E0A0E0B0E084839583A683B78388E4A4
:102BC00092E09183808385EC90E09587848784EC04
:102BD00090E09787868780EC90E0918B808B81ECEA
:102BE00090E0938B828B82EC90E0958B848B86ECCB
:102BF00090E0978B868B118E128E138E148E089513
:102C00000F931F93CF93DF938230910510F482E0EE
:102C100090E0E0915F04F091600430E020E0B0E0EB
:102C2000A0E0309799F42115310509F44AC0281B1A
:102C3000390B24303105D8F58A819B8161157105E6
:102C400089F1FB0193838283FE0111C04081518190
:102C50000281138148175907E0F04817590799F482
:102C6000109761F012960C93129713961C9332965C
:102C7000CF01DF91CF911F910F91089500935F04D1
:102C800010936004F4CF2115310551F0421753071A
:102C900038F0A901DB019A01BD01DF01F801C1CFC4
:102CA000EF01F9CF9093600480935F04CDCFFE01D4
:102CB000E20FF31F819391932250310939832883C6
:102CC000D7CF20915D0430915E04232B41F42091F5
:102CD00003023091040230935E0420935D0420913E
:102CE0000102309102022115310541F42DB73EB7A2
:102CF0004091050250910602241B350BE0915D04C2
:102D0000F0915E04E217F307A0F42E1B3F0B281787
:102D1000390778F0AC014E5F5F4F2417350748F054
:102D20004E0F5F1F50935E0440935D048193919317
:102D30009FCFF0E0E0E09CCFCF93DF930097E9F0E6
:102D4000FC01329713821282A0915F04B09160045B
:102D5000ED0130E020E01097A1F420813181820F55
:102D6000931F20915D0430915E042817390709F004
:102D700061C0F0935E04E0935D04DF91CF9108950C
:102D8000EA01CE17DF07E8F54A815B819E01411514
:102D90005105B1F7E901FB83EA8349915991C40FC9
:102DA000D51FEC17FD0761F4808191810296840F95
:102DB000951FE90199838883828193819B838A830C
:102DC000F0E0E0E012968D919C9113970097B9F591
:102DD0002D913C911197CD010296820F931F209166
:102DE0005D0430915E042817390739F6309751F5A4
:102DF0001092600410925F04B0935E04A0935D048F
:102E0000BCCFD383C28340815181840F951FC817E3
:102E1000D90761F44E5F5F4F88819981480F591F30
:102E2000518340838A819B8193838283211531055D
:102E300009F0B0CFF0936004E0935F049ECFFD01F2
:102E4000DC01C0CF13821282D7CFDC012D923D92DC
:102E50004D925D926D927D928D929D92AD92BD92BA
:102E6000CD92DD92ED92FD920D931D93CD93DD9366
:102E70000F90FF91EF918DB78D938EB78D938FB794
:102E80008D93ED93FD93882799270D9221C0DC0146
:102E9000CB0181309105811D2D903D904D905D902D
:102EA0006D907D908D909D90AD90BD90CD90DD907A
:102EB000ED90FD900D911D91CD91DD91ED91FD91E4
:102EC0000D90F894FEBF0FBEEDBFED91FD910D90FA
:102ED000EF93FF930F920895A1E21A2EAA1BBB1B3A
:102EE000FD010DC0AA1FBB1FEE1FFF1FA217B307D6
:102EF000E407F50720F0A21BB30BE40BF50B661FEC
:102F0000771F881F991F1A9469F7609570958095AF
:102F100090959B01AC01BD01CF010895EE0FFF1FFD
:102F2000881F8BBF0790F691E02D19940E94A1177E
:102F3000A59F900DB49F900DA49F800D911D11240D
:102F40000895A29FB001B39FC001A39F700D811D82
:102F50001124911DB29F700D811D1124911D0895A2
:102F6000FB01DC0102C001900D9241505040D8F7A6
:102F70000895DC0101C06D9341505040E0F7089581
:042F8000F894FFCFF3
:102F8400030000610480004F4B002049676E6F729C
:102F940065642000204661696C75726573200020A9
:102FA400546573747320002D2D2D2D2D2D2D2D2D55
:102FB4002D2D2D2D2D2D2D2D2D2D2D2D2D2D005047
:102FC40041535300000000002F049903C6037C04FE
:102FD400F703D503E9034641494C0020746F20628E
:102FE400652067726561746572207468616E200083
:102FF4002045787065637465642000746573742F6C
:10300400746573745F636F6D6D756E2F746573741F
:103014005F6164632E63707000746573745F766FB0
:103024006C746167655F76616C75655F69735F6E0B
:103034006F745F6C6573735F7468616E5F30007486
:103044006573745F766F6C746167655F76616C75C8
:10305400655F69735F6E6F745F67726561746572D3
:103064005F7468616E5F33303030300049444C45E2
:0A30740000546D72205376630000D3
:00000001FF
