:100000000C945D060C948E060C948E060C948E0651
:100010000C948E060C948E060C948E060C948E0610
:100020000C948E060C948E060C948E060C948E0600
:100030000C9464270C948E060C948E060C948E06F9
:100040000C948E060C948E060C948E060C948E06E0
:100050000C948E060C948E060C948E060C94DC1B6D
:100060000C948E060C94501C0C94261C0C948E063A
:100070000C948E060C948E060C948E060C948E06B0
:100080000C948E060C948E060C948E060C948E06A0
:100090000C948E060C948E060C948E060C948E0690
:1000A0000C948E060C948E060C948E060C948E0680
:1000B0000C948E060C948E060C948E060C948E0670
:1000C0000C948E060C948E060C948E060C948E0660
:1000D0000C948E060C948E060C948E060C948E0650
:1000E0000C948E060C946D070C94B2150C94C20DF2
:1000F0000C945D070C9467070C9467270C94550DBE
:100100000C9437070C9475070C945A040C94B01592
:100110000C9463070C94ED0B0C94A0180C94D1056F
:100120000C94130B0C9417090C946B150C94B509D3
:100130000C94AA150C94080A0C947F070C945A0787
:100140000C948C0B0C947B070C947D080C948E05FE
:100150000C94CB050C9471070C949B0B0C94DF084A
:100160000C94290D0C9452070C94B8150C94D014CF
:100170000C94D50D0C94FC0B0C946E080C94260A70
:100180000C94420D0C94AC150C943C070C941F0D70
:100190000C948D070C942C060C9491080C94B905C2
:1001A0000C94AE150C94150D0C94680D0C94560718
:1001B0000C947E0B0C9464090C94AA0D0C944108C9
:1001C0000C94D5090C9489070C947B0D0C94920D1A
:1001D0000C944E070C9483070C94380A0C94120B61
:1001E0000C94A9150C94CA130C94B7130C94EC0C32
:1001F0000C94B31504EF03800204CF00C13005ED69
:100200006403128104E885007806CB392C0034029F
:1002100002F72003EA000002C02302C11003C53E1A
:100220002802C786023648023A5503B1001804B6C0
:1002300008822702F20002260110E00F312B0C0E7B
:10024000084EF1370710030E090010E1000E1403E9
:10025000110731C148080F0C31360F0022080A0E71
:1002600020600402050607080902030305080204CA
:100270000204070407070707070707070202070723
:1002800007080E0908080807070908020708070BEE
:100290000809070909070808090D070808040404E4
:1002A0000608030707060707050707020306020AF1
:1002B0000707070705060507070B060705050105DC
:1002C00007080000000000000000FEFE18181E1EB7
:1002D000001E1E000000000090F89E90F89E1C007A
:1002E000001C0000183C26FF66CC88040C183C1843
:1002F0000C041C221CC0308E408000001804000C2E
:10030000100C80CC7E72F2DE0C80000C1C101010E1
:100310001C0C1C101E1E0000F0FC061C7CC006FC01
:10032000F0C07C1C14140E14140000000000606067
:1003300060FCFC6060600000000C0C00000000002D
:100340005838C0C0C0C0000000000000181800C02D
:10035000380618040000F8FC0E060EFCF8040C1C0D
:10036000181C0C04180CFEFE00001C1C181C86C671
:10037000663E1C181C1C18181818888C062626FEA9
:10038000DC040C1C18180C04C0E0B88CFEFE8004C1
:100390000404041C1C04707E3E3636F6C60C1C1881
:1003A00018180C04F8FC6E6666EECC040C181818CD
:1003B0001C0C060606E6761E0600001C1C0000004B
:1003C0009CFE666666FE9C0C1C1818181C0C3C7E75
:1003D000666666FCF80C1C18181C0C041818181813
:1003E000181858386060F0F098980C00000000046D
:1003F000040CD8D8D8D8D8D8D80000000000000005
:100400000C9898F0F060600C040400000000080CE8
:1004100006C6E6763C180000001818000000E03020
:1004200008C4F63A1A1AF2FA7E0408F00C30604C4E
:100430009C98988C9C9C90484C2000C0F8BE86BE2E
:10044000F8C000181C04040404041C18FEFE6666B0
:100450006666FEDC1C1C181818181C0CF8FC0E062E
:10046000060E9C08040C1C18181C0C04FEFE060644
:10047000060EFCF81C1C1818181C0C04FEFE666600
:100480006666661C1C1818181818FEFE66666666F6
:10049000061C1C0000000000F8FC0E0606C6CEDCA0
:1004A000C8040C1C181818180C04FEFE606060606C
:1004B000FEFE1C1C000000001C1CFEFE1C1C80809C
:1004C000000000FEFE0C1C1818181C0CFEFE60300C
:1004D00078EC86021C1C000000041C18FEFE0000C4
:1004E0000000001C1C1818181818FEFE0E7CE000F6
:1004F000E07C0EFEFE1C1C00000C1C0C00001C1CF2
:10050000FEFE1C78E080FEFE1C1C0000040C1C1C7F
:10051000F8FC0E0606060EFCF8040C1C1818181C35
:100520000C04FEFE6666667E3C1C1C00000000009B
:10053000F8FC0E0686060EFCF8040C1C18181C0CA1
:100540001C24FEFE6666E6E6BE1C001C1C000000C5
:100550000C1C18103C7E666666EECC0C1C18181835
:100560001C0C060606FEFE0606060000001C1C000B
:100570000000FEFE00000000FEFE040C1C18181C0B
:100580000C04021EFCE000E0FC1E020000001C1C2B
:100590001C00000006FEF800F0FE0EFEF000F8FE63
:1005A0000600001C1C1C0000001C1C1C0000060E89
:1005B000F8F0F80E06181C0400041C18060E38F09B
:1005C000F0380E060000001C1C000000060686E63F
:1005D000761E0E06181C1C1818181818FEFE0606A3
:1005E000FCFCC0C00638C000000004180606FEFE71
:1005F000C0C0FCFC20380E0E3820000000000000B7
:1006000000000000000000008080808080808080EA
:100610000206040000001098D858F8F0000C1C18CE
:10062000180C1C10FEFE301838F0E01C1C0C181CB6
:100630000C04E0F018183830040C18181C0CE0F00A
:10064000381830FEFE040C1C180C1C1CE0F0D8D826
:10065000D8F0E0040C181818180818FCFE1A1A0034
:100660001C1C0000E0F0381830F8F864ECDCD8CC42
:10067000FC7CFEFE301818F8F01C1C0000001C1C4E
:10068000FAFA1C1C00FAFAC0FC7CFEFEE0F09808A6
:100690001C1C00041C18FEFE1C1CF8F81018F8F0B6
:1006A0001818F8F01C1C00001C1C00001C1CF8F89A
:1006B000301818F8F01C1C0000001C1CE0F0381862
:1006C00038F0E0040C1C181C0C04F8F8301838F052
:1006D000E0FCFC0C181C0C04E0F0381830F8F804AE
:1006E0000C1C180CFCFCF8F83018181C1C0000003E
:1006F00070F8D8D8D890081818181C0C18FCFE18D8
:1007000018000C1C1818F8F8000000F8F80C1C1859
:10071000180C1C1C38F8C000C0F83800001C1C1C49
:10072000000018F8E000F038F000E0F81800001CB5
:100730001C0C000C1C1C00001838E0E03818181CB9
:1007400004041C1818F8E000E0F8180084FCF83CD9
:1007500004001898D878381C1C18181880FC7E06DD
:1007600006007CFCC0C0FEFC06067EFC80C0C0FC0F
:100770007C006030307060603000000000000000DD
:10078000FE020202020202FE1C1010101010101CC9
:100790004E6F20666F6E742073656C65637465645C
:1007A0000000000A0B02090C0D0E080703040100EB
:1007B0000000000000000000000000000000000039
:1007C00000000000000000000000000000121110F6
:1007D0000000000000000000000000000000000019
:1007E0000000000000000000002200250028002B6F
:1007F000002E003100340002010000050108010B49
:100800000100002100240027002A002D00300033C1
:100810000001010000040107010A010505050507A3
:100820000508080808020202020A0A08080404046B
:100830000401010101010101010303030303030397
:1008400003040707070C0C0C0C0C0C0C0C02020226
:100850000206060606060606060B0B0B0B0B0B0B19
:100860000B010210202008081020401020408002B8
:1008700001020108040201010204081020408080E6
:10088000402010080402018004020180402010086A
:100890000402010804020101020408102040800142
:1008A0000204081020408048656C6C6F20576F72FE
:1008B0006C640000CF93DF9300D000D000D01F9273
:1008C000CDB7DEB785E0B82ECE0101967C01E09170
:1008D000EB02F091EC021081D12CC12C112329F0F4
:1008E0000580F681E02DC080D1800E941F1F0E94EC
:1008F000151F4C018091E5029091E6028816990639
:1009000008F092C00E947E1D9092E6028092E5025D
:100910000E946A20D701EB2D1D92EA95E9F700911C
:10092000E7021091E8021A86198680E04801F1E199
:100930008F0E911C0FB6F8940F92D8015A96DC9046
:100940005A97DD2009F431C15C964C915C974423A1
:10095000F9F050E016968D919C911797840F951F92
:1009600017969C938E93169714962D913C911597FC
:100970008217930738F08D919C91119717969C934D
:100980008E931697F80166817781C7010E94392DF1
:10099000DA94D8015A96DC925A9718968C9188234B
:1009A00039F0C80108960E945F1E81110E94A21FA3
:1009B0000F900FBEA980A7FCB2CF0C811D81D8017A
:1009C0001A968D919C91892B21F0C80102960E9464
:1009D0009E1C0E94151F6C018091E5029091E60219
:1009E000C816D90610F40E947E1DD092E602C0926D
:1009F000E502EFEFEA0DE93008F091CF0E2E000C82
:100A0000FF0BD80152969C9152978827E55FFA4FC9
:100A10008F4F0C94312B8E058E05D105B905CB0572
:100A20008E058E05D105B9059092E6028092E50209
:100A3000112351F08C149D0470F00E946A20B401BF
:100A4000C6010E94541D66CFE091E902F091EA02CE
:100A5000808161E0811160E00091E7021091E8027D
:100A60000FB6F8940F92D8015D968C915D978F3FE9
:100A700011F45D961C92F801868D8F3F09F4168E55
:100A80000F900FBED8015A968C915A9781113CC095
:100A90005296ED91FC91A0912F03B09130031F96D7
:100AA000FC93EE931E97A0912F03B09130038481A5
:100AB000958151969C938E93509780912F0390919E
:100AC0003003A481B5810C9613969C938E93129754
:100AD00080912F03909130030C9695838483E0914D
:100AE0002F03F0913003C8014196958B848BF80158
:100AF00081898F5F818BC60188199909662311F05E
:100B00008FEF9FEF0E949C1DC8010E94301F0E9422
:100B10006A208111FFCE0E94A21FFCCE9160F801D5
:100B2000928B8A809B8064857585680D791D940100
:100B3000A601C8010E94061D882309F4F0CED80141
:100B400052968C91529782FF10C01C966D917C91A9
:100B5000680D791DA601C8010E94301DD80150966C
:100B6000ED91FC91C8011995DACE8E7FF801828B48
:100B7000F5CF916052969C9352976A817B811D9626
:100B80007C936E931C976C0D7D1D9601A601C80188
:100B90000E94061DC4CE91FD04C0C8010E946F23AF
:100BA000BECE9E7FF801928BBACE29853A85232B43
:100BB00019F40F900FBE8BCE811109C080913403C0
:100BC0008E83809132039091330398878F830F90A7
:100BD0000FBE0E941F1F0FB6F8940F92F801858D6B
:100BE0008F3F09F4158ED8015E968C915E978F3FEA
:100BF00011F45E961C920F900FBEBE01675F7F4F8F
:100C0000CE0106960E942C1E81111BC0C8010E94B5
:100C1000251F882381F069857A85C4010E94041FFD
:100C2000C8010E94301F0E946A20811102C00E94E8
:100C3000A21F81E07FCEC8010E94301F0E946A205F
:100C4000F8CFC8010E94301F0E946A20C8010E948C
:100C5000251F882371F33BCE8091CE0281110BC0FA
:100C600080913503823010F00E94A21F0E948D1ADD
:100C70000E948409F1CF0FB6F8940F92E0910E0311
:100C8000F0910F03C681D781CE0102960E949E1C6F
:100C9000809131038150809331038091CE02815045
:100CA0008093CE020F900FBE8F89988D0E946F2384
:100CB000CE010E946F23D0CF672711241FBECFEF34
:100CC000D1E2DEBFCDBF00E00CBF12E0A0E0B2E099
:100CD000E4EAFAE500E00BBF02C007900D92A43CE5
:100CE000B107D9F724E0A4ECB2E001C01D92A9300D
:100CF000B207E1F716E0CDE5D6E000E006C02197A7
:100D00000109802FFE010E94312BCC35D10780E0F4
:100D10000807A9F70E94F0270C94502D0C940000AE
:100D2000EF92FF921F93CF93DF93DC01FC01E35A14
:100D3000FF4F908150E040E067EA78E0ED01C65A4D
:100D4000DF4FA85BBF4FFB018491882309F433C0B8
:100D50002D913C911197F9011491111114C0319604
:100D6000E491E11110C0F9013296E491E99FF0019C
:100D700011248881989FE00DF11D11244E0F5F1FF3
:100D80006F5F7F4FE0CFF901349614913196E49173
:100D9000811770F0E12EEE0EFF24FF1C8E151F044C
:100DA0003CF4811BE82FF0E03696E20FF31FDDCF15
:100DB000F0E0E0E0DECF88819A01989F20193109A8
:100DC0001124C901DF91CF911F91FF90EF900895F9
:100DD00090E0FC01EF59F74F2491855E974FFC019D
:100DE0008491882399F090E0880F991FFC01EF5FB0
:100DF000F74FA591B491FC01E951F84F8591949179
:100E00008FB7F894EC91E22BEC938FBF0895282FC5
:100E100030E0F901EF55F84F9491F901EF59F74F90
:100E20004491255E374FF9012491222309F435C0FE
:100E3000992311F191509231F8F4E92FF0E08827CD
:100E4000EB5DF84F8F4F0C94312B56075A0737073D
:100E50004E0752073C075D07630767076D07710779
:100E600075077B077F073C07830789078D078091FC
:100E700080008F7780938000E22FF0E0EE0FFF1F5D
:100E8000E951F84FA591B4918FB7F894EC916111A5
:100E900048C040954E234C938FBF089580918000A9
:100EA0008F7DE8CF80918000877FE4CF84B58F77F6
:100EB00084BDE2CF84B58F7DFBCF8091B0008F776A
:100EC0008093B000D9CF8091B0008F7DF9CF809111
:100ED00090008F7780939000CFCF809190008F7D8E
:100EE000F9CF80919000877FF5CF8091A0008F7718
:100EF0008093A000C1CF8091A0008F7DF9CF809119
:100F0000A000877FF5CF809120018F77809320010B
:100F1000B3CF809120018F7DF9CF80912001877F11
:100F2000F5CF4E2BB8CFCF93DF9360E08CE00E94DB
:100F3000070760E088E00E940707C7E0D0E060E0B4
:100F400084E00E9407078091F70390E00C2E02C016
:100F5000959587950A94E2F761E080FF60E088E06C
:100F60000E94070761E084E00E940707219738F795
:100F700061E08CE0DF91CF910C9407073FB7F894C4
:100F80008091F4029091F502A091F602B091F702DF
:100F900026B5A89B05C02F3F19F00196A11DB11DD4
:100FA0003FBFBA2FA92F982F8827BC01CD01620F10
:100FB000711D811D911D42E0660F771F881F991FCB
:100FC0004A95D1F708958F929F92AF92BF92CF9298
:100FD000DF92EF92FF926B017C010E94BE074B01F2
:100FE0005C01C114D104E104F104B9F00E94BE0710
:100FF000681979098A099B09683E73408105910542
:1010000080F321E0C21AD108E108F10888EE880EC9
:1010100083E0981EA11CB11CE4CFFF90EF90DF90FD
:10102000CF90BF90AF909F908F900895DC01ED918D
:10103000FC910190F081E02D1994EF92FF920F93B3
:101040001F93CF93DF938C017B01D0E0C0E0F701C9
:10105000EC0FFD1F6491662361F0D801ED91FC91C6
:101060000190F081E02DC8011995892B11F021968E
:10107000EECFCE01DF91CF911F910F91FF90EF90B6
:101080000895AF92BF92CF92DF92EF92FF920F93AB
:101090001F93CF93DF936C017B018B01040F151F0E
:1010A000EB015E01AE18BF08C017D10759F0699176
:1010B000D601ED91FC910190F081E02DC6011995CA
:1010C000892B79F7C501DF91CF911F910F91FF9087
:1010D000EF90DF90CF90BF90AF900895FC01538DBB
:1010E000448D252F30E0842F90E0821B930B541702
:1010F00010F0CF96089501970895FC01918D828D8F
:10110000981761F0A28DAE0FBF2FB11D5D968C9127
:10111000928D9F5F9F73928F90E008958FEF9FEF66
:101120000895FC01918D828D981731F0828DE80F22
:10113000F11D858D90E008958FEF9FEF08952FB7F3
:10114000F8948091F8029091F902A091FA02B0917E
:10115000FB022FBF8093620390936303A093640309
:10116000B09365038AE593E00E94910897FF26C03B
:101170002FB7F8948091F8029091F902A091FA02A9
:10118000B091FB022FBF40916203509163036091C5
:10119000640370916503841B950BA60BB70B4091FC
:1011A0005E0350915F036091600370916103841747
:1011B0009507A607B707B0F28FEF9FEF0895FC01E0
:1011C000918D228D892F90E0805C9F4F821B910929
:1011D0008F73992708958AE593E00E94DF0821E044
:1011E000892B09F420E0822F0895FC01A48DA80F1B
:1011F000B92FB11DA35ABF4F2C91848D90E0019659
:101200008F739927848FA689B7892C93A089B18978
:101210008C91837080648C93938D848D981306C019
:101220000288F389E02D80818F7D80830895EF927D
:10123000FF920F931F93CF93DF93EC0181E0888F90
:101240009B8D8C8D98131AC0E889F989808185FF60
:1012500015C09FB7F894EE89FF896083E889F98902
:1012600080818370806480839FBF81E090E0DF9104
:10127000CF911F910F91FF90EF900895F62E0B8D57
:1012800010E00F5F1F4F0F731127E02E8C8D8E1112
:101290000CC00FB607FCFACFE889F989808185FF79
:1012A000F5CFCE010E94F508F1CFEB8DEC0FFD2FAD
:1012B000F11DE35AFF4FF0829FB7F8940B8FEA8934
:1012C000FB8980818062CFCFCF93DF93EC01888D43
:1012D0008823B9F0AA89BB89E889F9898C9185FDB1
:1012E00003C0808186FD0DC00FB607FCF7CF8C913F
:1012F00085FFF2CF808185FFEDCFCE010E94F508FA
:10130000E9CFDF91CF91089580E090E0892B29F01B
:101310000E94EB0881110E94000080E090E0892B80
:1013200049F080E090E0892B29F00E9400008111B3
:101330000E94000080E090E0892B49F080E090E07E
:10134000892B29F00E94000081110E94000080E09A
:1013500090E0892B49F080E090E0892B29F00E94F1
:10136000000081110C94000008950F931F93CF93F8
:10137000DF938C01EB01FC01E45AFF4F81E0808395
:10138000FE016491662351F0D801ED91FC9101902A
:10139000F081E02DC80119952196F2CF90E080E010
:1013A000DF91CF911F910F910895EF92FF920F93CC
:1013B0001F93CF93DF938C017B01FC01E45AFF4F15
:1013C00081E08083D0E0C0E0D70114968D919C919C
:1013D000C817D907A0F4D801ED91FC910190F081D4
:1013E000E02DD7018D919C9160E0009721F08C0F4A
:1013F0009D1FDC016C91C80119952196E5CF90E005
:1014000080E0DF91CF911F910F91FF90EF900895B1
:101410000F931F93CF93DF938C01FC01E45AFF4F8E
:1014200081E08083EB016991662349F0D801ED9159
:10143000FC910190F081E02DC8011995F4CF90E066
:1014400080E0DF91CF911F910F910895DB01FC01A6
:10145000E45AFF4F21E02083ED91FC911197019018
:10146000F081E02DBC01CD01199590E080E0089558
:10147000FC01E45AFF4F21E02083DC01ED91FC9157
:101480000190F081E02D199590E080E00895CF93D0
:10149000DF93FC01C0ADD1AD8881DF01A05CBF4FFF
:1014A0009C919095982398838BE28EBD00000DB49B
:1014B00007FEFDCF00ACF1ADE02D80819C91892B22
:1014C00080837EBD0DB407FEFDCF6EBD0DB407FE5B
:1014D000FDCF41505109640F751F7EBD0DB407FE4D
:1014E000FDCF6EBD0DB407FEFDCFDF91CF91089506
:1014F000CF93DF93FC01C0ADD1AD8881DF01A05C4B
:10150000BF4F9C919095982398838AE28EBD0000EE
:101510000DB407FEFDCF00ACF1ADE02D80819C91B4
:10152000892B80837EBD0DB407FEFDCF6EBD0DB44B
:1015300007FEFDCF41505109640F751F7EBD0DB4EC
:1015400007FEFDCF6EBD0DB407FEFDCFDF91CF913D
:1015500008950F931F93CF93DF93FC01C0ADD1ADDE
:101560009881DF01A05CBF4F8C918095892388838F
:101570008AE28EBD00000DB407FEFDCFC0ADD1AD37
:1015800088819C91892B88837EBD0DB407FEFDCF99
:101590006EBD0DB407FEFDCF21503109620F731FE0
:1015A0007EBD0DB407FEFDCF6EBD0DB407FEFDCFB1
:1015B000C0ADD1AD98818C918095892388838BE2D1
:1015C0008EBD00000DB407FEFDCFC0ADD1AD88814A
:1015D0009C91892B88835EBD0DB407FEFDCF4EBD67
:1015E0000DB407FEFDCF01501109400F511F5EBD24
:1015F0000DB407FEFDCF4EBD0DB407FEFDCF00AC10
:10160000F1ADE02D90818C918095892380838CE2CF
:101610008EBD00000DB407FEFDCFDF91CF911F916D
:101620000F910895089590E080E00895FB010190E6
:101630000020E9F73197AF01461B570BDC01ED9114
:10164000FC910280F381E02D19948F929F92AF92CA
:10165000BF92EF92FF920F931F93CF93DF93CDB77B
:10166000DEB7A1970FB6F894DEBF0FBECDBF7C01E9
:10167000FA01CB0119A2223008F42AE08E010F5D95
:101680001F4F822E912CB12CA12CBF01A5019401DA
:101690000E940F2BF901CA016A300CF5605DD80178
:1016A0006E938D01232B242B252B79F790E080E07E
:1016B000109721F0BD01C7010E94160BA1960FB62D
:1016C000F894DEBF0FBECDBFDF91CF911F910F9178
:1016D000FF90EF90BF90AF909F908F900895695CBE
:1016E000DECF2115310541F4DC01ED91FC91019033
:1016F000F081E02D642F19940C94250B9A01FC01C4
:10170000E45AFF4F41E04083AB0170E060E00E948B
:10171000710B90E080E008959A01FC01E45AFF4FBC
:1017200041E04083462F50E070E060E00E94710B82
:1017300090E080E00895FC01E45AFF4FA1E0A0830F
:101740000E94710B90E080E00895CF92DF92EF92BB
:10175000FF920F931F93CF93DF932115310581F4EF
:10176000DC01ED91FC910190F081E02D642FDF917F
:10177000CF911F910F91FF90EF90DF90CF90199430
:101780002A30310501F52AE077FF1DC06A017B018F
:10179000EC016DE20E9416088C0144275527BA011E
:1017A0004C195D096E097F092AE0CE010E94250BC4
:1017B000800F911FDF91CF911F910F91FF90EF90BC
:1017C000DF90CF900895DF91CF911F910F91FF90FF
:1017D000EF90DF90CF900C94250B9A01FC01E45A16
:1017E000FF4F41E04083AB01770F660B770B0E9400
:1017F000A50B90E080E00895FC01E45AFF4FA1E0C2
:10180000A0830E94A50B90E080E008952F923F9264
:101810004F925F926F927F928F929F92AF92BF9200
:10182000CF92DF92EF92FF921F93CF93DF93EC0161
:101830006A017B01722EAB019601CB01B6010E94B9
:10184000532C65E572E0811126C046015701E894EA
:10185000B7F82FEF3FEF4FE75FE7C501B4010E94F4
:10186000532C81110CC02FEF3FEF4FE75FE7C5010D
:10187000B4010E94D12969E572E0181664F02FEFD7
:101880003FEF4FE75FE4C701B6010E944E2C1816E8
:10189000B4F46DE572E0CE01DF91CF911F91FF901E
:1018A000EF90DF90CF90BF90AF909F908F907F9000
:1018B0006F905F904F903F902F900C94160B2FEFEE
:1018C0003FEF4FE75FECC701B6010E94D12987FDCA
:1018D000E0CF20E030E0A901C701B6010E94D12984
:1018E000312C212C87FF09C06DE2CE010E94160821
:1018F0001C01F7FAF094F7F8F09410E060E070E063
:1019000080E09FE3711641F020E030E040E251E4D6
:101910000E94A62B1F5FF6CFA70196010E943A2BCB
:101920002B013C010E941F2C4B015C012AE0BC01F1
:10193000A401CE010E94250B7C01E20CF31C1123B3
:10194000C1F1C501B4010E94D6299B01AC01C301BC
:10195000B2010E94392B4B015C016EE2CE010E9464
:101960001608E80EF91E115020F120E030E040E2A8
:1019700051E4C501B4010E94372A2B013C010E94A9
:101980001F2C4B01B12CA12C2AE0B501A401CE01E2
:101990000E94250BE80EF91EC501B4010E94D6294C
:1019A0009B01AC01C301B2010E94392B4B015C01C8
:1019B000DACFC701DF91CF911F91FF90EF90DF90B9
:1019C000CF90BF90AF909F908F907F906F905F90DF
:1019D0004F903F902F900895FC01E45AFF4F31E063
:1019E00030830E94060C90E080E0089561E672E08A
:1019F0000C94160B0F931F93CF93DF93EC01FB0115
:101A00004481558160817181E881F9810280F3818F
:101A1000E02D19958C01CE010E94F60C800F911FCC
:101A2000DF91CF911F910F910895FC01E45AFF4F70
:101A300021E020830E94FA0C90E080E00895FC01F0
:101A4000E45AFF4F21E020830E94F60C90E080E0F2
:101A50000895CF93DF93EC01CB01FE01E45AFF4FD1
:101A600021E02083DB01ED91FC910190F081E02DDC
:101A7000BE011995CE010E94F60C90E080E0DF9146
:101A8000CF910895CF93DF93EC01FC01E45AFF4F0F
:101A900081E08083CE010E94060CCE010E94F60CEC
:101AA00090E080E0DF91CF910895CF93DF93EC0138
:101AB000FC01E45AFF4F81E08083CE010E94710B4C
:101AC000CE010E94F60C90E080E0DF91CF91089566
:101AD000CF93DF93EC01FC01E45AFF4F81E0808358
:101AE000CE010E94A50BCE010E94F60C90E080E092
:101AF000DF91CF910895CF93DF93EC019A01FC0120
:101B0000E45AFF4F81E08083AB0170E060E0CE01DA
:101B10000E94710BCE010E94F60C90E080E0DF91F4
:101B2000CF910895CF93DF93EC019A01FC01E45A21
:101B3000FF4F81E08083AB01770F660B770BCE01FF
:101B40000E94A50BCE010E94F60C90E080E0DF9190
:101B5000CF910895CF93DF93EC019A01FC01E45AF1
:101B6000FF4F81E08083462F50E070E060E0CE01BF
:101B70000E94710BCE010E94F60C90E080E0DF9194
:101B8000CF910895CF93DF93EC01FC01E45AFF4F0E
:101B900081E08083CE010E941608CE010E94F60CDF
:101BA00090E080E0DF91CF9108952F923F924F9285
:101BB0005F926F927F928F929F92AF92BF92CF92DD
:101BC000DF92EF92FF920F931F93CF93DF93CDB7E6
:101BD000DEB76C970FB6F894DEBF0FBECDBF4C01D9
:101BE000FC01E85BFF4F80819181009729F560E956
:101BF00077E08AE593E00E941D088AE593E00E9461
:101C0000F60C90E080E06C960FB6F894DEBF0FBE45
:101C1000CDBFDF91CF911F910F91FF90EF90DF909B
:101C2000CF90BF90AF909F908F907F906F905F907C
:101C30004F903F902F900895603298F56A3059F593
:101C4000FC0133963491D401AE5ABF4FA4014C5AD3
:101C50005F4FFA018081918111969C938E93149627
:101C6000495F5F4FFA012081230F3327331F3296DC
:101C70004081429FC001439F900D11242D913C91C2
:101C80001197820F931F8D939C93319781E08083EE
:101C900081E090E0B8CF6D30D9F7F401E45AFF4FFE
:101CA000F5CFFC0133960491319624913196E4915D
:101CB000621708F4A6CF4E2F50E0FA01E20FF11D93
:101CC0006E171F060CF09DCF202E312CF101379698
:101CD000DF01F3E0B695A795FA95E1F7B887AF83F2
:101CE000621BFC012491211104C03196E491EE2382
:101CF00071F0FC01369620E0B0E0A0E0261709F470
:101D0000A1C03491A30FB11D2F5F3196F7CFFC0115
:101D10003296E4912E2F30E03A8729874F815885FB
:101D2000649FC001659F900D1124829FF001839FE5
:101D3000F00D929FF00D1124BF016A5F7F4F7A8BE7
:101D4000698BF401EE5BFF4F80819181009709F070
:101D5000B7C2302F37703B83311102C048E04B834C
:101D600024015DE5450E511CD201EC91E23008F4EE
:101D700084C0EE9F900111243E832D83D401A65A86
:101D8000BF4F5C915983552309F4F8C012968C918A
:101D90008111F4C01A97AD90BC90D40114962D9186
:101DA0003C911597A216B3060CF0D7C0AA5ABF4FA4
:101DB0004D915C91D40116968D919C9148175907CD
:101DC0000CF0CBC079817E9FB00111247A836983A6
:101DD0006A0D7B1D261737072CF4D901AA19BB09F8
:101DE000BA83A9830E9F800111249801240F351F07
:101DF000821793071CF48C01041B150BF401EA5B9A
:101E0000FF4F6080718029813A81D8010E94002BA8
:101E10006B017C01362F2D2DB1E1CB16D104E104ED
:101E2000F10410F030E120E0832F922FF401779637
:101E300030E020E02817390728F5619271922F5F72
:101E40003F4FF8CFEF81F885EA9FB001EB9F700D0F
:101E5000FA9F700D11244A5F5F4FDA01A60FB71F7A
:101E6000BA8BA98BE22FF0E03696E80FF91FE491C8
:101E70002E2F30E03A87298764CF41E050E05E831F
:101E80004D837CCFD401DA96ED91FC91DB97908164
:101E9000DF968C9180958923808329813A81B501D1
:101EA000C4010E94A90AD401D896ED91FC91D9975A
:101EB0008081A05CBF4F9C91892B8083B1E1CB16C0
:101EC000D104E104F10408F44CC1B701A601E4E037
:101ED0007695679557954795EA95D1F780E090E01C
:101EE000DC019401295C3F4FF4011789008D0EBD80
:101EF0000DB407FEFDCF1EBDF40179962E173F07E6
:101F000081F01081198311811B8732960DB407FE71
:101F1000FDCF1B851EBD0DB407FEFDCF19811EBD73
:101F2000EDCF0DB407FEFDCF0196A11DB11D4817E1
:101F300059076A077B07C1F62FE0C222DD24C114CE
:101F4000D10409F018C1D401DA96ED91FC91DB9728
:101F50008081DF969C91892B8083F401EE5AFF4F9C
:101F6000D401A65ABF4F3C91D2012C91808191811E
:101F7000329F800D911D112491838083F401E45AD6
:101F8000FF4F1082D401DA96ED91FC91DB9790819E
:101F9000DF968C91809589238083F2018081813046
:101FA00049F4F401EA5AFF4F60817181A101C40133
:101FB0000E94470A512C412C94012E5A3F4F3C87D6
:101FC0002B87A401405C5F4F5C8F4B8F340154E43E
:101FD000650E711CB4016A5B7F4F7A8369838985C2
:101FE0009A858415950509F4B8C3AB85BC856D91B8
:101FF0007C9177FD53C1F40184819581681779073D
:102000000CF04CC18401035A1F4FD8014C9150E091
:10201000C4010E94780AF80180818130D9F4D4018A
:10202000D896ED91FC919081AB8DBC8D8C91809573
:10203000892380838CE28EBD00000DB407FEFDCFA6
:10204000D401D896ED91FC918081AB8DBC8D9C9193
:10205000892B8083A988BA88A40CB51C10E000E005
:10206000F12CE12CB8E0BD87F401E85BFF4FFE8B5B
:10207000ED8B88E090E09C0122193309388F2F8B7B
:10208000A401435A5F4F5A8F498F6F8178856E152F
:102090007F0509F403C1AD89BE89ED91FC91EA0D7C
:1020A000FB1DE491B9E02B16310478F0C8010896C5
:1020B0002816390650F4F0E08F89988D800F911F13
:1020C00002C0F595E7958A95E2F78F81988501978B
:1020D0008E159F0511F4FB81FD87680194012A5A32
:1020E0003F4F3C8B2B8BA98DBA8D8C91482F50E0A4
:1020F0004C9DB0014D9D700D5C9D700D1124AB8900
:10210000BC892D913C91620F731F2E2F30E0388BCC
:102110002F87E0FD85C0813009F052C0A981BA81C6
:102120008C9111969C919EBD0DB407FEFDCF8EBD86
:102130000DB407FEFDCFEF85F889F595E795FFEF24
:10214000CF1ADF0A8C2D801B2D85821760F23FEF9E
:10215000E31AF30A085F1F4F49855A85A40EB51E7E
:1021600094CF30E1C316D104E104F10409F0E4CEC8
:1021700060E1C62ED12CF12CE12CD40157968C9124
:10218000579758969C919EBD0DB407FEFDCF8EBD0E
:10219000F4017996B1E0CB1AD108E108F10861F0B9
:1021A0008081918132960DB407FEFDCF9EBD0DB4A6
:1021B00007FEFDCF8EBDEECF0DB407FEFDCFC3CE23
:1021C000C4010E94470AD401D896ED91FC919081F8
:1021D000AB8DBC8D8C91809589238083BCE2BEBD84
:1021E00000000DB407FEFDCFD401D896ED91FC910F
:1021F0008081AB8DBC8D9C91892B80838D819E814C
:10220000019708F498CFE981FA81208131813EBDA0
:102210000DB407FEFDCF2EBD0DB407FEFDCFF0CFF0
:10222000813069F4D3018C9111969C919EBD0DB4BF
:1022300007FEFDCF8EBD0DB407FEFDCF7CCFC401E0
:102240000E94470AD401D896ED91FC919081AB8D04
:10225000BC8D8C91809589238083BCE2BEBD00003B
:102260000DB407FEFDCFD401D896ED91FC9180818D
:10227000AB8DBC8D9C91892B80838D819E81019734
:1022800008F459CFF301208131813EBD0DB407FE22
:10229000FDCF2EBD0DB407FEFDCFF1CFF401E35A03
:1022A000FF4F8081AB85BC852D913C911197820FAA
:1022B000932F911D8D939C93BFEF4B1A5B0A8FCE8A
:1022C000019709F0E5CCF401E65AFF4F2081B401F3
:1022D000645A7F4F2223A9F0FB018081811111C034
:1022E000D401AE5ABF4FA401435A5F4FFA01308167
:1022F0008D919C911197239F800D911D11248D9399
:102300009C93DB011C92F401EC5BFF4F2081318137
:10231000BD97C401C796219331938E179F07D9F7B4
:10232000077009F408E0D401DA96ED91FC91DB978F
:102330009081DF968C918095892380831D82B12CBA
:10234000A12CF12CE12C198288E090E0FC01E2192B
:10235000F309FC8FEB8F94012A5A3F4F3E872D875C
:10236000A401405C5F4F5C834B83B401695C7F4F89
:10237000788B6F871D81412E512C29853A85421615
:10238000530608F0EAC1F401EE5AFF4F60817181F3
:1023900077FDD1C1D40114968D919C91681779076E
:1023A0000CF0C9C13B96FA8FE98F408150E0C4011F
:1023B0000E94780A29893A89420E531ED12CC12CD9
:1023C00020E018E01B87A401485B5F4F5E8B4D8BBC
:1023D0006F81788561507109788F6F8B8F819885B7
:1023E0008C159D0509F40BC1AD89BE89ED91FC9159
:1023F000E40DF51D1491B9E02B163104B8F0C601B7
:10240000019643E0880F991F4A95E1F7281639068F
:1024100068F4E12FF0E008974B8D5C8D840F951FD9
:1024200002C0F595E7958A95E2F71E2FC114D104F5
:1024300039F06F89788D6C157D0529F40B8703C001
:10244000F12CE12C1982C60133E0880F991F3A95CF
:10245000E1F79C8B8B8B712C612C912F9170A98D46
:10246000BA8D8C91B9819B1709F4C2C0282F30E036
:102470009923E9F04B895C89460D571D429F7001F5
:10248000439FF00C529FF00C11245701998321E0D7
:1024900016953FEF631A730A4B856416F0F25FEFEF
:1024A000C51AD50A69857A85460E571E97CFA901A8
:1024B0004A0D5B1D4E195F09429FF001439FF00DCD
:1024C000529FF00D1124FA83E983AD85BE856D918D
:1024D0007C916E0D7F1DC4010E94470AD401D896DD
:1024E000ED91FC919081AB81BC818C918095892389
:1024F0008083BCE2BEBD00000DB407FEFDCFD40159
:10250000D896ED91FC918081AB81BC819C91892B07
:102510008083E981FA81E131F105F0F1AF0170E0EA
:1025200060E094E076956795579547959A95D1F731
:1025300080E090E0DC01F4012789308D3EBD0DB4D0
:1025400007FEFDCF2EBDF40179962F8538892E1711
:102550003F0761F02081318132960DB407FEFDCF37
:102560003EBD0DB407FEFDCF2EBDEFCF0DB407FE6F
:10257000FDCF0196A11DB11D481759076A077B07BA
:10258000D1F649815A814F7055275A834983452B8B
:1025900061F4198220E07CCF69817A816031710514
:1025A00081F780E190E09A838983E981FA81CF0104
:1025B000B0E0A0E0F4012789308D3EBD0DB407FEE8
:1025C000FDCF2EBDF40179960197A109B10961F003
:1025D0002081318132960DB407FEFDCF3EBD0DB492
:1025E00007FEFDCF2EBDF0CF0DB407FEFDCFD1CF3E
:1025F000F981FF2309F44CCFA80EB11C49CF222347
:1026000009F499C0F401E35AFF4F208130E0A90199
:102610004A0D5B1D4E195F09DA010E94002B2B0148
:102620003C01AD85BE856D917C916E0D7F1DC40111
:102630000E94470AD401D896ED91FC919081AB811C
:10264000BC818C918095892380838CE28EBD0000B3
:102650000DB407FEFDCFD401D896ED91FC91808199
:10266000AB81BC819C91892B8083B1E14B165104D5
:102670006104710408F453C0B301A20184E07695AB
:102680006795579547958A95D1F780E090E0DC01F2
:10269000F4012789308D3EBD0DB407FEFDCF2EBD60
:1026A000F40179962F8538892E173F0761F0208134
:1026B000318132960DB407FEFDCF3EBD0DB407FE4D
:1026C000FDCF2EBDEFCF0DB407FEFDCF0196A11DAE
:1026D000B11D481759076A077B07D1F6C2018F70F1
:1026E0009927009741F1B0E0A0E0F4012789308DEF
:1026F0003EBD0DB407FEFDCF2EBDF40179960197C6
:10270000A109B109A9F02081318132960DB407FEEB
:10271000FDCF3EBD0DB407FEFDCF2EBDF0CF30E1A5
:102720004316510461047104C9F680E190E0DBCFE7
:102730000DB407FEFDCFF401EE5AFF4FD401A35AAA
:10274000BF4F8C9120813181820F932F911D9183F6
:1027500080831D811F5F1D830DCED401DA96ED911C
:10276000FC91DB978081DF969C91892B90CACF9357
:10277000DF93EC01FC01E45AFF4F81E08083CE013E
:102780000E941D08CE010E94F60C90E080E0DF91CF
:10279000CF910895CF93DF93EC01FC01E45AFF4FF2
:1027A00081E080836115710519F0CE010E94160B3E
:1027B000CE010E94F60C90E080E0DF91CF91089569
:1027C0000F931F93CF93DF93EC018881998100973A
:1027D00059F02A813B812617370730F081E0DF91DD
:1027E000CF911F910F9108958B016F5F7F4F0E94D2
:1027F000582C009759F0998388831B830A832C8176
:102800003D81232B59F7FC011082E8CF80E0E7CF10
:10281000EF92FF920F931F93CF93DF936115710592
:1028200041F480E0DF91CF911F910F91FF90EF90E5
:10283000089541155105B1F07B01EC010C811D811A
:10284000040F151FB8010E94E013882351F328815B
:1028500039818C819D81B701820F931F0E94492D80
:102860001D830C8381E0DECFCF93DF93EC01888161
:102870009981009711F00E941329198218821D82F4
:102880001C821B821A82DF91CF910895CF93DF9330
:10289000EC01FB0101900020E9F73197AF01461BE5
:1028A000570B0E940814811103C0CE010E943414FA
:1028B000CE01DF91CF910895CF93DF93EC01FB011F
:1028C00044815581608171810E940814811103C087
:1028D000CE010E943414CE01DF91CF910895EF9282
:1028E000FF920F931F93CF93DF93EC017B018A013B
:1028F000BA010E94E01381110BC0CE010E94341472
:10290000CE01DF91CF911F910F91FF90EF9008952D
:102910001D830C83B701888199810E94492DF0CFD6
:10292000EF92FF920F931F93CF93DF93CDB7DEB754
:1029300062970FB6F894DEBF0FBECDBF8C01CB01FE
:10294000F8011182108213821282158214824AE0E9
:102950009E012F5F3F4F7901B9010E949C29F70129
:1029600001900020E9F73197AF014E195F09B701D7
:10297000C8010E946F1462960FB6F894DEBF0FBEB6
:10298000CDBFDF91CF911F910F91FF90EF900895F0
:10299000FC0180819181009711F00C941329089516
:1029A0002091F9033091FA03A091CC02B091CD02AD
:1029B0000E94002B9B01AC0160E077E883E993E083
:1029C0000E940F2B2093FC033093FD034093FE03E2
:1029D0005093FF031092000410920104109202041D
:1029E0001092030498EE492E93E0592E612C712C1D
:1029F000CFEFD0E000910002109101026091FC0342
:102A00007091FD038091FE039091FF03A301920159
:102A10000E940F2B69017A014B015C0101501109E1
:102A200008F4A3C09091FB03913009F442C09230A6
:102A300009F056C050E440E831E020E280910404FF
:102A400083FF3CC0885F80930404809104048F73EB
:102A5000809304049130A1F5D0938900C09388003D
:102A6000D0939D00C0939C00722F732B642F652B15
:102A7000962F972B90958091F70398239093F703C7
:102A8000E0910404F0E083E0F595E7958A95E1F79D
:102A9000E830F10518F58827EF5AFA4E8F4F0C945D
:102AA000312BB3156B15AA15A915AC15AE15B015BC
:102AB000B21550E148E032E024E0C0CF805FC3CFE0
:102AC000923091F6D093A900C093A800D0939900BA
:102AD000C0939800C9CF972B9093F7030E94930758
:102AE000C701B6010E94E3078091000490910104A0
:102AF000A0910204B0910304880D991DAA1DBB1D6D
:102B00008093000490930104A0930204B093030403
:102B1000883E9340A105B10508F480CF61E070E0E4
:102B200080E090E00E94E30780910004909101040E
:102B3000A0910204B0910304885E9340A109B109F9
:102B40008093000490930104A0930204B0930304C3
:102B500065CF342B932BC0CF942BBECF962BBCCFFD
:102B6000952BBACF252B922BB7CF0E94362242CF7E
:102B7000CF93DF93CDB7DEB7CE55D1090FB6F8941A
:102B8000DEBF0FBECDBF1C821B828DE092E09A8318
:102B9000898385E38EAF80E38FAF81E3898B84E007
:102BA00088AF80EF90E09E838D8380E491E09887EA
:102BB0008F832D961FAE1EAE2D972F961FAE1EAE85
:102BC0002F971A86198680E090E0A4EBB3E48B87F8
:102BD0009C87AD87BE8786EA9FEF988B8F87259667
:102BE0001FAE1EAE259729961FAE1EAE29978FEFFA
:102BF0009FEF27969FAF8EAF279782E06C968FAF9F
:102C00006C976D961FAE6D9781E06F968FAF6F9743
:102C10006E968FAF6E978FEE90E061969FAF8EAFFE
:102C200061978FE391E063969FAF8EAF6397659650
:102C30001FAE1EAE659767961FAE1EAE679769966C
:102C40001FAE1EAE699780E30E94E8068FAD90E04C
:102C5000FC01E55EF74FE491F0E0EE0FFF1FE95154
:102C6000F84F259134913AAF29AFFC01EF59F74F56
:102C7000E4912296EFAF22978EAD0E94E8068EADCA
:102C800090E0FC01E55EF74FE491F0E0EE0FFF1FEE
:102C9000E951F84F259134913CAF2BAFFC01EF592E
:102CA000F74FE4912196EFAF2197FFB6F89480910A
:102CB000C602811124C0E0E5F8E08491E6E9F8E07D
:102CC0009491E82FF0E0EE0FFF1FEF5FF74FA59113
:102CD000B491EC91E92321F461E085E30E940707B8
:102CE00085E30E94E8068CB580618CBD8CB580645C
:102CF0008CBD84E30E94E80683E30E94E80680918D
:102D0000C6028F5F8093C602FFBE84E088AF8CB599
:102D10008C7F8CBD8DB581608DBD8CB58F7D8CBD5C
:102D20008CB5837F8CBD89898F3F01F10E94E806B5
:102D300061E089890E94070765E070E080E090E02B
:102D40000E94E30760E089890E94070764E170E060
:102D500080E090E00E94E30761E089890E94070714
:102D600066E970E080E090E00E94E30724EF31E044
:102D7000A9014F5F5F4FF90194916FEF690FA9AD02
:102D8000BAAD22968FAD229780959923B1F12E5F2F
:102D90003F4FFA0144919C9189238C93EBADFCAD9C
:102DA000908121968FAD21978095892380834EBD98
:102DB00000000DB407FEFDCFF901962F9150A9AD8B
:102DC000BAAD22965FAD22979F3F19F4260F311DB1
:102DD000CFCF44918C91852B8C93ABADBCAD5C91E6
:102DE00021968FAD2197809585238C934EBD000051
:102DF0000DB407FEFDCF3196E1CF9C9189238C93D2
:102E0000EBADFCAD908121968FAD21978095892304
:102E1000808381E18EBD00000DB407FEFDCFEBADD8
:102E2000FCAD808121969FAD2197892B808368E737
:102E300070E080E090E00E94E307E9ADFAAD908198
:102E400022968FAD2297809589238083EBADFCADD0
:102E5000908121968FAD219780958923808389E287
:102E60008EBD00000DB407FEFDCFEBADFCAD808143
:102E700021969FAD2197892B808368E770E080E0E1
:102E800090E00E94E3071C8A1D8A81E08093CB02B8
:102E9000E9ADFAAD908122968FAD22978095892376
:102EA0008083EBADFCAD908121968FAD219780950D
:102EB0008923808386E38EBD00000DB407FEFDCF1D
:102EC00083E090E09A878987E9ADFAAD8081229608
:102ED0009FAD2297892B8083EBADFCAD908121962D
:102EE0008FAD219780958923808388EE8EBD000069
:102EF0000DB407FEFDCFEBADFCAD808121969FADFB
:102F00002197892B808320E431E03E832D8380EF5D
:102F100090E098878F8361963FAF2EAF619763965D
:102F20009FAF8EAF63977E01F8E1EF0EF11CCE01EB
:102F3000C8962FEF3FEFF701219331937F01E817F8
:102F4000F907C9F7EBADFCAD908121968FAD2197C4
:102F50008095892380830F8118852D813E8150E0E3
:102F600040E070E060E0CE0101960E94A90AE9AD60
:102F7000FAAD808122969FAD2297892B808390E0C5
:102F800080E0288D398D3EBD0DB407FEFDCF2EBDEE
:102F9000FE017A96EE16FF0661F0208131813296AD
:102FA0000DB407FEFDCF3EBD0DB407FEFDCF2EBD17
:102FB000F1CF0DB407FEFDCF0196803CF2E19F07F3
:102FC00001F7EBADFCAD808121969FAD2197892B58
:102FD00080838CE592E02B969FAF8EAF2B9785E098
:102FE0006C968FAF6C9727961FAE1EAE27978FEF0C
:102FF0009FEF29969FAF8EAF29972D968EAD9FADEF
:103000002D9767969FAF8EAF679765969FAF8EAFF0
:1030100065972F968EAD9FAD2F976B969FAF8EAF16
:103020006B9769969FAF8EAF6997CE0101960E940C
:1030300090062B96EEADFFAD2B973396E4916F96ED
:103040002FAD6F97E29FF0011124F695E7956996F1
:103050004EAD5FAD699761962EAD3FAD61973695E8
:10306000279565966EAD7FAD6597260F371F9695B0
:103070008795281B390B65963FAF2EAF65976396F2
:103080008EAD9FAD639796958795840F951F8E1B88
:103090009F0B69969FAF8EAF699767EA78E0CE0184
:1030A00001960E94B5090E943622FDCF0F931F930F
:1030B000EAE5F3E0A089B18982E08C93A485B58527
:1030C0001C92A685B78580E18C93108EA489B58962
:1030D00086E08C93A289B3898C9180618C93A289BC
:1030E000B3898C9188608C93A289B3898C91806814
:1030F0008C930288F389E02D80818F7D808310E09E
:1031000000E021E048EE53E061E772E088EB95E1F2
:103110000E94712521E048EE53E06EE772E080EAFC
:1031200098E10E94712521E048EE53E06DE872E0DD
:1031300080ED94E10E9471251F910F910C949F26C0
:10314000CF93DF9300D01F921F92CDB7DEB78FE1F0
:1031500090E00E9453258C01009769F0DC011196E4
:103160009C938E9381E05B968C935B975C961C920C
:10317000C8010E94721F1093CA020093C9026624FC
:103180006A94762C99E0592E24E0A22EB12C00915D
:10319000C9021091CA027D826C82D12C90E0480154
:1031A000B1E18B0E911C0FB6F8940F92F801828D4D
:1031B000882309F441C08150828F80819181892BBD
:1031C00071F4E0912F03F0913003309719F082A150
:1031D0008F5F82A3D8011596FC93EE931497F801A4
:1031E0008085882339F0C80108960E945F1E8111EE
:1031F0000E94A21F0F900FBE80917B008860809379
:103200007B0080E480937C0080917A0080648093CE
:103210007A0080917A0086FDFCCF809178009091B1
:1032200079009093C8028093C7028091C90290915F
:10323000CA020E94442206C02C813D81232B29F41E
:103240000F900FBE0E943622A2CF911109C080912B
:103250003403898380913203909133039B838A8363
:103260000F900FBE0E941F1F0FB6F8940F92D80147
:103270005D968C915D978F3F11F45D961C92F801DD
:10328000868D8F3F09F4168E0F900FBEBE016C5FC6
:103290007F4FCE0101960E942C1E8111AFC0C80144
:1032A0000E94251F882309F4A3C0D8018D919C9109
:1032B000892B09F078C00FB6F8940F92F801E480DA
:1032C000F580E114F10409F491C0D70156968C9170
:1032D0005697E0912F03F09130039689891708F0F3
:1032E0007AC01C962D913C911D9737FD0CC0E09142
:1032F0002F03F091300396899501291B31091D9602
:103300003C932E931C97859DC00111248B5C9C4F90
:10331000F701228533852817390709F054C0670162
:10332000F2E0CF0ED11CC6010E949E1CE0912F033B
:10333000F0913003E689D7015696EC9380915903BA
:103340008E1710F4E09359035E9EF0011124EB5C9C
:10335000FC4F0180F281E02DD7011596FC93EE938E
:1033600014978481958117969C938E931697A481C8
:10337000B5811396DC92CE921297D582C482D70182
:103380005696EC915697E59DF0011124EB5CFC4FAD
:103390001B96FC93EE931A9780818F5F8083DD24C8
:1033A000D3940F900FBE6C817D81C4010E94041FD5
:1033B000C8010E94301F0E946A20811102C00E9431
:1033C000A21F91E0F0CEE0912F03F09130038689A7
:1033D000F701868BE4CFE0912F03F0913003DD24D9
:1033E000D39491969C9186899817D8F2D12CD9CFF5
:1033F000C8010E94301F0E946A20E3CFC8010E94CA
:10340000301F0E946A20C8010E94251F8823C9F22C
:10341000DD2009F417CF0FB6F8940F92F8018189D7
:10342000882309F478C00688F789E02D908184E02C
:10343000891BD80114960D911C910115110509F4F1
:10344000FFCEF80191A1981708F4982FD80156964D
:103450008C915697891709F4F3CE92962C919297F6
:10346000213009F0EDCE56969C9356971C962D91DF
:103470003C911D9737FD07C09501291B31091D9609
:103480003C932E931C97859DC00111248B5C9C4F0F
:10349000F801228533852817390709F0D1CE780144
:1034A000F2E0EF0EF11CC7010E949E1CD801569657
:1034B000EC91809159038E1710F4E09359035E9EAE
:1034C000F0011124EB5CFC4F0180F281E02DD8016A
:1034D0001596FC93EE9314978481958117969C938F
:1034E0008E931697A481B5811396FC92EE92129753
:1034F000F582E482D8015696EC915697E59DF0014D
:103500001124EB5CFC4F1B96FC93EE931A97808181
:103510008F5F808395CE80E08CCFCF92DF92EF9249
:10352000FF920F931F93CF93DF93CDB7DEB76397CF
:103530000FB6F894DEBF0FBECDBF8091CB028823BB
:1035400009F472C08091C9029091CA020E9444227B
:103550000091CC021091CD026091C7027091C80217
:1035600090E080E00E94D62920E030E040EA5BE372
:103570000E94372A20E030E44CE956E40E94372AC2
:103580000E94182CCE010E960E9490146091CB02DE
:1035900070E064567D4F198618861B861A861D8634
:1035A0001C86FB0101900020E9F73197AF01461B13
:1035B000570BCE0108960E946F14BE01625F7F4FC9
:1035C000CE0108960E945C146CE972E00E944614D9
:1035D0006C014AE0CE0101967C01BC01C8010E9449
:1035E000A729F70101900020E9F73197AF014E19A3
:1035F0005F09B701C6010E940814811103C0C6010A
:103600000E9434146EE972E0C6010E944614BC01A7
:103610008AE593E00E94FA0CCE0108960E94C81435
:10362000CE010E960E94C8148AE593E00E94DF083E
:1036300002970CF454C08AE593E00E947D08182F8D
:103640000E949F08FC0197FD62C08D32910521F018
:10365000C0970A9708F054C0C12CD12C760100E025
:10366000E130F105D9F0ED32F10509F44EC0CF019A
:10367000C0970A9798F4AAE0B0E0A70196010E94CB
:10368000F52A6F01FF0FEE08FF08C60ED71EE81ED1
:10369000F91E90E3C91AD108E108F1088AE593E020
:1036A0000E947D080E949F08FC01C0970A97C0F203
:1036B000E130F105A9F2002341F0F094E094D094B8
:1036C000C094C11CD11CE11CF11C1E3621F1133722
:1036D00031F01D3629F5D092CD02C092CC020E9465
:1036E000362263960FB6F894DEBF0FBECDBFDF91D2
:1036F000CF911F910F91FF90EF90DF90CF900895A1
:103700008AE593E00E947D089BCF01E0C7CFC12CE2
:10371000D12C7601DACFD0920102C0920002DFCF25
:103720001092CB02B601CE010E960E94901419861B
:1037300018861B861A861D861C8619831A828E019E
:103740000F5F1F4FF80101900020E9F73197AF019B
:10375000401B510BB801CE0108960E946F141A82CB
:1037600019821C821B821E821D8248E150E063EA9E
:1037700072E0C8010E946F14BE01685F7F4FC801EC
:103780000E945C146CEB72E00E944614BE01625F02
:103790007F4F0E945C14BC018AE593E00E94FA0C02
:1037A000C8010E94C814CE0108960E94C814CE0118
:1037B0000E960E94C81493CF1F920F920FB60F92CD
:1037C00011242F933F938F939F93AF93BF93809137
:1037D000F8029091F902A091FA02B091FB023091A7
:1037E000F30223E0230F2D3758F50196A11DB11DDB
:1037F0002093F3028093F8029093F902A093FA02C7
:10380000B093FB028091F4029091F502A091F60230
:10381000B091F7020196A11DB11D8093F40290931F
:10382000F502A093F602B093F702BF91AF919F917A
:103830008F913F912F910F900FBE0F901F90189571
:1038400026E8230F0296A11DB11DD2CF1F920F9221
:103850000FB60F9211240BB60F922F933F934F93F5
:103860005F936F937F938F939F93AF93BF93EF93E8
:10387000FF938AE593E00E94F508FF91EF91BF91D5
:10388000AF919F918F917F916F915F914F913F91F8
:103890002F910F900BBE0F900FBE0F901F90189599
:1038A0001F920F920FB60F9211240BB60F922F9307
:1038B0008F939F93EF93FF93E0916A03F0916B03D3
:1038C0008081E0917003F091710382FD1DC09081B1
:1038D000809173038F5F8F7320917403821741F07F
:1038E000E0917303F0E0E65AFC4F958F80937303E9
:1038F000FF91EF919F918F912F910F900BBE0F90A1
:103900000FBE0F901F9018958081F2CFE091FE02BC
:10391000F091FF028081811107C08FEF9FEF90939C
:10392000EE028093ED020895E091FE02F091FF0215
:103930000580F681E02D80819181F1CFCF93DF93D7
:10394000FC01A085B1858281938124813581EC01C0
:103950003D832C83C481D5819B838A8311968D916D
:103960009C9112978E179F0721F41296DC93CE93A9
:103970001197118610868C9181508C938C91DF91D8
:10398000CF9108950F931F93CF93DF938C01FB0189
:1039900080819181D80113968F3F9807F1F4E80157
:1039A000AF81B88512968D919C91139793838283F2
:1039B000EC01FD83EC83B583A4831396FC93EE9313
:1039C000129711870087F80180818F5F8083DF91D4
:1039D000CF911F910F910895D90112962D913C918D
:1039E0001397E9014881598184179507A8F7DACF21
:1039F000FC010396928381832FEF3FEF348323836F
:103A0000968385839087878310820895FC01738352
:103A10006283918780874617570790F0421B530BAC
:103A20008485958548175907C8F4BF016E5F7F4F9D
:103A30008091E9029091EA020E94C21C80E0089500
:103A40004217530718F46217730740F4BF016E5F03
:103A50007F4F8091EB029091EC02EECF81E00895D0
:103A6000EF92FF920F931F93CF93DF93EC018B01A3
:103A70007A016C857D85600F711F9801A701CE01C9
:103A80000E94061D811107C0DF91CF911F910F91F8
:103A9000FF90EF9008958C859D85080F191FE88988
:103AA000F989CE011995E5CFEF92FF920F931F93FD
:103AB000CF93DF938C017B01E091EB02F091EC025C
:103AC0000580F681E02DC681D781CE0102960E9445
:103AD0009E1C8A8982FF0FC0A701B801CE010E94F7
:103AE000301DE889F989CE01DF91CF911F910F91A7
:103AF000FF90EF9019948E7F8A8BF3CFE091EB02C9
:103B0000F091EC02808181110DC08091E9029091C9
:103B1000EA029093EC028093EB02F093EA02E093C6
:103B2000E90208950580F681E02D6FEF7FEF808137
:103B300091810E94541DE2CFBF92CF92DF92EF920B
:103B4000FF920F931F93CF93DF93EC01B62EC0909B
:103B50003203D09033030091FE021091FF02E090F7
:103B6000FC02F090FD0280912F03909130030296A9
:103B70000E949E1CCF3FDC0709F042C0BB2009F425
:103B80003FC0E0910103F0910203A0912F03B09197
:103B900030031596FC93EE931497A0912F03B091E8
:103BA00030038481958117969C938E93169780910C
:103BB0002F0390913003A481B581029613969C93B4
:103BC0008E93129780912F039091300302969583E4
:103BD0008483E0912F03F091300380E093E093879A
:103BE0008287809100038F5F80930003DF91CF91E4
:103BF0001F910F91FF90EF90DF90CF90BF900895AD
:103C0000CC0DDD1DE0912F03F0913003D383C283EF
:103C100060912F03709130036E5F7F4FCC15DD05EF
:103C200060F4C701DF91CF911F910F91FF90EF904A
:103C3000DF90CF90BF900C94C21CC8010E94C21CA0
:103C40008091ED029091EE02C817D90778F6D093D3
:103C5000EE02C093ED02CACFFC01DB010FB6F8946F
:103C60000F9240913203509133032D913C91119763
:103C70002F3F320711F1818192816091340370816D
:103C8000761749F04817590730F01D921C9281E0D1
:103C90000F900FBE0895481B590B42175307A8F702
:103CA000241B350B2D933C938091340380838091AA
:103CB0003203909133039283818380E0E9CFCF93E5
:103CC000DF93DC011596ED91FC910680F781E02DE4
:103CD000A489B5898685978520893189EC013D8342
:103CE0002C83C089D1899B838A83CF010C9611963E
:103CF0002D913C9112972817390721F41296DC93E5
:103D0000CE931197158A148A2C9121502C932091CF
:103D1000F202211157C0A285B38584819581268145
:103D20003781EC013D832C83C681D7819B838A83B5
:103D3000CF01029611962D913C91129728173907C1
:103D400021F41296DC93CE931197138612862C9150
:103D500021502C93C689209159032C1710F4C0933D
:103D6000590329E02C9FE0011124CB5CDC4F098032
:103D7000DA81C02DD583C4834C815D81578346830E
:103D8000AC81BD8113969C938E9312979D838C83F7
:103D9000A689A29FD0011124AB5CBC4FB387A28738
:103DA0008C918F5F8C93A0912F03B09130039689F3
:103DB00056968C91891730F581E08093F102DF915E
:103DC000CF910895A0911303B0911403B787A687EC
:103DD00014962D913C911597318B208B1496CD9193
:103DE000DC9115979B838A8315969C938E931497E9
:103DF00082E193E0958B848B809112038F5F809397
:103E00001203D1CF80E0DBCFCF93DF93EB01609142
:103E10002F0370913003645F7F4F0E94C21C61E0EA
:103E2000CE01DF91CF910C949C1D0FB6F8940F92A8
:103E300080913203909133030F900FBE08958091CB
:103E4000F2028F5F8093F20208950FB6F8940F92FA
:103E5000FC01928D0F900FBE81E0911180E00895DA
:103E6000EF92FF920F931F93CF93DF93EC010FB666
:103E7000F8940F921E8D7C0181E1E80EF11C01E0A7
:103E80001116D4F08FEF8E8F0F900FBE0FB6F894EF
:103E90000F921D8D7E0188E0E80EF11C01E01116E5
:103EA000B4F08FEF8D8F0F900FBEDF91CF911F91E8
:103EB0000F91FF90EF9008958989882319F3C70126
:103EC0000E945F1E81110093F1021150D9CF8885A5
:103ED000882339F3C7010E945F1E81110093F1020C
:103EE0001150DDCFCF93DF93EC010FB6F8940F9212
:103EF000888199812B8D4C8DBC01249F600D711D93
:103F000011247D836C831A8E9B838A832150330B0B
:103F1000429FB001439F700D1124860F971F9F830E
:103F20008E838FEF8D8F8E8FCE0108960E94F81CA6
:103F3000CE0141960E94F81C0F900FBE81E0DF91E8
:103F4000CF9108950F920FB6F8940F920BB60F927F
:103F50000CB60F921F9211242F923F924F925F92B4
:103F60006F927F928F929F92AF92BF92CF92DF9289
:103F7000EF92FF920F931F932F933F934F935F9373
:103F80006F937F938F939F93AF93BF93CF93DF9361
:103F9000EF93FF93A0912F03B09130030DB60D92D4
:103FA0000EB60D928091F202882321F081E0809379
:103FB000F10261C01092F102A0912F03B091300381
:103FC000E0912F03F09130032D913C918789908DE2
:103FD00082179307A8F080912F039091300380916E
:103FE0002F0390913003279A2F9A2FEF87EA91E6BB
:103FF000215080409040E1F700C000001F9AF5CFAB
:104000002091590389E001C02150422F50E0849F44
:10401000F001859FF00D1124EB5CFC4F90819923FA
:1040200099F3A181B28112966D917C917283618323
:10403000289FC0011124885C9C4F6817790721F4E0
:10404000858196819283818389E0849FF001859F99
:10405000F00D1124EB5CFC4F0180F281E02D868194
:1040600097819093300380932F032093590380917D
:104070002F0390913003A0912F03B0913003CD9185
:10408000CDBFDD91DEBFFF91EF91DF91CF91BF9169
:10409000AF919F918F917F916F915F914F913F91E0
:1040A0002F911F910F91FF90EF90DF90CF90BF90D5
:1040B000AF909F908F907F906F905F904F903F90C8
:1040C0002F901F900F900CBE0F900BBE0F900FBE45
:1040D0000F9008958F929F92BF92CF92DF92EF92AE
:1040E000FF920F931F93CF93DF930FB6F8940F9225
:1040F0008091F20281508093F2028091F202882333
:1041000079F080E00F900FBEDF91CF911F910F915A
:10411000FF90EF90DF90CF90BF909F908F90089589
:1041200080913103882369F3E0901703F09018031E
:10413000F0E0E0E039E041E08091120381115EC0DF
:10414000EF2B11F00E94861CE090EF02F090F0023D
:10415000E114F10409F47DC189E0D82ECC24C39484
:104160000FEF1FEF8091F202811161C1C091320304
:10417000D09133034E018FEF881A980A909233033F
:104180008092320381149104B9F48091FE029091DF
:10419000FF022091FC023091FD023093FF02209338
:1041A000FE029093FD028093FC02809134038F5FA6
:1041B000809334030E94861C8091ED029091EE0260
:1041C000B12C8816990608F026C1E0912F03F091D2
:1041D0003003E689DE9EF0011124EB5CFC4F808108
:1041E000823010F0BB24B3948091F102811103C09E
:1041F000BB2009F425C1C092F10222C1D701169655
:10420000ED91FC91A489B58966857785808991892E
:10421000EB019D838C8380899189EC017B836A8388
:10422000BF01645F7F4F11960D911C911297061785
:10423000170721F412969C938E931197158A148A6E
:104240008C9181508C93A285B38584819581668100
:104250007781EC017D836C8366817781EB019B83A1
:104260008A83CF01029611960D911C91129708171F
:10427000190721F412967C936E9311971386128678
:104280002C9121502C93A689209159032A1710F4C0
:10429000A09359033A9FD0011124AB5CBC4F1196F7
:1042A0000D90BC91A02DB583A48314966D917C9143
:1042B00015977783668314966D917C911597EB0122
:1042C0009B838A8315969C938E9314979689939FCC
:1042D000D0011124AB5CBC4FB387A2878C918F5F58
:1042E0008C93A0912F03B091300356968C9189172F
:1042F00008F022CF4093F1021FCFE091FE02F0912F
:10430000FF020580F681E02D0680F781E02D828195
:1043100093818816990628F49093EE028093ED021B
:1043200054CFC285D3858481958126813781DC0174
:1043300015963C932E93149726813781D9011396B5
:104340009C938E931297CF01029649815A81481708
:10435000590711F43A832983138612862881215044
:104360002883A489B5891097F9F026853785408977
:104370005189E9015D834C8340895189EA013B837E
:104380002A8311966D917C9112979F01245F3F4F74
:104390006217730721F412965C934E931197158A56
:1043A000148A2C9121502C93A689209159032A1705
:1043B00010F4A0935903DA9ED0011124AB5CBC4FDA
:1043C00011960D90BC91A02DB583A48314962D91C8
:1043D0003C9115973783268314962D913C91159720
:1043E000E9019B838A8315969C938E9314979689F3
:1043F0009D9DD0011124AB5CBC4FB387A2878C91EB
:104400008F5F8C93E0912F03F09130038689891799
:1044100010F4BB24B394E091FE02F091FF0280817E
:1044200081116BCF1093EE020093ED02CECE8091FE
:10443000EF029091F00201969093F0028093EF02C8
:10444000D1E0ED1AF10809F08DCE1092F002109231
:10445000EF028091F102882309F453CE80912F035B
:10446000909130030E94A21F81E04CCE0E941F1F3A
:1044700060E08EE390E00E949C1D0E946A20811102
:1044800002C00E94A21F0895AF92BF92DF92EF92E6
:10449000FF920F931F93CF93DF9300D01F921F9231
:1044A000CDB7DEB78C011D821C8280E0780198E0D8
:1044B000E90EF11C0FB6F8940F92D8015A962C9180
:1044C0005A975B969C915B97291708F0B0C05A9653
:1044D000DC905A975C964C915C9741118CC08D9101
:1044E0009C91892B11F080E00AC0F801E480F580EE
:1044F000E114F10431F580E0F80115821482D394BF
:10450000D8015A96DC925A9751969C91992321F0A2
:10451000C80141960E945F1E81110E94A21F0F9048
:104520000FBE81E00F900F900F900F900F90DF91D2
:10453000CF911F910F91FF90EF90DF90BF90AF90C0
:104540000895D70192968C919297815092968C9370
:10455000929756962C91569791969C91291759F2BD
:104560008111C9CF5701B2E0AB0EB11CC5010E9449
:104570009E1CF70181A1868B482F50E024E030E09B
:10458000241B350B3587248790915903981710F415
:104590008093590389E0849FD001859FB00D112439
:1045A000AB5CBC4F11960D90BC91A02DF701B5836B
:1045B000A48314962D913C911597378326831496E6
:1045C000ED91FC911597B382A2821596BC92AE92A2
:1045D0001497D7015696EC915697E89FF001112455
:1045E000EB5CFC4F1B96FC93EE931A9780818F5FD8
:1045F000808381E081CF50E070E060E012968D9181
:104600009C910E94392DF801848D22813381820F83
:10461000932F911D93838283248135818217930781
:1046200008F461CF80819181938382835CCF2C8158
:104630003D81232B21F40F900FBE80E073CF8111B9
:1046400009C08091340389838091320390913303B0
:104650009B838A830F900FBE0E941F1F0FB6F89492
:104660000F92F801858D8F3F09F4158ED8015E9663
:104670008C915E978F3F11F45E961C920F900FBE47
:10468000BE016C5F7F4FCE0101960E942C1E8111EE
:1046900020C00FB6F8940F92F801928D838D0F9081
:1046A0000FBE981310C06C817D81C7010E94041F4A
:1046B000C8010E94301F0E946A20811102C00E941E
:1046C000A21F81E0F7CEC8010E94301F0E946A201D
:1046D000F8CFC8010E94301F0E946A20AECFCF934E
:1046E000DF93009751F0EC010E941F1FCE010E9442
:1046F0001329DF91CF910C946A20DF91CF91089517
:104700000F920FB6F8940F920BB60F920CB60F9251
:104710001F9211242F923F924F925F926F927F923D
:104720008F929F92AF92BF92CF92DF92EF92FF92C1
:104730000F931F932F933F934F935F936F937F93A9
:104740008F939F93AF93BF93CF93DF93EF93FF9399
:10475000A0912F03B09130030DB60D920EB60D92BD
:1047600013BE8091F2028111F9C0809132039091C1
:10477000330301969093330380933203009781F5BE
:104780002091FE023091FF024091FC025091FD0207
:104790005093FF024093FE023093FD022093FC02EF
:1047A000209134032F5F20933403E091FE02F091B7
:1047B000FF022081211107C02FEF3FEF3093EE025F
:1047C0002093ED020DC0E091FE02F091FF02058002
:1047D000F681E02D208131813093EE022093ED02AD
:1047E0002091ED023091EE028217930710F420E041
:1047F000A1C020E039E0D32EE091FE02F091FF024B
:104800003081311107C08FEF9FEF9093EE028093BC
:10481000ED0290C0E091FE02F091FF020580F6816A
:10482000E02D0680F781E02D4281538184179507A2
:1048300028F45093EE024093ED027CC0A285B3852C
:104840004481558166817781EA017D836C8366812D
:104850007781EB015B834A83AF014E5F5F4F119617
:104860000D911C9112970417150721F412967C9351
:104870006E931197138612863C9131503C93A48914
:10488000B5891097F9F06685778500891189EB0164
:104890001D830C8300891189E8017B836A8311964B
:1048A000ED90FC901297BF01645F7F4FE616F7060C
:1048B00021F412961C930E931197158A148A3C9139
:1048C00031503C93A689309159033A1710F4A093C4
:1048D0005903DA9ED0011124AB5CBC4F11960D90A8
:1048E000BC91A02DB583A48314966D917C911597EE
:1048F0007783668314966D917C911597EB015B83AA
:104900004A8315965C934E93149746894D9DD0012A
:104910001124AB5CBC4FB387A2873C913F5F3C93B3
:10492000E0912F03F09130033689341708F064CFFB
:1049300021E062CFE0912F03F0913003E689D9E0C6
:10494000ED9FF0011124EB5CFC4F8081823008F078
:1049500021E08091F10281110EC00AC08091EF0226
:104960009091F00201969093F0028093EF026CC058
:10497000222309F469C08091F202882321F081E0AA
:104980008093F10261C01092F102A0912F03B091C7
:104990003003E0912F03F09130032D913C918789F2
:1049A000908D82179307A8F080912F039091300388
:1049B00080912F0390913003279A2F9A2FEF87EA47
:1049C00091E6215080409040E1F700C000001F9A1E
:1049D000F5CF2091590389E001C02150422F50E0CA
:1049E000849FF001859FF00D1124EB5CFC4F9081BA
:1049F000992399F3A181B28112966D917C91728372
:104A00006183289FC0011124885C9C4F6817790737
:104A100021F4858196819283818389E0849FF001CE
:104A2000859FF00D1124EB5CFC4F0180F281E02D9D
:104A3000868197819093300380932F0320935903AD
:104A400080912F0390913003A0912F03B0913003F8
:104A5000CD91CDBFDD91DEBFFF91EF91DF91CF9181
:104A6000BF91AF919F918F917F916F915F914F9186
:104A70003F912F911F910F91FF90EF90DF90CF907A
:104A8000BF90AF909F908F907F906F905F904F906E
:104A90003F902F901F900F900CBE0F900BBE0F9069
:104AA0000FBE0F900895CF93DF93EC010E941F1F5C
:104AB000CE010E947728EC010E946A20209769F4B9
:104AC000279A2F9A2FEF80E792E021508040904064
:104AD000E1F700C000001F9AF5CFCE01DF91CF9122
:104AE00008957F928F929F92AF92BF92CF92DF9262
:104AF000EF92FF920F931F93CF93DF93982EA92EDF
:104B0000762E872E7A01B22ECA010E9453256C019F
:104B1000892B09F4F3C088E290E00E945325EC0150
:104B2000892B09F4E8C088E2DE011D928A95E9F735
:104B3000D88ECF8AA70165EA70E0C6010E94422D97
:104B4000B1E0EB1AF108EF89F88DEE0DFF1D672D2E
:104B5000782DCE0149969B01285F3F4FDB014D9197
:104B6000BD01DC014D93CD01AB0141505109DA018A
:104B70004C91442319F02617370781F718A2BE8AF3
:104B8000B9A21B861A861D8A1C8AD987C88784E029
:104B900090E08B1991099D878C87DB8BCA8B908263
:104BA000DF011197AC9211971C9211971C921197EB
:104BB00080E88C9311971C9211971C9211971C926C
:104BC00057971C9211971C92B697F983E8830115A9
:104BD000110519F0F801D183C0830FB6F8940F9234
:104BE000809131038F5F8093310380912F039091E7
:104BF0003003892B09F091C0D0933003C0932F0369
:104C000080913103813081F585E393E00E94F81CA7
:104C10008EE393E00E94F81C87E493E00E94F81C66
:104C200080E593E00E94F81C84E293E00E94F81C67
:104C30008BE193E00E94F81C82E193E00E94F81C53
:104C400089E093E00E94F81C80E093E00E94F81C49
:104C500084E293E09093FF028093FE028BE193E065
:104C60009093FD028093FC0280912D038F5F8093CF
:104C70002D03AE89809159038A1710F4A09359032C
:104C800029E02A9FD0011124AB5CBC4F11960D90F6
:104C9000BC91A02DBD83AC8314968D919C911597EA
:104CA0009F838E831496ED91FC911597CE01029609
:104CB0009383828315969C938E931497EE89E29F3B
:104CC000F0011124EB5CFC4FFB87EA8780818F5F4A
:104CD00080830F900FBE80912E03882351F0E091C6
:104CE0002F03F091300396898E89981710F40E9453
:104CF000A21F81E004C0C6010E946F238FEFDF91E5
:104D0000CF911F910F91FF90EF90DF90CF90BF90C8
:104D1000AF909F908F907F90089580912E03811186
:104D2000A3CFE0912F03F091300396898E898917E4
:104D300008F49ACFD0933003C0932F0395CF0F93ED
:104D40001F93CF93DF9300D000D01F921F92CDB757
:104D5000DEB7A4E6B2E0FE0131962CE632E0BF01F8
:104D60008D918193882319F02A173B07C9F70FEC1F
:104D700012E020E040EC50E08CE296E00E947125C9
:104D8000882309F494C0813009F091C00FB6F894DB
:104D90000F928091E7029091E802892B51F58AEDFC
:104DA00092E00E94F81C81ED92E00E94F81C8AEDCE
:104DB00092E09093EC028093EB0281ED92E090936D
:104DC000EA028093E90281E590E00E9453258C017C
:104DD000009759F04F96F801918380838AE0838F82
:104DE00085E0848FC8010E94721F1093E80200932F
:104DF000E7020F900FBE8091E7029091E802892BA5
:104E000009F455C003EE12E023E045E550E069E601
:104E100072E08AE594E00E947125813009F047C074
:104E2000F8942FEF3FEF3093EE022093ED02809342
:104E30002E031092330310923203A89588E190EC70
:104E40000FB6F894A895809360000FBE9093600011
:104E5000A0912F03B0913003CD91CDBFDD91DEBF86
:104E6000FF91EF91DF91CF91BF91AF919F918F9182
:104E70007F916F915F914F913F912F911F910F9172
:104E8000FF90EF90DF90CF90BF90AF909F908F906A
:104E90007F906F905F904F903F902F901F900F905A
:104EA0000CBE0F900BBE0F900FBE0F900895809117
:104EB000020228960FB6F894DEBF0FBECDBFDF9179
:104EC000CF911F910F9108950E94802318950F9301
:104ED0001F93CF93DF93EAE5F3E01382128288EE0B
:104EE00093E0A0E0B0E084839583A683B78387E452
:104EF00092E09183808385EC90E09587848784ECB1
:104F000090E09787868780EC90E0918B808B81EC96
:104F100090E0938B828B82EC90E0958B848B86EC77
:104F200090E0978B868B118E128E138E148E1092BA
:104F3000F8038CE00E94E80687E00E94E80688E01B
:104F40000E94E80684E00E94E8061092F7030E949F
:104F5000930760E087E00E940707E9EFF3E080E352
:104F600090E09183808382E0828313860E9493077E
:104F700085E00E94E80686E00E94E80661E085E0A0
:104F80000E94070761E086E00E940707E0EAF0E080
:104F9000808181688083C9E0C093A10008EA10E0A5
:104FA000F8011182108286E00E94E806E0E9F0E054
:104FB000808181688083C0939100C8E9D0E0198224
:104FC000188285E00E94E8068FEF90E0F801918357
:104FD000808399838883DF91CF911F910F910895EA
:104FE000789484B5826084BD84B5816084BD85B5C4
:104FF000826085BD85B5816085BD80916E008160D0
:1050000080936E0010928100809181008260809375
:105010008100809181008160809381008091800077
:105020008160809380008091B10084608093B100A2
:105030008091B00081608093B00080919100826087
:105040008093910080919100816080939100809184
:1050500090008160809390008091A1008260809395
:10506000A1008091A10081608093A1008091A000A7
:1050700081608093A0008091210182608093210152
:1050800080912101816080932101809120018160C4
:105090008093200180917A00846080937A008091CF
:1050A0007A00826080937A0080917A008160809398
:1050B0007A0080917A00806880937A001092C10013
:1050C00020910702309108028FEF91E2821B930B2F
:1050D00090930402809303020E9456180E949F2618
:1050E0000E9456180E948D1A0E948409FBCF0F93CC
:1050F0001F93CF93DF938230910510F482E090E00C
:10510000E0910704F091080430E020E0B0E0A0E076
:10511000309799F42115310509F44AC0281B390B41
:1051200024303105D8F58A819B816115710589F19B
:10513000FB0193838283FE0111C040815181028172
:10514000138148175907E0F04817590799F4109749
:1051500061F012960C93129713961C933296CF011E
:10516000DF91CF911F910F91089500930704109341
:105170000804F4CF2115310551F04217530738F0D8
:10518000A901DB019A01BD01DF01F801C1CFEF01E7
:10519000F9CF9093080480930704CDCFFE01E20F6E
:1051A000F31F819391932250310939832883D7CFFC
:1051B0002091050430910604232B41F4209105022F
:1051C00030910602309306042093050420910302D7
:1051D000309104022115310541F42DB73EB74091BD
:1051E000070250910802241B350BE0910504F09151
:1051F0000604E217F307A0F42E1B3F0B281739070C
:1052000078F0AC014E5F5F4F2417350748F04E0F22
:105210005F1F5093060440930504819391939FCFA1
:10522000F0E0E0E09CCFCF93DF930097E9F0FC0142
:10523000329713821282A0910704B0910804ED0105
:1052400030E020E01097A1F420813181820F931F7C
:1052500020910504309106042817390709F061C030
:10526000F0930604E0930504DF91CF910895EA01DD
:10527000CE17DF07E8F54A815B819E014115510594
:10528000B1F7E901FB83EA8349915991C40FD51F16
:10529000EC17FD0761F4808191810296840F951FC0
:1052A000E90199838883828193819B838A83F0E0DB
:1052B000E0E012968D919C9113970097B9F52D918E
:1052C0003C911197CD010296820F931F2091050406
:1052D000309106042817390739F6309751F51092A6
:1052E000080410920704B0930604A0930504BCCFF1
:1052F000D383C28340815181840F951FC817D9077A
:1053000061F44E5F5F4F88819981480F591F518327
:1053100040838A819B81938382832115310509F023
:10532000B0CFF0930804E09307049ECFFD01DC01A9
:10533000C0CF13821282D7CFBB274A3031F49923D2
:1053400022F4BDE2909581959F4F0C94A829BB272C
:10535000FB015527AA27880F991FAA1FA41710F031
:10536000A41B83955051B9F7A05DAA3308F0A95D3D
:10537000A193009779F7B111B1931192CB010C94DD
:10538000C129DC01FC01672F71917723E1F7329786
:1053900004C07C916D9370836291AE17BF07C8F310
:1053A00008950E94132A08F481E00895E89409C042
:1053B00097FB3EF490958095709561957F4F8F4F48
:1053C0009F4F9923A9F0F92F96E9BB279395F6955E
:1053D000879577956795B795F111F8CFFAF4BB0FDC
:1053E00011F460FF1BC06F5F7F4F8F4F9F4F16C040
:1053F000882311F096E911C0772321F09EE8872FCA
:10540000762F05C0662371F096E8862F70E060E085
:105410002AF09A95660F771F881FDAF7880F9695FE
:10542000879597F90895990F0008550FAA0BE0E8A2
:10543000FEEF16161706E807F907C0F01216130656
:10544000E407F50798F0621B730B840B950B39F496
:105450000A2661F0232B242B252B21F408950A26FC
:1054600009F4A140A6958FEF811D811D08950E942A
:105470004A2A0C94BB2A0E94AD2A38F00E94B42A12
:1054800020F0952311F00C94A42A0C94AA2A11243C
:105490000C94EF2A0E94CC2A70F3959FC1F3950FCC
:1054A00050E0551F629FF001729FBB27F00DB11DA8
:1054B000639FAA27F00DB11DAA1F649F6627B00D38
:1054C000A11D661F829F2227B00DA11D621F739F21
:1054D000B00DA11D621F839FA00D611D221F749F2F
:1054E0003327A00D611D231F849F600D211D822F76
:1054F000762F6A2F11249F5750409AF0F1F088239D
:105500004AF0EE0FFF1FBB1F661F771F881F9150C9
:105510005040A9F79E3F510580F00C94A42A0C94AA
:10552000EF2A5F3FE4F3983ED4F38695779567952D
:10553000B795F795E7959F5FC1F7FE2B880F911DF3
:105540009695879597F9089597F99F6780E870E099
:1055500060E008959FEF80EC089500240A941616E9
:10556000170618060906089500240A941216130651
:10557000140605060895092E0394000C11F48823DF
:1055800052F0BB0F40F4BF2B11F460FF04C06F5FFB
:105590007F4F8F4F9F4F089557FD9058440F551FD1
:1055A00059F05F3F71F04795880F97FB991F61F0A5
:1055B0009F3F79F087950895121613061406551F1C
:1055C000F2CF4695F1DF08C0161617061806991F88
:1055D000F1CF86957105610508940895E894BB277D
:1055E00066277727CB0197F908950E94002BA59F86
:1055F000900DB49F900DA49F800D911D11240895CE
:10560000A29FB001B39FC001A39F700D811D112403
:10561000911DB29F700D811D1124911D0895A1E26D
:105620001A2EAA1BBB1BFD010DC0AA1FBB1FEE1F1C
:10563000FF1FA217B307E407F50720F0A21BB30B67
:10564000E40BF50B661F771F881F991F1A9469F7E3
:1056500060957095809590959B01AC01BD01CF013F
:105660000895EE0FFF1F881F8BBF0790F691E02D66
:1056700019945058BB27AA270E94512B0C94BB2A7F
:105680000E94AD2A38F00E94B42A20F039F49F3FDE
:1056900019F426F40C94AA2A0EF4E095E7FB0C9476
:1056A000A42AE92F0E94CC2A58F3BA17620773077D
:1056B0008407950720F079F4A6F50C94EE2A0EF4F1
:1056C000E0950B2EBA2FA02D0B01B90190010C0112
:1056D000CA01A0011124FF27591B99F0593F50F42A
:1056E000503E68F11A16F040A22F232F342F442782
:1056F000585FF3CF469537952795A795F04053957A
:10570000C9F77EF41F16BA0B620B730B840BBAF049
:105710009150A1F0FF0FBB1F661F771F881FC2F7B4
:105720000EC0BA0F621F731F841F48F487957795C8
:105730006795B795F7959E3F08F0B0CF9395880F82
:1057400008F09927EE0F9795879508950E94BA2B38
:105750000C94BB2A0E94B42A58F00E94AD2A40F053
:1057600029F45F3F29F00C94A42A51110C94EF2ADC
:105770000C94AA2A0E94CC2A68F39923B1F35523EA
:1057800091F3951B550BBB27AA2762177307840754
:1057900038F09F5F5F4F220F331F441FAA1FA9F3EA
:1057A00035D00E2E3AF0E0E832D091505040E695D8
:1057B000001CCAF72BD0FE2F29D0660F771F881F39
:1057C000BB1F261737074807AB07B0E809F0BB0B2C
:1057D000802DBF01FF2793585F4F3AF09E3F510540
:1057E00078F00C94A42A0C94EF2A5F3FE4F3983EDF
:1057F000D4F3869577956795B795F7959F5FC9F729
:10580000880F911D9695879597F90895E1E0660FA9
:10581000771F881FBB1F621773078407BA0720F022
:10582000621B730B840BBA0BEE1F88F7E09508958B
:105830000E941F2C6894B1110C94EF2A08950E94C5
:10584000D42A88F09F5798F0B92F9927B751B0F014
:10585000E1F0660F771F881F991F1AF0BA95C9F7F4
:1058600014C0B13091F00E94EE2AB1E008950C947A
:10587000EE2A672F782F8827B85F39F0B93FCCF32D
:10588000869577956795B395D9F73EF49095809571
:10589000709561957F4F8F4F9F4F08950E94132AF7
:1058A00008F48FEF08950E94132A880B990B08952E
:1058B0004F925F926F927F928F929F92AF92BF9220
:1058C000CF92DF92EF92FF920F931F93CF93DF93CC
:1058D0008C01009799F4CB01DF91CF911F910F912B
:1058E000FF90EF90DF90CF90BF90AF909F908F9000
:1058F0007F906F905F904F900C947728FC01E60F9B
:10590000F71F9C0122503109E217F30708F4AEC0DB
:10591000D901CD91DC911197C617D70720F1C53079
:10592000D10578F0CE0104978617970750F0C61B73
:10593000D70B2297C193D1936D937C93CF010E9493
:105940001329C801DF91CF911F910F91FF90EF9024
:10595000DF90CF90BF90AF909F908F907F906F908F
:105960005F904F9008955B01AC1ABD0A4C018C0EFC
:105970009D1EA0910704B0910804512C412CF12CDC
:10598000E12C109731F5809105049091060488155B
:10599000990509F05CC04616570608F058C080917A
:1059A000030290910402009741F48DB79EB7409195
:1059B000070250910802841B950BE817F90708F0BD
:1059C00055C0F0930604E0930504F90171836083E8
:1059D000B8CF8D919C91119712966C901297139657
:1059E0007C901397A815B90559F56C0142E0C40ED7
:1059F000D11CCA14DB0420F1AC014A195B09DA019D
:105A00001296159780F06282738251834083D90188
:105A10006D937C93E114F10471F0D7011396FC931C
:105A2000EE9312978ECF22968C0F9D1FF9019183D2
:105A30008083F301EFCFF0930804E093070481CF54
:105A40004816590608F42C017D01D3019ACFCB01E9
:105A50000E9477287C01009749F0AE01B8010E94AE
:105A6000392DC8010E94132987016BCF10E000E097
:105A700068CFFB01DC0102C001900D924150504003
:105A8000D8F70895DC0101C06D9341505040E0F714
:105A90000895FB01DC0101900D920020E1F70895CB
:045AA000F894FFCFA8
:105AA40064000300000904800000000000D50D41DB
:105AB40008130B120BB509D509080A380A8C0BED2B
:105AC4000B7E0BFC0B9B0BEC0C260AB713150DCAB3
:105AD40013C20DAA0D920D7B0D680D550D420D29B3
