:100000000C9438010C9469010C9469010C946901F9
:100010000C9469010C9469010C9469010C946901B8
:100020000C9469010C9469010C9469010C946901A8
:100030000C9469010C9469010C9469010C94690198
:100040000C9469010C9469010C9469010C94690188
:100050000C9469010C9469010C9469010C94680476
:100060000C9469010C94DC040C94B2040C946901A6
:100070000C9469010C9469010C9469010C94690158
:100080000C9469010C9469010C9469010C94690148
:100090000C9469010C9469010C9469010C94690138
:1000A0000C9469010C9469010C9469010C94690128
:1000B0000C9469010C9469010C9469010C94690118
:1000C0000C9469010C9469010C9469010C94690108
:1000D0000C9469010C9469010C9469010C946901F8
:1000E0000C9469010C9488030C94F0010C94F502B3
:1000F0000C94E1020C9457070C945B070C94E601F6
:100100000C9402020C9406020C945E070C940303F8
:100110000C94DD010C9412050C943B030C9416070F
:100120000C94F8010C94BF010C94D1010C94550768
:100130000C9454070C94D5010C9410020C945D0798
:100140000C94D9010C94E0010C94BA010C94EA01CE
:100150000C94D2020C94FE010C94F4010C945907F7
:100160000C94A5020C940C0200000A0B02090C0D61
:100170000E0807030401000000000000000000005A
:10018000000000000000000000000000000000006F
:10019000000000001211100000000000000000002C
:1001A000000000000000000000000000000000004F
:1001B0002200250028002B002E003100340002010F
:1001C0000000050108010B010000210024002700A8
:1001D0002A002D0030003300010100000401070156
:1001E0000A010505050507050808080802020202BC
:1001F0000A0A0808040404040101010101010101C3
:100200000303030303030303040707070C0C0C0C8D
:100210000C0C0C0C02020202060606060606060676
:100220000B0B0B0B0B0B0B0B010210202008081003
:100230002040102040800201020108040201010256
:10024000040810204080804020100804020180042F
:10025000020180402010080402010804020101028A
:10026000040810204080010204081020408012057C
:1002700011241FBECFEFD1E2DEBFCDBF00E00CBF27
:1002800022E0A2E3B2E001C01D92A83FB207E1F76D
:1002900012E0A0E0B2E0EAE1F8E100E00BBF02C04A
:1002A00007900D92A233B107D9F711E0C8E3D1E06E
:1002B00000E006C021970109802FFE010E94B709C6
:1002C000C733D10780E00807A9F70E949B050C946B
:1002D0000B0C0C94000090E0FC01E85DFD4F2491B4
:1002E0008E519E4FFC018491882399F090E0880FF5
:1002F000991FFC01E853FE4FA591B491FC01E25512
:10030000FE4F859194918FB7F894EC91E22BEC938A
:100310008FBF0895282F30E0F901E859FE4F9491DE
:10032000F901E85DFD4F44912E513E4FF9012491B2
:10033000222309F435C0992311F191509231F8F438
:10034000E92FF0E08827E855FE4F8F4F0C94B7094E
:10035000D901DD01BA01D101D501BF01E001E601FA
:10036000EA01F001F401F801FE010202BF010602F8
:100370000C021002809180008F7780938000E22F22
:10038000F0E0EE0FFF1FE255FE4FA591B4918FB73D
:10039000F894EC91611148C040954E234C938FBF67
:1003A0000895809180008F7DE8CF80918000877FC5
:1003B000E4CF84B58F7784BDE2CF84B58F7DFBCF4A
:1003C0008091B0008F778093B000D9CF8091B0003A
:1003D0008F7DF9CF809190008F7780939000CFCF61
:1003E000809190008F7DF9CF80919000877FF5CF2D
:1003F0008091A0008F778093A000C1CF8091A00052
:100400008F7DF9CF8091A000877FF5CF809120016B
:100410008F7780932001B3CF809120018F7DF9CF1A
:1004200080912001877FF5CF4E2BB8CFCF93DF93FC
:1004300060E08CE00E948A0160E088E00E948A010E
:10044000C7E0D0E060E084E00E948A018091E6028B
:1004500090E00C2E02C0959587950A94E2F761E032
:1004600080FF60E088E00E948A0161E084E00E94F1
:100470008A01219738F761E08CE0DF91CF910C94ED
:100480008A013FB7F8948091450290914602A0916D
:100490004702B091480226B5A89B05C02F3F19F02E
:1004A0000196A11DB11D3FBFBA2FA92F982F8827F4
:1004B000BC01CD01620F711D811D911D42E0660FCF
:1004C000771F881F991F4A95D1F708958F929F92A1
:1004D000AF92BF92CF92DF92EF92FF926B017C01BD
:1004E0000E9441024B015C01C114D104E104F104FA
:1004F000B9F00E944102681979098A099B09683E8E
:1005000073408105910580F321E0C21AD108E1080A
:10051000F10888EE880E83E0981EA11CB11CE4CF80
:10052000FF90EF90DF90CF90BF90AF909F908F9013
:1005300008952FB7F8946091410270914202809122
:100540004302909144022FBF0895AF92BF92CF9281
:10055000DF92EF92FF920F931F93CF93DF936C0183
:100560007B018B01040F151FEB015E01AE18BF0864
:10057000C017D10759F06991D601ED91FC91019016
:10058000F081E02DC6011995892B79F7C501DF911E
:10059000CF911F910F91FF90EF90DF90CF90BF9080
:1005A000AF900895FC01538D448D252F30E0842FAA
:1005B00090E0821B930B541710F0CF96089501978B
:1005C0000895FC01918D828D981761F0A28DAE0F78
:1005D000BF2FB11D5D968C91928D9F5F9F73928FFF
:1005E00090E008958FEF9FEF0895FC01918D828D2B
:1005F000981731F0828DE80FF11D858D90E00895F8
:100600008FEF9FEF0895FC01918D228D892F90E04F
:10061000805C9F4F821B91098F739927089589E40D
:1006200092E00E94030321E0892B09F420E0822F4D
:100630000895FC01A48DA80FB92FB11DA35ABF4F77
:100640002C91848D90E001968F739927848FA689D1
:10065000B7892C93A089B1898C91837080648C9325
:10066000938D848D981306C00288F389E02D8081D4
:100670008F7D80830895EF92FF920F931F93CF9306
:10068000DF93EC0181E0888F9B8D8C8D98131AC0CD
:10069000E889F989808185FF15C09FB7F894EE89B4
:1006A000FF896083E889F989808183708064808311
:1006B0009FBF81E090E0DF91CF911F910F91FF905C
:1006C000EF900895F62E0B8D10E00F5F1F4F0F7304
:1006D0001127E02E8C8D8E110CC00FB607FCFACFBF
:1006E000E889F989808185FFF5CFCE010E94190341
:1006F000F1CFEB8DEC0FFD2FF11DE35AFF4FF08290
:100700009FB7F8940B8FEA89FB8980818062CFCFF5
:10071000CF93DF93EC01888D8823B9F0AA89BB8938
:10072000E889F9898C9185FD03C0808186FD0DC023
:100730000FB607FCF7CF8C9185FFF2CF808185FF44
:10074000EDCFCE010E941903E9CFDF91CF9108953B
:1007500080E090E0892B29F00E940F0381110E9414
:10076000000080E090E0892B49F080E090E0892B48
:1007700029F00E94000081110E94000080E090E0BA
:10078000892B49F080E090E0892B29F00E9400003D
:1007900081110E94000080E090E0892B49F080E008
:1007A00090E0892B29F00E94000081110C94000038
:1007B00008950F931F93CF93DF93EC018881998164
:1007C000009759F02A813B812617370730F081E0E6
:1007D000DF91CF911F910F9108958B016F5F7F4F34
:1007E0000E941A0B009759F0998388831B830A8310
:1007F0002C813D81232B59F7FC011082E8CF80E04A
:10080000E7CFEF92FF920F931F93CF93DF93611582
:10081000710541F480E0DF91CF911F910F91FF901E
:10082000EF90089541155105B1F07B01EC010C8169
:100830001D81040F151FB8010E94D903882351F3AD
:10084000288139818C819D81B701820F931F0E947D
:10085000040C1D830C8381E0DECFCF93DF93EC018A
:1008600088819981009711F00E94910A198218825B
:100870001D821C821B821A82DF91CF910895EF9214
:10088000FF920F931F93CF93DF93EC017B018A01BB
:10089000BA010E94D90381110BC0CE010E942D0420
:1008A000CE01DF91CF911F910F91FF90EF900895AE
:1008B0001D830C83B701888199810E94040CF0CFBD
:1008C000FC0180819181009711F00C94910A0895A8
:1008D0001F920F920FB60F9211242F933F938F9375
:1008E0009F93AF93BF938091410290914202A09158
:1008F0004302B09144023091400223E0230F2D3790
:1009000058F50196A11DB11D20934002809341022C
:1009100090934202A0934302B09344028091450217
:1009200090914602A0914702B09148020196A11D04
:10093000B11D8093450290934602A0934702B09365
:100940004802BF91AF919F918F913F912F910F904E
:100950000FBE0F901F90189526E8230F0296A11D39
:10096000B11DD2CF1F920F920FB60F9211240BB66A
:100970000F922F933F934F935F936F937F938F9338
:100980009F93AF93BF93EF93FF9389E492E00E940C
:100990001903FF91EF91BF91AF919F918F917F913B
:1009A0006F915F914F913F912F910F900BBE0F90E0
:1009B0000FBE0F901F9018951F920F920FB60F92B7
:1009C00011240BB60F922F938F939F93EF93FF9366
:1009D000E0915902F0915A028081E0915F02F0911A
:1009E000600282FD1DC09081809162028F5F8F73D3
:1009F00020916302821741F0E0916202F0E0E75B30
:100A0000FD4F958F80936202FF91EF919F918F919F
:100A10002F910F900BBE0F900FBE0F901F90189547
:100A20008081F2CF0F931F93CF93DF93E9E4F2E03D
:100A30001382128288EE93E0A0E0B0E08483958375
:100A4000A683B7838AE092E09183808385EC90E06F
:100A50009587848784EC90E09787868780EC90E088
:100A6000918B808B81EC90E0938B828B82EC90E079
:100A7000958B848B86EC90E0978B868B118E128EF3
:100A8000138E148E1092E7028CE00E946B0187E0B7
:100A90000E946B0188E00E946B0184E00E946B0160
:100AA0001092E6020E94160260E087E00E948A012E
:100AB000E8EEF2E088EC90E09183808382E082832C
:100AC00013860E94160285E00E946B0186E00E9458
:100AD0006B0161E085E00E948A0161E086E00E948E
:100AE0008A01E0EAF0E0808181688083C9E0C093F8
:100AF000A10008EA10E0F8011182108286E00E944D
:100B00006B01E0E9F0E0808181688083C09391000F
:100B1000C8E9D0E01982188285E00E946B018FEF4E
:100B200090E0F8019183808399838883DF91CF914E
:100B30001F910F910895CF93DF93CDB7DEB76E97D6
:100B40000FB6F894DEBF0FBECDBF789484B5826037
:100B500084BD84B5816084BD85B5826085BD85B561
:100B6000816085BD80916E00816080936E001092DF
:100B7000810080918100826080938100809181005A
:100B800081608093810080918000816080938000EB
:100B90008091B10084608093B1008091B000816049
:100BA0008093B00080919100826080939100809149
:100BB000910081608093910080919000816080938A
:100BC00090008091A10082608093A1008091A1009B
:100BD00081608093A1008091A00081608093A0003B
:100BE00080912101826080932101809121018160A7
:100BF0008093210180912001816080932001809168
:100C00007A00846080937A0080917A008260809379
:100C10007A0080917A00816080937A0080917A00D6
:100C2000806880937A001092C100E0915902F0919F
:100C30005A0282E08083E0915502F09156021082C0
:100C4000E0915702F091580280E180831092610296
:100C5000E0915D02F0915E0286E08083E0915B02AC
:100C6000F0915C02808180618083E0915B02F09171
:100C70005C02808188608083E0915B02F0915C027D
:100C8000808180688083E0915B02F0915C028081CA
:100C90008F7D80832091E8023091E902AAE0B0E0E4
:100CA0000E9486099B01AC0160E077E883E993E04C
:100CB0000E9495092093EB023093EC024093ED02E1
:100CC0005093EE021092EF021092F0021092F10295
:100CD0001092F2020E9499026093320270933302E2
:100CE00080933402909335020E94990260933802F7
:100CF0007093390280933A0290933B020E949902CA
:100D000060933C0270933D0280933E0290933F02B9
:100D1000EE24EA94F12C8E010F5F1F4F0E9499027E
:100D200080903C0290903D02A0903E02B0903F0225
:100D3000681979098A099B0965367105810591054C
:100D400008F4C8C06091EB027091EC028091ED0252
:100D50009091EE0228EE33E040E050E00E949509C9
:100D600049015A012B013C0191E5C92E93ECD92E82
:100D700021E0C21AD10809F4A3C09091EA0291308F
:100D800009F442C0923009F056C050E440E831E026
:100D900020E28091F30283FF3CC0885F8093F302DE
:100DA0008091F3028F738093F3029130A1F5F0925A
:100DB0008900E0928800F0929D00E0929C00722FE2
:100DC000732B642F652B972F962B90958091E602BD
:100DD00098239093E602E091F302F0E083E0F5952A
:100DE000E7958A95E1F7E830F10518F58827E45092
:100DF000F94F8F4F0C94B7095E0716075507540734
:100E0000570759075B075D0750E148E032E024E0EF
:100E1000C0CF805FC3CF923091F6F092A900E092EC
:100E2000A800F0929900E0929800C9CF972B909378
:100E3000E6020E941602C501B4010E94660280917A
:100E4000EF029091F002A091F102B091F202840DB4
:100E5000951DA61DB71D8093EF029093F002A093FD
:100E6000F102B093F202883E9340A105B10508F467
:100E70007FCF61E070E080E090E00E9466028091A8
:100E8000EF029091F002A091F102B091F202885E1F
:100E90009340A109B1098093EF029093F002A093CF
:100EA000F102B093F20264CF342B932BC0CF942B7A
:100EB000BECF962BBCCF952BBACF252B922BB7CF7D
:100EC0000E94990260933C0270933D0280933E021F
:100ED00090933F020E9499028090380290903902CC
:100EE000A0903A02B0903B02681979098A099B09DF
:100EF000653671058105910518F180917B00886048
:100F000080937B0080E480937C0080917A008064F1
:100F100080937A0080917A0086FDFCCF80917800E2
:100F20009091790090933702809336020E94990243
:100F3000609338027093390280933A0290933B0297
:100F40000E9499028090320290903302A090340265
:100F5000B0903502681979098A099B09693E734086
:100F60008105910508F49FC06091360270913702A7
:100F700090E080E00E948B0820E030E040EA5BE3F4
:100F80000E94C80820E030E44CE956E40E94C808FA
:100F90000E94BF09CB011C8A1B8A1E8A1D8A188EDB
:100FA0001F8A4AE0B8010E945608F801019000200B
:100FB000E9F73197AF01401B510BB801CE014396C1
:100FC0000E943F0480913602909137021A8E198E4A
:100FD0001C8E1B8E1E8E1D8E4AE0B8010E94610879
:100FE000F80101900020E9F73197AF01401B510B48
:100FF000B801CE0149960E943F041A8219821C82D0
:101000001B821E821D824BE050E068E172E0C80145
:101010000E943F044D8D5E8D698D7A8DC8010E94BE
:101020000104811103C0C8010E942D044AE050E070
:1010300064E272E0C8010E940104811103C0C8018A
:101040000E942D044F89588D6B897C89C8010E94AC
:101050000104811103C0C8010E942D044D815E81ED
:1010600069817A8189E492E00E94A50242E050E021
:101070006FE272E089E492E00E94A502C8010E943A
:101080006004CE0149960E946004CE0143960E94FE
:1010900060040E949902609332027093330280933D
:1010A0003402909335020E94A80338CEBB274A3001
:1010B00031F4992322F4BDE2909581959F4F0C94D1
:1010C0006208BB27FB015527AA27880F991FAA1F73
:1010D000A41710F0A41B83955051B9F7A05DAA3353
:1010E00008F0A95DA193009779F7B111B19311921E
:1010F000CB010C947B08DC01FC01672F71917723F5
:10110000E1F7329704C07C916D9370836291AE17C2
:10111000BF07C8F30895E89409C097FB3EF4909583
:101120008095709561957F4F8F4F9F4F9923A9F0C0
:10113000F92F96E9BB279395F6958795779567954F
:10114000B795F111F8CFFAF4BB0F11F460FF1BC093
:101150006F5F7F4F8F4F9F4F16C0882311F096E926
:1011600011C0772321F09EE8872F762F05C06623D4
:1011700071F096E8862F70E060E02AF09A95660F8D
:10118000771F881FDAF7880F9695879597F9089546
:101190000E94DB080C944C090E943E0938F00E9422
:1011A000450920F0952311F00C9435090C943B0966
:1011B00011240C9480090E945D0970F3959FC1F37E
:1011C000950F50E0551F629FF001729FBB27F00DF5
:1011D000B11D639FAA27F00DB11DAA1F649F66274A
:1011E000B00DA11D661F829F2227B00DA11D621F99
:1011F000739FB00DA11D621F839FA00D611D221F53
:10120000749F3327A00D611D231F849F600D211D36
:10121000822F762F6A2F11249F5750409AF0F1F0B9
:1012200088234AF0EE0FFF1FBB1F661F771F881F22
:1012300091505040A9F79E3F510580F00C9435091C
:101240000C9480095F3FE4F3983ED4F3869577953C
:101250006795B795F795E7959F5FC1F7FE2B880FC8
:10126000911D9695879597F9089597F99F6780E85E
:1012700070E060E008959FEF80EC089500240A94E8
:101280001616170618060906089500240A94121661
:101290001306140605060895092E0394000C11F494
:1012A000882352F0BB0F40F4BF2B11F460FF04C041
:1012B0006F5F7F4F8F4F9F4F089557FD9058440F9A
:1012C000551F59F05F3F71F04795880F97FB991FA5
:1012D00061F09F3F79F08795089512161306140662
:1012E000551FF2CF4695F1DF08C0161617061806EF
:1012F000991FF1CF86957105610508940895E894CA
:10130000BB2766277727CB0197F90895A29FB001E5
:10131000B39FC001A39F700D811D1124911DB29F29
:10132000700D811D1124911D0895A1E21A2EAA1B92
:10133000BB1BFD010DC0AA1FBB1FEE1FFF1FA21785
:10134000B307E407F50720F0A21BB30BE40BF50B82
:10135000661F771F881F991F1A9469F7609570950B
:10136000809590959B01AC01BD01CF010895EE0FD2
:10137000FF1F881F8BBF0790F691E02D19940E94E4
:10138000C6096894B1110C94800908950E946509FA
:1013900088F09F5798F0B92F9927B751B0F0E1F036
:1013A000660F771F881F991F1AF0BA95C9F714C0E6
:1013B000B13091F00E947F09B1E008950C947F094B
:1013C000672F782F8827B85F39F0B93FCCF386951F
:1013D00077956795B395D9F73EF49095809570957C
:1013E00061957F4F8F4F9F4F08950F931F93CF931A
:1013F000DF938230910510F482E090E0E091F602F4
:10140000F091F70230E020E0B0E0A0E0309799F4EE
:101410002115310509F44AC0281B390B2430310548
:10142000D8F58A819B816115710589F1FB01938350
:101430008283FE0111C040815181028113814817CE
:101440005907E0F04817590799F4109761F0129680
:101450000C93129713961C933296CF01DF91CF9184
:101460001F910F9108950093F6021093F702F4CFA5
:101470002115310551F04217530738F0A901DB015E
:101480009A01BD01DF01F801C1CFEF01F9CF9093BF
:10149000F7028093F602CDCFFE01E20FF31F819396
:1014A00091932250310939832883D7CF2091F402B8
:1014B0003091F502232B41F4209102023091030276
:1014C0003093F5022093F402209100023091010242
:1014D0002115310541F42DB73EB7409104025091DA
:1014E0000502241B350BE091F402F091F502E2179E
:1014F000F307A0F42E1B3F0B2817390778F0AC0137
:101500004E5F5F4F2417350748F04E0F5F1F509313
:10151000F5024093F402819391939FCFF0E0E0E0D5
:101520009CCFCF93DF930097E9F0FC0132971382B1
:101530001282A091F602B091F702ED0130E020E0B6
:101540001097A1F420813181820F931F2091F40222
:101550003091F5022817390709F061C0F093F502C0
:10156000E093F402DF91CF910895EA01CE17DF07EF
:10157000E8F54A815B819E0141155105B1F7E9010A
:10158000FB83EA8349915991C40FD51FEC17FD07DE
:1015900061F4808191810296840F951FE9019983FE
:1015A0008883828193819B838A83F0E0E0E01296B6
:1015B0008D919C9113970097B9F52D913C911197BE
:1015C000CD010296820F931F2091F4023091F50213
:1015D0002817390739F6309751F51092F702109213
:1015E000F602B093F502A093F402BCCFD383C2837A
:1015F00040815181840F951FC817D90761F44E5F50
:101600005F4F88819981480F591F518340838A8198
:101610009B81938382832115310509F0B0CFF0932C
:10162000F702E093F6029ECFFD01DC01C0CF1382EA
:101630001282D7CF4F925F926F927F928F929F923A
:10164000AF92BF92CF92DF92EF92FF920F931F93D0
:10165000CF93DF938C01009799F4CB01DF91CF9169
:101660001F910F91FF90EF90DF90CF90BF90AF90C0
:101670009F908F907F906F905F904F900C94F509A2
:10168000FC01E60FF71F9C0122503109E217F30716
:1016900008F4AEC0D901CD91DC911197C617D707D8
:1016A00020F1C530D10578F0CE0104978617970751
:1016B00050F0C61BD70B2297C193D1936D937C93A7
:1016C000CF010E94910AC801DF91CF911F910F9124
:1016D000FF90EF90DF90CF90BF90AF909F908F9052
:1016E0007F906F905F904F9008955B01AC1ABD0A98
:1016F0004C018C0E9D1EA091F602B091F702512C68
:10170000412CF12CE12C109731F58091F40290914D
:10171000F5028815990509F05CC04616570608F0D1
:1017200058C08091000290910102009741F48DB75A
:101730009EB74091040250910502841B950BE81757
:10174000F90708F055C0F093F502E093F402F901AF
:1017500071836083B8CF8D919C91119712966C9094
:10176000129713967C901397A815B90559F56C013B
:1017700042E0C40ED11CCA14DB0420F1AC014A19AA
:101780005B09DA011296159780F0628273825183A9
:101790004083D9016D937C93E114F10471F0D7017A
:1017A0001396FC93EE9312978ECF22968C0F9D1F6B
:1017B000F90191838083F301EFCFF093F702E09377
:1017C000F60281CF4816590608F42C017D01D30199
:1017D0009ACFCB010E94F5097C01009749F0AE0138
:1017E000B8010E94FB0BC8010E94910A87016BCFD0
:1017F00010E000E068CFFB01DC0102C001900D9217
:1018000041505040D8F70895FB01DC0101900D9242
:0A1810000020E1F70895F894FFCFDF
:10181A000000F8028000000000003B03A502D2028B
:10182A0088030303E102F5024144432076616C75A3
:10183A00653A200020566F6C746167653A20000D86
:02184A000A0092
:00000001FF
