:100000000C94B5010C94E6010C94E6010C94E60105
:100010000C94E6010C94E6010C94E6010C94E601C4
:100020000C94E6010C94E6010C94E6010C94E601B4
:100030000C94E6010C94E6010C94E6010C94E601A4
:100040000C94E6010C94E6010C94E6010C94E60194
:100050000C94E6010C94E6010C94E6010C94EF0577
:100060000C94E6010C9463060C9439060C94E6019A
:100070000C94E6010C94E6010C94E6010C94E60164
:100080000C94E6010C94E6010C94E6010C94E60154
:100090000C94E6010C94E6010C94E6010C94E60144
:1000A0000C94E6010C94E6010C94E6010C94E60134
:1000B0000C94E6010C94E6010C94E6010C94E60124
:1000C0000C94E6010C94E6010C94E6010C94E60114
:1000D0000C94E6010C94E6010C94E6010C94E60104
:1000E0000C94E6010C9450040C94CB030C94630222
:1000F0000C9468030C9477030C948B030C94750296
:100100000C945D020C948D020C94D8080C94930806
:100110000C9403040C94D2080C94DA080C94890211
:100120000C9499060C94D6080C9422030C944E025D
:100130000C94D4080C9456020C9437020C947B0255
:100140000C9471020C945A020C9483020C943C029D
:100150000C94DB080C94D1080C946D020C945202A0
:100160000C9467020C947F0200407A10F35A00A0AE
:10017000724E18090010A5D4E80000E87648170070
:1001800000E40B54020000CA9A3B000000E1F505B0
:10019000000080969800000040420F000000A086FA
:1001A00001000000102700000000E803000000002C
:1001B0006400000000000A000000000001000000D0
:1001C00000002C76D888DC674F0823DFC1DFAE59EA
:1001D000E1B1B796E5E3E453C63AE651997696E87D
:1001E000E6C28426EB898C9B62ED407C6FFCEFBC01
:1001F0009C9F40F2BAA56FA5F490055A2AF75C932C
:100200006B6CF9676DC11BFCE0E40D47FEF520E661
:10021000B500D0ED902E0300943577050080841E44
:10022000080000204E0A000000C80C333333330F9F
:10023000986E12831141EF8D2114893BE65516CF3C
:10024000FEE6DB18D1844B381BF77C1D901DA4BB48
:10025000E424203284725E228100C9F124ECA1E5FD
:100260003D2700000A0B02090C0D0E0807030401CC
:10027000000000000000000000000000000000007E
:10028000000000000000000000000000000012114B
:10029000100000000000000000000000000000004E
:1002A00000000000000000000000220025002800DF
:1002B0002B002E003100340002010000050108016E
:1002C0000B0100002100240027002A002D0030002F
:1002D000330001010000040107010A0105050505BD
:1002E000070508080808020202020A0A08080404AE
:1002F00004040101010101010101030303030303DC
:100300000303040707070C0C0C0C0C0C0C0C02026A
:10031000020206060606060606060B0B0B0B0B0B67
:100320000B0B0102102020080810204010204080F4
:1003300002010201080402010102040810204080A9
:100340008040201008040201800402018040201037
:100350000804020108040201010204081020408080
:100360000102040810204080990611241FBECFEF1F
:10037000D1E2DEBFCDBF00E00CBF23E0A6E4B2E0D7
:1003800001C01D92A431B207E1F712E0A0E0B2E093
:10039000E4E8F4E200E00BBF02C007900D92A6343F
:1003A000B107D9F711E0C5EBD1E000E006C0219715
:1003B0000109802FFE010E940D0FC43BD10780E090
:1003C0000807A9F70E9422070C9440120C94000021
:1003D00090E0FC01EE5DFC4F249184529D4FFC01A6
:1003E0008491882399F090E0880F991FFC01EE53C7
:1003F000FD4FA591B491FC01E855FD4F8591949175
:100400008FB7F894EC91E22BEC938FBF0895282FCF
:1004100030E0F901EE59FD4F9491F901EE5DFC4F8A
:10042000449124523D4FF9012491222309F435C00F
:10043000992311F191509231F8F4E92FF0E08827D7
:10044000EB5DFD4F8F4F0C940D0F56025A02370291
:100450004E0252023C025D02630267026D027102AB
:1004600075027B027F023C02830289028D02809129
:1004700080008F7780938000E22FF0E0EE0FFF1F67
:10048000E855FD4FA591B4918FB7F894EC916111A7
:1004900048C040954E234C938FBF089580918000B3
:1004A0008F7DE8CF80918000877FE4CF84B58F7700
:1004B00084BDE2CF84B58F7DFBCF8091B0008F7774
:1004C0008093B000D9CF8091B0008F7DF9CF80911B
:1004D00090008F7780939000CFCF809190008F7D98
:1004E000F9CF80919000877FF5CF8091A0008F7722
:1004F0008093A000C1CF8091A0008F7DF9CF809123
:10050000A000877FF5CF809120018F778093200115
:10051000B3CF809120018F7DF9CF80912001877F1B
:10052000F5CF4E2BB8CFCF93DF9360E08CE00E94E5
:10053000070260E088E00E940702C7E0D0E060E0C8
:1005400084E00E9407028091020390E00C2E02C01A
:10055000959587950A94E2F761E080FF60E088E076
:100560000E94070261E084E00E940702219738F7A9
:1005700061E08CE0DF91CF910C9407023FB7F894D3
:100580008091610290916202A0916302B091640235
:1005900026B5A89B05C02F3F19F00196A11DB11DDE
:1005A0003FBFBA2FA92F982F8827BC01CD01620F1A
:1005B000711D811D911D42E0660F771F881F991FD5
:1005C0004A95D1F708958F929F92AF92BF92CF92A2
:1005D000DF92EF92FF926B017C010E94BE024B0101
:1005E0005C01C114D104E104F104B9F00E94BE021F
:1005F000681979098A099B09683E7340810591054C
:1006000080F321E0C21AD108E108F10888EE880ED3
:1006100083E0981EA11CB11CE4CFFF90EF90DF9007
:10062000CF90BF90AF909F908F9008952FB7F89480
:1006300060915D0270915E0280915F029091600214
:100640002FBF0895AF92BF92CF92DF92EF92FF92A9
:100650000F931F93CF93DF936C017B018B01040FEA
:10066000151FEB015E01AE18BF08C017D10759F086
:100670006991D601ED91FC910190F081E02DC601C8
:100680001995892B79F7C501DF91CF911F910F91B2
:10069000FF90EF90DF90CF90BF90AF900895CF93F1
:1006A000DF93FC01448155816081718185E692E090
:1006B0000E942203EC0142E050E060E272E085E635
:1006C00092E00E9422038C0F9D1FDF91CF9108952D
:1006D000FC01538D448D252F30E0842F90E0821B48
:1006E000930B541710F0CF96089501970895FC01CD
:1006F000918D828D981761F0A28DAE0FBF2FB11D25
:100700005D968C91928D9F5F9F73928F90E008957C
:100710008FEF9FEF0895FC01918D828D981731F036
:10072000828DE80FF11D858D90E008958FEF9FEF8A
:1007300008950F931F930E94160360936D027093A8
:100740006E0280936F029093700285E692E00E94A1
:100750008B0397FF1DC00E94160300916D0210913C
:100760006E0220916F0230917002601B710B820B40
:10077000930B0091690210916A0220916B023091F3
:100780006C026017710782079307F8F28FEF9FEFF3
:100790001F910F910895FC01918D228D892F90E07A
:1007A000805C9F4F821B91098F739927089585E67E
:1007B00092E00E94CB0321E0892B09F420E0822FF4
:1007C0000895FC01A48DA80FB92FB11DA35ABF4FE6
:1007D0002C91848D90E001968F739927848FA68940
:1007E000B7892C93A089B1898C91837080648C9394
:1007F000938D848D981306C00288F389E02D808143
:100800008F7D80830895EF92FF920F931F93CF9374
:10081000DF93EC0181E0888F9B8D8C8D98131AC03B
:10082000E889F989808185FF15C09FB7F894EE8922
:10083000FF896083E889F98980818370806480837F
:100840009FBF81E090E0DF91CF911F910F91FF90CA
:10085000EF900895F62E0B8D10E00F5F1F4F0F7372
:100860001127E02E8C8D8E110CC00FB607FCFACF2D
:10087000E889F989808185FFF5CFCE010E94E103E7
:10088000F1CFEB8DEC0FFD2FF11DE35AFF4FF082FE
:100890009FB7F8940B8FEA89FB8980818062CFCF64
:1008A000CF93DF93EC01888D8823B9F0AA89BB89A7
:1008B000E889F9898C9185FD03C0808186FD0DC092
:1008C0000FB607FCF7CF8C9185FFF2CF808185FFB3
:1008D000EDCFCE010E94E103E9CFDF91CF910895E2
:1008E00080E090E0892B29F00E94D70381110E94BB
:1008F000000080E090E0892B49F080E090E0892BB7
:1009000029F00E94000081110E94000080E090E028
:10091000892B49F080E090E0892B29F00E940000AB
:1009200081110E94000080E090E0892B49F080E076
:1009300090E0892B29F00E94000081110C940000A6
:100940000895CF93DF93EC0188819981009711F08E
:100950000E94C610198218821D821C821B821A8274
:10096000DF91CF910895FC0180819181009711F072
:100970000C94C61008950F931F93CF93DF93EC014F
:1009800088819981009759F02A813B812617370782
:1009900030F081E0DF91CF911F910F9108958B018D
:1009A0006F5F7F4F0E944F11009759F099838883A2
:1009B0001B830A832C813D81232B59F7FC01108274
:1009C000E8CF80E0E7CFEF92FF920F931F93CF9392
:1009D000DF936115710541F480E0DF91CF911F91A4
:1009E0000F91FF90EF90089541155105B1F07B01F3
:1009F000EC010C811D81040F151FB8010E94BB047E
:100A0000882351F3288139818C819D81B701820F20
:100A1000931F0E9439121D830C8381E0DECFCF9398
:100A2000DF93EC01FB0101900020E9F73197AF0162
:100A3000461B570B0E94E304811103C0CE010E94A4
:100A4000A104CE01DF91CF910895CF93DF93EC0104
:100A5000FB0144815581608171810E94E304811111
:100A600003C0CE010E94A104CE01DF91CF91089571
:100A7000EF92FF920F931F93CF93DF93EC017B01D3
:100A80008A01BA010E94BB0481110BC0CE010E94F1
:100A9000A104CE01DF91CF911F910F91FF90EF90B4
:100AA00008951D830C83B701888199810E943912B2
:100AB000F0CFFB0101900020E9F73197AF01461B11
:100AC000570B0C9438050F931F93CF93DF93CDB73B
:100AD000DEB762970FB6F894DEBF0FBECDBF8C01B4
:100AE000CB01F801118210821382128215821482C6
:100AF0004AE0BE016F5F7F4F0E94500BBE016F5FE7
:100B00007F4FC8010E94590562960FB6F894DEBF68
:100B10000FBECDBFDF91CF911F910F9108950F931D
:100B20001F93CF93DF9300D000D000D0CDB7DEB7B6
:100B30008C01862FF8011182108213821282158295
:100B400014824AE0BE016F5F7F4F90E00E945B0B12
:100B5000BE016F5F7F4FC8010E94590529960FB6ED
:100B6000F894DEBF0FBECDBFDF91CF911F910F91E3
:100B70000895EF92FF920F931F93CF93DF93CDB71A
:100B8000DEB7A1970FB6F894DEBF0FBECDBF7C01D4
:100B9000CB01BA01F70111821082138212821582F1
:100BA00014828E010F5F1F4F22E044E00E94320B3F
:100BB000009789F0BC01C7010E945905A1960FB6A4
:100BC000F894DEBF0FBECDBFDF91CF911F910F9183
:100BD000FF90EF900895C7010E94A104EFCF1F92EC
:100BE0000F920FB60F9211242F933F938F939F93E1
:100BF000AF93BF9380915D0290915E02A0915F02DE
:100C0000B091600230915C0223E0230F2D3758F53C
:100C10000196A11DB11D20935C0280935D0290930B
:100C20005E02A0935F02B093600280916102909196
:100C30006202A0916302B09164020196A11DB11DF0
:100C40008093610290936202A0936302B093640266
:100C5000BF91AF919F918F913F912F910F900FBEB8
:100C60000F901F90189526E8230F0296A11DB11D25
:100C7000D2CF1F920F920FB60F9211240BB60F9284
:100C80002F933F934F935F936F937F938F939F9394
:100C9000AF93BF93EF93FF9385E692E00E94E10349
:100CA000FF91EF91BF91AF919F918F917F916F9144
:100CB0005F914F913F912F910F900BBE0F900FBE00
:100CC0000F901F9018951F920F920FB60F9211243C
:100CD0000BB60F922F938F939F93EF93FF93E09117
:100CE0007502F09176028081E0917B02F0917C02A6
:100CF00082FD1DC0908180917E028F5F8F73209155
:100D00007F02821741F0E0917E02F0E0EB59FD4F47
:100D1000958F80937E02FF91EF919F918F912F91FC
:100D20000F900BBE0F900FBE0F901F9018958081F3
:100D3000F2CF0F931F93CF93DF93E5E6F2E0138298
:100D4000128288EE93E0A0E0B0E084839583A683CE
:100D5000B78382E192E09183808385EC90E0958770
:100D6000848784EC90E09787868780EC90E0918B75
:100D7000808B81EC90E0938B828B82EC90E0958B62
:100D8000848B86EC90E0978B868B118E128E138E5F
:100D9000148E109203038CE00E94E80187E00E9409
:100DA000E80188E00E94E80184E00E94E8011092D6
:100DB00002030E94930260E087E00E940702E4E0E1
:100DC000F3E088EC90E09183808382E08283138655
:100DD0000E94930285E00E94E80186E00E94E801FB
:100DE00061E085E00E94070261E086E00E94070260
:100DF000E0EAF0E0808181688083C9E0C093A100CF
:100E000008EA10E0F8011182108286E00E94E801F1
:100E1000E0E9F0E0808181688083C0939100C8E9B7
:100E2000D0E01982188285E00E94E8018FEF90E0FF
:100E3000F8019183808399838883DF91CF911F91FB
:100E40000F910895CF93DF93CDB7DEB7E5970FB637
:100E5000F894DEBF0FBECDBF789484B5826084BDA8
:100E600084B5816084BD85B5826085BD85B58160AE
:100E700085BD80916E00816080936E00109281002C
:100E800080918100826080938100809181008160E7
:100E900080938100809180008160809380008091A8
:100EA000B10084608093B1008091B0008160809334
:100EB000B0008091910082608093910080919100B8
:100EC0008160809391008091900081608093900078
:100ED0008091A10082608093A1008091A100816037
:100EE0008093A1008091A00081608093A0008091F8
:100EF0002101826080932101809121018160809392
:100F000021018091200181608093200180917A00ED
:100F1000846080937A0080917A00826080937A0066
:100F200080917A00816080937A0080917A00806855
:100F300080937A001092C100E0917502F0917602E0
:100F400082E08083E0917102F09172021082E09160
:100F50007302F091740280E1808310927D02E0912F
:100F60007902F0917A0286E08083E0917702F09135
:100F70007802808180618083E0917702F09178022D
:100F8000808188608083E0917702F091780280818F
:100F900080688083E0917702F091780280818F7D74
:100FA00080830E94160360934A0270934B028093E1
:100FB0004C0290934D020E9416036093500270936E
:100FC000510280935202909353020E941603609341
:100FD00058027093590280935A0290935B020E94C8
:100FE00016036093460270934702809348029093E1
:100FF00049020FEF10E080910702882309F4E7C04F
:101000000E9416038090580290905902A0905A02B4
:10101000B0905B02681979098A099B0964367105E9
:101020008105910508F4D3C02091540230915502F6
:101030008091040290910502289F7001299FF00C75
:10104000389FF00C11246091070370910803809180
:10105000090390910A0328EE33E040E050E00E943B
:10106000EB0E49015A012B013C0121E0E21AF10883
:1010700008F4A3C090910603913009F442C0923065
:1010800009F056C050E440E831E020E280910F03BF
:1010900083FF3CC0885F80930F0380910F038F73A1
:1010A00080930F039130A1F510938900009388007D
:1010B00010939D0000939C00722F732B642F652B5F
:1010C000972F962B9095809102039823909302037B
:1010D000E0910F03F0E083E0F595E7958A95E1F75D
:1010E000E830F10518F58827E758F74F8F4F0C9433
:1010F0000D0FDB089308D208D108D408D608D80809
:10110000DA0850E148E032E024E0C0CF805FC3CF8E
:10111000923091F61093A9000093A80010939900C3
:1011200000939800C9CF972B909302030E949302DB
:10113000C501B4010E94E30280910B0390910C035E
:10114000A0910D03B0910E03840D951DA61DB71D32
:1011500080930B0390930C03A0930D03B0930E03A5
:10116000883E9340A105B10508F47FCF61E070E0AF
:1011700080E090E00E94E30280910B0390910C03C9
:10118000A0910D03B0910E03885E9340A109B109AF
:1011900080930B0390930C03A0930D03B0930E0365
:1011A00064CF342B932BC0CF942BBECF962BBCCFC8
:1011B000952BBACF252B922BB7CF0E9416036093A5
:1011C00058027093590280935A0290935B020E94D6
:1011D00016038090500290905102A0905202B0905D
:1011E0005302681979098A099B09643671058105DA
:1011F000910518F180917B00886080937B0080E4EA
:1012000080937C0080917A00806480937A00809142
:101210007A0086FDFCCF80917800909179009093C0
:101220004F0280934E020E94160360935002709307
:10123000510280935202909353020E9416038090B1
:101240004A0290904B02A0904C02B0904D02681957
:1012500079098A099B09693873418105910508F468
:10126000F5C00E9416030E94D60D20E030E64AE643
:1012700057E40E94820F4B015C0160910002709163
:10128000010280910202909103020E94D60D20E09B
:1012900030E64AE657E40E94820F9B01AC01C5018B
:1012A000B4010E94150FAB01BC01CE0142960E9411
:1012B000B9050E9416030E94D60D20E030E64AE6EA
:1012C00057E40E94820F4B015C01609146027091CD
:1012D000470280914802909149020E94D60D20E079
:1012E00030E64AE657E40E94820F9B01AC01C5013B
:1012F000B4010E94150FAB01BC01CE0148960E94BB
:10130000B90580910402909105021F8E1E8E19A2CC
:1013100018A21BA21AA24AE0BE016F5F7F4F0E9473
:101320005B0BBE016F5F7F4FCE014E960E94590549
:1013300060914E0270914F0290E080E00E94D60DC5
:1013400020E030E040EA5BE30E94130E20E030E44E
:101350004CE956E40E94130E0E94F40FCE01019650
:101360000E94630560910702CE0184960E948F055A
:1013700060910602CE01C0960E948F051BA61AA698
:101380001DA61CA61FA61EA668A979A96115710530
:1013900031F04CA95DA9CE018A960E94380563E21E
:1013A00072E0CE018A960E940F05BE016C5D7F4FF0
:1013B0000E94250563E272E00E940F05BE016F5F87
:1013C0007F4F0E94250563E272E00E940F05BE0177
:1013D000625E7F4F0E94250563E272E00E940F0566
:1013E000BE01685E7F4F0E94250563E272E00E94A5
:1013F0000F05BE016E5E7F4F0E9425050E944F03C0
:10140000CE018A960E94B304CE01C0960E94B30416
:10141000CE0184960E94B304CE0101960E94B304CB
:10142000CE014E960E94B304CE0148960E94B304AA
:10143000CE0142960E94B3040E94160360934A02B2
:1014400070934B0280934C0290934D0285E692E09C
:101450000E94CB03181619060CF07AC085E692E0BC
:101460000E947703F82E0E949903FC0197FD7BC030
:101470008D32910521F0C0970A9708F06CC0812C3D
:10148000912C5401E12CE130F105D9F0ED32F10558
:1014900009F466C0CF01C0970A9798F4AAE0B0E0BB
:1014A000A50194010E94D10E4F01FF0FAA08BB08AD
:1014B000860E971EA81EB91E80E3881A9108A108FF
:1014C000B10885E692E00E9477030E949903FC012F
:1014D000C0970A97C0F2E130F105A9F2EE2041F081
:1014E000B094A09490948094811C911CA11CB11C78
:1014F00023E7F216E1F184E7F81609F459C02DE666
:10150000F2126CC09092050280920402A091040332
:10151000B0910503A5019401442755270E94D10EDF
:101520009B01AC0160E077E883E993E00E94EB0E59
:1015300020930703309308034093090350930A0351
:1015400010920B0310920C0310920D0310920E03D5
:101550000E94700450CD85E692E00E94770383CF0D
:10156000EE24E394AECF812C912C5401C1CF809214
:101570000702882059F00E941603609300027093BE
:1015800001028093020290930302E2CF809106034E
:10159000813041F480910203817E809302030E9496
:1015A0009302D6CF8230A1F6809102038E71F5CFDF
:1015B00020E63AEE829EC001839E900D929E900D91
:1015C0001124092E000CAA0BBB0B8093540290939C
:1015D0005502A0935602B0935702BACF8EEF809374
:1015E0000602B401CE0101960E9463051B8A1A8A85
:1015F0001D8A1C8A1F8A1E8AF88E198EBE01685E9B
:101600007F4FCE0142960E945905198E188E1B8E6F
:101610001A8E1D8E1C8E48E150E065E272E0CE010C
:1016200048960E943805BE016E5E7F4FCE014896F7
:101630000E9425056EE372E00E940F05BE016F5FF8
:101640007F4F0E9425050E944F03CE0148960E94BD
:10165000B304CE0142960E94B304CE0101960E94CB
:10166000B30476CFEF920F931F93CF93DF93E801EC
:1016700034E047FD34E1042E000C550B57FF03C046
:10168000519541955109E32E022F242FAE010E945E
:10169000750BCE01DF91CF911F910F91EF900895BF
:1016A000BB274A3031F4992322F4BDE2909581950D
:1016B0009F4F0C945C0BBB27FB015527AA27880F73
:1016C000991FAA1FA41710F0A41B83955051B9F7B6
:1016D000A05DAA3308F0A95DA193009779F7B11135
:1016E000B1931192CB010C94C60D8F929F92AF9241
:1016F000BF92CF92DF92EF92FF920F931F93CF93FF
:10170000DF9300D000D000D0CDB7DEB76A01F22E53
:10171000B02E102FFBE3AF2EA01608F41BE31F5FC3
:10172000012F27E0AE014F5F5F4F0E94EE0CBC011E
:101730008981982F9970913009F44EC09BE2E1FCA9
:1017400004C09E2D9170E0FC49C05E2D5071E82FC1
:10175000E87083FF55C084E0911101C083E0EF2D54
:10176000E81B8F1508F0E0E0D6018E2F20E255230C
:10177000C9F1992329F0D6019C93C60101966C0109
:1017800096012D5F3F4FE2FE33C08EE4D6018C936D
:1017900091E411969C93119712968C93D9018E2FF8
:1017A00090E281112AC0E20FF32FF11D10828EEF1B
:1017B0009FEF29960FB6F894DEBF0FBECDBFDF9125
:1017C000CF911F910F91FF90EF90DF90CF90BF903E
:1017D000AF909F908F9008959DE2B7CF90E2B5CFE4
:1017E0002D9381508111FCCFCE0ED11CE0E0C1CFF2
:1017F0008EE6D6018C9391E6CCCF9D938150D1CFCC
:10180000482F447082FF3DC084E0911101C083E005
:101810008F1510F4EF2DE81BD6018E2F20E25523F3
:1018200009F1992329F0D6019C93C60101966C0118
:1018300096012D5F3F4FE2FE1BC089E4D6018C93D9
:101840008EE411968C93119786E412968C93D901AD
:101850008E2F90E2882309F4A6CF9D938150FACF72
:101860002D9381508111FCCFCE0ED11CE0E0D9CF59
:1018700089E6D6018C938EE611968C93119786E6B5
:10188000E4CF9B0177FF02C030E020E0A1E0B0E0B0
:10189000911102C0B0E0A0E0F9013196AE0FBF1F78
:1018A0008B2C912CBB2009F461C05401EFEFAE1AD0
:1018B000BE0AAA0DBB1DFA161B0619F014F04F2D17
:1018C0004A1B511188C0E3FC59C07601A42FB0E235
:1018D000A1114FC0C40ED11C992309F45BC040E094
:1018E000D6011196F60190836D01552309F448C085
:1018F000012F060F9A81582F507184FF03C0913336
:1019000009F4015010160CF047C0093008F008E047
:10191000EEE2FE2E5B01A01AB1088501919481943C
:1019200091082F3F320729F4D601FC92F601319637
:101930006F016217730794F1021713077CF5DB013F
:10194000A21BB30BAA24A394B12CAC0EBD1EAA0DEE
:10195000BB1D11968C9121503109D6011196281585
:101960003905F4F0F60180836D01DBCFB12CA12C99
:10197000A0CFF701B1937F01A150AACF9111B0CFB1
:10198000D601942F50E302C05D9391509111FCCF8A
:10199000C40ED11C40E0ACCF01E0BACF80E3DBCF76
:1019A0006217730731F4963388F4953311F4552395
:1019B00069F0F6018083FD01842F90E2811108C057
:1019C000A40FB11D1C9290E080E0F3CE81E3F1CF33
:1019D00091938150F3CF911183CF8ACF283008F0B3
:1019E00027E03327DA01990F311D87FD91600096BA
:1019F0006105710539F432602E5F3D9330E32A951D
:101A0000E1F708959F3F30F080387105610509F0D6
:101A10003C5F3C5F3D93913008F08068911DDF93FF
:101A2000CF931F930F93FF92EF92192F987F969564
:101A3000E92F96959695E90FFF27EE53FE4F9927CC
:101A40003327EE24FF24A701E701059008940794AB
:101A500028F4360FE71EF81E491F511D660F771F29
:101A6000881F991F0694A1F70590079428F4E70EA4
:101A7000F81E491F561FC11D770F881F991F661F2B
:101A80000694A1F70590079428F4F80E491F561FF5
:101A9000C71FD11D880F991F661F771F0694A1F7D6
:101AA0000590079420F4490F561FC71FD81F990FA0
:101AB000661F771F881F0694A9F7849110951770E9
:101AC00041F0D695C79557954795F794E7941A95A1
:101AD000C1F7E8E6F1E068941590159135916591AC
:101AE000959105907FE27395E118F10A430B560B2F
:101AF000C90BD009C0F7E10CF11E431F561FC91FC7
:101B0000D01D7EF4703311F48A95E6CFE89401502D
:101B100030F0080F0AF40027021708F4202F23954D
:101B2000022F7A3328F079E37D932A95E9F710C0E4
:101B30007D932A9589F6069497956795379517951D
:101B40001794E118F10A430B560BC90BD00998F012
:101B500023957E9173957A3308F070E37C9320137C
:101B6000B8F77E9170617D9330F0839571E37D933A
:101B700070E32A95E1F71124EF90FF900F911F91E8
:101B8000CF91DF91992787FD90950895DC01FC01A5
:101B9000672F71917723E1F7329704C07C916D93A1
:101BA00070836291AE17BF07C8F30895E89409C027
:101BB00097FB3EF490958095709561957F4F8F4F80
:101BC0009F4F9923A9F0F92F96E9BB279395F69596
:101BD000879577956795B795F111F8CFFAF4BB0F14
:101BE00011F460FF1BC06F5F7F4F8F4F9F4F16C078
:101BF000882311F096E911C0772321F09EE8872F02
:101C0000762F05C0662371F096E8862F70E060E0BD
:101C10002AF09A95660F771F881FDAF7880F969536
:101C2000879597F908950E94260E0C94970E0E94AE
:101C3000890E38F00E94900E20F0952311F00C943C
:101C4000800E0C94860E11240C94CB0E0E94A80ECC
:101C500070F3959FC1F3950F50E0551F629FF001FF
:101C6000729FBB27F00DB11D639FAA27F00DB11D18
:101C7000AA1F649F6627B00DA11D661F829F2227A1
:101C8000B00DA11D621F739FB00DA11D621F839F28
:101C9000A00D611D221F749F3327A00D611D231FFE
:101CA000849F600D211D822F762F6A2F11249F574C
:101CB00050409AF0F1F088234AF0EE0FFF1FBB1F4F
:101CC000661F771F881F91505040A9F79E3F51050E
:101CD00080F00C94800E0C94CB0E5F3FE4F3983EA2
:101CE000D4F3869577956795B795F795E7959F5FB8
:101CF000C1F7FE2B880F911D9695879597F908954A
:101D000097F99F6780E870E060E008959FEF80ECAE
:101D1000089500240A941616170618060906089551
:101D200000240A9412161306140605060895092EB7
:101D30000394000C11F4882352F0BB0F40F4BF2B26
:101D400011F460FF04C06F5F7F4F8F4F9F4F089566
:101D500057FD9058440F551F59F05F3F71F047955C
:101D6000880F97FB991F61F09F3F79F08795089541
:101D7000121613061406551FF2CF4695F1DF08C060
:101D8000161617061806991FF1CF8695710561057D
:101D900008940895E894BB2766277727CB0197F925
:101DA00008950E94DC0EA59F900DB49F900DA49FF6
:101DB000800D911D11240895A29FB001B39FC00111
:101DC000A39F700D811D1124911DB29F700D811D67
:101DD0001124911D0895A1E21A2EAA1BBB1BFD011F
:101DE0000DC0AA1FBB1FEE1FFF1FA217B307E407FA
:101DF000F50720F0A21BB30BE40BF50B661F771F52
:101E0000881F991F1A9469F7609570958095909531
:101E10009B01AC01BD01CF010895EE0FFF1F881F8C
:101E20008BBF0790F691E02D19945058BB27AA2735
:101E30000E942D0F0C94970E0E94890E38F00E947C
:101E4000900E20F039F49F3F19F426F40C94860E7E
:101E50000EF4E095E7FB0C94800EE92F0E94A80E8B
:101E600058F3BA17620773078407950720F079F4CF
:101E7000A6F50C94CA0E0EF4E0950B2EBA2FA02DE9
:101E80000B01B90190010C01CA01A0011124FF2727
:101E9000591B99F0593F50F4503E68F11A16F04022
:101EA000A22F232F342F4427585FF3CF4695379521
:101EB0002795A795F0405395C9F77EF41F16BA0BE6
:101EC000620B730B840BBAF09150A1F0FF0FBB1F94
:101ED000661F771F881FC2F70EC0BA0F621F731FDD
:101EE000841F48F4879577956795B795F7959E3F3A
:101EF00008F0B0CF9395880F08F09927EE0F9795CB
:101F0000879508950E94960F0C94970E0E94900E4C
:101F100058F00E94890E40F029F45F3F29F00C949C
:101F2000800E51110C94CB0E0C94860E0E94A80EBC
:101F300068F39923B1F3552391F3951B550BBB27F8
:101F4000AA2762177307840738F09F5F5F4F220F3D
:101F5000331F441FAA1FA9F335D00E2E3AF0E0E834
:101F600032D091505040E695001CCAF72BD0FE2F7E
:101F700029D0660F771F881FBB1F26173707480712
:101F8000AB07B0E809F0BB0B802DBF01FF279358CA
:101F90005F4F3AF09E3F510578F00C94800E0C9400
:101FA000CB0E5F3FE4F3983ED4F386957795679523
:101FB000B795F7959F5FC9F7880F911D96958795FF
:101FC00097F90895E1E0660F771F881FBB1F62171E
:101FD00073078407BA0720F0621B730B840BBA0BDC
:101FE000EE1F88F7E09508950E94FB0F6894B111E9
:101FF0000C94CB0E08950E94B00E88F09F5798F075
:10200000B92F9927B751B0F0E1F0660F771F881FFD
:10201000991F1AF0BA95C9F714C0B13091F00E9417
:10202000CA0EB1E008950C94CA0E672F782F882746
:10203000B85F39F0B93FCCF3869577956795B3953E
:10204000D9F73EF490958095709561957F4F8F4FAD
:102050009F4F08950F931F93CF93DF938230910585
:1020600010F482E090E0E0911203F091130330E06D
:1020700020E0B0E0A0E0309799F42115310509F493
:102080004AC0281B390B24303105D8F58A819B8141
:102090006115710589F1FB0193838283FE0111C0F3
:1020A000408151810281138148175907E0F0481798
:1020B000590799F4109761F012960C9312971396A2
:1020C0001C933296CF01DF91CF911F910F9108950C
:1020D0000093120310931303F4CF2115310551F02F
:1020E0004217530738F0A901DB019A01BD01DF0156
:1020F000F801C1CFEF01F9CF90931303809312033E
:10210000CDCFFE01E20FF31F81939193225031094D
:1021100039832883D7CF2091100330911103232BCB
:1021200041F420910A0230910B0230931103209365
:10213000100320910802309109022115310541F464
:102140002DB73EB740910C0250910D02241B350B68
:10215000E0911003F0911103E217F307A0F42E1B96
:102160003F0B2817390778F0AC014E5F5F4F2417FB
:10217000350748F04E0F5F1F509311034093100333
:10218000819391939FCFF0E0E0E09CCFCF93DF93DA
:102190000097E9F0FC01329713821282A09112039A
:1021A000B0911303ED0130E020E01097A1F42081FD
:1021B0003181820F931F2091100330911103281752
:1021C000390709F061C0F0931103E0931003DF9128
:1021D000CF910895EA01CE17DF07E8F54A815B81C8
:1021E0009E0141155105B1F7E901FB83EA8349914D
:1021F0005991C40FD51FEC17FD0761F480819181BF
:102200000296840F951FE9019983888382819381C7
:102210009B838A83F0E0E0E012968D919C91139766
:102220000097B9F52D913C911197CD010296820F3F
:10223000931F20911003309111032817390739F6A5
:10224000309751F51092130310921203B0931103BB
:10225000A0931003BCCFD383C28340815181840FEC
:10226000951FC817D90761F44E5F5F4F8881998128
:10227000480F591F518340838A819B8193838283B6
:102280002115310509F0B0CFF0931303E093120349
:102290009ECFFD01DC01C0CF13821282D7CF4F92B7
:1022A0005F926F927F928F929F92AF92BF92CF92E6
:1022B000DF92EF92FF920F931F93CF93DF938C01E6
:1022C000009799F4CB01DF91CF911F910F91FF906F
:1022D000EF90DF90CF90BF90AF909F908F907F90C6
:1022E0006F905F904F900C942A10FC01E60FF71F3F
:1022F0009C0122503109E217F30708F4AEC0D9015E
:10230000CD91DC911197C617D70720F1C530D105C3
:1023100078F0CE0104978617970750F0C61BD70BAD
:102320002297C193D1936D937C93CF010E94C610E5
:10233000C801DF91CF911F910F91FF90EF90DF9037
:10234000CF90BF90AF909F908F907F906F905F9055
:102350004F9008955B01AC1ABD0A4C018C0E9D1E76
:10236000A0911203B0911303512C412CF12CE12CBC
:10237000109731F5809110039091110388159905FC
:1023800009F05CC04616570608F058C08091080254
:1023900090910902009741F48DB79EB740910C02CD
:1023A00050910D02841B950BE817F90708F055C0F2
:1023B000F0931103E0931003F90171836083B8CFA8
:1023C0008D919C91119712966C90129713967C9018
:1023D0001397A815B90559F56C0142E0C40ED11C3C
:1023E000CA14DB0420F1AC014A195B09DA01129628
:1023F000159780F06282738251834083D9016D9377
:102400007C93E114F10471F0D7011396FC93EE93E1
:1024100012978ECF22968C0F9D1FF9019183808396
:10242000F301EFCFF0931303E093120381CF48162B
:10243000590608F42C017D01D3019ACFCB010E94EB
:102440002A107C01009749F0AE01B8010E943012B9
:10245000C8010E94C61087016BCF10E000E068CF72
:10246000FB01DC0102C001900D9241505040D8F7B1
:102470000895FB01DC0101900D920020E1F7089521
:04248000F894FFCFFE
:10248400640000000A000100000014038000000042
:1024940000000304220368035004CB0377038B0377
:1024A4000D0A002C002D322C2057726F6E67206DA0
:1024B40065737361676521206B65793A20002C2070
:0624C40076616C3A200075
:00000001FF
