:100000000C9438010C9469010C9469010C946901F9
:100010000C9469010C9469010C9469010C946901B8
:100020000C9469010C9469010C9469010C946901A8
:100030000C9469010C9469010C9469010C94690198
:100040000C9469010C9469010C9469010C94690188
:100050000C9469010C9469010C9469010C946F056E
:100060000C9469010C94E3050C94B9050C94690196
:100070000C9469010C9469010C9469010C94690158
:100080000C9469010C9469010C9469010C94690148
:100090000C9469010C9469010C9469010C94690138
:1000A0000C9469010C9469010C9469010C94690128
:1000B0000C9469010C9469010C9469010C94690118
:1000C0000C9469010C9469010C9469010C94690108
:1000D0000C9469010C9469010C9469010C946901F8
:1000E0000C9469010C94D3030C944E030C94E60118
:1000F0000C94EB020C94FA020C940E030C94F8018D
:100100000C94E0010C948F080C948D080C94100250
:100110000C948B080C9486030C9490080C940C029D
:100120000C9419060C9486080C94A5020C94D10129
:100130000C94D9010C94BA010C94FE010C94F401B6
:100140000C9448080C94DD010C9487080C9406026A
:100150000C94BF010C94F0010C94D5010C94EA01AD
:100160000C9489080C94020200000A0B02090C0D81
:100170000E0807030401000000000000000000005A
:10018000000000000000000000000000000000006F
:10019000000000001211100000000000000000002C
:1001A000000000000000000000000000000000004F
:1001B0002200250028002B002E003100340002010F
:1001C0000000050108010B010000210024002700A8
:1001D0002A002D0030003300010100000401070156
:1001E0000A010505050507050808080802020202BC
:1001F0000A0A0808040404040101010101010101C3
:100200000303030303030303040707070C0C0C0C8D
:100210000C0C0C0C02020202060606060606060676
:100220000B0B0B0B0B0B0B0B010210202008081003
:100230002040102040800201020108040201010256
:10024000040810204080804020100804020180042F
:10025000020180402010080402010804020101028A
:100260000408102040800102040810204080190674
:1002700011241FBECFEFD1E2DEBFCDBF00E00CBF27
:1002800023E0AEE8B2E001C01D92AC35B207E1F761
:1002900012E0A0E0B2E0EEE1FDE100E00BBF02C041
:1002A00007900D92AE38B107D9F711E0C8E3D1E05D
:1002B00000E006C021970109802FFE010E94340C46
:1002C000C733D10780E00807A9F70E94A2060C9463
:1002D0008D0E0C94000090E0FC01E85DFD4F249130
:1002E0008E519E4FFC018491882399F090E0880FF5
:1002F000991FFC01E853FE4FA591B491FC01E25512
:10030000FE4F859194918FB7F894EC91E22BEC938A
:100310008FBF0895282F30E0F901E859FE4F9491DE
:10032000F901E85DFD4F44912E513E4FF9012491B2
:10033000222309F435C0992311F191509231F8F438
:10034000E92FF0E08827E855FE4F8F4F0C94340CCE
:10035000D901DD01BA01D101D501BF01E001E601FA
:10036000EA01F001F401F801FE010202BF010602F8
:100370000C021002809180008F7780938000E22F22
:10038000F0E0EE0FFF1FE255FE4FA591B4918FB73D
:10039000F894EC91611148C040954E234C938FBF67
:1003A0000895809180008F7DE8CF80918000877FC5
:1003B000E4CF84B58F7784BDE2CF84B58F7DFBCF4A
:1003C0008091B0008F778093B000D9CF8091B0003A
:1003D0008F7DF9CF809190008F7780939000CFCF61
:1003E000809190008F7DF9CF80919000877FF5CF2D
:1003F0008091A0008F778093A000C1CF8091A00052
:100400008F7DF9CF8091A000877FF5CF809120016B
:100410008F7780932001B3CF809120018F7DF9CF1A
:1004200080912001877FF5CF4E2BB8CFCF93DF93FC
:1004300060E08CE00E948A0160E088E00E948A010E
:10044000C7E0D0E060E084E00E948A0180914A0326
:1004500090E00C2E02C0959587950A94E2F761E032
:1004600080FF60E088E00E948A0161E084E00E94F1
:100470008A01219738F761E08CE0DF91CF910C94ED
:100480008A013FB7F8948091A9029091AA02A091A5
:10049000AB02B091AC0226B5A89B05C02F3F19F066
:1004A0000196A11DB11D3FBFBA2FA92F982F8827F4
:1004B000BC01CD01620F711D811D911D42E0660FCF
:1004C000771F881F991F4A95D1F708958F929F92A1
:1004D000AF92BF92CF92DF92EF92FF926B017C01BD
:1004E0000E9441024B015C01C114D104E104F104FA
:1004F000B9F00E944102681979098A099B09683E8E
:1005000073408105910580F321E0C21AD108E1080A
:10051000F10888EE880E83E0981EA11CB11CE4CF80
:10052000FF90EF90DF90CF90BF90AF909F908F9013
:1005300008952FB7F8946091A5027091A60280915A
:10054000A7029091A8022FBF0895AF92BF92CF92B9
:10055000DF92EF92FF920F931F93CF93DF936C0183
:100560007B018B01040F151FEB015E01AE18BF0864
:10057000C017D10759F06991D601ED91FC91019016
:10058000F081E02DC6011995892B79F7C501DF911E
:10059000CF911F910F91FF90EF90DF90CF90BF9080
:1005A000AF900895CF93DF93FC0144815581608122
:1005B00071818DEA92E00E94A502EC0142E050E0D8
:1005C00060E272E08DEA92E00E94A5028C0F9D1F0E
:1005D000DF91CF910895FC01538D448D252F30E09C
:1005E000842F90E0821B930B541710F0CF96089540
:1005F00001970895FC01918D828D981761F0A28D6D
:10060000AE0FBF2FB11D5D968C91928D9F5F9F7332
:10061000928F90E008958FEF9FEF0895FC01918DE8
:10062000828D981731F0828DE80FF11D858D90E055
:1006300008958FEF9FEF08950F931F930E949902E3
:100640006093B5027093B6028093B7029093B8029C
:100650008DEA92E00E940E0397FF1DC00E9499024E
:100660000091B5021091B6022091B7023091B80204
:10067000601B710B820B930B0091B1021091B202BF
:100680002091B3023091B40260177107820793077B
:10069000F8F28FEF9FEF1F910F910895FC01918D5C
:1006A000228D892F90E0805C9F4F821B91098F7370
:1006B000992708958DEA92E00E944E0321E0892B4C
:1006C00009F420E0822F0895FC01A48DA80FB92F12
:1006D000B11DA35ABF4F2C91848D90E001968F736A
:1006E0009927848FA689B7892C93A089B1898C9189
:1006F000837080648C93938D848D981306C00288D8
:10070000F389E02D80818F7D80830895EF92FF92A1
:100710000F931F93CF93DF93EC0181E0888F9B8D24
:100720008C8D98131AC0E889F989808185FF15C0DE
:100730009FB7F894EE89FF896083E889F989808101
:100740008370806480839FBF81E090E0DF91CF91D0
:100750001F910F91FF90EF900895F62E0B8D10E0F2
:100760000F5F1F4F0F731127E02E8C8D8E110CC061
:100770000FB607FCFACFE889F989808185FFF5CFAC
:10078000CE010E946403F1CFEB8DEC0FFD2FF11D24
:10079000E35AFF4FF0829FB7F8940B8FEA89FB89E9
:1007A00080818062CFCFCF93DF93EC01888D882347
:1007B000B9F0AA89BB89E889F9898C9185FD03C0C4
:1007C000808186FD0DC00FB607FCF7CF8C9185FFA9
:1007D000F2CF808185FFEDCFCE010E946403E9CF87
:1007E000DF91CF91089580E090E0892B29F00E945D
:1007F0005A0381110E94000080E090E0892B49F0AB
:1008000080E090E0892B29F00E94000081110E9475
:10081000000080E090E0892B49F080E090E0892B97
:1008200029F00E94000081110E94000080E090E009
:10083000892B49F080E090E0892B29F00E9400008C
:1008400081110C94000008950F931F93CF93DF93B1
:10085000EC0188819981009759F02A813B81261704
:10086000370730F081E0DF91CF911F910F9108950C
:100870008B016F5F7F4F0E94970D009759F099830E
:1008800088831B830A832C813D81232B59F7FC012C
:100890001082E8CF80E0E7CFEF92FF920F931F9393
:1008A000CF93DF936115710541F480E0DF91CF9123
:1008B0001F910F91FF90EF90089541155105B1F0F0
:1008C0007B01EC010C811D81040F151FB8010E94F2
:1008D0002404882351F3288139818C819D81B701BB
:1008E000820F931F0E94860E1D830C8381E0DECF52
:1008F000CF93DF93EC0188819981009711F00E94DA
:100900000E0D198218821D821C821B821A82DF91B1
:10091000CF910895EF92FF920F931F93CF93DF93A0
:10092000EC017B01198218821B821A821D821C82B3
:10093000FB0101900020E9F731978F01061B170B8F
:10094000B8010E942404811109C0CE01DF91CF912A
:100950001F910F91FF90EF900C9478041D830C83EE
:10096000B70188819981DF91CF911F910F91FF90FD
:10097000EF900C94860EEF92FF920F931F93CF93FC
:10098000DF938C017B01EB0109900020E9F72197AF
:10099000C61BD70BBE010E942404811109C0C801E7
:1009A000DF91CF911F910F91FF90EF900C947804FD
:1009B000F801D583C483B70180819181DF91CF9104
:1009C0001F910F91FF90EF900C94860E0F931F9341
:1009D000CF93DF93CDB7DEB762970FB6F894DEBF43
:1009E0000FBECDBF8C01CB01F801118210821382A2
:1009F0001282158214824AE0BE016F5F7F4F0E940F
:100A0000A60ABE016F5F7F4FC8010E94BB046296B9
:100A10000FB6F894DEBF0FBECDBFDF91CF911F910F
:100A20000F9108950F931F93CF93DF93CDB7DEB748
:100A300061970FB6F894DEBF0FBECDBF8C01CB011E
:100A4000F8011182108213821282158214824AE008
:100A5000BE016F5F7F4F0E94D30ABE016F5F7F4F61
:100A6000C8010E94BB0461960FB6F894DEBF0FBEAA
:100A7000CDBFDF91CF911F910F910895CF93DF9359
:100A8000EC01FB0101900020E9F73197AF01461B13
:100A9000570B0E944C04811103C0CE010E947804C0
:100AA000CE01DF91CF910895CF93DF93EC01FB014D
:100AB00044815581608171810E944C04811103C081
:100AC000CE010E947804CE01DF91CF910895FC0100
:100AD00080819181009711F00C940E0D08951F9262
:100AE0000F920FB60F9211242F933F938F939F93E2
:100AF000AF93BF938091A5029091A602A091A70207
:100B0000B091A8023091A40223E0230F2D3758F5AD
:100B10000196A11DB11D2093A4028093A50290937C
:100B2000A602A093A702B093A8028091A902909177
:100B3000AA02A091AB02B091AC020196A11DB11D19
:100B40008093A9029093AA02A093AB02B093AC0247
:100B5000BF91AF919F918F913F912F910F900FBEB9
:100B60000F901F90189526E8230F0296A11DB11D26
:100B7000D2CF1F920F920FB60F9211240BB60F9285
:100B80002F933F934F935F936F937F938F939F9395
:100B9000AF93BF93EF93FF938DEA92E00E946403BB
:100BA000FF91EF91BF91AF919F918F917F916F9145
:100BB0005F914F913F912F910F900BBE0F900FBE01
:100BC0000F901F9018951F920F920FB60F9211243D
:100BD0000BB60F922F938F939F93EF93FF93E09118
:100BE000BD02F091BE028081E091C302F091C40287
:100BF00082FD1DC090818091C6028F5F8F7320910E
:100C0000C702821741F0E091C602F0E0E355FD4FC4
:100C1000958F8093C602FF91EF919F918F912F91B5
:100C20000F900BBE0F900FBE0F901F9018958081F4
:100C3000F2CF0F931F93CF93DF93EDEAF2E013828D
:100C4000128288EE93E0A0E0B0E084839583A683CF
:100C5000B78382E192E09183808385EC90E0958771
:100C6000848784EC90E09787868780EC90E0918B76
:100C7000808B81EC90E0938B828B82EC90E0958B63
:100C8000848B86EC90E0978B868B118E128E138E60
:100C9000148E10924B038CE00E946B0187E00E943F
:100CA0006B0188E00E946B0184E00E946B0110924E
:100CB0004A030E94160260E087E00E948A01ECE489
:100CC000F3E088EC90E09183808382E08283138656
:100CD0000E94160285E00E946B0186E00E946B0173
:100CE00061E085E00E948A0161E086E00E948A015D
:100CF000E0EAF0E0808181688083C9E0C093A100D0
:100D000008EA10E0F8011182108286E00E946B016F
:100D1000E0E9F0E0808181688083C0939100C8E9B8
:100D2000D0E01982188285E00E946B018FEF90E07D
:100D3000F8019183808399838883DF91CF911F91FC
:100D40000F910895CF93DF93CDB7DEB7AD970FB670
:100D5000F894DEBF0FBECDBF789484B5826084BDA9
:100D600084B5816084BD85B5826085BD85B58160AF
:100D700085BD80916E00816080936E00109281002D
:100D800080918100826080938100809181008160E8
:100D900080938100809180008160809380008091A9
:100DA000B10084608093B1008091B0008160809335
:100DB000B0008091910082608093910080919100B9
:100DC0008160809391008091900081608093900079
:100DD0008091A10082608093A1008091A100816038
:100DE0008093A1008091A00081608093A0008091F9
:100DF0002101826080932101809121018160809393
:100E000021018091200181608093200180917A00EE
:100E1000846080937A0080917A00826080937A0067
:100E200080917A00816080937A0080917A00806856
:100E300080937A001092C100E091BD02F091BE0251
:100E400082E08083E091B902F091BA021082E091D1
:100E5000BB02F091BC0280E180831092C502E09158
:100E6000C102F091C20286E08083E091BF02F0915E
:100E7000C002808180618083E091BF02F091C00256
:100E8000808188608083E091BF02F091C002808100
:100E900080688083E091BF02F091C00280818F7DE5
:100EA00080830E94990260939202709393028093D0
:100EB0009402909395020E94990260939802709315
:100EC000990280939A0290939B020E9499026093E8
:100ED000A0027093A1028093A2029093A3020E94A9
:100EE000990260938E0270938F0280939002909388
:100EF00091020FEF10E098EE292E93E0392E0E9418
:100F00009902C090A002D090A102E090A202F090BD
:100F1000A3026C197D098E099F096536710581054B
:100F2000910508F409C180910702882309F430C2B1
:100F3000C0900202D0900302E0900402F0900502FB
:100F40000E94990280909C0290909D02A0909E0227
:100F5000B0909F02C61AD70AE80AF90AC814D90441
:100F6000EA04FB0408F4E8C0C0900002D09001023B
:100F7000A0914C03B0914D0396010E94030C9B017C
:100F8000AC0160E077E883E993E00E94120C2093C3
:100F90004F033093500340935103509352031092E8
:100FA0005303109254031092550310925603C89C99
:100FB0007001C99CF00CD89CF00C1124CA01B90135
:100FC00028EE33E040E050E00E94120C49015A0143
:100FD0002B013C0121E0E21AF10808F4A3C0909132
:100FE0004E03913009F442C0923009F056C050E4EB
:100FF00040E831E020E28091570383FF3CC0885FE6
:1010000080935703809157038F73809357039130D8
:10101000A1F5109389000093880010939D00009320
:101020009C00722F732B642F652B972F962B909516
:1010300080914A03982390934A03E0915703F0E08C
:1010400083E0F595E7958A95E1F7E830F10518F525
:101050008827E25DF74F8F4F0C94340C90084808B6
:101060008708860889088B088D088F0850E148E0BA
:1010700032E024E0C0CF805FC3CF923091F610936E
:10108000A9000093A8001093990000939800C9CF7D
:10109000972B90934A030E941602C501B4010E9447
:1010A00066028091530390915403A0915503B0912F
:1010B0005603840D951DA61DB71D80935303909371
:1010C0005403A0935503B0935603883E9340A10563
:1010D000B10508F47FCF61E070E080E090E00E940D
:1010E00066028091530390915403A0915503B091EF
:1010F0005603885E9340A109B109809353039093EE
:101100005403A0935503B093560364CF342B932B11
:10111000C0CF942BBECF962BBCCF952BBACF252B0F
:10112000922BB7CF0E9499026093A0027093A10204
:101130008093A2029093A3020E949902C090980209
:10114000D0909902E0909A02F0909B026C197D0970
:101150008E099F09653671058105910518F1809109
:101160007B00886080937B0080E480937C0080918A
:101170007A00806480937A0080917A0086FDFCCFAB
:1011800080917800909179009093970280939602D5
:101190000E949902609398027093990280939A0238
:1011A00090939B020E949902C0909202D090930269
:1011B000E0909402F09095026C197D098E099F09C8
:1011C000693873418105910508F450C06091960219
:1011D0007091970290E080E00E94FD0A20E030E0EC
:1011E00040EA5BE30E943A0B20E030E44CE956E42D
:1011F0000E943A0B0E943C0CCE0101960E94E6042C
:101200006091960270919702CE0182960E9412051B
:1012100063E272E0CE0188960E948A04BE016E5D90
:101220007F4FCE0188960E9454056FE272E00E94C3
:101230003E05BE016F5F7F4F0E9454050E94D2029F
:10124000CE0188960E946705CE0182960E946705AE
:10125000CE0101960E9467050E9499026093920256
:101260007093930280939402909395020E94990246
:10127000C0908E02D0908F02E0909002F090910288
:101280006C197D098E099F096536710581059105E7
:1012900008F4D0C08DEA92E00E944E0302970CF44D
:1012A000C9C08DEA92E00E94FA02B82E0E941C0387
:1012B000FC0197FD77C08D32910521F0C0970A9708
:1012C00008F068C0C12CD12C7601A12CE130F105C9
:1012D000D9F0ED32F10509F462C0CF01C0970A9749
:1012E00098F4AAE0B0E0A70196010E94F80B6F0104
:1012F000FF0FEE08FF08C60ED71EE81EF91E80E39A
:10130000C81AD108E108F1088DEA92E00E94FA02B9
:101310000E941C03FC01C0970A97C0F2E130F1055E
:10132000A9F2AA2041F0F094E094D094C094C11C9A
:10133000D11CE11CF11CB60123E7B216B9F184E718
:10134000B81609F47DC02DE6B212CAC0D0920102CF
:10135000C0920002CE0101960E9412056AE372E07B
:10136000CE0182960E948A04BE016F5F7F4FCE013C
:1013700082960E9454056AE472E00E943E050E9433
:10138000D202CE0182960E946705CE010196A5C0C9
:101390000E94780E8DEA92E00E94FA0287CFAA247A
:1013A000A394B2CFC12CD12C7601C5CF6130710589
:1013B00009F043C081E080930702CE0101960E94AC
:1013C000E6046091070270E0CE0182960E94E60476
:1013D0006FE472E0CE0188960E948A04BE016E5DC1
:1013E0007F4FCE0188960E94540566E872E00E9405
:1013F0003E05BE016F5F7F4F0E9454050E94D202DE
:10140000CE0188960E946705CE0182960E946705EC
:10141000CE0101960E94670580910702882351F052
:101420000E94990260930202709303028093040267
:10143000909305020E94F30362CD10920702BDCF84
:101440002CE32C9DC0012D9D900D1124829DB00197
:10145000839D700D929D700D1124072E000C880B3A
:10146000990B60939C0270939D0280939E029093CF
:101470009F021BA21AA21DA21CA21FA21EA220E64E
:101480003AEE40E050E00E94120CCA01B9012AE095
:10149000AE014F5F5F4F0E94B10ABE016F5F7F4F89
:1014A000CE0182960E94BB046AE572E0CE010196ED
:1014B0000E948A04BE016E5D7F4FCE0101960E949C
:1014C000540567E672E00E943E050E94D202CE01FA
:1014D00001960E946705CE0182960E946705AACFF9
:1014E00010920602CE0101960E94E6041BA21AA2E7
:1014F0001DA21CA21FA21EA2B8A619A6BE01685D4D
:101500007F4FCE0182960E94BB046CE672E0CE0152
:1015100088960E948A04BE016E5D7F4FCE01889638
:101520000E94540565E872E00E943E05BE016F5FAF
:101530007F4F0E9454050E94D202CE0188960E94DD
:101540006705CE0182960E9467051FCFBB274A30F0
:1015500031F4992322F4BDE2909581959F4F0C942C
:10156000D40ABB27FA01A62F6217710581059105E0
:10157000330B30FB66F0AA27660F771F881F991F71
:10158000AA1FA21710F0A21B63953850A9F7A05DFF
:10159000AA3308F0A95DA19336F7B111B193108277
:1015A000CA010C94ED0ABB27FB015527AA27880F17
:1015B000991FAA1FA41710F0A41B83955051B9F7C7
:1015C000A05DAA3308F0A95DA193009779F7B11146
:1015D000B1931192CB010C94ED0ADC01FC01672F51
:1015E00071917723E1F7329704C07C916D937083FA
:1015F0006291AE17BF07C8F30895E89409C097FB3E
:101600003EF490958095709561957F4F8F4F9F4FD9
:101610009923A9F0F92F96E9BB279395F69587951D
:1016200077956795B795F111F8CFFAF4BB0F11F4E0
:1016300060FF1BC06F5F7F4F8F4F9F4F16C0882387
:1016400011F096E911C0772321F09EE8872F762FBD
:1016500005C0662371F096E8862F70E060E02AF0FE
:101660009A95660F771F881FDAF7880F96958795EA
:1016700097F908950E944D0B0C94BE0B0E94B00B7D
:1016800038F00E94B70B20F0952311F00C94A70BB3
:101690000C94AD0B11240C94F20B0E94CF0B70F341
:1016A000959FC1F3950F50E0551F629FF001729F07
:1016B000BB27F00DB11D639FAA27F00DB11DAA1F16
:1016C000649F6627B00DA11D661F829F2227B00D63
:1016D000A11D621F739FB00DA11D621F839FA00DEE
:1016E000611D221F749F3327A00D611D231F849F3E
:1016F000600D211D822F762F6A2F11249F57504095
:101700009AF0F1F088234AF0EE0FFF1FBB1F661F0F
:10171000771F881F91505040A9F79E3F510580F0D8
:101720000C94A70B0C94F20B5F3FE4F3983ED4F3B8
:10173000869577956795B795F795E7959F5FC1F77C
:10174000FE2B880F911D9695879597F9089597F927
:101750009F6780E870E060E008959FEF80EC089557
:1017600000240A9416161706180609060895002480
:101770000A9412161306140605060895092E0394FA
:10178000000C11F4882352F0BB0F40F4BF2B11F46E
:1017900060FF04C06F5F7F4F8F4F9F4F089557FDCD
:1017A0009058440F551F59F05F3F71F04795880FCF
:1017B00097FB991F61F09F3F79F087950895121666
:1017C00013061406551FF2CF4695F1DF08C0161612
:1017D00017061806991FF1CF8695710561050894C3
:1017E0000895E894BB2766277727CB0197F90895DA
:1017F0000E94030CA59F900DB49F900DA49F800D97
:10180000911D11240895A29FB001B39FC001A39F11
:10181000700D811D1124911DB29F700D811D112429
:10182000911D0895A1E21A2EAA1BBB1BFD010DC03C
:10183000AA1FBB1FEE1FFF1FA217B307E407F50780
:1018400020F0A21BB30BE40BF50B661F771F881F5C
:10185000991F1A9469F760957095809590959B01F2
:10186000AC01BD01CF010895EE0FFF1F881F8BBF94
:101870000790F691E02D19940E94430C6894B111E1
:101880000C94F20B08950E94D70B88F09F5798F0A4
:10189000B92F9927B751B0F0E1F0660F771F881F75
:1018A000991F1AF0BA95C9F714C0B13091F00E948F
:1018B000F10BB1E008950C94F10B672F782F882776
:1018C000B85F39F0B93FCCF3869577956795B395B6
:1018D000D9F73EF490958095709561957F4F8F4F25
:1018E0009F4F08950F931F93CF93DF9382309105FD
:1018F00010F482E090E0E0915A03F0915B0330E055
:1019000020E0B0E0A0E0309799F42115310509F40A
:101910004AC0281B390B24303105D8F58A819B81B8
:101920006115710589F1FB0193838283FE0111C06A
:10193000408151810281138148175907E0F048170F
:10194000590799F4109761F012960C931297139619
:101950001C933296CF01DF91CF911F910F91089583
:1019600000935A0310935B03F4CF2115310551F016
:101970004217530738F0A901DB019A01BD01DF01CD
:10198000F801C1CFEF01F9CF90935B0380935A0325
:10199000CDCFFE01E20FF31F8193919322503109C5
:1019A00039832883D7CF2091580330915903232BB3
:1019B00041F420910A0230910B0230935903209395
:1019C000580320910802309109022115310541F494
:1019D0002DB73EB740910C0250910D02241B350BE0
:1019E000E0915803F0915903E217F307A0F42E1B7E
:1019F0003F0B2817390778F0AC014E5F5F4F241773
:101A0000350748F04E0F5F1F50935903409358031A
:101A1000819391939FCFF0E0E0E09CCFCF93DF9351
:101A20000097E9F0FC01329713821282A0915A03C9
:101A3000B0915B03ED0130E020E01097A1F420812C
:101A40003181820F931F2091580330915903281739
:101A5000390709F061C0F0935903E0935803DF910F
:101A6000CF910895EA01CE17DF07E8F54A815B813F
:101A70009E0141155105B1F7E901FB83EA834991C4
:101A80005991C40FD51FEC17FD0761F48081918136
:101A90000296840F951FE90199838883828193813F
:101AA0009B838A83F0E0E0E012968D919C911397DE
:101AB0000097B9F52D913C911197CD010296820FB7
:101AC000931F20915803309159032817390739F68D
:101AD000309751F510925B0310925A03B09359035B
:101AE000A0935803BCCFD383C28340815181840F1C
:101AF000951FC817D90761F44E5F5F4F88819981A0
:101B0000480F591F518340838A819B81938382832D
:101B10002115310509F0B0CFF0935B03E0935A0330
:101B20009ECFFD01DC01C0CF13821282D7CF4F922E
:101B30005F926F927F928F929F92AF92BF92CF925D
:101B4000DF92EF92FF920F931F93CF93DF938C015D
:101B5000009799F4CB01DF91CF911F910F91FF90E6
:101B6000EF90DF90CF90BF90AF909F908F907F903D
:101B70006F905F904F900C94720CFC01E60FF71F72
:101B80009C0122503109E217F30708F4AEC0D901D5
:101B9000CD91DC911197C617D70720F1C530D1053B
:101BA00078F0CE0104978617970750F0C61BD70B25
:101BB0002297C193D1936D937C93CF010E940E0D18
:101BC000C801DF91CF911F910F91FF90EF90DF90AF
:101BD000CF90BF90AF909F908F907F906F905F90CD
:101BE0004F9008955B01AC1ABD0A4C018C0E9D1EEE
:101BF000A0915A03B0915B03512C412CF12CE12CA4
:101C0000109731F5809158039091590388159905E3
:101C100009F05CC04616570608F058C080910802CB
:101C200090910902009741F48DB79EB740910C0244
:101C300050910D02841B950BE817F90708F055C069
:101C4000F0935903E0935803F90171836083B8CF8F
:101C50008D919C91119712966C90129713967C908F
:101C60001397A815B90559F56C0142E0C40ED11CB3
:101C7000CA14DB0420F1AC014A195B09DA0112969F
:101C8000159780F06282738251834083D9016D93EE
:101C90007C93E114F10471F0D7011396FC93EE9359
:101CA00012978ECF22968C0F9D1FF901918380830E
:101CB000F301EFCFF0935B03E0935A0381CF481613
:101CC000590608F42C017D01D3019ACFCB010E9463
:101CD000720C7C01009749F0AE01B8010E947D0EA4
:101CE000C8010E940E0D87016BCF10E000E068CFA5
:101CF00081E090E0F8940C948D0EFB01DC0102C0B1
:101D000001900D9241505040D8F70895FB01DC013D
:0E1D100001900D920020E1F70895F894FFCFA6
:101D1E000A0064000000010000005C038000000067
:101D2E0000008603A502EB02D3034E03FA020E0354
:101D3E000D0A004144432076616C75653A200020FF
:101D4E00566F6C746167653A2000312C206D6F748C
:101D5E006F7253706565643A20002072706D0031A9
:101D6E002C2073746172743A2000312C2072756EBF
:101D7E0054696D653A2000206D696E002D322C205D
:101D8E0057726F6E67206D65737361676521206B87
:0E1D9E0065793A20002C2076616C3A20000016
:00000001FF
