:100000000C9438010C9469010C9469010C946901F9
:100010000C9469010C9469010C9469010C946901B8
:100020000C9469010C9469010C9469010C946901A8
:100030000C9469010C9469010C9469010C94690198
:100040000C9469010C9469010C9469010C94690188
:100050000C9469010C9469010C9469010C94CD0312
:100060000C9469010C9441040C9417040C946901DC
:100070000C9469010C9469010C9469010C94690158
:100080000C9469010C9469010C9469010C94690148
:100090000C9469010C9469010C9469010C94690138
:1000A0000C9469010C9469010C9469010C94690128
:1000B0000C9469010C9469010C9469010C94690118
:1000C0000C9469010C9469010C9469010C94690108
:1000D0000C9469010C9469010C9469010C946901F8
:1000E0000C9469010C9406020C94BA010C94E90278
:1000F0000C94D1010C94C6020C947C030C94F8016E
:100100000C94EA010C94E6010C94F7020C940C0296
:100110000C9483060C94D9010C94BF010C94D50166
:100120000C947F060C947B060C94DD010C942F0339
:100130000C9481060C94FE010C9402020C9477043A
:100140000C94F0010C947D060C947A060C94100229
:100150000C9499020C94D5020C943C060C94E0018A
:100160000C94F4010C94840600000A0B02090C0D97
:100170000E0807030401000000000000000000005A
:10018000000000000000000000000000000000006F
:10019000000000001211100000000000000000002C
:1001A000000000000000000000000000000000004F
:1001B0002200250028002B002E003100340002010F
:1001C0000000050108010B010000210024002700A8
:1001D0002A002D0030003300010100000401070156
:1001E0000A010505050507050808080802020202BC
:1001F0000A0A0808040404040101010101010101C3
:100200000303030303030303040707070C0C0C0C8D
:100210000C0C0C0C02020202060606060606060676
:100220000B0B0B0B0B0B0B0B010210202008081003
:100230002040102040800201020108040201010256
:10024000040810204080804020100804020180042F
:10025000020180402010080402010804020101028A
:100260000408102040800102040810204080770418
:1002700011241FBECFEFD1E2DEBFCDBF00E00CBF27
:1002800012E0A0E0B2E0E4E9FDE000E00BBF02C054
:1002900007900D92A231B107D9F722E0A2E1B2E0B6
:1002A00001C01D92A63CB207E1F711E0C8E3D1E01E
:1002B00000E006C021970109802FFE010E94B106CF
:1002C000C733D10780E00807A9F70E9400050C9406
:1002D000C8060C94000090E0FC01E85DFD4F2491FD
:1002E0008E519E4FFC018491882399F090E0880FF5
:1002F000991FFC01E853FE4FA591B491FC01E25512
:10030000FE4F859194918FB7F894EC91E22BEC938A
:100310008FBF0895282F30E0F901E859FE4F9491DE
:10032000F901E85DFD4F44912E513E4FF9012491B2
:10033000222309F435C0992311F191509231F8F438
:10034000E92FF0E08827E855FE4F8F4F0C94B10657
:10035000D901DD01BA01D101D501BF01E001E601FA
:10036000EA01F001F401F801FE010202BF010602F8
:100370000C021002809180008F7780938000E22F22
:10038000F0E0EE0FFF1FE255FE4FA591B4918FB73D
:10039000F894EC91611148C040954E234C938FBF67
:1003A0000895809180008F7DE8CF80918000877FC5
:1003B000E4CF84B58F7784BDE2CF84B58F7DFBCF4A
:1003C0008091B0008F778093B000D9CF8091B0003A
:1003D0008F7DF9CF809190008F7780939000CFCF61
:1003E000809190008F7DF9CF80919000877FF5CF2D
:1003F0008091A0008F778093A000C1CF8091A00052
:100400008F7DF9CF8091A000877FF5CF809120016B
:100410008F7780932001B3CF809120018F7DF9CF1A
:1004200080912001877FF5CF4E2BB8CFCF93DF93FC
:1004300060E08CE00E948A0160E088E00E948A010E
:10044000C7E0D0E060E084E00E948A018091B802B9
:1004500090E00C2E02C0959587950A94E2F761E032
:1004600080FF60E088E00E948A0161E084E00E94F1
:100470008A01219738F761E08CE0DF91CF910C94ED
:100480008A013FB7F8948091170290911802A091C9
:100490001902B0911A0226B5A89B05C02F3F19F08A
:1004A0000196A11DB11D3FBFBA2FA92F982F8827F4
:1004B000BC01CD01620F711D811D911D42E0660FCF
:1004C000771F881F991F4A95D1F708958F929F92A1
:1004D000AF92BF92CF92DF92EF92FF926B017C01BD
:1004E0000E9441024B015C01C114D104E104F104FA
:1004F000B9F00E944102681979098A099B09683E8E
:1005000073408105910580F321E0C21AD108E1080A
:10051000F10888EE880E83E0981EA11CB11CE4CF80
:10052000FF90EF90DF90CF90BF90AF909F908F9013
:100530000895AF92BF92CF92DF92EF92FF920F9306
:100540001F93CF93DF936C017B018B01040F151F69
:10055000EB015E01AE18BF08C017D10759F06991D1
:10056000D601ED91FC910190F081E02DC601199525
:10057000892B79F7C501DF91CF911F910F91FF90E2
:10058000EF90DF90CF90BF90AF900895FC01538D16
:10059000448D252F30E0842F90E0821B930B54175D
:1005A00010F0CF96089501970895FC01918D828DEA
:1005B000981761F0A28DAE0FBF2FB11D5D968C9183
:1005C000928D9F5F9F73928F90E008958FEF9FEFC2
:1005D0000895FC01918D828D981731F0828DE80F7E
:1005E000F11D858D90E008958FEF9FEF0895FC0138
:1005F000918D228D892F90E0805C9F4F821B910905
:100600008F73992708958BE192E00E94F70221E011
:10061000892B09F420E0822F0895FC01A48DA80FF6
:10062000B92FB11DA35ABF4F2C91848D90E0019634
:100630008F739927848FA689B7892C93A089B18954
:100640008C91837080648C93938D848D981306C0F5
:100650000288F389E02D80818F7D80830895EF9259
:10066000FF920F931F93CF93DF93EC0181E0888F6C
:100670009B8D8C8D98131AC0E889F989808185FF3C
:1006800015C09FB7F894EE89FF896083E889F989DE
:1006900080818370806480839FBF81E090E0DF91E0
:1006A000CF911F910F91FF90EF900895F62E0B8D33
:1006B00010E00F5F1F4F0F731127E02E8C8D8E11EE
:1006C0000CC00FB607FCFACFE889F989808185FF55
:1006D000F5CFCE010E940D03F1CFEB8DEC0FFD2F76
:1006E000F11DE35AFF4FF0829FB7F8940B8FEA8910
:1006F000FB8980818062CFCFCF93DF93EC01888D1F
:100700008823B9F0AA89BB89E889F9898C9185FD8C
:1007100003C0808186FD0DC00FB607FCF7CF8C911A
:1007200085FFF2CF808185FFEDCFCE010E940D03C2
:10073000E9CFDF91CF91089580E090E0892B29F0F7
:100740000E94030381110E94000080E090E0892B49
:1007500049F080E090E0892B29F00E94000081118F
:100760000E94000080E090E0892B49F080E090E05A
:10077000892B29F00E94000081110E94000080E076
:1007800090E0892B49F080E090E0892B29F00E94CD
:10079000000081110C94000008951F920F920FB673
:1007A0000F9211242F933F938F939F93AF93BF93F7
:1007B0008091130290911402A0911502B09116023B
:1007C0003091120223E0230F2D3758F50196A11D19
:1007D000B11D209312028093130290931402A093F0
:1007E0001502B09316028091170290911802A09101
:1007F0001902B0911A020196A11DB11D8093170232
:1008000090931802A0931902B0931A02BF91AF916E
:100810009F918F913F912F910F900FBE0F901F903E
:10082000189526E8230F0296A11DB11DD2CF1F9265
:100830000F920FB60F9211240BB60F922F933F9386
:100840004F935F936F937F938F939F93AF93BF93D8
:10085000EF93FF938BE192E00E940D03FF91EF91E4
:10086000BF91AF919F918F917F916F915F914F91C8
:100870003F912F910F900BBE0F900FBE0F901F90C6
:1008800018951F920F920FB60F9211240BB60F926C
:100890002F938F939F93EF93FF93E0912B02F0910F
:1008A0002C028081E0913102F091320282FD1DC064
:1008B0009081809134028F5F8F732091350282176F
:1008C00041F0E0913402F0E0E55EFD4F958F8093BA
:1008D0003402FF91EF919F918F912F910F900BBE5A
:1008E0000F900FBE0F901F9018958081F2CF0F933D
:1008F0001F93CF93DF93EBE1F2E01382128288EE35
:1009000093E0A0E0B0E084839583A683B78384E07E
:1009100092E09183808385EC90E09587848784ECD6
:1009200090E09787868780EC90E0918B808B81ECBC
:1009300090E0938B828B82EC90E0958B848B86EC9D
:1009400090E0978B868B118E128E138E148E1092E0
:10095000B9028CE00E946B0187E00E946B0188E085
:100960000E946B0184E00E946B011092B8020E9409
:10097000160260E087E00E948A01EAEBF2E088EC70
:1009800090E09183808382E0828313860E94160226
:1009900085E00E946B0186E00E946B0161E085E0CA
:1009A0000E948A0161E086E00E948A01E0EAF0E0AC
:1009B000808181688083C9E0C093A10008EA10E0CB
:1009C000F8011182108286E00E946B01E0E9F0E0FC
:1009D000808181688083C0939100C8E9D0E019824A
:1009E000188285E00E946B018FEF90E0F8019183FF
:1009F000808399838883DF91CF911F910F91089510
:100A0000789484B5826084BD84B5816084BD85B5E9
:100A1000826085BD85B5816085BD80916E008160F5
:100A200080936E001092810080918100826080939B
:100A3000810080918100816080938100809180009D
:100A40008160809380008091B10084608093B100C8
:100A50008091B00081608093B000809191008260AD
:100A600080939100809191008160809391008091AA
:100A700090008160809390008091A10082608093BB
:100A8000A1008091A10081608093A1008091A000CD
:100A900081608093A0008091210182608093210178
:100AA00080912101816080932101809120018160EA
:100AB0008093200180917A00846080937A008091F5
:100AC0007A00826080937A0080917A0081608093BE
:100AD0007A0080917A00806880937A001092C10039
:100AE000E0912B02F0912C0282E08083E0912702BA
:100AF000F09128021082E0912902F0912A0280E10F
:100B0000808310923302E0912F02F091300286E050
:100B10008083E0912D02F0912E028081806180839C
:100B2000E0912D02F0912E02808188608083E09117
:100B30002D02F0912E02808180688083E0912D0249
:100B4000F0912E0280818F7D80832091BA023091B6
:100B5000BB02AAE0B0E00E94B9069B01AC0160E0D4
:100B600077E883E993E00E948F062093BD023093DB
:100B7000BE024093BF025093C0021092C102109275
:100B8000C2021092C3021092C40298EE492E93E062
:100B9000592E612C712CCFEFD0E06091BD02709185
:100BA000BE028091BF029091C002A30192010E94F7
:100BB0008F0669017A014B015C0101E513EC0150DC
:100BC000110909F4A3C09091BC02913009F442C00C
:100BD000923009F056C050E440E831E020E28091C4
:100BE000C50283FF3CC0885F8093C5028091C50227
:100BF0008F738093C5029130A1F5D0938900C09383
:100C00008800D0939D00C0939C00722F732B642F9B
:100C1000652B962F972B90958091B80298239093EF
:100C2000B802E091C502F0E083E0F595E7958A957A
:100C3000E1F7E830F10518F58827EE5DF94F8F4FA1
:100C40000C94B10684063C067B067A067D067F0678
:100C50008106830650E148E032E024E0C0CF805FA7
:100C6000C3CF923091F6D093A900C093A800D0933F
:100C70009900C0939800C9CF972B9093B8020E9417
:100C80001602C701B6010E9466028091C1029091CE
:100C9000C202A091C302B091C402880D991DAA1D81
:100CA000BB1D8093C1029093C202A093C302B09374
:100CB000C402883E9340A105B10508F480CF61E0ED
:100CC00070E080E090E00E9466028091C102909105
:100CD000C202A091C302B091C402885E9340A109F0
:100CE000B1098093C1029093C202A093C302B09352
:100CF000C40265CF342B932BC0CF942BBECF962B41
:100D0000BCCF952BBACF252B922BB7CF64E170E0E7
:100D100080E090E00E9466020E949C033ECFA1E228
:100D20001A2EAA1BBB1BFD010DC0AA1FBB1FEE1F65
:100D3000FF1FA217B307E407F50720F0A21BB30BB0
:100D4000E40BF50B661F771F881F991F1A9469F72C
:100D500060957095809590959B01AC01BD01CF0188
:100D60000895EE0FFF1F881F8BBF0790F691E02DAF
:100D70001994A29FB001B39FC001A39F700D811D64
:100D80001124911DB29F700D811D1124911D089594
:040D9000F894FFCF05
:100D9400000000002F039902C6027C03F702D5026B
:020DA400E90262
:00000001FF
