:100000000C942A010C944E010C944E010C944E0158
:100010000C944E010C944E010C944E010C944E0124
:100020000C944E010C944E010C944E010C944E0114
:100030000C944E010C944E010C944E010C944E0104
:100040000C944E010C944E010C944E010C944E01F4
:100050000C944E010C944E010C944E010C947E02B3
:100060000C944E010C944E010C944E010C944E01D4
:100070000C944E010C944E010C944E010C944E01C4
:100080000C944E010C944E010C944E010C944E01B4
:100090000C944E010C944E010C944E010C944E01A4
:1000A0000C944E010C944E010C944E010C944E0194
:1000B0000C944E010C944E010C944E010C944E0184
:1000C0000C944E010C944E010C944E010C944E0174
:1000D0000C944E010C944E010C944E010C944E0164
:1000E0000C944E010C94EB010C94CB010C946F0416
:1000F0000C94F1010C94BE010C9477040C947504DB
:100100000C9471040C9478040C94F5010C94C201C5
:100110000C9473040C94D5010C94B6010C94300427
:100120000C946E040C94DD010C949F010C94BA01A4
:100130000C94CF010C94E3010C94E7010C94A401FE
:100140000C94C8020C94C5010C94D90100000A0B50
:1001500002090C0D0E080703040100000000000056
:10016000000000000000000000000000000000008F
:10017000000000000000000012111000000000004C
:10018000000000000000000000000000000000006F
:10019000000000002200250028002B002E00310066
:1001A000340002010000050108010B0100002100DC
:1001B000240027002A002D00300033000101000038
:1001C000040107010A0105050505070508080808D7
:1001D000020202020A0A08080404040401010101DF
:1001E00001010101030303030303030304070707DA
:1001F0000C0C0C0C0C0C0C0C02020202060606067F
:10020000060606060B0B0B0B0B0B0B0B010210204B
:10021000200808102040102040800201020108043C
:1002200002010102040810204080804020100804D0
:100230000201800402018040201008040201080429
:10024000020101020408102040800102040810206D
:100250004080C80211241FBECFEFD1E2DEBFCDBF68
:1002600000E00CBF22E0A0E0B2E001C01D92A73187
:10027000B207E1F711E0CAE2D1E000E006C0219741
:100280000109802FFE010E94A304C932D10780E03A
:100290000807A9F70E9425030C94BA040C940000E7
:1002A00090E0FC01E45FFD4F24918A539E4FFC01D6
:1002B0008491882399F090E0880F991FFC01E45500
:1002C000FE4FA591B491FC01EE56FE4F859194919D
:1002D0008FB7F894EC91E22BEC938FBF0895282F01
:1002E00030E0F901E45BFE4F9491F901E45FFD4FCA
:1002F00044912A533E4FF9012491222309F435C039
:10030000992311F191509231F8F4E92FF0E0882708
:10031000E357FE4F8F4F0C94A304BE01C2019F010F
:10032000B601BA01A401C501CB01CF01D501D901A4
:10033000DD01E301E701A401EB01F101F501809189
:1003400080008F7780938000E22FF0E0EE0FFF1F98
:10035000EE56FE4FA591B4918FB7F894EC916111D0
:1003600048C040954E234C938FBF089580918000E4
:100370008F7DE8CF80918000877FE4CF84B58F7731
:1003800084BDE2CF84B58F7DFBCF8091B0008F77A5
:100390008093B000D9CF8091B0008F7DF9CF80914C
:1003A00090008F7780939000CFCF809190008F7DC9
:1003B000F9CF80919000877FF5CF8091A0008F7753
:1003C0008093A000C1CF8091A0008F7DF9CF809154
:1003D000A000877FF5CF809120018F778093200147
:1003E000B3CF809120018F7DF9CF80912001877F4D
:1003F000F5CF4E2BB8CFCF93DF9360E08CE00E9417
:100400006F0160E088E00E946F01C7E0D0E060E02B
:1004100084E00E946F018091090290E00C2E02C0DE
:10042000959587950A94E2F761E080FF60E088E0A7
:100430000E946F0161E084E00E946F01219738F70C
:1004400061E08CE0DF91CF910C946F013FB7F8949D
:100450008091050290910602A0910702B0910802D6
:1004600026B5A89B05C02F3F19F00196A11DB11D0F
:100470003FBFBA2FA92F982F8827BC01CD01620F4B
:10048000711D811D911D42E0660F771F881F991F06
:100490004A95D1F708958F929F92AF92BF92CF92D3
:1004A000DF92EF92FF926B017C010E9426024B01CA
:1004B0005C01C114D104E104F104B9F00E942602E8
:1004C000681979098A099B09683E7340810591057D
:1004D00080F321E0C21AD108E108F10888EE880E05
:1004E00083E0981EA11CB11CE4CFFF90EF90DF9039
:1004F000CF90BF90AF909F908F9008951F920F92D2
:100500000FB60F9211242F933F938F939F93AF9326
:10051000BF938091010290910202A0910302B091D9
:1005200004023091000223E0230F2D3758F5019685
:10053000A11DB11D2093000280930102909302023D
:10054000A0930302B09304028091050290910602E9
:10055000A0910702B09108020196A11DB11D8093E0
:10056000050290930602A0930702B0930802BF9180
:10057000AF919F918F913F912F910F900FBE0F9050
:100580001F90189526E8230F0296A11DB11DD2CF0A
:100590000F931F93CF93DF9310920A028CE00E9477
:1005A000500187E00E94500188E00E94500184E0E1
:1005B0000E945001109209020E94FB0160E087E056
:1005C0000E946F01EBE0F2E088EC90E09183808381
:1005D00082E0828313860E94FB0185E00E94500125
:1005E00086E00E94500161E085E00E946F0161E0B9
:1005F00086E00E946F01E0EAF0E0808181688083FC
:10060000C9E0C093A10008EA10E0F801118210824D
:1006100086E00E945001E0E9F0E0808181688083FB
:10062000C0939100C8E9D0E01982188285E00E9449
:1006300050018FEF90E0F801918380839983888344
:10064000DF91CF911F910F910895789484B58260C6
:1006500084BD84B5816084BD85B5826085BD85B566
:10066000816085BD80916E00816080936E001092E4
:10067000810080918100826080938100809181005F
:1006800081608093810080918000816080938000F0
:100690008091B10084608093B1008091B00081604E
:1006A0008093B0008091910082608093910080914E
:1006B000910081608093910080919000816080938F
:1006C00090008091A10082608093A1008091A100A0
:1006D00081608093A1008091A00081608093A00040
:1006E00080912101826080932101809121018160AC
:1006F000809321018091200181608093200180916D
:100700007A00846080937A0080917A00826080937E
:100710007A0080917A00816080937A0080917A00DB
:10072000806880937A001092C10020910B02309172
:100730000C02AAE0B0E00E94AB049B01AC0160E0B7
:1007400077E883E993E00E94810420930E023093BE
:100750000F02409310025093110210921202109255
:100760001302109214021092150298EE492E93E093
:10077000592E612C712CCFEFD0E020E0222E20E00A
:10078000322E60910E0270910F02809110029091B2
:100790001102A30192010E94810469017A014B01B7
:1007A0005C0101E513EC0150110909F4A3C090911B
:1007B0000D02913009F442C0923009F056C050E465
:1007C00040E831E020E28091160283FF3CC0885F60
:1007D00080931602809116028F73809316029130D7
:1007E000A1F5D0938900C0938800D0939D00C09359
:1007F0009C00622F632B742F752B972F962B90954F
:1008000080910902982390930902E0911602F0E08A
:1008100083E0F595E7958A95E1F7E830F10518F55D
:100820008827EA5EFB4F8F4F0C94A30478043004B2
:100830006F046E04710473047504770450E148E09A
:1008400032E024E0C0CF805FC3CF923091F6D093E6
:10085000A900C093A800D0939900C0939800C9CF75
:10086000962B909309020E94FB01C701B6010E94DA
:100870004B028091120290911302A0911402B09148
:100880001502880D991DAA1DBB1D8093120290931D
:100890001302A0931402B0931502883E9340A10561
:1008A000B10508F480CF61E070E080E090E00E9444
:1008B0004B028091120290911302A0911402B09108
:1008C0001502885E9340A109B109809312029093AA
:1008D0001302A0931402B093150265CF342B932B0F
:1008E000C0CF942BBECF972BBCCF952BBACF252B47
:1008F000922BB7CF2114310409F443CF0E9400009A
:1009000040CFA1E21A2EAA1BBB1BFD010DC0AA1FDE
:10091000BB1FEE1FFF1FA217B307E407F50720F068
:10092000A21BB30BE40BF50B661F771F881F991FE3
:100930001A9469F760957095809590959B01AC012C
:10094000BD01CF010895EE0FFF1F881F8BBF0790D9
:10095000F691E02D1994A29FB001B39FC001A39F0F
:10096000700D811D1124911DB29F700D811D1124E8
:08097000911D0895F894FFCFDA
:00000001FF
